:100000000C9471010C9499010C9499010C94990130
:100010000C9499010C9499010C9499010C949901F8
:100020000C9499010C9499010C945F0D0C945E0A48
:100030000C9499010C9499010C9499010C949901D8
:100040000C9499010C9499010C9499010C949901C8
:100050000C9499010C9499010C9487080C94A604B3
:100060000C9499010C94B1030C948B030C9499019A
:100070000C9499010C9499010C9499010C94990198
:100080000C9499010C9499010C9499010C94990188
:100090000C9499010C9499010C9499010C94990178
:1000A0000C9499010C9499010C9499016364696E04
:1000B0006F70737578585B0073746172740A0020F6
:1000C000454E413A2025530A00204449523A202502
:1000D000530A00205354503A2025530A00204D4F14
:1000E000543A2025530A004F4B00205350493A20E0
:1000F00025530A00544D43323133302C2061786946
:100100007320256420646961670A005541525420B8
:10011000627269646765207465726D696E61746589
:10012000640A0025640A00554152542062726964D1
:10013000676520737461727465642C2070726573D6
:100140007320616E7920627574746F6E20746F20F5
:1001500073746F700A0052455345540A006C6F6106
:1001600064656420696E207072696E7465720A003D
:100170006F6B0A00276F6B272073656E640A00554A
:100180006E6B6E6F776E20636F6D6D616E643A207B
:10019000222573220A00496E76616C6964206578B5
:1001A0007472756465722025640A00542D636F644F
:1001B00065207363616E6E65642065787472756422
:1001C00065723D25640A0054256400484F4D450082
:1001D000444941475F544D43256400444941475FCA
:1001E000554152543100554152545F42524944479F
:1001F00045005245534554006C696E652072656335
:1002000065697665643A20272573272025640A00EE
:10021000746D63323133305F77725F43484F5043C0
:100220004F4E46206F75743D30782530386C7820FD
:10023000696E3D30782530386C780A005349473074
:100240000A004E6577206578747275646572203A8D
:1002500025640A0043757272656E74206578747245
:1002600075646572203A25640A00080B00020202D8
:100270000100090400000102020000052400100131
:1002800005240101010424020605240600010705D6
:10029000810310004009040100020A000000070564
:1002A0000202400000070583024000000403090425
:1002B00012010002EF0201404123368000010102D9
:1002C000030141726475696E6F204C4C43004172AA
:1002D0006475696E6F204C656F6E6172646F0000AB
:1002E0007D1111241FBECFEFDAE0DEBFCDBF22E0CB
:1002F000ACE3B1E001C01D92AE39B207E1F711E005
:10030000A0E0B1E0E6EFFFE202C005900D92AC3351
:10031000B107D9F711E0C1E7D1E004C02197FE0190
:100320000E94EE17C037D107C9F70E94D10D0C9477
:10033000F9170C940000FC01538D448D252F30E0FB
:10034000842F90E0821B930B541710F0CF960895E2
:1003500001970895FC01918D828D981761F0828D2F
:10036000DF01A80FB11D5D968C91928D9F5F9F73E9
:10037000928F90E008958FEF9FEF0895FC01918D8B
:10038000828D981731F0828DE80FF11D858D90E0F8
:1003900008958FEF9FEF0895FC01918D228D892F95
:1003A00090E0805C9F4F821B91098F73992708957D
:1003B0008FE991E00E94CC0121E0892B09F420E033
:1003C000822F0895FC01848DDF01A80FB11DA35A6F
:1003D000BF4F2C91848D90E001968F739927848F65
:1003E000A689B7892C93A089B1898C9180648C935C
:1003F000938D848D981306C00288F389E02D808147
:100400008F7D80830895EF92FF920F931F93CF9378
:10041000DF93EC0181E0888F9B8D8C8D981305C054
:10042000E889F989808185FD24C0F62E0B8D10E0C6
:100430000F5F1F4F0F731127E02E8C8DE8120CC039
:100440000FB607FCFACFE889F989808185FFF5CFDF
:10045000CE010E94E201F1CF8B8DFE01E80FF11D6C
:10046000E35AFF4FF0820B8FEA89FB89808180621B
:1004700007C0EE89FF896083E889F98980818064FB
:10048000808381E090E0DF91CF911F910F91FF90E9
:10049000EF900895CF93DF93EC01888D8823C9F006
:1004A000EA89FB89808185FD05C0A889B9898C917D
:1004B00086FD0FC00FB607FCF5CF808185FFF2CF18
:1004C000A889B9898C9185FFEDCFCE010E94E20108
:1004D000E7CFDF91CF91089580E090E0892B29F05C
:1004E0000E94D80181110C9400000895CF93DF93EE
:1004F0001F92CDB7DEB76983DC01ED91FC910280DC
:10050000F381E02D41E050E0BE016F5F7F4F099520
:100510000F90DF91CF91089583E08093E90080915F
:10052000F200882319F08AE38093E8000895FC0123
:100530008485958597FD0BC09FB7F89482E08093E2
:10054000E9008091F2009FBF90E0019608959FB767
:10055000F89482E08093E9008091F2009FBF90E0E0
:100560000895089580E090E008958F929F92AF9251
:10057000BF92CF92DF92EF92FF920F931F93CF9390
:10058000DF935C016B017A0180910D01882309F4EE
:100590005BC080919E01882309F456C080919B0125
:1005A00080FF05C08091E00082608093E000E70159
:1005B00010E00AEF83E0882E9AE3992E2097D9F174
:1005C0000E943A0D81110AC0015009F43DC061E05A
:1005D00070E080E090E00E946C04F0CF282F30E0C3
:1005E000C217D3070CF48C2F4FB7F8948092E90010
:1005F0009091E80095FF1DC0282F30E0C21BD30B5F
:10060000F601982F915020F081918093F100FACF5C
:10061000C20ED31E112319F09092E80009C08091F8
:10062000E80085FD06C09092E80011E0209709F0EF
:1006300010E04FBFC3CF1111C3CF5D9884E6809304
:100640009C011E141F0444F081E090E0F5019383A7
:10065000828380E090E001C0C701DF91CF911F91BC
:100660000F91FF90EF90DF90CF90BF90AF909F9051
:100670008F9008950E943A0D90E00895CF93DF93F4
:100680001F92CDB7DEB7FC018485958597FD05C027
:100690002FEF3FEF358724870BC0CE0101960E94D4
:1006A000100D019719F4898190E002C08FEF9FEF40
:1006B0000F90DF91CF9108950F931F93CF93DF9306
:1006C0001F92CDB7DEB78C01FC018485958597FF1D
:1006D0000EC0CE0101960E94100D019719F42981D8
:1006E00030E002C02FEF3FEFF80135872487F80193
:1006F000848595850F90DF91CF911F910F9108957B
:100700008230910538F0880F991F880F991F05973F
:100710000197F1F708951F920F920FB60F921124CF
:100720002F933F934F935F936F937F938F939F93F9
:10073000AF93BF93EF93FF938FE991E00E94E201A3
:10074000FF91EF91BF91AF919F918F917F916F91A9
:100750005F914F913F912F910F900FBE0F901F907F
:1007600018951F920F920FB60F9211242F938F930B
:100770009F93EF93FF93E091AF01F091B0018081DF
:10078000E091B501F091B60182FD12C09081809197
:10079000B8018F5F8F732091B901821751F0E091FA
:1007A000B801F0E0E156FE4F958F8093B80101C08B
:1007B0008081FF91EF919F918F912F910F900FBEAC
:1007C0000F901F9018953FB7F894809191019091E8
:1007D0009201A0919301B091940126B5A89B05C008
:1007E0002F3F19F00196A11DB11D3FBFBA2FA92FB0
:1007F000982F8827820F911DA11DB11DBC01CD012D
:1008000042E0660F771F881F991F4A95D1F7089518
:100810000895CF92DF92EF92FF929CE59CBD1DBCA4
:10082000813039F020F0823029F4769803C0469860
:1008300001C05F986EBD0DB407FEFDCF9EB5C52EFD
:10084000DD24EE24FF24CEBC0DB407FEFDCF9EB503
:100850006A01EE24FF24CEBC0DB407FEFDCF9EB589
:10086000C32ED42EE52EFF24CEBC0DB407FEFDCF43
:100870009EB52EBD0DB407FEFDCF9EB5813039F07B
:1008800020F0823029F4769A03C0469A01C05F9A1C
:10089000FF90EF90DF90CF9008959091860121E036
:1008A00030E001C0220F8A95EAF72923822F809534
:1008B00098239093860181E0211101C080E0089582
:1008C0008FE991E00C94AA01682F8FE991E00E94D2
:1008D000030280E090E008958F929F92AF92BF92C2
:1008E000CF92DF92EF92FF926B017C010E94E303B3
:1008F0004B015C01C114D104E104F104F1F00E9448
:10090000E303DC01CB0188199909AA09BB09883ED8
:100910009340A105B10570F321E0C21AD108E108A6
:10092000F10888EE880E83E0981EA11CB11CC1144A
:10093000D104E104F10419F7DDCFFF90EF90DF90CF
:10094000CF90BF90AF909F908F9008951F920F927D
:100950000FB60F9211242F933F938F939F93AF93D2
:10096000BF9380918D0190918E01A0918F01B091E4
:10097000900130918C0123E0230F2D3720F4019654
:10098000A11DB11D05C026E8230F0296A11DB11DB2
:1009900020938C0180938D0190938E01A0938F0101
:1009A000B09390018091910190919201A091930157
:1009B000B09194010196A11DB11D80939101909376
:1009C0009201A0939301B0939401BF91AF919F9135
:1009D0008F913F912F910F900FBE0F901F90189500
:1009E00080918B0180FF0DC0F8948E7F80938B01E6
:1009F00078948CE392E09F938F930E941C120F9047
:100A00000F9080918B0181FF0EC0F8948D7F8093B1
:100A10008B01789480E00E944D0481E00E944D0497
:100A200082E00C944D040895CF92DF92EF92FF92F2
:100A30000F931F93CF93DF9300D000D0CDB7DEB7D5
:100A4000182F823021F000E1813019F413C004E145
:100A50001DC0813018F08230C9F024C022E030E09F
:100A600098E036952795232BF1F0915021E030E066
:100A7000C1F719C022E030E098E036952795232B86
:100A800091F0915021E030E0C1F70DC022E030E05C
:100A900098E036952795232B31F0915021E030E0F6
:100AA000C1F701C090E1892F8F70C82ED12CE12CA5
:100AB000F12CFC2CEE24DD24CC2423EDC22A23E0EF
:100AC000E22A6894F4F8A70196016CEE812F0E9447
:100AD000090419821A821B821C82AE014F5F5F4F8C
:100AE0006CE6812F0E94900C8C818F938B818F9369
:100AF0008A818F9389818F93FF92EF92DF92CF92B9
:100B000080E192E09F938F930E941C1289819A81C9
:100B1000AB81BC810FB6F894DEBF0FBECDBFC81647
:100B2000D906EA06FB0609F03FC0202F000F330B61
:100B3000322F2227C901330FAA0BBB0B9C01AD0139
:100B400020614F6060E9812F0E94090420E030E0BD
:100B5000A90161E9812F0E940904133030F4E12FCB
:100B6000F0E0E25FFE4F208101C024E0822F220FDF
:100B7000990BAA0BBB0BAC01332722276DEE812FFB
:100B80000E94090422EC31E040E050E064E9812F4A
:100B90000E94090420E831E340E050E060E8812F42
:100BA0000E94090480E001C08FEF0F900F900F901A
:100BB0000F90DF91CF911F910F91FF90EF90DF90F9
:100BC000CF9008952091430130914401C901847070
:100BD0009927AC0156954795C9018071992796953B
:100BE000879596958795842B2170822B08952E9852
:100BF000000020E130E040E050E8BA0168237923AA
:100C0000672B11F02D9A01C02D98479A0000479844
:100C10000000569547952150310979F72E9A00002A
:100C200090934401809343010895282F2270922FBE
:100C3000990F282F2470220F220F292B8170282B27
:100C4000022E000C330B80914301909144018A7E67
:100C5000822B932B0C94F7059F92AF92BF92CF9269
:100C6000DF92EF92FF920F931F93CF93DF93EC01EC
:100C70008B0197FF07C0D195C195D1090E94E2056C
:100C80008E7F03C00E94E20581600E94150617FF57
:100C900016C01195019511090E94E2058D7F0E94F1
:100CA000150682E3E82EF12C9BE1C92E9EE4D92E95
:100CB0002BE7A22E2CE0B22E3AE0932E20C00E9409
:100CC000E2058260ECCF0115110531F05C9A01500C
:100CD0001109C5010197F1F700005C982C981E14CA
:100CE0001F0454F49E9CC0019F9C900D11240E94EF
:100CF000800381E0E81AF1080115110541F0209701
:100D000011F32C9A2197C6010197F1F7DCCF2097B8
:100D1000B1F7DF91CF911F910F91FF90EF90DF908E
:100D2000CF90BF90AF909F90089560E070E080E218
:100D300090E00E942C0610924701089581110C94B6
:100D4000950660E070E080EE9FEF0E942C0681E047
:100D50008093470108950F931F93CF93DF93809162
:100D6000470181110E9495060E94E2058B7F0E9437
:100D7000150600E010E0C0EADFE05E9A00005E9831
:100D80000000C801855691098B3B924028F4CD3D67
:100D900085E0D8070CF02297C801815293408F3A22
:100DA000944028F4C93582E0D8070CF02397C80195
:100DB000815D97408B3A9D4028F4C53081E0D8078B
:100DC000DCF02197093823E112072CF0C83E83E0BC
:100DD000D8070CF42196CE010E9480030F5F1F4FAD
:100DE000043629E1120749F681E080934501DF913D
:100DF000CF911F910F910895093883E118075CF393
:100E0000E9CF582F442720914301309144012F739B
:100E10003327242B352B88279370969587959695A5
:100E20008795822B932B0C94F705EF92FF920F93EB
:100E30001F93CF93DF9300D000D0CDB7DEB78AEAFF
:100E400092E00E9401076CE97FEF86EF9FEF0E941E
:100E50002C0601EF1FEFB80180E090E00E942C0605
:100E600062E370E080E090E00E946C040E94E20582
:100E700081600E941506E12CF12C60E070E081E0B9
:100E800090E00E942C0665E070E080E090E00E9417
:100E90006C0419821A821B821C82AE014F5F5F4F65
:100EA0006FE680E00E94900C89819A81937021E125
:100EB000E216F1041CF08436910540F08FEFE81A39
:100EC000F80A28EEE21623E0F206B9F60B5F1F4F90
:100ED00009F0C1CF04EC1FEFB80180E090E00E9460
:100EE0002C0662E370E080E090E00E946C04E12C4C
:100EF000F12C61E070E080E090E00E942C06198205
:100F00001A821B821C82AE014F5F5F4F6FE681E049
:100F10000E94900C89819A81937021E1E216F1047C
:100F20001CF08436910540F08FEFE81AF80A20EAA9
:100F3000E2162FE0F206E9F60C5E1F4F69F685E532
:100F400091E00E9401076CE871EF81EF9FEF0E9432
:100F50002C06109201011092000180E00E949E0672
:100F600080E090E00E9401071092450181E090E04E
:100F70000E9401070F900F900F900F90DF91CF917B
:100F80001F910F91FF90EF900895EF92FF920F93B2
:100F90001F93CF93DF930091000110910101909373
:100FA0000101809300011F930F9384E592E09F93CA
:100FB0008F930E941C12809101018F9380910001F8
:100FC0008F9382E492E09F938F930E941C128DB7BF
:100FD0009EB708960FB6F8949EBF0FBE8DBF2091A6
:100FE000000130910101809145010217130719F4A6
:100FF000811165C062C0882309F444C08091470113
:1010000081110E9495060E94E20584600E941506E7
:10101000CCEDD5E0E12CF12C5E9A00005E9800004A
:10102000C7018A97863A974030F4C53081E0D807E7
:10103000E4F022971AC095E9E91691E1F906ACF0BF
:10104000C83522E0D2073CF4219689E8E81683E10E
:10105000F80654F40AC099E8E91693E1F9062CF071
:10106000C83725E0D2070CF42196CE010E948003F8
:101070008FEFE81AF80A90E5E91699E1F90661F6AA
:10108000109245018091000190910101AC01401B3B
:10109000510B23EA32E0429FB001439F700D529FF3
:1010A000700D1124081B190B8DE2282F209FC00101
:1010B000219F900D11240E942C060E94AB06809166
:1010C00000019091010124E030E0281B390B220F30
:1010D000331F81E090E002C0880F991F2A95E2F744
:1010E0000E94010781E0DF91CF911F910F91FF9046
:1010F000EF90089510928A0110928701809141012A
:1011000080FD04C0109289011092880108951F92F9
:101110000F920FB60F9211242F933F934F935F932B
:101120006F937F938F939F93AF93BF93EF93FF93AF
:10113000909140018FEF890F80934001911121C060
:101140009AE09093400180913F01882321F08150E3
:1011500080933F01A6C090933F0180913E01882378
:1011600021F0815080933E019CC090933E0180917C
:101170003C0190913D01019690933D0180933C018B
:1011800090C0853009F08DC080918A0187FF7FC0B3
:101190008F70E82FF0E021E030E0082E02C0220F2F
:1011A000331F0A94E2F740914101509142012423F8
:1011B0003523232B71F42091780030917900EE0FC4
:1011C000FF1FE857FE4F40815181240F351F3183A7
:1011D00020838823A9F1809187018F5F8093870105
:1011E000882381F180918801909189018A3091054D
:1011F00064F09C01215431402732310540F0855F75
:1012000091404D9730F080E005C081E003C082E05E
:1012100001C084E0282F20959091460192232091CF
:101220008601922B9093860180934601992329F0A1
:1012300080918B01826080938B010E947A0802C0AA
:1012400021E001C020E0822F90E041E050E045FF26
:1012500003C0882331F080E0440F551F9F5F903119
:10126000B1F7392F3F7080917B0093FF02C08062FD
:1012700001C08F7D80937B0080917C00932F9770BD
:10128000887F892B80937C0020938A010AC08091FB
:101290007A00806480937A0080918A0180688093CC
:1012A0008A01FF91EF91BF91AF919F918F917F91B3
:1012B0006F915F914F913F912F910F900FBE0F90C3
:1012C0001F9018954091990150919A012091970192
:1012D0003091980142175307B4F49091E80095704B
:1012E000E1F39091E80092FD19C08093F1008091A4
:1012F000990190919A0101968F739927892B19F47E
:101300008EEF8093E8008091990190919A01019667
:1013100090939A018093990181E0089580E0089567
:10132000CF92DF92EF92FF920F931F93CF93DF93B1
:101330001F92CDB7DEB7182F062FE42E862F880F09
:101340008E5F99830E94620983E00E946209F12EF8
:10135000C12E9981D92E8C2D8F19801798F4F60102
:10136000E7FE02C0849101C080810E946209182FAB
:1013700080E00E9462098123FFEFCF1ADF0A81110A
:10138000EACF01C081E00F90DF91CF911F910F91C3
:10139000FF90EF90DF90CF900895DF92EF92FF9251
:1013A0000F931F93CF93DF93D82E8A017B01E40E16
:1013B000F51EEB01CE15DF0571F0D7FE03C0FE016F
:1013C000849101C088810E94620921968111F2CF27
:1013D0008FEF9FEF01C0C801DF91CF911F910F9157
:1013E000FF90EF90DF900895615030F02091F10070
:1013F000FC0120830196F8CF289884E680939D0114
:101400000895CF92DF92EF92FF920F931F93CF93A5
:10141000DF936C017A018B01C0E0D0E0CE15DF05CF
:1014200089F0D8016D918D01D601ED91FC9101906B
:10143000F081E02DC6010995892B11F47E0102C0CF
:101440002196ECCFC701DF91CF911F910F91FF90B3
:10145000EF90DF90CF9008950F931F93CF93DF937A
:101460001F92CDB7DEB782E0898342E450E06AE69E
:1014700072E080E80E94CD090E944B0DDC011296BB
:101480000D911C9113970115110569F0D801ED918B
:10149000FC910280F381E02DBE016F5F7F4FC80198
:1014A000099597FF07C089810F90DF91CF911F9118
:1014B0000F910895F80100851185E5CF1F920F92D5
:1014C0000FB60F921124CF92DF92EF92FF920F93FB
:1014D0001F932F933F934F935F936F937F938F93BC
:1014E0009F93AF93BF93EF93FF93CF93DF93CDB7CA
:1014F000DEB76C97DEBFCDBF1092E9008091E800A7
:1015000083FFEDC168E0CE0145960E94F40982EFA9
:101510008093E8008D8987FF05C09091E80090FFD7
:10152000FCCF03C09EEF9093E800982F907609F0CF
:10153000C6C09E892F89188D91110CC0803829F45E
:10154000809196018093F10002C01092F1001092F8
:10155000F10048C1422F50E0512B913051F48111DC
:1015600041C14130510509F03DC1809196018D7F07
:101570000BC0933061F4811135C14130510509F040
:1015800031C1809196018260809396012BC1953084
:1015900041F48091E80080FFFCCF20682093E300B5
:1015A00021C1963009F05FC0EB8CFC8C1092E900F1
:1015B00010929A0110929901123091F510929801AF
:1015C000109297010E942C0A99E0BE016F5F7F4F35
:1015D000DB01E92F1D92EA95E9F799831A8391E0DF
:1015E0009E8390EA98879AEF99872091990130918C
:1015F0009A01275F3F4F3C832B838D831092E90034
:1016000010929A0110929901F0929801E09297013C
:1016100049E050E080E00E94CD090E942C0AE2C01F
:10162000F0929801E09297010E944B0DDC01129616
:10163000ED90FC901397E114F10409F4C0C0D701B8
:10164000ED91FC910480F581E02DBE016B5E7F4F32
:10165000C7010995009719F00CF0C4C0C7C0F70185
:10166000E084F184E8CF973009F4C0C0983021F4C9
:1016700081E08093F100B6C0993009F0B3C0837067
:1016800009F0B4C0E2E1F1E081E021E036E39081CD
:10169000992361F08093E9002093EB00919190935E
:1016A000EC003093ED008F5F873089F78EE78093F1
:1016B000EA001092EA008F8980939E0193C08B8D7F
:1016C0009C8D1092E90010929A01109299019093CA
:1016D000980180939701898D811156C08E899D89CB
:1016E000913A59F4813209F081C047E050E066E058
:1016F00071E080E00E94CD0975C0913209F076C09A
:10170000833289F4888D90E0982F88272F89822B47
:10171000A0E0B0E08093020190930301A093040144
:10172000B09305015FC0803269F48091E80082FFC8
:10173000FCCF67E086E091E00E94F4098BEF809394
:10174000E80006C0823209F04DC08F8980930D01F8
:1017500080919501882319F0EEEFFAE002C0E0E0F5
:10176000F8E08091060190910701A0910801B091E5
:101770000901803B9440A105B10509F07BC080912F
:101780000D0180FF93C076C00E944B0DDC011296C4
:101790000D911C9113970115110541F1D801ED919F
:1017A000FC910190F081E02DBE016B5E7F4FC8017E
:1017B0000995811117C0F80100851185ECCF113012
:1017C00009F44EC0133091F48F89882309F445C081
:1017D000823081F440E860E18EEC92E00E94900952
:1017E000882321F08EEF8093E80079C081E2809316
:1017F000EB0075C0813029F440E86BE082EC92E0A8
:10180000EDCF833099F70E944B0DDC011296ED90DD
:10181000FC9013978E010F5F1F4F6801E114F104D4
:1018200079F0D701ED91FC910680F781E02DB801A8
:10183000C7010995080F111DF701E084F184EECF6F
:10184000D8011C92F60101900020E9F73197BF0101
:101850006C197D0940E0C601C1CF6CEA72E002C09C
:1018600060EB72E06115710509F2FB01449150E0F3
:1018700080E840CF0FB6F894A89580916000886109
:1018800080936000109260000FBEA895EE3F2AE0A2
:10189000F20739F08091FE0A9091FF0A91838083CC
:1018A000A1CF1092FF0A1092FE0A9CCFEE3F8AE071
:1018B000F80731F0808191819093FF0A8093FE0AAE
:1018C00087E797E7918380839BE088E10FB6F894E0
:1018D000A895809360000FBE9093600083CF6C96B4
:1018E0000FB6F894DEBF0FBECDBFDF91CF91FF9151
:1018F000EF91BF91AF919F918F917F916F915F9188
:101900004F913F912F911F910F91FF90EF90DF909A
:10191000CF900F900FBE0F901F9018950E94F41754
:101920000F931F939CE59CBD1DBC813039F020F0C6
:10193000823029F4769803C0469801C05F986EBD46
:101940000DB407FEFDCF9EB51EBC0DB407FEFDCF46
:101950009EB51EBC0DB407FEFDCF9EB51EBC0DB4DA
:1019600007FEFDCF9EB51EBC0DB407FEFDCF9EB594
:10197000813039F020F0823029F4769A03C0469AFB
:1019800001C05F9A9CE59CBD1DBC813039F020F000
:10199000823029F4769803C0469801C05F981EBC37
:1019A0000DB407FEFDCF9EB51EBC0DB407FEFDCFE6
:1019B0000EB510E020E030E0322F212F102F00274D
:1019C0001EBC0DB407FEFDCF6EB5062B322F212FA6
:1019D000102F00271EBC0DB407FEFDCF6EB5062BE1
:1019E000322F212F102F00271EBC0DB407FEFDCF74
:1019F0006EB5062B813039F020F0823029F4769ACA
:101A000003C0469A01C05F9A4115510529F0FA01B9
:101A10000083118322833383892F1F910F910895AF
:101A2000FC0180919E01811103C08FEF9FEF08950B
:101A30009FB7F89482E08093E9002091F20030E0B3
:101A40001216130614F421E030E02115310559F087
:101A5000289884E680939D018091F1008083809195
:101A6000F200882319F09FBFC90108958BE6809387
:101A7000E800F9CF2FB7F89483E08093E9009091C4
:101A8000E800892F807295FF04C09091F20080E4F5
:101A9000891B2FBF08958091400281110DC082E003
:101AA00080933C0284E080933D0210923F021092AA
:101AB0003E0281E0809340028CE392E008951F9201
:101AC0000F920FB60F9211248F939F938091E10094
:101AD0009091E100937F9093E10083FF0FC01092FB
:101AE000E90091E09093EB001092EC0092E3909368
:101AF000ED0010929E0198E09093F00082FF20C0CC
:101B000093E09093E9009091F200992319F09AE301
:101B10009093E80090919C01992339F090919C0159
:101B2000915090939C01992389F190919D01992363
:101B300039F090919D01915090939D01992341F12D
:101B400084FF10C08091E2008E7E81608093E2006D
:101B50008091E1008F7E8093E10080919B018E7ED9
:101B6000806111C080FF16C08091E2008E7E80618E
:101B70008093E2008091E1008E7E8093E10080916D
:101B80009B018E7E816080939B0104C05D9ACDCFC6
:101B9000289AD6CF9F918F910F900FBE0F901F90D4
:101BA0001895CF93DF9300D0CDB7DEB7789484B586
:101BB000826084BD84B5816084BD85B5826085BD49
:101BC00085B5816085BD80916E00816080936E00D7
:101BD00010928100809181008260809381008091C9
:101BE000810081608093810080918000816080937A
:101BF000800080919100826080939100809191009B
:101C0000816080939100809190008160809390002A
:101C10008091C10084608093C1008091C100826086
:101C20008093C1008091C10081608093C100809148
:101C3000C30081608093C3008091C0008260809364
:101C4000C0008091C20081608093C20080917A00C0
:101C5000846080937A0080917A00826080937A0019
:101C600080917A00816080937A0080917A00806808
:101C700080937A0010929E011092960110929B011F
:101C80008091D70081608093D70080EA8093D8004C
:101C900089B5806189BD89B5826089BD09B400FEBE
:101CA000FDCF61E070E080E090E00E946C048091E4
:101CB000D8008F7C80618093D8008091E000807F85
:101CC0008093E0008091E1008E7E8093E1008DE0C2
:101CD0008093E200559A209AEEEFFFE78591949168
:101CE0008B3F9C4D19F481E080939501F8941092FC
:101CF000400110923F0110923E0110923D0110925E
:101D00003C0180E888BD80916E00846080936E0005
:101D10003F9A269A259A47982E982D98109244011A
:101D20001092430180E090E00E94F705809143010A
:101D3000909144010E94F7058FEF93E00E94010704
:101D4000E091AF01F091B00182E08083E091AB01BE
:101D5000F091AC011082E091AD01F091AE0180E113
:101D600080831092B701E091B301F091B4018EE04D
:101D70008083E091B101F091B20180818061808324
:101D8000E091B101F091B201808188608083E0919F
:101D9000B101F091B201808180688083E091B1014E
:101DA000F091B20180818F7D808384E694E09093EE
:101DB00081018093800180E694E090938301809379
:101DC000820183E080937B0110928501109284014F
:101DD00084B1817F84B984B1866084B93E9A579A70
:101DE0006E9A469A5F9A769A549A249A569A5C9872
:101DF0002C985E9880E00E94140581E00E941405F2
:101E000082E00E94140510924201109241018091DB
:101E10007A00876080937A0080917C008064809350
:101E20007C0080917A00806880937A0080E28093C1
:101E30007E0010927D000E947A08789462E370E040
:101E400080E090E00E946C0488EB90E09F938F9379
:101E50000E941C128AEA92E00E94010780914301CD
:101E600090914401837D0E94F7050E9415070F9011
:101E70000F9096E5C92E91E0D92ECE0101965C0116
:101E80002BEA222E21E0322E36E9432E31E0532E6A
:101E90004BED642E4EE2742E53E2852E51E0952ECA
:101EA00080917601909177018097F4F488E791E032
:101EB0000E94C31197FD1EC08D30910519F08A3024
:101EC000910511F480E090E0209176013091770146
:101ED000A9014F5F5F4F5093770140937601F9015D
:101EE000EA5AFE4F808306C0109277011092760165
:101EF0008FEF9FEF1A82198220917601309177013E
:101F0000121613060CF05EC1892B09F05BC13F93DA
:101F10002F93DF92CF92A8EFB1E0BF93AF930E94CF
:101F20001C12109277011092760162EF71E086E543
:101F300091E00E94BA110F900F900F900F900F90A8
:101F40000F90892BA1F486E591E09F938F9388E70A
:101F500091E09F938F930E94011264E670E080E00D
:101F600090E00E946C0478940C940000EAC066EE45
:101F700071E086E591E00E94BA11892BC9F587E2EC
:101F800091E09F938F9388E791E09F938F930E94B6
:101F900001120F900F900F900F9088E491E00E9433
:101FA000C31197FD04C068E771E00E94051788E738
:101FB00091E00E94C31197FD0AC09F938F939F9257
:101FC0008F920E941C120F900F900F900F900E9402
:101FD000F00480914601882301F38BE091E09F9308
:101FE0008F9388E791E09F938F930E940112A9C07D
:101FF0006BED71E086E591E00E94BA11892B09F43E
:10200000E1C0BF92AF92A0EDB1E0BF93AF93DF927A
:10201000CF920E9442120F900F900F900F900F904E
:102020000F90181619060CF04BC089819A819927D8
:102030009F938F9384EF90E09F938F9308E711E035
:102040001F930F930E94011287EEE82E80E0F82E76
:10205000FF92EF928AEE90E09F938F931F930F93DE
:102060000E940112FF92EF928DED90E09F938F936B
:102070001F930F930E940112FF92EF9283ED90E065
:102080009F938F931F930F930E940112FF92EF92E1
:1020900089EC90E09F938F931F930F930E940112FE
:1020A000FF92EF928FEB90E09F938F931F930F938C
:1020B0000E9401120FB6F894DEBF0FBECDBF82C0E2
:1020C0006BEC71E086E591E00E94BA11892B19F45E
:1020D0000E94150777C0BF92AF92A7ECB1E0BF9303
:1020E000AF93DF92CF920E9442120F900F900F9009
:1020F0000F900F900F9018161906DCF48A818F93B9
:1021000089818F933F922F920E941C1289819A811C
:102110000F900F900F900F908530910528F40E943A
:10212000C507811113C04EC09F938F935F924F924A
:1021300006C0DF92CF92AFE7B1E0BF93AF930E94AA
:102140001C120F900F900F900F903CC084E791E00D
:102150009F938F930E941C1280E791E09F938F932F
:1021600088E791E09F938F930E9401120F900F9048
:102170000F900F900F900F908091470181110E9456
:1021800095060E94E2058B7F0E94150680E991E08A
:102190005E9A00005E980000F3013197F1F7019715
:1021A000B9F781E0809345018DE591E09F938F938E
:1021B0000E941C120F900F9080914701811102C064
:1021C0000E949E060E94F00481E090E00E94C507F4
:1021D00080914701811102C00E949E0660E177E272
:1021E00080E090E00E946C048AEA92E00E9401077D
:1021F00060E273E080E090E00E946C0485E591E08D
:102200000E94010783E090E00E94C507809147018A
:10221000811102C00E949E0660E177E280E090E0BA
:102220000E946C048AEA92E00E94010760E273E077
:1022300080E090E00E946C0485E591E00E94010737
:1022400080E090E00E94C50780914701811102C0A3
:102250000E949E0660E177E280E090E00E946C04BC
:102260008AEA92E00E94010760E273E080E090E079
:102270000E946C0485E591E00E94010782E090E0F5
:102280000E94C50780914701811102C00E949E06ED
:1022900060E177E280E090E00E946C048AEA92E0DC
:1022A0000E94010760E273E080E090E00E946C040D
:1022B00085E591E00E94010783E090E00E94C50758
:1022C00080914701811102C00E949E0660E177E281
:1022D00080E090E00E946C048AEA92E00E9401078C
:1022E00060E273E080E090E00E946C0485E591E09C
:1022F0000E9401070E946C02D3CDEFE9F1E0138246
:10230000128288EE93E0A0E0B0E084839583A683F8
:10231000B7832CE131E0318320832DEC30E0358729
:1023200024872CEC30E03787268728EC30E0318B8F
:10233000208B29EC30E0338B228B2AEC30E0358B7C
:10234000248B2EEC30E0378B268B118E128E138E61
:10235000148EE8E4F2E01382128284839583A683CC
:10236000B7838EE291E0918380838FEF9FEF958713
:1023700084870895FB01DC018D910590801901107F
:10238000D9F3990B0895CF93DF93EC012B8120FFB4
:1023900033C026FF0AC02F7B2B838E819F8101963D
:1023A0009F838E838A8190E029C022FF0FC0E8813D
:1023B000F9818081082E000C990B009719F4206296
:1023C0002B831AC03196F983E8830EC0EA85FB851A
:1023D000099597FF09C02B81019611F080E201C099
:1023E00080E1822B8B8308C02E813F812F5F3F4F7E
:1023F0003F832E83992702C08FEF9FEFDF91CF910C
:102400000895A0E0B0E0E7E0F2E10C94C5170F8179
:102410001885F801838188608383AE01455F5F4F33
:1024200069857A85C8010E945B12F8012381277FA4
:102430002383E4E00C94E117A0E0B0E0E2E2F2E1F3
:102440000C94C517AE01495F5F4FDA016D917D9124
:10245000AD0108E912E0F80182819381DC01139655
:102460002C911397286013962C930E945B12D8012D
:102470001296ED91FC9113972381277F2383E4E04B
:102480000C94E117AEE0B0E0E8E4F2E10C94C71779
:102490008DE08C838B899C899A838983AE01495E08
:1024A0005F4F6D897E89CE0101960E94AD152E96F3
:1024B000E2E00C94E317ACE0B0E0E1E6F2E10C946A
:1024C000B7177C016B018A01FC0117821682838198
:1024D00081FFBDC1CE0101964C01F7019381F60148
:1024E00093FD859193FF81916F01882309F4ABC11E
:1024F000853239F493FD859193FF81916F01853287
:1025000029F4B70190E00E940517E7CF512C312C38
:1025100020E02032A0F48B3269F030F4803259F0A0
:10252000833269F420612CC08D3239F0803339F464
:10253000216026C02260246023C0286021C027FDBE
:1025400027C030ED380F3A3078F426FF06C0FAE0A5
:102550005F9E300D1124532E13C08AE0389E300D3B
:102560001124332E20620CC08E3221F426FD6BC163
:10257000206406C08C3611F4206802C0883641F40D
:10258000F60193FD859193FF81916F018111C1CF78
:10259000982F9F7D9554933028F40C5F1F4FFFE3D5
:1025A000F9830DC0833631F0833771F0833509F03C
:1025B0005BC022C0F801808189830E5F1F4F4424D5
:1025C0004394512C540115C03801F2E06F0E711C78
:1025D000F801A080B18026FF03C0652D70E002C025
:1025E0006FEF7FEFC5012C870E94FA162C01830143
:1025F0002C852F77222E17C03801F2E06F0E711C48
:10260000F801A080B18026FF03C0652D70E002C0F4
:102610006FEF7FEFC5012C870E94EF162C012C85F0
:102620002068222E830123FC1BC0832D90E04816D6
:102630005906B0F4B70180E290E00E9405173A9481
:10264000F4CFF50127FC859127FE81915F01B70149
:1026500090E00E94051731103A94F1E04F1A5108AA
:102660004114510471F7E5C0843611F0893639F50B
:10267000F80127FF07C060817181828193810C5F1F
:102680001F4F08C060817181072E000C880B990BC9
:102690000E5F1F4F2F76722E97FF09C09095809581
:1026A000709561957F4F8F4F9F4F2068722E2AE063
:1026B00030E0A4010E945617A82EA81844C0853700
:1026C00029F42F7EB22E2AE030E025C0F22FF97FC8
:1026D000BF2E8F36C1F018F4883579F0B4C080373A
:1026E00019F0883721F0AFC02F2F2061B22EB4FE31
:1026F0000DC08B2D8460B82E09C024FF0AC09F2F07
:102700009660B92E06C028E030E005C020E130E038
:1027100002C020E132E0F801B7FE07C0608171819C
:10272000828193810C5F1F4F06C06081718180E0C0
:1027300090E00E5F1F4FA4010E945617A82EA81804
:10274000FB2DFF777F2E76FE0BC0372D3E7FA51425
:1027500050F474FE0AC072FC08C0372D3E7E05C0DE
:10276000BA2C372D03C0BA2C01C0B52C34FF0DC0D4
:10277000FE01EA0DF11D8081803311F4397E09C01C
:1027800032FF06C0B394B39404C0832F867809F057
:10279000B39433FD13C030FF06C05A2CB31418F4A1
:1027A000530C5B18B32CB31468F4B70180E290E0CB
:1027B0003C870E940517B3943C85F5CFB31410F401
:1027C0003B1801C0312C34FF12C0B70180E390E008
:1027D0003C870E9405173C8532FF17C031FD03C0BE
:1027E00088E790E002C088E590E0B7010CC0832F35
:1027F000867859F031FF02C08BE201C080E237FDDC
:102800008DE2B70190E00E940517A51438F4B701D6
:1028100080E390E00E9405175A94F7CFAA94F40140
:10282000EA0DF11D8081B70190E00E940517A1100B
:10283000F5CF332009F451CEB70180E290E00E9439
:1028400005173A94F6CFF7018681978102C08FEF82
:102850009FEF2C96E2E10C94D31720FD09C0FC01F8
:1028600023FD05C022FF02C073836283518340832E
:10287000089544FD10C046FD10C0DB01FC01AA0F05
:10288000BB1FEE1FFF1F1094D1F76A0F7B1F8E1F17
:102890009F1F31E003C033E001C034E0660F771FB3
:1028A000881F991F3150D1F7620F711D811D911D35
:1028B00008950F931F93CF93DF938C01C8010E945B
:1028C000C311EC0197FD08C00E94DB16892BB1F7FC
:1028D000B801CE010E943D17CE01DF91CF911F912B
:1028E0000F910895A1E0B0E0E8E7F4E10C94BD1782
:1028F0008C01C62E7A0129830E94C311AC01552791
:1029000029814B32510521F04D32510569F420687F
:10291000CA94C11002C080E076C0C80129830E9419
:10292000C311298197FDF7CF322F3D7FD32E322F50
:10293000307349F5803339F5BB24BA94BC0C09F4E3
:102940004EC0C80129830E94C311298197FD47C049
:10295000382F3F7D383569F48D2D8264D82ECA9486
:10296000CA94CC20E1F1C8010E94C31197FF0BC0AB
:1029700036C026FF04C02D2D2260D22E03C03D2D6F
:102980003261D32ECB2C812C912C540120ED280FB9
:10299000283080F0D4FE04C0B8010E943D171CC04E
:1029A0002A3040F0D6FEF8CF2F7D3FEE320F363082
:1029B00098F727504D2DC501B4010E9439144B01E1
:1029C0005C018D2D8260D82ECA94CC2059F0C801AC
:1029D0000E94C31197FFDACFD1FC04C09CCF812C99
:1029E000912C5401D7FE08C0B094A0949094809488
:1029F000811C911CA11CB11C2D2DB501A401C70186
:102A00000E942D1481E02196ECE00C94D917A1E2EC
:102A1000B0E0EDE0F5E10C94BB175C017A01CE016A
:102A200001966C0180E2F60111928A95E9F7F501B1
:102A3000838040E050E0912C712C70E0A1E0B0E088
:102A4000F90183FC859183FE81918F01982F9F016D
:102A5000811103C080E090E07CC08E3519F44115EF
:102A6000510549F1E72FF0E0E417F5073CF48D3507
:102A700059F18D3219F4772001F103C0711001C0B2
:102A8000982E892F8695869586958601080F111DAB
:102A9000892F87703D0101C0660C8A95EAF7F8011D
:102AA000808186298083991559F0991510F49F5FCC
:102AB000E8CF9150E6CF71E004C07724739401C051
:102AC000712C4F5F5F4FBCCF772019F08E818062F1
:102AD0008E83711103C09924939416C0F6019E0150
:102AE0002F5D3F4F808180958193E217F307D1F7E7
:102AF000F2CFE114F10429F0F7018083C7010196B8
:102B00007C016150912CF9F0C50169A30E94C311A9
:102B100069A197FD16C0282F269526952695F601C2
:102B2000E20FF11D208130E0AC014770552702C053
:102B3000359527954A95E2F720FDDBCFB5010E9438
:102B40003D17911087CFE114F10411F0F7011082C5
:102B5000C801A196EEE00C94D7174F925F927F9236
:102B60008F929F92AF92BF92CF92DF92EF92FF929D
:102B70000F931F93CF93DF931F92CDB7DEB76C01F6
:102B80002B015A01FC0117821682712CF601F38089
:102B9000F201F3FC8591F3FE8191382F2F018823F8
:102BA00009F4F3C090E039830E94DB163981892B48
:102BB00021F0C6010E945914E9CF353241F4F201E7
:102BC000F3FC3591F3FE31912F01353269F4C601E2
:102BD00039830E94C311398197FDD5C03817B1F2EE
:102BE000B6010E943D17D1C03A3239F4F3FC359159
:102BF000F3FE31912F0151E001C050E0420110E09D
:102C000020ED230F2A3090F45260612F70E080E0B5
:102C100090E040E259830E943914162FF401F3FC2E
:102C20003591F3FE31914F015981EACF052F232FC2
:102C3000240151FF03C0111102C0A7C01FEF383695
:102C400019F03C3659F011C0F401F3FC2591F3FE64
:102C500021912F01283649F4052F08600460F20104
:102C6000F3FC2591F3FE21912F01222309F48DC05D
:102C7000622F70E08CEA90E029830E94E41629819B
:102C8000892B09F482C000FD07C0F501E080F180C6
:102C9000C50102965C0102C0E12CF12C2E3651F4E4
:102CA000F6014681578160E070E0202FC7010E9445
:102CB0002D146CCF233691F401FF11E0C6010E9460
:102CC000C31197FD60C0E114F10429F0F70180837E
:102CD000C70101967C01115089F751C02B3559F479
:102CE0009201A701612FC6010E9407152C01892BB3
:102CF00009F045C03FC0C60129830E9459142981AB
:102D000097FD41C02F3659F128F4243631F1293688
:102D100049F127C0233769F02537F9F022C0E114C3
:102D2000F10429F0F7018082C70101967C0111505E
:102D300071F0C6010E94C3114C0197FD08C00E94AA
:102D4000DB16892B61F3B601C4010E943D17E11423
:102D5000F104A9F0F701108212C0006203C0006103
:102D600001C00064202FA701612FC6010E947214C8
:102D7000811105C0F6018381807329F406C000FD2E
:102D800005CF739403CF772019F0872D90E002C010
:102D90008FEF9FEF0F90DF91CF911F910F91FF90D9
:102DA000EF90DF90CF90BF90AF909F908F907F90EB
:102DB0005F904F90089591110C94B417803219F0E0
:102DC00089508550C8F70895FC010590061621F03A
:102DD0000020D9F7C00108953197CF010895FC0173
:102DE0000590615070400110D8F7809590958E0F36
:102DF0009F1F0895FC016150704001900110D8F7A9
:102E0000809590958E0F9F1F08950F931F93CF93DA
:102E1000DF93FB01238121FD03C08FEF9FEF28C0CB
:102E200022FF16C0468157812481358142175307FE
:102E300044F4A081B1819D012F5F3F4F31832083F6
:102E40008C93268137812F5F3F4F3783268310C0B5
:102E5000EB01092F182F0084F185E02D0995892BAE
:102E6000E1F68E819F8101969F838E83812F902F23
:102E7000DF91CF911F910F910895FB01238120FFD6
:102E800012C026FD10C08F3F3FEF930761F0828391
:102E90002F7D206423832681378121503109378398
:102EA0002683992708958FEF9FEF0895FA01AA27A7
:102EB000283051F1203181F1E8946F936E7F6E5F7D
:102EC0007F4F8F4F9F4FAF4FB1E03ED0B4E03CD02B
:102ED000670F781F891F9A1FA11D680F791F8A1F0E
:102EE000911DA11D6A0F711D811D911DA11D20D075
:102EF00009F468943F912AE0269F11243019305D2F
:102F00003193DEF6CF010895462F4770405D41931F
:102F1000B3E00FD0C9F7F6CF462F4F70405D4A336C
:102F200018F0495D31FD4052419302D0A9F7EACF34
:102F3000B4E0A6959795879577956795BA95C9F763
:102F400000976105710508959B01AC010A2E069456
:102F50005795479537952795BA95C9F7620F731F0F
:102F6000841F951FA01D08959927882708952F92E3
:102F70003F924F925F926F927F928F929F92AF9209
:102F8000BF92CF92DF92EF92FF920F931F93CF9356
:102F9000DF93CDB7DEB7CA1BDB0B0FB6F894DEBFED
:102FA0000FBECDBF09942A88398848885F846E8413
:102FB0007D848C849B84AA84B984C884DF80EE805D
:102FC000FD800C811B81AA81B981CE0FD11D0FB666
:102FD000F894DEBF0FBECDBFED010895EE0FFF1FC9
:102FE0000590F491E02D099481E090E0F8940C9420
:062FF000F917F894FFCF71
:102FF600FFFFFFFFFFFF00E10000000000000305E8
:103006000500C18081000000000000000302010AE3
:103016009B014A02CC01AA01BE0100000000760213
:0C302600B5023A038C0297023E035C03E3
:00000001FF
