:100000000C94C6000C94EE000C94EE000C94EE00E0
:100010000C94EE000C94EE000C94EE000C94EE00A8
:100020000C94EE000C94EE000C94920C0C942109AC
:100030000C94EE000C94EE000C94EE000C94EE0088
:100040000C94EE000C94EE000C94EE000C94EE0078
:100050000C94EE000C94EE000C94EE000C943E0315
:100060000C94EE000C94770B0C94510B0C94EE0056
:100070000C94EE000C94EE000C94EE000C94EE0048
:100080000C94EE000C94EE000C94EE000C94EE0038
:100090000C94EE000C94EE000C94EE000C94EE0028
:1000A0000C94EE000C94EE000C94EE006364696E08
:1000B0006F70737578585B00746D63323133305FE5
:1000C00077725F43484F50434F4E46206F75743DE3
:1000D00030782530386C7820696E3D30782530389E
:1000E0006C780A00070605040100080A0B0C0D09CC
:1000F0006F6B0A006F6B0A00542564006C696E65B3
:100100002072656365697665643A20272573272028
:1001100025640A00080B0002020201000904000025
:100120000102020000052400100105240101010460
:10013000240206052406000107058103100040097A
:10014000040100020A000000070502024000000747
:100150000583024000000403090412010002EF02BB
:1001600001404123368000010102030141726475A0
:10017000696E6F204C4C430041726475696E6F204C
:100180004C656F6E6172646F0000411011241FBED8
:10019000CFEFDAE0DEBFCDBF22E0A0E4B1E001C0E6
:1001A0001D92AE38B207E1F711E0A0E0B1E0E0E661
:1001B000F0E302C005900D92A034B107D9F710E02A
:1001C000C6ECD0E004C02197FE010E942318C53C74
:1001D000D107C9F70E94040D0C942E180C9400004E
:1001E000FC01538D448D252F30E0842F90E0821B3D
:1001F000930B541710F0CF96089501970895FC01C2
:10020000918D828D981761F0828DDF01A80FB11D4D
:100210005D968C91928D9F5F9F73928F90E0089571
:100220008FEF9FEF0895FC01918D828D981731F02B
:10023000828DE80FF11D858D90E008958FEF9FEF7F
:100240000895FC01918D228D892F90E0805C9F4F55
:10025000821B91098F739927089580E090E0892B84
:1002600029F00E94D00881110C9400000895CF93CA
:10027000DF931F92CDB7DEB76983DC01ED91FC916E
:100280000280F381E02D41E050E0BE016F5F7F4FBF
:1002900009950F90DF91CF91089583E08093E90055
:1002A0008091F200882319F08AE38093E800089592
:1002B000FC018485958597FD0BC09FB7F89482E07B
:1002C0008093E9008091F2009FBF90E0019608952D
:1002D0009FB7F89482E08093E9008091F2009FBF7D
:1002E00090E00895089580E090E008953FB7F89475
:1002F0008091450190914601A0914701B09148013C
:1003000026B5A89B05C02F3F19F00196A11DB11D70
:100310003FBFBA2FA92F982F8827820F911DA11DAB
:10032000B11DBC01CD0142E0660F771F881F991FE8
:100330004A95D1F708958FE891E00C94FF00CF9291
:10034000DF92EF92FF929CE59CBD1DBC813039F09D
:1003500020F0823029F4769803C0469801C05F9857
:100360006EBD0DB407FEFDCF9EB5C52EDD24EE2477
:10037000FF24CEBC0DB407FEFDCF9EB56A01EE246E
:10038000FF24CEBC0DB407FEFDCF9EB5C32ED42EE8
:10039000E52EFF24CEBC0DB407FEFDCF9EB52EBDCD
:1003A0000DB407FEFDCF9EB5813039F020F08230CC
:1003B00029F4769A03C0469A01C05F9AFF90EF90A5
:1003C000DF90CF9008950E946D0C90E008950F93F8
:1003D0001F93CF93DF931F92CDB7DEB78C01FC0143
:1003E0008485958597FF0EC0CE0101960E94430C2F
:1003F000019719F4298130E002C02FEF3FEFF80197
:1004000035872487F801848595850F90DF91CF91FA
:100410001F910F910895CF93DF931F92CDB7DEB751
:10042000FC018485958597FD05C02FEF3FEF35874B
:1004300024870BC0CE0101960E94430C019719F44A
:10044000898190E002C08FEF9FEF0F90DF91CF91F5
:100450000895682F8FE891E00E94DA0880E090E02C
:100460000895FC01848DDF01A80FB11DA35ABF4F71
:100470002C91848D90E001968F739927848FA689A3
:10048000B7892C93A089B1898C9180648C93938DCA
:10049000848D981306C00288F389E02D80818F7DBA
:1004A00080830895CF93DF93EC01888D8823C9F072
:1004B000EA89FB89808185FD05C0A889B9898C916D
:1004C00086FD0FC00FB607FCF5CF808185FFF2CF08
:1004D000A889B9898C9185FFEDCFCE010E943102A8
:1004E000E7CFDF91CF9108958230910538F0880FE2
:1004F000991F880F991F05970197F1F708958F921B
:100500009F92AF92BF92CF92DF92EF92FF926B01D8
:100510007C010E9476014B015C01C114D104E1040D
:10052000F104F1F00E947601DC01CB0188199909F0
:10053000AA09BB09883E9340A105B10570F321E0EB
:10054000C21AD108E108F10888EE880E83E0981EEF
:10055000A11CB11CC114D104E104F10419F7DDCFD1
:10056000FF90EF90DF90CF90BF90AF909F908F90D3
:1005700008958F929F92AF92BF92CF92DF92EF92A7
:10058000FF920F931F93CF93DF935C016B017A016E
:1005900080910D01882309F45BC080918E0188232E
:1005A00009F456C080918B0180FF05C08091E00066
:1005B00082608093E000E70110E00AEF83E0882E7C
:1005C0009AE3992E2097D9F10E946D0C81110AC0EF
:1005D000015009F43DC061E070E080E090E00E94CD
:1005E0007F02F0CF282F30E0C217D3070CF48C2FF6
:1005F0004FB7F8948092E9009091E80095FF1DC0F4
:10060000282F30E0C21BD30BF601982F915020F019
:1006100081918093F100FACFC20ED31E112319F0FD
:100620009092E80009C08091E80085FD06C0909294
:10063000E80011E0209709F010E04FBFC3CF11117F
:10064000C3CF5D9884E680938C011E141F0444F090
:1006500081E090E0F5019383828380E090E001C027
:10066000C701DF91CF911F910F91FF90EF90DF9025
:10067000CF90BF90AF909F908F9008951F920F9250
:100680000FB60F9211242F933F938F939F93AF93A5
:10069000BF938091410190914201A0914301B0919B
:1006A00044013091400123E0230F2D3720F40196BF
:1006B000A11DB11D05C026E8230F0296A11DB11D85
:1006C000209340018093410190934201A093430104
:1006D000B09344018091450190914601A09147015A
:1006E000B09148010196A11DB11D809345019093E1
:1006F0004601A0934701B0934801BF91AF919F91EC
:100700008F913F912F910F900FBE0F901F901895D2
:100710005E9A00005E9800000895E6EEF0E0E49135
:1007200020917B00E3FB882780F990E035E0880F7B
:10073000991F3A95E1F7922F9F7D892B80937B003B
:10074000E770E064E0937C0080917A00806480939D
:100750007A0080917A0086FDFCCF2091780080910C
:10076000790030E0382BC9018D52914083369105D4
:1007700038F081E090E02233310524F080E002C0BF
:1007800082E090E0215E31402737310510F484E0AB
:1007900090E00895CF92DF92EF92FF920F931F9314
:1007A000CF93DF9300D000D01F92CDB7DEB7182FC4
:1007B000823020F0823031F000E101C00EE11130D2
:1007C00031F001C009E170E1113019F415C07AE08F
:1007D00013C0113030F0123021F522E030E098E003
:1007E0001BC020E130E098E03695279521153105B2
:1007F000C9F09150C9F716C022E030E098E0369574
:100800002795232B79F0915021E030E0C1F70AC001
:10081000915021E030E031F036952795232BC1F738
:1008200001C090E1892F8F70C82ED12CE12CF12CC2
:10083000FC2CEE24DD24CC2423EDC22A23E0E22A82
:100840006894F4F8A70196016CEE812F7D830E94D5
:100850009F0119821A821B821C82AE014F5F5F4F7B
:100860006CE6812F0E94AB0B8C818F938B818F93D1
:100870008A818F9389818F93FF92EF92DF92CF923B
:1008800088EB90E09F938F930E94D71089819A8183
:10089000AB81BC810FB6F894DEBF0FBECDBF7D81AA
:1008A000C816D906EA06FB0609F03FC0202F000F44
:1008B000330B322F2227C901330FAA0BBB0BAF60BA
:1008C0009C01AD01272B60E9812F0E949F0120E050
:1008D00030E0A90161E9812F0E949F01133030F4BB
:1008E000E12FF0E0E25FFE4F208101C024E0822F83
:1008F000220F990BAA0BBB0BAC01332722276DEEFD
:10090000812F0E949F0122EC31E040E050E064E939
:10091000812F0E949F0120E831E340E050E060E831
:10092000812F0E949F0180E001C08FEF0F900F90F8
:100930000F900F900F90DF91CF911F910F91FF902B
:10094000EF90DF90CF9008952091490130914A01B6
:10095000C90184709927AC0156954795C9018071EA
:1009600099279695879596958795842B2170822B4C
:1009700008952E98000020E130E040E050E8BA01F0
:1009800068237923672B11F02D9A01C02D98479A7F
:10099000000047980000569547952150310979F796
:1009A0002E9A000090934A01809349010895282FC0
:1009B0002270922F990F282F2470220F220F292B9B
:1009C0008170282B022E000C330B809149019091ED
:1009D0004A018A7E822B932B0C94B9045F926F920A
:1009E0007F928F929F92AF92BF92CF92DF92EF92BF
:1009F000FF920F931F93CF93DF938C017B01EA014A
:100A000097FF07C01195019511090E94A4048E7FDC
:100A100003C00E94A40481600E94D704F7FE07C0AF
:100A2000F194E194F1080E94A4048D7F03C00E9418
:100A3000A40482600E94D704D7FF1AC0D195C19543
:100A4000D1090E94A40484600E94D70482E3C82EC6
:100A5000D12C9BE9A92E9FE0B92E2BE7822E2CE00A
:100A6000922E3BEE632E3AE0732E4AE0542E37C0AE
:100A70000E94A4048B7FE8CFE114F10409F05C9A92
:100A8000209709F05E9A00000115110531F02C98AD
:100A900001501109C5010197F1F7E114F10439F092
:100AA0005C9881E0E81AF108C4010197F1F72097FA
:100AB00029F05E982197C3010197F1F700001C14FB
:100AC0001D0454F45C9CC0015D9C900D11240E9497
:100AD000740281E0C81AD108E114F10429F001156B
:100AE000110551F22C9AC8CF01151105C1F72097B5
:100AF000B1F7DF91CF911F910F91FF90EF90DF90B1
:100B0000CF90BF90AF909F908F907F906F905F90AD
:100B1000089540E050E060E070E089ED90E00E94D0
:100B2000EE0410924B010895CF92DF92EF92FF9264
:100B3000CF93DF9380914B0181110E9489050E9420
:100B4000A4048B7F0E94D704C0E0D0E0C12C80EECB
:100B5000D82E8BEAE82E85E4F82E0E948803CE0179
:100B6000895C9109873D9E40A0F420E030E046E199
:100B700054E4C701B6010E94FC17181654F420E093
:100B800030E040E450E4C701B6010E94A9166B01B1
:100B90007C01CE01855691098B339F4098F420E06B
:100BA00030E046E154E4C701B6010E94FC17181674
:100BB0000CF520E030E040E85FE3C701B6010E9499
:100BC000A91616C0CD3680E2D807A4F020E030E8A0
:100BD0004BE355E4C701B6010E94161787FF0AC010
:100BE00020E030E040E050E4C701B6010E94AA16C0
:100BF0006B017C01C701B6010E941B17CB010E944B
:100C000074022196CA3E24E2D20709F0A6CF81E001
:100C100080934C01DF91CF91FF90EF90DF90CF90C8
:100C20000895582F44272091490130914A012F738C
:100C30003327242B352B8827937096958795969587
:100C40008795822B932B0C94B904EF92FF920F930C
:100C50001F93CF93DF9300D000D0CDB7DEB78AEAE1
:100C600092E00E94110640E050E06CE97FEF86EFD1
:100C70009FEF0E94EE0440E050E06BEF7FEF80E0DA
:100C800090E00E94EE0462E370E080E090E00E9459
:100C90007F020E94A40481600E94D70400ED17E047
:100CA0009BE8E92EFF24F39440E050E060E070E020
:100CB00081E090E00E94EE04C7010197F1F71982EC
:100CC0001A821B821C82AE014F5F5F4F6FE680E08D
:100CD0000E94AB0B0150110939F704EC1FEF40E003
:100CE00050E0B80180E090E00E94EE0462E370E022
:100CF00080E090E00E947F02E12CF12C40E050E087
:100D000061E070E080E090E00E94EE0419821A82B7
:100D10001B821C82AE014F5F5F4F6FE681E00E9435
:100D2000AB0B89819A81937021E1E216F1041CF0EA
:100D30008436910540F08FEFE81AF80A20EAE216AF
:100D40002FE0F206D9F60C5E1F4F49F685E591E0DB
:100D50000E94110640E050E06CE871EF8EE79FEFD3
:100D60000E94EE04109201011092000140E050E058
:100D700060E070E087E29FEF0E94EE0411E01093C4
:100D80004B0180E090E00E94110610924C0180918E
:100D900000019091010124E030E0281B390B220F63
:100DA000331F81E090E002C0880F991F2A95E2F777
:100DB0000E94110610934D010F900F900F900F900D
:100DC000DF91CF911F910F91FF90EF9008958F9237
:100DD0009F92AF92BF92CF92DF92EF92FF920F93CA
:100DE0001F93CF93DF93CDB7DEB7A1970FB6F894DB
:100DF000DEBF0FBECDBF8C0180914D01811102C0BD
:100E00000E9425066801012E000CEE08FF08F7FE7F
:100E10002BC0E0912C02F0912D020190F081E02D89
:100E20006DE28CE292E0099522273327A9012C1963
:100E30003D094E095F0919A2CE0181967C017AE035
:100E4000872E912CA12CB12CCA01B901A5019401C6
:100E50000E940118605DF70162937F012115310541
:100E60004105510589F71AC0A701960119A2CE01C3
:100E700081967C016AE0862E912CA12CB12CCA01AE
:100E8000B901A50194010E940118605DF701629308
:100E90007F01211531054105510589F7C7010E94E0
:100EA0002B0C8CE391E00E942B0C8091000190911F
:100EB000010124E030E0281B390B220F331F82E0B0
:100EC00090E002C0880F991F2A95E2F70E94110650
:100ED000E0900001F09001011093010100930001E6
:100EE000E016F10629F410914C0181E0182731C079
:100EF00080914B0181110E948905809100019091A0
:100F00000101AC014E195F0929EB32E0429FB001AB
:100F1000439F700D529F700D1124E81AF90A40E0AA
:100F200050E083E691E09C01E29EC001E39E900DBB
:100F3000F29E900D11240E94EE0440E050E060E02B
:100F400070E087E29FEF0E94EE0481E080934B0106
:100F500011E080E090E00E941106809100019091E4
:100F6000010124E030E0281B390B220F331F81E000
:100F700090E002C0880F991F2A95E2F70E9411069F
:100F8000812FA1960FB6F894DEBF0FBECDBFDF91C3
:100F9000CF911F910F91FF90EF90DF90CF90BF9076
:100FA000AF909F908F900895409187015091880154
:100FB000209185013091860142175307B4F4909136
:100FC000E8009570E1F39091E80092FD19C08093DC
:100FD000F100809187019091880101968F73992784
:100FE000892B19F48EEF8093E8008091870190910E
:100FF00088010196909388018093870181E008958C
:1010000080E00895CF92DF92EF92FF920F931F93AB
:10101000CF93DF931F92CDB7DEB7182F062FE42EA4
:10102000862F880F8E5F99830E94D40783E00E94E9
:10103000D407F12EC12E9981D92E8C2D8F198017AE
:1010400098F4F601E7FE02C0849101C080810E94FD
:10105000D407182F80E00E94D4078123FFEFCF1A16
:10106000DF0A8111EACF01C081E00F90DF91CF91BB
:101070001F910F91FF90EF90DF90CF900895DF9236
:10108000EF92FF920F931F93CF93DF93D82E8A0195
:101090007B01E40EF51EEB01CE15DF0571F0D7FEE6
:1010A00003C0FE01849101C088810E94D40721966B
:1010B0008111F2CF8FEF9FEF01C0C801DF91CF9177
:1010C0001F910F91FF90EF90DF900895615030F0E5
:1010D0002091F100FC0120830196F8CF289884E646
:1010E00080938D010895CF92DF92EF92FF920F933C
:1010F0001F93CF93DF936C017A018B01C0E0D0E0A6
:10110000CE15DF0589F0D8016D918D01D601ED91E5
:10111000FC910190F081E02DC6010995892B11F415
:101120007E0102C02196ECCFC701DF91CF911F91C4
:101130000F91FF90EF90DF90CF9008950F931F9342
:10114000CF93DF931F92CDB7DEB782E0898342E46D
:1011500050E064E171E080E80E943F080E947E0C4C
:10116000DC0112960D911C9113970115110569F080
:10117000D801ED91FC910280F381E02DBE016F5FFB
:101180007F4FC801099597FF07C089810F90DF91B4
:10119000CF911F910F910895F80100851185E5CF3A
:1011A0008FE891E00E94210121E0892B09F420E0E1
:1011B000822F0895EF92FF920F931F93CF93DF93A7
:1011C000EC0181E0888F9B8D8C8D981305C0E88998
:1011D000F989808185FD24C0F62E0B8D10E00F5F0C
:1011E0001F4F0F731127E02E8C8DE8120CC00FB625
:1011F00007FCFACFE889F989808185FFF5CFCE0118
:101200000E943102F1CF8B8DFE01E80FF11DE35AF0
:10121000FF4FF0820B8FEA89FB898081806207C0D3
:10122000EE89FF896083E889F98980818064808301
:1012300081E090E0DF91CF911F910F91FF90EF90AF
:1012400008951F920F920FB60F921124CF92DF9242
:10125000EF92FF920F931F932F933F934F935F93C0
:101260006F937F938F939F93AF93BF93EF93FF936E
:10127000CF93DF93CDB7DEB76C97DEBFCDBF1092B3
:10128000E9008091E80083FFEDC168E0CE0145965A
:101290000E94660882EF8093E8008D8987FF05C071
:1012A0009091E80090FFFCCF03C09EEF9093E80080
:1012B000982F907609F0C6C09E892F89188D9111BC
:1012C0000CC0803829F480918A018093F10002C01B
:1012D0001092F1001092F10048C1422F50E0512BC2
:1012E000913051F4811141C14130510509F03DC1A6
:1012F00080918A018D7F0BC0933061F4811135C1DB
:101300004130510509F031C180918A01826080939A
:101310008A012BC1953041F48091E80080FFFCCF19
:1013200020682093E30021C1963009F05FC0EB8C68
:10133000FC8C1092E9001092880110928701123003
:1013400091F510928601109285010E949E0899E005
:10135000BE016F5F7F4FDB01E92F1D92EA95E9F730
:1013600099831A8391E09E8390EA98879AEF9987F0
:101370002091870130918801275F3F4F3C832B8369
:101380008D831092E9001092880110928701F092EB
:101390008601E092850149E050E080E00E943F082C
:1013A0000E949E08E2C0F0928601E09285010E94B0
:1013B0007E0CDC011296ED90FC901397E114F10481
:1013C00009F4C0C0D701ED91FC910480F581E02DB6
:1013D000BE016B5E7F4FC7010995009719F00CF0B5
:1013E000C4C0C7C0F701E084F184E8CF973009F4A6
:1013F000C0C0983021F481E08093F100B6C09930EC
:1014000009F0B3C0837009F0B4C0E2E1F1E081E01B
:1014100021E036E39081992361F08093E9002093E5
:10142000EB0091919093EC003093ED008F5F87304B
:1014300089F78EE78093EA001092EA008F89809303
:101440008E0193C08B8D9C8D1092E90010928801C3
:10145000109287019093860180938501898D811177
:1014600056C08E899D89913A59F4813209F081C024
:1014700047E050E066E071E080E00E943F0875C000
:10148000913209F076C0833289F4888D90E0982FEC
:1014900088272F89822BA0E0B0E0809302019093EF
:1014A0000301A0930401B09305015FC0803269F489
:1014B0008091E80082FFFCCF67E086E091E00E9427
:1014C00066088BEF8093E80006C0823209F04DC0B9
:1014D0008F8980930D0180918901882319F0EEEFA7
:1014E000FAE002C0E0E0F8E0809106019091070187
:1014F000A0910801B0910901803B9440A105B1057C
:1015000009F07BC080910D0180FF93C076C00E94DE
:101510007E0CDC0112960D911C911397011511059B
:1015200041F1D801ED91FC910190F081E02DBE01D7
:101530006B5E7F4FC8010995811117C0F8010085C6
:101540001185ECCF113009F44EC0133091F48F891E
:10155000882309F445C0823081F440E860E188E7DF
:1015600091E00E940208882321F08EEF8093E8002A
:1015700079C081E28093EB0075C0813029F440E8A6
:101580006BE08CE691E0EDCF833099F70E947E0C02
:10159000DC011296ED90FC9013978E010F5F1F4FA8
:1015A0006801E114F10479F0D701ED91FC91068016
:1015B000F781E02DB801C7010995080F111DF7014A
:1015C000E084F184EECFD8011C92F6010190002056
:1015D000E9F73197BF016C197D0940E0C601C1CF21
:1015E00066E571E002C06AE571E06115710509F216
:1015F000FB01449150E080E840CF0FB6F894A895E5
:1016000080916000886180936000109260000FBE3E
:10161000A895EE3F2AE0F20739F08091FE0A9091FA
:10162000FF0A91838083A1CF1092FF0A1092FE0AD5
:101630009CCFEE3F8AE0F80731F080819181909352
:10164000FF0A8093FE0A87E797E7918380839BE0F8
:1016500088E10FB6F894A895809360000FBE909330
:10166000600083CF6C960FB6F894DEBF0FBECDBF7F
:10167000DF91CF91FF91EF91BF91AF919F918F91AA
:101680007F916F915F914F913F912F911F910F919A
:10169000FF90EF90DF90CF900F900FBE0F901F90B4
:1016A00018951F920F920FB60F9211242F933F930C
:1016B0004F935F936F937F938F939F93AF93BF935A
:1016C000EF93FF938FE891E00E943102FF91EF9139
:1016D000BF91AF919F918F917F916F915F914F914A
:1016E0003F912F910F900FBE0F901F9018951F9252
:1016F0000F920FB60F9211242F938F939F93EF9316
:10170000FF93E0919F01F091A0018081E091A501FC
:10171000F091A60182FD12C090818091A8018F5F97
:101720008F732091A901821751F0E091A801F0E098
:10173000E157FE4F958F8093A80101C08081FF91F2
:10174000EF919F918F912F910F900FBE0F901F904F
:1017500018950E9429180F931F939CE59CBD1DBCF2
:10176000813039F020F0823029F4769803C0469811
:1017700001C05F986EBD0DB407FEFDCF9EB51EBCC7
:101780000DB407FEFDCF9EB51EBC0DB407FEFDCF08
:101790009EB51EBC0DB407FEFDCF9EB51EBC0DB49C
:1017A00007FEFDCF9EB5813039F020F0823029F45C
:1017B000769A03C0469A01C05F9A9CE59CBD1DBC09
:1017C000813039F020F0823029F4769803C04698B1
:1017D00001C05F981EBC0DB407FEFDCF9EB51EBCB8
:1017E0000DB407FEFDCF0EB510E020E030E0322F43
:1017F000212F102F00271EBC0DB407FEFDCF6EB5A4
:10180000062B322F212F102F00271EBC0DB407FEF0
:10181000FDCF6EB5062B322F212F102F00271EBCB7
:101820000DB407FEFDCF6EB5062B813039F020F0E8
:10183000823029F4769A03C0469A01C05F9A411516
:10184000510529F0FA010083118322833383892F04
:101850001F910F910895BC01009791F0FC01019038
:101860000020E9F73197AF01481B590BE0912C029A
:10187000F0912D020280F381E02D8CE292E0099438
:1018800080E090E00895FC0180918E01811103C0F9
:101890008FEF9FEF08959FB7F89482E08093E9005F
:1018A0002091F20030E01216130614F421E030E02B
:1018B0002115310559F0289884E680938D01809197
:1018C000F10080838091F200882319F09FBFC90145
:1018D00008958BE68093E800F9CF2FB7F89483E062
:1018E0008093E9009091E800892F807295FF04C0F1
:1018F0009091F20080E4891B2FBF089580918002AF
:1019000081110DC082E080937C0284E080937D028F
:1019100010927F0210927E0281E0809380028CE719
:1019200092E008951F920F920FB60F9211248F9399
:101930009F938091E1009091E100937F9093E1006B
:1019400083FF0FC01092E90091E09093EB0010929A
:10195000EC0092E39093ED0010928E0198E090934A
:10196000F00082FF20C093E09093E9009091F20094
:10197000992319F09AE39093E80090918C019923B0
:1019800039F090918C01915090938C01992389F1B9
:1019900090918D01992339F090918D019150909300
:1019A0008D01992341F184FF10C08091E2008E7E69
:1019B00081608093E2008091E1008F7E8093E1005E
:1019C00080918B018E7E806111C080FF16C0809156
:1019D000E2008E7E80618093E2008091E1008E7E45
:1019E0008093E10080918B018E7E816080938B01DA
:1019F00004C05D9ACDCF289AD6CF9F918F910F903A
:101A00000FBE0F901F901895CF93DF9300D01F92B9
:101A1000CDB7DEB7789484B5826084BD84B581602B
:101A200084BD85B5826085BD85B5816085BD8091A9
:101A30006E00816080936E00109281008091810021
:101A40008260809381008091810081608093810019
:101A500080918000816080938000809191008260FD
:101A6000809391008091910081608093910080919A
:101A700090008160809390008091C1008460809389
:101A8000C1008091C10082608093C1008091C1003B
:101A900081608093C1008091C30081608093C30006
:101AA0008091C00082608093C0008091C2008160FC
:101AB0008093C20080917A00846080937A00809144
:101AC0007A00826080937A0080917A0081608093AE
:101AD0007A0080917A00806880937A0010928E015B
:101AE00010928A0110928B018091D70081608093BF
:101AF000D70080EA8093D80089B5806189BD89B517
:101B0000826089BD09B400FEFDCF61E070E080E035
:101B100090E00E947F028091D8008F7C806180934A
:101B2000D8008091E000807F8093E0008091E10008
:101B30008E7E8093E1008DE08093E200559A209A9A
:101B4000EEEFFFE7859194918B3F9C4D19F481E076
:101B5000809389013F9A269A259A47982E982D9826
:101B600010924A011092490180E090E00E94B9046D
:101B70008091490190914A010E94B9048FEF93E04E
:101B80000E941106E0919F01F091A00182E0808304
:101B9000E0919B01F0919C011082E0919D01F091F8
:101BA0009E0180E180831092A701E091A301F09152
:101BB000A4018EE08083E091A101F091A2018081D7
:101BC00080618083E091A101F091A2018081886011
:101BD0008083E091A101F091A201808180688083DF
:101BE000E091A101F091A20180818F7D808389E243
:101BF00092E09093800180937F018BE991E0909334
:101C000082018093810183E080937A0110928401A4
:101C10001092830184B1817F84B984B1866084B9D4
:101C20003E9A579A6E9A469A5F9A769A549A249A4E
:101C3000569A5C982C985E9880E00E94CA0381E0D6
:101C40000E94CA0382E00E94CA03109253011092BC
:101C5000520180917A00876080937A0080917C00A5
:101C6000806480937C0080917A00806880937A0001
:101C700080E280937E0010927D00109251011092BC
:101C800050018091520180FD04C010924F011092CA
:101C90004E0162E370E080E090E00E947F0280915C
:101CA000490190914A01837D0E94B90480E090E04F
:101CB0000E9411060E9425068FEF9FEF9093390234
:101CC00080933802EBEF2E2EECE73E2E80917401CC
:101CD000909175018097F4F487E791E00E947E105F
:101CE00097FD1EC08D30910519F08A30910511F4D1
:101CF00080E090E02091740130917501A9014F5F5F
:101D00005F4F5093750140937401F901EC5AFE4FF7
:101D1000808306C010927501109274018FEF9FEFBF
:101D20001A821982209174013091750112161306DE
:101D30000CF07CC1892B09F079C13F932F93A4E566
:101D4000B1E0BF93AF93ACEFB0E0BF93AF930E940D
:101D5000D710109275011092740141E050E04C0FC1
:101D60005D1F5F934F93A8EFB0E0BF93AF93A4E5DF
:101D7000B1E0BF93AF930E94FD100FB6F894DEBFA1
:101D80000FBECDBF181619060CF050C109811A817B
:101D90000530110508F04AC181E0809376018091F9
:101DA0004D01811102C00E942506A0900001B09053
:101DB000010184E090E08A199B09880F991FA2E035
:101DC000B0E002C0AA0FBB1F8A95E2F7CD010E94C6
:101DD0001106109301010093000180914C01A0169F
:101DE000B10619F48111CBC0C6C0882309F4A7C07D
:101DF00080914B0181110E9489050E94A404846096
:101E00000E94D704C12CD12C5AEFE52E54E4F52EB4
:101E100068EB862E64E2962E0E948803B0E98B164A
:101E2000B1E09B06A4F420E030E84BEB55E4C70199
:101E3000B6010E94161787FF0AC020E030E040E498
:101E400050E4C701B6010E94AA166B017C01B401DF
:101E5000092C000C880B990B0E944C172B013C019C
:101E600020E030E849E854E40E94161787FF14C0C8
:101E700020E030E44CE155E4C701B6010E9416179A
:101E800087FF0AC020E030E040E050E4C701B6011F
:101E90000E94AA166B017C0120E030E541E156E486
:101EA000C301B2010E94161787FF19C029E88216E4
:101EB00023E19206A4F020E030E046E154E4C701BB
:101EC000B6010E94FC17181654F420E030E040E000
:101ED00050E4C701B6010E94A9166B017C01C7013D
:101EE000B6010E941B17CB010E94740231E0831AD5
:101EF000910809F091CF0E94A4048B7F0E94D7041F
:101F000046E9E42EF12C0E948803C1010197F1F704
:101F100041E0E41AF108B9F70E94A40484600E9429
:101F2000D7043CE8E32EF12C0E948803C1010197FD
:101F3000F1F751E0E51AF108B9F710924C01980158
:101F40002A193B0989EB92E0289FB001299F700D67
:101F5000389F700D1124A01AB10A40E050E083E6CA
:101F600091E0DC01AA9EC001AB9E900DBA9E900D3F
:101F700011240E94EE040E94940521E001C020E09B
:101F800080E090E02B830E94110684E090E0801BAB
:101F9000910B880F991F41E050E002C0440F551F7C
:101FA0008A95E2F7CA010E94110668EC70E080E0B1
:101FB00090E00E947F022B81222351F184EF90E078
:101FC0009F938F9387E791E09F938F930E94BC101C
:101FD0000E94A4048B7F0E94D7040F900F900F9053
:101FE0000F9005EB10E00E9488038BE195E30197C9
:101FF000F1F701501109B9F749ED50E060E070E0E8
:1020000087E29FEF0E94EE0481E080934B010EC0B7
:1020100080EF90E09F938F9387E791E09F938F935A
:102020000E94BC100F900F900F900F90809176013E
:10203000811124C00E948D03892B01F168EE73E0A9
:1020400080E090E00E947F020E948D038130910524
:1020500049F480910001909101018430910574F45C
:1020600001960AC0049751F48091000190910101FA
:10207000181619061CF401970E94E7060E942D010C
:1020800025CEEFE8F1E01382128288EE93E0A0E023
:10209000B0E084839583A683B7832CE131E031835C
:1020A00020832DEC30E0358724872CEC30E0378717
:1020B000268728EC30E0318B208B29EC30E0338B05
:1020C000228B2AEC30E0358B248B2EEC30E0378BE2
:1020D000268B118E128E138E148EECE2F2E0138298
:1020E000128284839583A683B7838EE291E09183E5
:1020F00080838FEF9FEF958784870895CF93DF9339
:10210000EC012B8120FF33C026FF0AC02F7B2B83DD
:102110008E819F8101969F838E838A8190E029C062
:1021200022FF0FC0E881F9818081082E000C990BF5
:10213000009719F420622B831AC03196F983E88343
:102140000EC0EA85FB85099597FF09C02B81019692
:1021500011F080E201C080E1822B8B8308C02E81C8
:102160003F812F5F3F4F3F832E83992702C08FEF20
:102170009FEFDF91CF910895A0E0B0E0E2ECF0E1B5
:102180000C9480160F811885F80183818860838301
:10219000AE01455F5F4F69857A85C8010E941611BF
:1021A000F8012381277F2383E4E00C949C16A0E0B0
:1021B000B0E0EDEDF0E10C948016AE01495F5F4FA9
:1021C000DA016D917D91AD0108E812E0F80182819C
:1021D0009381DC0113962C911397286013962C930E
:1021E0000E941611D8011296ED91FC91139723814C
:1021F000277F2383E4E00C949C16AEE0B0E0E3E09C
:10220000F1E10C9482168DE08C838B899C899A83F2
:102210008983AE01495E5F4F6D897E89CE0101964B
:102220000E9468142E96E2E00C949E16ACE0B0E09A
:10223000ECE1F1E10C9472167C016B018A01FC0166
:1022400017821682838181FFBDC1CE0101964C01A8
:10225000F7019381F60193FD859193FF81916F01C1
:10226000882309F4ABC1853239F493FD859193FF3E
:1022700081916F01853229F4B70190E00E94C01569
:10228000E7CF512C312C20E02032A0F48B3269F0C2
:1022900030F4803259F0833269F420612CC08D32E1
:1022A00039F0803339F4216026C02260246023C0D5
:1022B000286021C027FD27C030ED380F3A3078F470
:1022C00026FF06C0FAE05F9E300D1124532E13C086
:1022D0008AE0389E300D1124332E20620CC08E32DD
:1022E00021F426FD6BC1206406C08C3611F42068F1
:1022F00002C0883641F4F60193FD859193FF8191E8
:102300006F018111C1CF982F9F7D9554933028F490
:102310000C5F1F4FFFE3F9830DC0833631F0833725
:1023200071F0833509F05BC022C0F8018081898398
:102330000E5F1F4F44244394512C540115C03801A3
:10234000F2E06F0E711CF801A080B18026FF03C07F
:10235000652D70E002C06FEF7FEFC5012C870E94F2
:10236000B5152C0183012C852F77222E17C038013B
:10237000F2E06F0E711CF801A080B18026FF03C04F
:10238000652D70E002C06FEF7FEFC5012C870E94C2
:10239000AA152C012C852068222E830123FC1BC04A
:1023A000832D90E048165906B0F4B70180E290E022
:1023B0000E94C0153A94F4CFF50127FC859127FEC1
:1023C00081915F01B70190E00E94C01531103A94ED
:1023D000F1E04F1A51084114510471F7E5C08436F9
:1023E00011F0893639F5F80127FF07C06081718146
:1023F000828193810C5F1F4F08C060817181072E1D
:10240000000C880B990B0E5F1F4F2F76722E97FFD3
:1024100009C090958095709561957F4F8F4F9F4F24
:102420002068722E2AE030E0A4010E941116A82E26
:10243000A81844C0853729F42F7EB22E2AE030E058
:1024400025C0F22FF97FBF2E8F36C1F018F48835E2
:1024500079F0B4C0803719F0883721F0AFC02F2F42
:102460002061B22EB4FE0DC08B2D8460B82E09C041
:1024700024FF0AC09F2F9660B92E06C028E030E0E6
:1024800005C020E130E002C020E132E0F801B7FEF3
:1024900007C060817181828193810C5F1F4F06C0EC
:1024A0006081718180E090E00E5F1F4FA4010E9467
:1024B0001116A82EA818FB2DFF777F2E76FE0BC0D5
:1024C000372D3E7FA51450F474FE0AC072FC08C07C
:1024D000372D3E7E05C0BA2C372D03C0BA2C01C063
:1024E000B52C34FF0DC0FE01EA0DF11D8081803353
:1024F00011F4397E09C032FF06C0B394B39404C00E
:10250000832F867809F0B39433FD13C030FF06C0E3
:102510005A2CB31418F4530C5B18B32CB31468F48E
:10252000B70180E290E03C870E94C015B3943C85DF
:10253000F5CFB31410F43B1801C0312C34FF12C096
:10254000B70180E390E03C870E94C0153C8532FFD4
:1025500017C031FD03C088E790E002C088E590E035
:10256000B7010CC0832F867859F031FF02C08BE28F
:1025700001C080E237FD8DE2B70190E00E94C015F6
:10258000A51438F4B70180E390E00E94C0155A9476
:10259000F7CFAA94F401EA0DF11D8081B70190E014
:1025A0000E94C015A110F5CF332009F451CEB70118
:1025B00080E290E00E94C0153A94F6CFF701868140
:1025C000978102C08FEF9FEF2C96E2E10C948E165C
:1025D00020FD09C0FC0123FD05C022FF02C073835A
:1025E000628351834083089544FD10C046FD10C0AE
:1025F000DB01FC01AA0FBB1FEE1FFF1F1094D1F7D8
:102600006A0F7B1F8E1F9F1F31E003C033E001C0A4
:1026100034E0660F771F881F991F3150D1F7620F82
:10262000711D811D911D08950F931F93CF93DF930B
:102630008C01C8010E947E10EC0197FD08C00E9429
:102640009615892BB1F7B801CE010E94F815CE017D
:10265000DF91CF911F910F910895A1E0B0E0E3E3E6
:10266000F3E10C9478168C01C62E7A0129830E941E
:102670007E10AC01552729814B32510521F04D3296
:10268000510569F42068CA94C11002C080E076C088
:10269000C80129830E947E10298197FDF7CF322F30
:1026A0003D7FD32E322F307349F5803339F5BB246B
:1026B000BA94BC0C09F44EC0C80129830E947E1054
:1026C000298197FD47C0382F3F7D383569F48D2D1E
:1026D0008264D82ECA94CA94CC20E1F1C8010E9429
:1026E0007E1097FF0BC036C026FF04C02D2D226040
:1026F000D22E03C03D2D3261D32ECB2C812C912CB8
:10270000540120ED280F283080F0D4FE04C0B80119
:102710000E94F8151CC02A3040F0D6FEF8CF2F7D5D
:102720003FEE320F363098F727504D2DC501B401DA
:102730000E94F4124B015C018D2D8260D82ECA9448
:10274000CC2059F0C8010E947E1097FFDACFD1FC4F
:1027500004C09CCF812C912C5401D7FE08C0B094AA
:10276000A09490948094811C911CA11CB11C2D2DCF
:10277000B501A401C7010E94E81281E02196ECE0B6
:102780000C949416A1E2B0E0E8ECF3E10C94761618
:102790005C017A01CE0101966C0180E2F601119292
:1027A0008A95E9F7F501838040E050E0912C712C87
:1027B00070E0A1E0B0E0F90183FC859183FE819196
:1027C0008F01982F9F01811103C080E090E07CC0B1
:1027D0008E3519F44115510549F1E72FF0E0E41762
:1027E000F5073CF48D3559F18D3219F4772001F15C
:1027F00003C0711001C0982E892F86958695869505
:102800008601080F111D892F87703D0101C0660CDC
:102810008A95EAF7F801808186298083991559F015
:10282000991510F49F5FE8CF9150E6CF71E004C096
:102830007724739401C0712C4F5F5F4FBCCF77201A
:1028400019F08E8180628E83711103C09924939454
:1028500016C0F6019E012F5D3F4F808180958193C8
:10286000E217F307D1F7F2CFE114F10429F0F701F1
:102870008083C70101967C016150912CF9F0C5015C
:1028800069A30E947E1069A197FD16C0282F269586
:1028900026952695F601E20FF11D208130E0AC016E
:1028A0004770552702C0359527954A95E2F720FDD8
:1028B000DBCFB5010E94F815911087CFE114F10428
:1028C00011F0F7011082C801A196EEE00C94921667
:1028D0004F925F927F928F929F92AF92BF92CF92D0
:1028E000DF92EF92FF920F931F93CF93DF931F928C
:1028F000CDB7DEB76C012B015A01FC01178216829D
:10290000712CF601F380F201F3FC8591F3FE8191C5
:10291000382F2F01882309F4F3C090E039830E94F7
:1029200096153981892B21F0C6010E941413E9CF35
:10293000353241F4F201F3FC3591F3FE31912F0170
:10294000353269F4C60139830E947E10398197FDC2
:10295000D5C03817B1F2B6010E94F815D1C03A328D
:1029600039F4F3FC3591F3FE31912F0151E001C0B0
:1029700050E0420110E020ED230F2A3090F4526025
:10298000612F70E080E090E040E259830E94F412F1
:10299000162FF401F3FC3591F3FE31914F0159816B
:1029A000EACF052F232F240151FF03C0111102C0CC
:1029B000A7C01FEF383619F03C3659F011C0F401AA
:1029C000F3FC2591F3FE21912F01283649F4052FC0
:1029D00008600460F201F3FC2591F3FE21912F01C0
:1029E000222309F48DC0622F70E08CEA90E02983E5
:1029F0000E949F152981892B09F482C000FD07C020
:102A0000F501E080F180C50102965C0102C0E12C75
:102A1000F12C2E3651F4F6014681578160E070E0CA
:102A2000202FC7010E94E8126CCF233691F401FFDA
:102A300011E0C6010E947E1097FD60C0E114F10410
:102A400029F0F7018083C70101967C01115089F7B5
:102A500051C02B3559F49201A701612FC6010E9484
:102A6000C2132C01892B09F045C03FC0C601298340
:102A70000E941413298197FD41C02F3659F128F483
:102A8000243631F1293649F127C0233769F025373B
:102A9000F9F022C0E114F10429F0F7018082C701A6
:102AA00001967C01115071F0C6010E947E104C010C
:102AB00097FD08C00E949615892B61F3B601C401E9
:102AC0000E94F815E114F104A9F0F701108212C078
:102AD000006203C0006101C00064202FA701612FC4
:102AE000C6010E942D13811105C0F60183818073F8
:102AF00029F406C000FD05CF739403CF772019F0A9
:102B0000872D90E002C08FEF9FEF0F90DF91CF9164
:102B10001F910F91FF90EF90DF90CF90BF90AF90FB
:102B20009F908F907F905F904F90089591110C949B
:102B30006F16803219F089508550C8F70895FC014E
:102B40000590061621F00020D9F7C00108953197AD
:102B5000CF010895FC010590615070400110D8F735
:102B6000809590958E0F9F1F0895FC0161507040D5
:102B700001900110D8F7809590958E0F9F1F0895B2
:102B80000F931F93CF93DF93FB01238121FD03C09C
:102B90008FEF9FEF28C022FF16C046815781248106
:102BA00035814217530744F4A081B1819D012F5F05
:102BB0003F4F318320838C93268137812F5F3F4F96
:102BC0003783268310C0EB01092F182F0084F1856D
:102BD000E02D0995892BE1F68E819F8101969F83D7
:102BE0008E83812F902FDF91CF911F910F910895A8
:102BF000FB01238120FF12C026FD10C08F3F3FEF55
:102C0000930761F082832F7D20642383268137819F
:102C10002150310937832683992708958FEF9FEF3D
:102C20000895FA01AA27283051F1203181F1E89462
:102C30006F936E7F6E5F7F4F8F4F9F4FAF4FB1E0AF
:102C40003ED0B4E03CD0670F781F891F9A1FA11DAA
:102C5000680F791F8A1F911DA11D6A0F711D811DAB
:102C6000911DA11D20D009F468943F912AE0269F70
:102C700011243019305D3193DEF6CF010895462FCF
:102C80004770405D4193B3E00FD0C9F7F6CF462FB0
:102C90004F70405D4A3318F0495D31FD4052419319
:102CA00002D0A9F7EACFB4E0A695979587957795D6
:102CB0006795BA95C9F700976105710508959B015D
:102CC000AC010A2E06945795479537952795BA95E6
:102CD000C9F7620F731F841F951FA01D08959927C0
:102CE000882708952F923F924F925F926F927F9222
:102CF0008F929F92AF92BF92CF92DF92EF92FF920C
:102D00000F931F93CF93DF93CDB7DEB7CA1BDB0BB7
:102D10000FB6F894DEBF0FBECDBF09942A8839885C
:102D200048885F846E847D848C849B84AA84B98463
:102D3000C884DF80EE80FD800C811B81AA81B9816F
:102D4000CE0FD11D0FB6F894DEBF0FBECDBFED0183
:102D500008955058BB27AA270E94C1160C94C21789
:102D60000E94B41738F00E94BB1720F039F49F3F3F
:102D700019F426F40C94B1170EF4E095E7FB0C94CB
:102D8000AB17E92F0E94D31758F3BA1762077307DE
:102D90008407950720F079F4A6F50C94F5170EF446
:102DA000E0950B2EBA2FA02D0B01B90190010C015B
:102DB000CA01A0011124FF27591B99F0593F50F473
:102DC000503E68F11A16F040A22F232F342F4427CB
:102DD000585FF3CF469537952795A795F0405395C3
:102DE000C9F77EF41F16BA0B620B730B840BBAF093
:102DF0009150A1F0FF0FBB1F661F771F881FC2F7FE
:102E00000EC0BA0F621F731F841F48F48795779511
:102E10006795B795F7959E3F08F0B0CF9395880FCB
:102E200008F09927EE0F9795879508950E948717C8
:102E300008F481E008950E94DB1788F09F5798F00E
:102E4000B92F9927B751B0F0E1F0660F771F881FAF
:102E5000991F1AF0BA95C9F714C0B13091F00E94C9
:102E6000F517B1E008950C94F517672F782F882790
:102E7000B85F39F0B93FCCF3869577956795B395F0
:102E8000D9F73EF490958095709561957F4F8F4F5F
:102E90009F4F0895E89409C097FB3EF49095809564
:102EA000709561957F4F8F4F9F4F9923A9F0F92F10
:102EB00096E9BB279395F695879577956795B7958E
:102EC000F111F8CFFAF4BB0F11F460FF1BC06F5F74
:102ED0007F4F8F4F9F4F16C0882311F096E911C086
:102EE000772321F09EE8872F762F05C0662371F0A7
:102EF00096E8862F70E060E02AF09A95660F771FBB
:102F0000881FDAF7880F9695879597F90895990F96
:102F10000008550FAA0BE0E8FEEF16161706E807A3
:102F2000F907C0F012161306E407F50798F0621BC4
:102F3000730B840B950B39F40A2661F0232B242B99
:102F4000252B21F408950A2609F4A140A6958FEFB8
:102F5000811D811D089597F99F6780E870E060E00A
:102F600008959FEF80EC089500240A941616170622
:102F700018060906089500240A941216130614066A
:102F800005060895092E0394000C11F4882352F0CD
:102F9000BB0F40F4BF2B11F460FF04C06F5F7F4F85
:102FA0008F4F9F4F089557FD9058440F551F59F06C
:102FB0005F3F71F04795880F97FB991F61F09F3F26
:102FC00079F087950895121613061406551FF2CF4F
:102FD0004695F1DF08C0161617061806991FF1CF9F
:102FE00086957105610508940895E894BB276627C6
:102FF0007727CB0197F908950E94871708F48FEF80
:103000000895A1E21A2EAA1BBB1BFD010DC0AA1F29
:10301000BB1FEE1FFF1FA217B307E407F50720F041
:10302000A21BB30BE40BF50B661F771F881F991FBC
:103030001A9469F760957095809590959B01AC0105
:10304000BD01CF010895EE0FFF1F0590F491E02D13
:10305000099481E090E0F8940C942E18F894FFCF36
:10306000FFFFFFFFFFFF00E100000000000001067E
:103070000500C1808100000000000000DA0873082C
:10308000F00052022101FF0013010000000037018F
:10309000B902E3014D0158010B02E7010D0A0000DE
:00000001FF
