:100000000C94CF010C94F7010C94F7010C94F701B8
:100010000C94F7010C94F7010C94F7010C94F70180
:100020000C94F7010C94F7010C94C50A0C94370B4F
:100030000C94F7010C94F7010C94F7010C94F70160
:100040000C94F7010C94F7010C94F7010C94F70150
:100050000C94F7010C94F7010C9498070C9401048C
:100060000C94F7010C94A3090C947D090C94F701EE
:100070000C94F7010C94F7010C94F7010C94F70120
:100080000C94F7010C94F7010C94F7010C94F70110
:100090000C94F7010C94F7010C94F7010C94F70100
:1000A0000C94F7010C94F7010C94F7016364696EEA
:1000B0006F70737578585B00746D63323133305FE5
:1000C00077725F43484F50434F4E46206F75743DE3
:1000D00030782530386C7820696E3D30782530389E
:1000E0006C780A00534947300A004E6577206578DE
:1000F000747275646572203A25640A0043757272E1
:10010000656E74206578747275646572203A256432
:100110000A0053706565642025640A0053706565A4
:10012000642025640A0053706565642025640A0014
:1001300061786973203220737461743D30782530A2
:1001400032782047535441543D30782530386C780C
:100150000A0061786973203120737461743D3078CE
:10016000253032782047535441543D30782530387B
:100170006C780A0061786973203020737461743D73
:100180003078253032782047535441543D3078251B
:1001900030386C780A00535053523D307825303255
:1001A000780A00535043523D3078253032780A00A7
:1001B00073746172740A00544D43323133302C2011
:1001C0006178697320256420646961670A0046418B
:1001D000494C45440A00746F3D25640A006E653D34
:1001E00025640A006F6B3D25640A0053554343455F
:1001F000440A0020307825303278204E4721207282
:1002000065636569766564203078253032780A0048
:1002100020307825303278204E47212074696D6572
:100220006F75740A0020307825303278204F4B0AE1
:1002300000636F6E6E656374206C6F6F70626163D4
:100240006B20616E6420707265737320656E7465D7
:10025000722E2E0A00554152543120646961676E36
:100260006F737469630A0055415254206272696465
:100270006765207465726D696E617465640A005506
:1002800041525420627269646765207374617274AC
:1002900065642C20707265737320616E79206275BD
:1002A00074746F6E20746F2073746F700A005245FF
:1002B0005345540A00556E6B6E6F776E20636F6DF9
:1002C0006D616E643A20222573220A00496E7661C0
:1002D0006C69642065787472756465722025640A9F
:1002E0000054256400544553543100544553540080
:1002F000484F4D4500444941475F544D43256400F4
:10030000444941475F554152543100554152545F71
:100310004252494447450052455345540025333124
:100320005B5E0A5D256E00080B00020202010009F7
:100330000400000102020000052400100105240150
:1003400001010424020605240600010705810310AB
:10035000004009040100020A0000000705020240F3
:100360000000070583024000000403090412010095
:1003700002EF0201404123368000010102030141E6
:10038000726475696E6F204C4C43004172647569EC
:100390006E6F204C656F6E6172646F0012121124D3
:1003A0001FBECFEFDAE0DEBFCDBF22E0A2E4B1E0B6
:1003B00001C01D92A238B207E1F711E0A0E0B1E060
:1003C000E6E5F1E302C005900D92A234B107D9F73A
:1003D00011E0CFECD1E004C02197FE010E949E18ED
:1003E000CE3CD107C9F70E94670D0C94A9180C9454
:1003F0000000FC01918D228D892F90E0805C9F4F41
:10040000821B91098F739927089580E090E0892BD2
:1004100029F00E94CF0881110C9400000895CF9319
:10042000DF931F92CDB7DEB76983DC01ED91FC91BC
:100430000280F381E02D41E050E0BE016F5F7F4F0D
:1004400009950F90DF91CF91089583E08093E900A3
:100450008091F200882319F08AE38093E8000895E0
:10046000FC018485958597FD0BC09FB7F89482E0C9
:100470008093E9008091F2009FBF90E0019608957B
:100480009FB7F89482E08093E9008091F2009FBFCB
:1004900090E00895089580E090E0089582309105FD
:1004A00038F0880F991F880F991F05970197F1F76A
:1004B00008953FB7F89480914D0190914E01A0911D
:1004C0004F01B091500126B5A89B05C02F3F19F0F0
:1004D0000196A11DB11D3FBFBA2FA92F982F8827C4
:1004E000820F911DA11DB11DBC01CD0142E0660F1F
:1004F000771F881F991F4A95D1F70895682F80E2CA
:1005000092E00E940F0280E090E008950895CF925B
:10051000DF92EF92FF929CE59CBD1DBC813039F0CB
:1005200020F0823029F4769803C0469801C05F9885
:100530006EBD0DB407FEFDCF9EB5C52EDD24EE24A5
:10054000FF24CEBC0DB407FEFDCF9EB56A01EE249C
:10055000FF24CEBC0DB407FEFDCF9EB5C32ED42E16
:10056000E52EFF24CEBC0DB407FEFDCF9EB52EBDFB
:100570000DB407FEFDCF9EB5813039F020F08230FA
:1005800029F4769A03C0469A01C05F9AFF90EF90D3
:10059000DF90CF9008950E94B40A90E00895CF9321
:1005A000DF931F92CDB7DEB7FC018485958597FD5B
:1005B00005C02FEF3FEF358724870BC0CE01019692
:1005C0000E948A0A019719F4898190E002C08FEF96
:1005D0009FEF0F90DF91CF91089580E292E00C940D
:1005E000CF020F931F93CF93DF931F92CDB7DEB748
:1005F0008C01FC018485958597FF0EC0CE01019684
:100600000E948A0A019719F4298130E002C02FEF75
:100610003FEFF80135872487F801848595850F9091
:10062000DF91CF911F910F91089583E891E00C9491
:10063000AD08682F83E891E00E94D90880E090E03F
:100640000895FC01848DDF01A80FB11DA35ABF4F8F
:100650002C91848D90E001968F739927848FA689C1
:10066000B7892C93A089B1898C9180648C93938DE8
:10067000848D981306C00288F389E02D80818F7DD8
:10068000808308958F929F92AF92BF92CF92DF9214
:10069000EF92FF926B017C010E9459024B015C01B9
:1006A000C114D104E104F104F1F00E945902DC010B
:1006B000CB0188199909AA09BB09883E9340A10575
:1006C000B10570F321E0C21AD108E108F10888EE03
:1006D000880E83E0981EA11CB11CC114D104E10452
:1006E000F10419F7DDCFFF90EF90DF90CF90BF902E
:1006F000AF909F908F9008958F929F92AF92BF92EC
:10070000CF92DF92EF92FF920F931F93CF93DF93DD
:100710005C016B017A0180910D01882309F45BC0B3
:1007200080918201882309F456C080917F0180FF67
:1007300005C08091E00082608093E000E70110E056
:100740000AEF83E0882E9AE3992E2097D9F10E9430
:10075000B40A81110AC0015009F43DC061E070E0A3
:1007600080E090E00E944203F0CF282F30E0C217D3
:10077000D3070CF48C2F4FB7F8948092E900909136
:10078000E80095FF1DC0282F30E0C21BD30BF601F7
:10079000982F915020F081918093F100FACFC20EF2
:1007A000D31E112319F09092E80009C08091E8004F
:1007B00085FD06C09092E80011E0209709F010E056
:1007C0004FBFC3CF1111C3CF5D9884E680938001E2
:1007D0001E141F0444F081E090E0F50193838283AE
:1007E00080E090E001C0C701DF91CF911F910F9190
:1007F000FF90EF90DF90CF90BF90AF909F908F9041
:1008000008951F920F920FB60F9211242F933F93CA
:100810008F939F93AF93BF938091490190914A0129
:10082000A0914B01B0914C013091480123E0230F7E
:100830002D3720F40196A11DB11D05C026E8230F18
:100840000296A11DB11D2093480180934901909308
:100850004A01A0934B01B0934C0180914D019091BE
:100860004E01A0914F01B09150010196A11DB11D03
:1008700080934D0190934E01A0934F01B09350018E
:10088000BF91AF919F918F913F912F910F900FBE8C
:100890000F901F9018950F931F939CE59CBD1DBC56
:1008A000813039F020F0823029F4769803C04698E0
:1008B00001C05F986EBD0DB407FEFDCF9EB51EBC96
:1008C0000DB407FEFDCF9EB51EBC0DB407FEFDCFD7
:1008D0009EB51EBC0DB407FEFDCF9EB51EBC0DB46B
:1008E00007FEFDCF9EB5813039F020F0823029F42B
:1008F000769A03C0469A01C05F9A9CE59CBD1DBCD8
:10090000813039F020F0823029F4769803C046987F
:1009100001C05F981EBC0DB407FEFDCF9EB51EBC86
:100920000DB407FEFDCF0EB510E020E030E0322F11
:10093000212F102F00271EBC0DB407FEFDCF6EB572
:10094000062B322F212F102F00271EBC0DB407FEBF
:10095000FDCF6EB5062B322F212F102F00271EBC86
:100960000DB407FEFDCF6EB5062B813039F020F0B7
:10097000823029F4769A03C0469A01C05F9A4115E5
:10098000510529F0FA010083118322833383892FD3
:100990001F910F9108951F93CF93DF9300D000D044
:1009A000CDB7DEB7182F23ED30E043E057E16CEE12
:1009B0000E94870219821A821B821C82AE014F5F3D
:1009C0005F4F6CE6812F0E944B048C818F938B814B
:1009D0008F938A818F9389818F9387E18F9383E0AF
:1009E0008F931F9283ED8F9388EB90E09F938F936B
:1009F0000E94CC1220E130E14FE050E060E9812F0D
:100A00000E94870220E030E0A90161E9812F0E9465
:100A100087020FB6F894DEBF0FBECDBF133030F49F
:100A2000E12FF0E0EC5EFE4F208101C024E0822F38
:100A3000220F990BAA0BBB0BAC01332722276DEEBB
:100A4000812F0E948702133048F4E12FF0E0EE0F6F
:100A5000FF1FE25FFE4F2081318102C022EC31E0B6
:100A600040E050E064E9812F0E94870220E831E3F2
:100A700040E050E060E8812F0E9487020F900F90C5
:100A80000F900F90DF91CF911F9108952091580101
:100A900030915901C90184709927AC015695479549
:100AA000C901807199279695879596958795842B8E
:100AB0002170822B08952E98000020E130E040E064
:100AC00050E8BA0168237923672B11F02D9A01C0F1
:100AD0002D98479A00004798000056954795215059
:100AE000310979F72E9A00009093590180935801AB
:100AF0000895282F2270922F990F282F2470220FEB
:100B0000220F292B8170282B022E000C330B809191
:100B10005801909159018A7E822B932B0C945B058E
:100B20009F92AF92BF92CF92DF92EF92FF920F937C
:100B30001F93CF93DF93EC018B0197FF07C0D195F3
:100B4000C195D1090E9446058E7F03C00E944605CB
:100B500081600E94790517FF16C011950195110952
:100B60000E9446058D7F0E94790582E3E82EF12CD4
:100B70009BE1C92E9EE4D92E2BE7A22E2CE0B22EAB
:100B80003AE0932E20C00E9446058260ECCF01150A
:100B9000110531F05C9A01501109C5010197F1F777
:100BA00000005C982C981E141F0454F49E9CC001F5
:100BB0009F9C900D11240E944E0281E0E81AF108DA
:100BC0000115110541F0209711F32C9A2197C601C8
:100BD0000197F1F7DCCF2097B1F7DF91CF911F910B
:100BE0000F91FF90EF90DF90CF90BF90AF909F90CC
:100BF00008950F931F93CF93DF9380915A01882319
:100C000041F060E070E080E290E00E949005109278
:100C10005A010E9446058B7F0E94790589E290E087
:100C20002BE73EE35E9A00005E980000F9013197E1
:100C3000F1F70197B9F70EE313E0C0EADFE05E9A3F
:100C400000005E980000C93E83E0D8070CF02397AF
:100C5000CE010E944E020150110989F7DF93CF9314
:100C600086E291E09F938F930E94CC120F900F9099
:100C70000F900F9000EB16E35E9A00005E98000064
:100C8000C93CD1050CF02197CE010E944E020150C3
:100C9000110991F7DF93CF938CE191E09F938F93AC
:100CA0000E94CC128E0104551A4F0F900F900F9096
:100CB0000F905E9A00005E9800002196CE010E947F
:100CC0004E02C017D107A9F7DF93CF9382E191E0DD
:100CD0009F938F930E94CC1281E080935B010F90D1
:100CE0000F900F900F90DF91CF911F910F9108956A
:100CF000582F442720915801309159012F733327E1
:100D0000242B352B882793709695879596958795F4
:100D1000822B932B0C945B05CF93DF93C091000142
:100D2000D09101019093010180930001DF93CF9353
:100D30008CEF90E09F938F930E94CC1280910101E1
:100D40008F93809100018F938AEE90E09F938F9311
:100D50000E94CC128DB79EB708960FB6F8949EBF2E
:100D60000FBE8DBF209100013091010180915B0188
:100D7000C217D30719F4811140C03DC0882301F187
:100D800080915A01882341F060E070E080E290E0B9
:100D90000E94900510925A010E94460584600E94AC
:100DA000790586E390E12BE539E05E9A00005E98D4
:100DB0000000F9013197F1F70197B9F710925B0143
:100DC0008091000190910101AC014C1B5D0B23EA65
:100DD00032E0429FB001439F700D529F700D11246D
:100DE000C81BD90B8DE2282F2C9FC0012D9F900D81
:100DF00011240E9490050E94F90580915A018111E9
:100E000009C060E070E080EE9FEF0E94900581E0F5
:100E100080935A012091000130910101220F331F6C
:100E200081E090E002C0880F991F2A95E2F70E94A6
:100E3000780681E0DF91CF9108950F931F93CF93B0
:100E4000DF938091470180FF0DC0F8948E7F8093DF
:100E50004701789484EE90E09F938F930E94CC1288
:100E60000F900F908091470181FF50C0F8948D7FC3
:100E700080934701789480914601982F9E7F9093AC
:100E8000460180FF0AC0809100019091010118166F
:100E900019061CF401970E948C0680914601982F38
:100EA0009D7F9093460181FF1BC0C0E0D0E001E030
:100EB00010E0C8010C2E02C0880F991F0A94E2F7B7
:100EC0000E94780664E670E080E090E00E944203B1
:100ED0002296CA30D10569F782E090E00E948C0624
:100EE00080914601982F9B7F9093460182FF0EC010
:100EF00080910001909101018430910538F40196B0
:100F0000DF91CF911F910F910C948C06DF91CF91BF
:100F10001F910F9108951092450110924201809106
:100F2000560180FD04C010924401109243010895BF
:100F30001F920F920FB60F9211242F933F934F934E
:100F40005F936F937F938F939F93AF93BF93EF9331
:100F5000FF93909155018FEF890F80935501911167
:100F600021C09AE09093550180915401882321F08B
:100F7000815080935401A6C09093540180915301F5
:100F8000882321F08150809353019CC0909353019A
:100F9000809151019091520101969093520180935A
:100FA000510190C0853009F08DC08091450187FFC7
:100FB0007FC08F70E82FF0E021E030E0082E02C003
:100FC000220F331F0A94E2F74091560150915701C6
:100FD00024233523232B71F420917800309179005C
:100FE000EE0FFF1FED5BFE4F40815181240F351F37
:100FF000318320838823A9F1809142018F5F809300
:101000004201882381F180914301909144018A300B
:10101000910564F09C01215431402732310540F0A4
:10102000855F91404D9730F080E005C081E003C0BE
:1010300082E001C084E0282F209590915C019223EA
:1010400020914601922B9093460180935C01992355
:1010500029F0809147018260809347010E948B07AD
:1010600002C021E001C020E0822F90E041E050E08A
:1010700045FF03C0882331F080E0440F551F9F5F78
:101080009031B1F7392F3F7080917B0093FF02C000
:10109000806201C08F7D80937B0080917C00932FC4
:1010A0009770887F892B80937C00209345010AC02C
:1010B00080917A00806480937A00809145018068F5
:1010C00080934501FF91EF91BF91AF919F918F91D7
:1010D0007F916F915F914F913F912F910F900FBE34
:1010E0000F901F901895CF92DF92EF92FF920F937F
:1010F0001F93CF93DF936C017A018B01C0E0D0E0A6
:10110000CE15DF0589F0D8016D918D01D601ED91E5
:10111000FC910190F081E02DC6010995892B11F415
:101120007E0102C02196ECCFC701DF91CF911F91C4
:101130000F91FF90EF90DF90CF900895FC01538DB9
:10114000448D252F30E0842F90E0821B930B5417A1
:1011500010F0CF96089501970895FC01918D828D2E
:10116000981761F0828DDF01A80FB11D5D968C91FB
:10117000928D9F5F9F73928F90E008958FEF9FEF06
:101180000895FC01918D828D981731F0828DE80FC2
:10119000F11D858D90E008958FEF9FEF089583E80E
:1011A00091E00E94F90121E0892B09F420E0822FCF
:1011B0000895EF92FF920F931F93CF93DF93EC016B
:1011C00081E0888F9B8D8C8D981305C0E889F98903
:1011D000808185FD24C0F62E0B8D10E00F5F1F4F20
:1011E0000F731127E02E8C8DE8120CC00FB607FC90
:1011F000FACFE889F989808185FFF5CFCE010E9479
:101200002103F1CF8B8DFE01E80FF11DE35AFF4F53
:10121000F0820B8FEA89FB898081806207C0EE89AA
:10122000FF896083E889F98980818064808381E017
:1012300090E0DF91CF911F910F91FF90EF90089573
:10124000CF93DF93EC01888D8823C9F0EA89FB896D
:10125000808185FD05C0A889B9898C9186FD0FC064
:101260000FB607FCF5CF808185FFF2CFA889B98939
:101270008C9185FFEDCFCE010E942103E7CFDF9156
:10128000CF91089540917B0150917C01209179018B
:1012900030917A0142175307B4F49091E8009570A9
:1012A000E1F39091E80092FD19C08093F1008091E4
:1012B0007B0190917C0101968F739927892B19F4FA
:1012C0008EEF8093E80080917B0190917C010196E4
:1012D00090937C0180937B0181E0089580E00895E4
:1012E000615030F02091F100FC0120830196F8CF8D
:1012F000289884E68093810108951F920F920FB67B
:101300000F9211242F933F934F935F936F937F938B
:101310008F939F93AF93BF93EF93FF9383E891E0F5
:101320000E942103FF91EF91BF91AF919F918F9107
:101330007F916F915F914F913F912F910F900FBED1
:101340000F901F9018951F920F920FB60F921124B5
:101350002F938F939F93EF93FF93E0919301F091DD
:1013600094018081E0919901F0919A0182FD12C06F
:10137000908180919C018F5F8F7320919D018217D6
:1013800051F0E0919C01F0E0ED57FE4F958F809376
:101390009C0101C08081FF91EF919F918F912F91CE
:1013A0000F900FBE0F901F901895809174028111BD
:1013B0000DC082E08093700284E0809371021092ED
:1013C00073021092720281E08093740280E792E0CF
:1013D00008950E94A418CF92DF92EF92FF920F938C
:1013E0001F93CF93DF931F92CDB7DEB7182F062F31
:1013F000E42E862F880F8E5F99830E94420983E036
:101400000E944209F12EC12E9981D92E8C2D8F195F
:10141000801798F4F601E7FE02C0849101C0808134
:101420000E944209182F80E00E9442098123FFEFA9
:10143000CF1ADF0A8111EACF01C081E00F90DF915E
:10144000CF911F910F91FF90EF90DF90CF90089573
:10145000DF92EF92FF920F931F93CF93DF93D82EDB
:101460008A017B01E40EF51EEB01CE15DF0571F05C
:10147000D7FE03C0FE01849101C088810E94420909
:1014800021968111F2CF8FEF9FEF01C0C801DF914C
:10149000CF911F910F91FF90EF90DF9008950F93E0
:1014A0001F93CF93DF931F92CDB7DEB782E089837E
:1014B00042E450E067E273E080E80E94280A0E945C
:1014C000D509DC0112960D911C9113970115110598
:1014D00069F0D801ED91FC910280F381E02DBE010D
:1014E0006F5F7F4FC801099597FF07C089810F90F3
:1014F000DF91CF911F910F910895F801008511851B
:10150000E5CF2C9A5C9A5E9A00005C982C985E98C5
:1015100000000895FC0180918201811103C08FEFCA
:101520009FEF08959FB7F89482E08093E90020919F
:10153000F20030E01216130614F421E030E0211519
:10154000310559F0289884E6809381018091F1005B
:1015500080838091F200882319F09FBFC90108950C
:101560008BE68093E800F9CF2FB7F89483E080935F
:10157000E9009091E800892F807295FF04C0909156
:10158000F20080E4891B2FBF08951F920F920FB6BF
:101590000F9211248F939F938091E1009091E1002D
:1015A000937F9093E10083FF0FC01092E90091E0D8
:1015B0009093EB001092EC0092E39093ED00109268
:1015C000820198E09093F00082FF20C093E0909316
:1015D000E9009091F200992319F09AE39093E800C2
:1015E00090918001992339F09091800191509093CE
:1015F0008001992389F190918101992339F090918B
:101600008101915090938101992341F184FF10C091
:101610008091E2008E7E81608093E2008091E10003
:101620008F7E8093E10080917F018E7E806111C06A
:1016300080FF16C08091E2008E7E80618093E20080
:101640008091E1008E7E8093E10080917F018E7E0B
:10165000816080937F0104C05D9ACDCF289AD6CF58
:101660009F918F910F900FBE0F901F9018951F9212
:101670000F920FB60F921124CF92DF92EF92FF924A
:101680000F931F932F933F934F935F936F937F938A
:101690008F939F93AF93BF93EF93FF93CF93DF937A
:1016A000CDB7DEB76C97DEBFCDBF1092E900809159
:1016B000E80083FFEDC168E0CE0145960E94700905
:1016C00082EF8093E8008D8987FF05C09091E80044
:1016D00090FFFCCF03C09EEF9093E800982F907688
:1016E00009F0C6C09E892F89188D91110CC08038D1
:1016F00029F480917E018093F10002C01092F100E4
:101700001092F10048C1422F50E0512B913051F41A
:10171000811141C14130510509F03DC180917E01E7
:101720008D7F0BC0933061F4811135C1413051057B
:1017300009F031C180917E01826080937E012BC1CE
:10174000953041F48091E80080FFFCCF2068209321
:10175000E30021C1963009F05FC0EB8CFC8C109245
:10176000E90010927C0110927B01123091F51092E9
:101770007A01109279010E944F0A99E0BE016F5FD1
:101780007F4FDB01E92F1D92EA95E9F799831A83D0
:1017900091E09E8390EA98879AEF998720917B0148
:1017A00030917C01275F3F4F3C832B838D831092C8
:1017B000E90010927C0110927B01F0927A01E09294
:1017C000790149E050E080E00E94280A0E944F0A17
:1017D000E2C0F0927A01E09279010E94D509DC0121
:1017E0001296ED90FC901397E114F10409F4C0C037
:1017F000D701ED91FC910480F581E02DBE016B5E77
:101800007F4FC7010995009719F00CF0C4C0C7C0FD
:10181000F701E084F184E8CF973009F4C0C0983034
:1018200021F481E08093F100B6C0993009F0B3C093
:10183000837009F0B4C0E8E1F1E081E021E036E333
:101840009081992361F08093E9002093EB009191BE
:101850009093EC003093ED008F5F873089F78EE72F
:101860008093EA001092EA008F898093820193C0EE
:101870008B8D9C8D1092E90010927C0110927B015F
:1018800090937A0180937901898D811156C08E8958
:101890009D89913A59F4813209F081C047E050E0C6
:1018A00066E071E080E00E94280A75C0913209F07C
:1018B00076C0833289F4888D90E0982F88272F890D
:1018C000822BA0E0B0E08093020190930301A093EB
:1018D0000401B09305015FC0803269F48091E80093
:1018E00082FFFCCF67E086E091E00E9470098BEFF9
:1018F0008093E80006C0823209F04DC08F89809342
:101900000D0180917D01882319F0EEEFFAE002C00D
:10191000E0E0F8E08091060190910701A0910801B4
:10192000B0910901803B9440A105B10509F07BC04D
:1019300080910D0180FF93C076C00E94D509DC0123
:1019400012960D911C9113970115110541F1D801C3
:10195000ED91FC910190F081E02DBE016B5E7F4F17
:10196000C8010995811117C0F80100851185ECCFD8
:10197000113009F44EC0133091F48F89882309F493
:1019800045C0823081F440E860E18BE893E00E943A
:10199000EB09882321F08EEF8093E80079C081E283
:1019A0008093EB0075C0813029F440E86BE08FE74D
:1019B00093E0EDCF833099F70E94D509DC011296B0
:1019C000ED90FC9013978E010F5F1F4F6801E1149B
:1019D000F10479F0D701ED91FC910680F781E02DBB
:1019E000B801C7010995080F111DF701E084F184C2
:1019F000EECFD8011C92F60101900020E9F7319753
:101A0000BF016C197D0940E0C601C1CF69E673E0F2
:101A100002C06DE673E06115710509F2FB014491A6
:101A200050E080E840CF0FB6F894A8958091600010
:101A3000886180936000109260000FBEA895EE3F11
:101A40002AE0F20739F08091FE0A9091FF0A918313
:101A50008083A1CF1092FF0A1092FE0A9CCFEE3F26
:101A60008AE0F80731F0808191819093FF0A80939A
:101A7000FE0A87E797E7918380839BE088E10FB6B2
:101A8000F894A895809360000FBE9093600083CF78
:101A90006C960FB6F894DEBF0FBECDBFDF91CF912D
:101AA000FF91EF91BF91AF919F918F917F916F9136
:101AB0005F914F913F912F911F910F91FF90EF9068
:101AC000DF90CF900F900FBE0F901F901895CF937F
:101AD000DF93CDB7DEB7A9970FB6F894DEBF0FBE80
:101AE000CDBF789484B5826084BD84B5816084BDA7
:101AF00085B5826085BD85B5816085BD80916E00AC
:101B0000816080936E0010928100809181008260DC
:101B10008093810080918100816080938100809119
:101B2000800081608093800080919100826080932A
:101B3000910080919100816080939100809190004C
:101B40008160809390008091C10084608093C10087
:101B50008091C10082608093C1008091C10081604A
:101B60008093C1008091C30081608093C300809105
:101B7000C00082608093C0008091C2008160809329
:101B8000C20080917A00846080937A0080917A000C
:101B9000826080937A0080917A00816080937A00DD
:101BA00080917A00806880937A001092820110926E
:101BB0007E0110927F018091D70081608093D700D1
:101BC00080EA8093D80089B5806189BD89B582603B
:101BD00089BD09B400FEFDCF61E070E080E090E0D7
:101BE0000E9442038091D8008F7C80618093D8004E
:101BF0008091E000807F8093E0008091E1008E7E04
:101C00008093E1008DE08093E200559A209AEEEFF8
:101C1000FFE7859194918B3F9C4D19F481E080936F
:101C20007D01F894109255011092540110925301C5
:101C3000109252011092510180E888BD80916E008F
:101C4000846080936E003F9A269A259A47982E9832
:101C50002D98109259011092580180E090E00E9456
:101C60005B0580915801909159010E945B058FEFAF
:101C700093E00E9478068FEF9FEF90932D02809360
:101C80002C022BE631E08EE792E090937401809372
:101C900073018DEE92E0909376018093750193E04D
:101CA00090936E01109278011092770130937D022B
:101CB00020937C0230937F0220937E02E091930177
:101CC000F091940182E08083E0918F01F091900186
:101CD0001082E0919101F091920180E18083109255
:101CE0009B01E0919701F09198018EE08083E09153
:101CF0009501F0919601808180618083E09195014A
:101D0000F0919601808188608083E0919501F09147
:101D10009601808180688083E0919501F091960121
:101D200080818F7D808329E133E0309366012093A9
:101D3000650125E133E030936801209367019093BA
:101D4000600110926A011092690184B1817F84B9A7
:101D500084B1866084B93E9A579A6E9A469A5F9A81
:101D6000769A549A249A569A5C982C985E9880E0B9
:101D70000E94CB0481E00E94CB0482E00E94CB044D
:101D800019821A821B821C828CB51F928F9383EA60
:101D900091E09F938F930E94CC128DB51F928F93E9
:101DA00086E991E09F938F930E94CC12AE014F5F22
:101DB0005F4F61E080E00E944B049C819F939B8178
:101DC0009F939A819F9399819F931F928F9384E70A
:101DD00091E09F938F930E94CC12AE014F5F5F4FB3
:101DE00061E081E00E944B049C819F939B819F93C3
:101DF0009A819F9399819F931F928F9382E591E09F
:101E00009F938F930E94CC12AE014F5F5F4F61E0B2
:101E100082E00E944B049C819F939B819F939A81B7
:101E20009F9399819F931F928F9380E391E09F935B
:101E30008F930E94CC1210925701109256018091FC
:101E40007A00876080937A0080917C008064809320
:101E50007C0080917A00806880937A0080E2809391
:101E60007E0010927D000FB6F894DEBF0FBECDBF8E
:101E70000E948B07789462E370E080E090E00E941B
:101E8000420380EB91E09F938F930E94CC128AEAE9
:101E900092E00E9478068091580190915901837DCB
:101EA0000E945B050F900F903E0195E2690E711C38
:101EB0000BE611E04E01A7E28A0E911C43EF242E9F
:101EC00041E0342E55E2452E52E0552E18A61FA2B1
:101ED0001EA21DA27F926F9221E030E02C0F3D1FC9
:101EE0003F932F938DE193E09F938F931F930F93D5
:101EF0000E94B1120FB6F894DEBF0FBECDBF181608
:101F000019060CF036C28DA19EA1E1E0F0E0EC0FC5
:101F1000FD1FE80FF91F10820197E1E0F0E0EC0FE0
:101F2000FD1FE80FF91F20812D3011F02A3039F400
:101F3000E1E0F0E0EC0FFD1FE80FF91F108289814E
:101F4000882309F416C267E173E0CE0101960E946E
:101F50004F12892B91F48EEA92E09F938F931F93F7
:101F60000F930E94961264E670E080E090E00E9479
:101F7000420378940C940000F8C16BE073E0CE014A
:101F800001960E944F12892B49F58FE792E09F93AB
:101F90008F931F930F930E9496120F900F900F90A4
:101FA0000F908BE691E00E94581297FD04C06DE5FA
:101FB00071E00E94B5178DE591E00E94581297FDDF
:101FC00004C06BE671E00E94B5170E941D07809166
:101FD0005C01882331F387E692E078C060E073E02B
:101FE000CE0101960E944F12892B09F076C085E53B
:101FF00092E09F938F931F930F930E94961281E319
:1020000092E09F938F931F930F930E9496120FB6A7
:10201000F894DEBF0FBECDBF8BE691E00E94581250
:1020200097FFFACF8BE691E00E945812082E000C21
:10203000990B8A30910529F00D9719F00E941D0720
:10204000F1CF8DE591E00E94581297FFFACFA12CB5
:10205000B12CC12CD12CE12CF12C6DE571E0C70124
:102060000E94B51725E68DE591E029A70E94581238
:1020700029A597FFCAC1215009F480C129A70E9450
:102080001D0729A5F0CF9F938F93FF92EF923F9268
:102090002F921F930F930E9496123FEFA31AB30A39
:1020A0000FB6F894DEBF0FBECDBF9FEFE91AF90A55
:1020B000E114A1E0FA0689F6C114D10409F072C155
:1020C000A114B10409F06EC18BEE91E09F938F9340
:1020D0001F930F930E94961248C19F928F9285EF93
:1020E00092E09F938F9381E090E08C0F9D1F9F93D0
:1020F0008F930E94F2120F900F900F900F900F90FD
:102100000F9018161906A4F48FA198A599279F93EC
:102110008F9387EB91E09F938F931F930F930E9470
:1021200096120F900F900F900F900F900F9021C16B
:1021300060EF72E0CE0101960E944F12892B09F0E8
:10214000ACC08AEA92E00E9478066CE97FEF86EFE5
:102150009FEF0E94900531EFE32EFF24FA94B70120
:1021600080E090E00E94900562E370E080E090E003
:102170000E9442030E94460581600E947905C12C9D
:10218000D12C60E070E081E090E00E94900561E079
:1021900070E080E090E00E94420319A21AA21BA204
:1021A0001CA2AE014F5D5F4F6FE680E00E944B04C2
:1021B00089A19AA19370A1E1CA16D1041CF08436BA
:1021C000910540F0BFEFCB1ADB0A28EEC21623E0E0
:1021D000D206B9F635E0E30EF11CE114F10409F082
:1021E000BECF24ECE22EFF24FA94B70180E090E009
:1021F0000E94900562E370E080E090E00E9442035C
:10220000C12CD12C61E070E080E090E00E9490054C
:1022100019A21AA21BA21CA2AE014F5D5F4F6FE66E
:1022200081E00E944B0489A19AA19370A1E1CA1692
:10223000D1041CF08436910540F0BFEFCB1ADB0AC5
:1022400020EAC2162FE0D206E9F634E1E30EF11CD3
:10225000E114F10451F685E591E00E9478066CE8FE
:1022600071EF8BEF9FEF0E94900510920101109289
:10227000000160E070E080EE9FEF0E94900581E039
:1022800080935A0180E090E00E94780610925B01F2
:1022900081E090E00E9478066CC06BEE72E0CE01A7
:1022A00001960E944F12892BA1F487E00E947905C4
:1022B00098EEE92E93E0F92E0E94810A61E070E029
:1022C00080E090E00E94420381E0E81AF108A1F763
:1022D00050C065EE72E0CE0101960E944F12892B2C
:1022E000A1F480E00E94790588EEE82E83E0F82EC4
:1022F0000E94810A61E070E080E090E00E94420369
:1023000091E0E91AF108A1F734C09F928F9281EE13
:1023100092E09F938F93A1E0B0E0AC0FBD1FBF93FD
:10232000AF930E94F2120F900F900F900F900F90AA
:102330000F90181619066CF48FA198A58530910599
:1023400018F40E948C0615C09F938F938CEC92E03A
:1023500008C021E030E02C0F3D1F3F932F9385EB09
:1023600092E09F938F930E94CC120F900F900F904A
:102370000F900E941D070E940502A8CDFF92EF92C8
:10238000A0E1B2E0BF93AF931F930F930E94961208
:102390003FEFC31AD30A0F900F900F900F900F903A
:1023A0000F9083CE95012C0D3D1D80E091E0821BA6
:1023B000930B9F938F9384EE91E09F938F931F9342
:1023C0000F930E949612BF92AF928DED91E09F9372
:1023D0008F931F930F930E949612DF92CF9286EDF8
:1023E00091E09F938F931F930F930E9496128EEC10
:1023F00091E09F938F931F930F930E9496120FB6B5
:10240000F894DEBF0FBECDBFB4CF8E159F0509F087
:102410003ACEFF92EF925F924F921F930F930E94DA
:102420009612B9CFE3E8F1E01382128288EE93E0CE
:10243000A0E0B0E084839583A683B78322E231E0F5
:10244000318320832DEC30E0358724872CEC30E07D
:102450003787268728EC30E0318B208B29EC30E061
:10246000338B228B2AEC30E0358B248B2EEC30E042
:10247000378B268B118E128E138E148EE0E2F2E0D3
:102480001382128284839583A683B78384E391E0C9
:10249000918380838FEF9FEF958784870895FB0159
:1024A000DC018D91059080190110D9F3990B0895E5
:1024B000CF93DF93EC012B8120FF33C026FF0AC0AE
:1024C0002F7B2B838E819F8101969F838E838A81B0
:1024D00090E029C022FF0FC0E881F9818081082E99
:1024E000000C990B009719F420622B831AC03196C7
:1024F000F983E8830EC0EA85FB85099597FF09C03B
:102500002B81019611F080E201C080E1822B8B8348
:1025100008C02E813F812F5F3F4F3F832E83992735
:1025200002C08FEF9FEFDF91CF910895A0E0B0E060
:10253000ECE9F2E10C9475180F811885F80183819C
:1025400088608383AE01455F5F4F69857A85C801E6
:102550000E940B13F8012381277F2383E4E00C946E
:102560009118A0E0B0E0E7EBF2E10C9475180F8150
:102570001885F801838188608383AE01455F5F4FD2
:1025800069857A85C8010E945D16F8012381277F3D
:102590002383E4E00C949118A0E0B0E0E2EDF2E1D6
:1025A0000C947518AE01495F5F4FDA016D917D9112
:1025B000AD010CE712E0F80182819381DC011396F2
:1025C0002C911397286013962C930E940B13D8011B
:1025D0001296ED91FC9113972381277F2383E4E0EA
:1025E0000C949118AEE0B0E0E8EFF2E10C947718AB
:1025F0008DE08C838B899C899A838983AE01495EA7
:102600005F4F6D897E89CE0101960E945D162E96E0
:10261000E2E00C949318ACE0B0E0E1E1F3E10C945B
:1026200067187C016B018A01FC0117821682838185
:1026300081FFBDC1CE0101964C01F7019381F601E6
:1026400093FD859193FF81916F01882309F4ABC1BC
:10265000853239F493FD859193FF81916F01853225
:1026600029F4B70190E00E94B517E7CF512C312C27
:1026700020E02032A0F48B3269F030F4803259F03F
:10268000833269F420612CC08D3239F0803339F403
:10269000216026C02260246023C0286021C027FD5D
:1026A00027C030ED380F3A3078F426FF06C0FAE044
:1026B0005F9E300D1124532E13C08AE0389E300DDA
:1026C0001124332E20620CC08E3221F426FD6BC102
:1026D000206406C08C3611F4206802C0883641F4AC
:1026E000F60193FD859193FF81916F018111C1CF17
:1026F000982F9F7D9554933028F40C5F1F4FFFE374
:10270000F9830DC0833631F0833771F0833509F0DA
:102710005BC022C0F801808189830E5F1F4F442473
:102720004394512C540115C03801F2E06F0E711C16
:10273000F801A080B18026FF03C0652D70E002C0C3
:102740006FEF7FEFC5012C870E94AA172C01830130
:102750002C852F77222E17C03801F2E06F0E711CE6
:10276000F801A080B18026FF03C0652D70E002C093
:102770006FEF7FEFC5012C870E949F172C012C85DE
:102780002068222E830123FC1BC0832D90E0481675
:102790005906B0F4B70180E290E00E94B5173A9470
:1027A000F4CFF50127FC859127FE81915F01B701E8
:1027B00090E00E94B51731103A94F1E04F1A510899
:1027C0004114510471F7E5C0843611F0893639F5AA
:1027D000F80127FF07C060817181828193810C5FBE
:1027E0001F4F08C060817181072E000C880B990B68
:1027F0000E5F1F4F2F76722E97FF09C09095809520
:10280000709561957F4F8F4F9F4F2068722E2AE001
:1028100030E0A4010E940618A82EA81844C08537ED
:1028200029F42F7EB22E2AE030E025C0F22FF97F66
:10283000BF2E8F36C1F018F4883579F0B4C08037D8
:1028400019F0883721F0AFC02F2F2061B22EB4FECF
:102850000DC08B2D8460B82E09C024FF0AC09F2FA5
:102860009660B92E06C028E030E005C020E130E0D7
:1028700002C020E132E0F801B7FE07C0608171813B
:10288000828193810C5F1F4F06C06081718180E05F
:1028900090E00E5F1F4FA4010E940618A82EA818F2
:1028A000FB2DFF777F2E76FE0BC0372D3E7FA514C4
:1028B00050F474FE0AC072FC08C0372D3E7E05C07D
:1028C000BA2C372D03C0BA2C01C0B52C34FF0DC073
:1028D000FE01EA0DF11D8081803311F4397E09C0BB
:1028E00032FF06C0B394B39404C0832F867809F0F6
:1028F000B39433FD13C030FF06C05A2CB31418F440
:10290000530C5B18B32CB31468F4B70180E290E069
:102910003C870E94B517B3943C85F5CFB31410F4EF
:102920003B1801C0312C34FF12C0B70180E390E0A6
:102930003C870E94B5173C8532FF17C031FD03C0AC
:1029400088E790E002C088E590E0B7010CC0832FD3
:10295000867859F031FF02C08BE201C080E237FD7A
:102960008DE2B70190E00E94B517A51438F4B701C5
:1029700080E390E00E94B5175A94F7CFAA94F4012F
:10298000EA0DF11D8081B70190E00E94B517A110FA
:10299000F5CF332009F451CEB70180E290E00E94D8
:1029A000B5173A94F6CFF7018681978102C08FEF71
:1029B0009FEF2C96E2E10C94831820FD09C0FC01E6
:1029C00023FD05C022FF02C07383628351834083CD
:1029D000089544FD10C046FD10C0DB01FC01AA0FA4
:1029E000BB1FEE1FFF1F1094D1F76A0F7B1F8E1FB6
:1029F0009F1F31E003C033E001C034E0660F771F52
:102A0000881F991F3150D1F7620F711D811D911DD3
:102A100008950F931F93CF93DF938C01C8010E94F9
:102A20005812EC0197FD08C00E948B17892BB1F753
:102A3000B801CE010E94ED17CE01DF91CF911F9119
:102A40000F910895A1E0B0E0E8E2F5E10C946D1873
:102A50008C01C62E7A0129830E945812AC01552799
:102A600029814B32510521F04D32510569F420681E
:102A7000CA94C11002C080E076C0C80129830E94B8
:102A80005812298197FDF7CF322F3D7FD32E322F59
:102A9000307349F5803339F5BB24BA94BC0C09F482
:102AA0004EC0C80129830E945812298197FD47C052
:102AB000382F3F7D383569F48D2D8264D82ECA9425
:102AC000CA94CC20E1F1C8010E94581297FF0BC0B4
:102AD00036C026FF04C02D2D2260D22E03C03D2D0E
:102AE0003261D32ECB2C812C912C540120ED280F58
:102AF000283080F0D4FE04C0B8010E94ED171CC03D
:102B00002A3040F0D6FEF8CF2F7D3FEE320F363020
:102B100098F727504D2DC501B4010E94E9144B01CF
:102B20005C018D2D8260D82ECA94CC2059F0C8014A
:102B30000E94581297FFDACFD1FC04C09CCF812CA1
:102B4000912C5401D7FE08C0B094A0949094809426
:102B5000811C911CA11CB11C2D2DB501A401C70124
:102B60000E94DD1481E02196ECE00C948918A1E22A
:102B7000B0E0EDEBF5E10C946B185C017A01CE014D
:102B800001966C0180E2F60111928A95E9F7F50150
:102B9000838040E050E0912C712C70E0A1E0B0E027
:102BA000F90183FC859183FE81918F01982F9F010C
:102BB000811103C080E090E07CC08E3519F441158E
:102BC000510549F1E72FF0E0E417F5073CF48D35A6
:102BD00059F18D3219F4772001F103C0711001C051
:102BE000982E892F8695869586958601080F111D4A
:102BF000892F87703D0101C0660C8A95EAF7F801BC
:102C0000808186298083991559F0991510F49F5F6A
:102C1000E8CF9150E6CF71E004C07724739401C0EF
:102C2000712C4F5F5F4FBCCF772019F08E8180628F
:102C30008E83711103C09924939416C0F6019E01EE
:102C40002F5D3F4F808180958193E217F307D1F785
:102C5000F2CFE114F10429F0F7018083C701019656
:102C60007C016150912CF9F0C50169A30E945812B2
:102C700069A197FD16C0282F269526952695F60161
:102C8000E20FF11D208130E0AC014770552702C0F2
:102C9000359527954A95E2F720FDDBCFB5010E94D7
:102CA000ED17911087CFE114F10411F0F7011082B4
:102CB000C801A196EEE00C9487184F925F927F9224
:102CC0008F929F92AF92BF92CF92DF92EF92FF923C
:102CD0000F931F93CF93DF931F92CDB7DEB76C0195
:102CE0002B015A01FC0117821682712CF601F38028
:102CF000F201F3FC8591F3FE8191382F2F01882397
:102D000009F4F3C090E039830E948B173981892B35
:102D100021F0C6010E940915E9CF353241F4F201D4
:102D2000F3FC3591F3FE31912F01353269F4C60180
:102D300039830E945812398197FDD5C03817B1F2F6
:102D4000B6010E94ED17D1C03A3239F4F3FC359147
:102D5000F3FE31912F0151E001C050E0420110E03B
:102D600020ED230F2A3090F45260612F70E080E054
:102D700090E040E259830E94E914162FF401F3FC1D
:102D80003591F3FE31914F015981EACF052F232F61
:102D9000240151FF03C0111102C0A7C01FEF383634
:102DA00019F03C3659F011C0F401F3FC2591F3FE03
:102DB00021912F01283649F4052F08600460F201A3
:102DC000F3FC2591F3FE21912F01222309F48DC0FC
:102DD000622F70E08CEA90E029830E949417298189
:102DE000892B09F482C000FD07C0F501E080F18065
:102DF000C50102965C0102C0E12CF12C2E3651F483
:102E0000F6014681578160E070E0202FC7010E94E3
:102E1000DD146CCF233691F401FF11E0C6010E944E
:102E2000581297FD60C0E114F10429F0F701808386
:102E3000C70101967C01115089F751C02B3559F417
:102E40009201A701612FC6010E94B7152C01892BA1
:102E500009F045C03FC0C60129830E940915298198
:102E600097FD41C02F3659F128F4243631F1293627
:102E700049F127C0233769F02537F9F022C0E11462
:102E8000F10429F0F7018082C70101967C011150FD
:102E900071F0C6010E9458124C0197FD08C00E94B3
:102EA0008B17892B61F3B601C4010E94ED17E11461
:102EB000F104A9F0F701108212C0006203C00061A2
:102EC00001C00064202FA701612FC6010E942215B6
:102ED000811105C0F6018381807329F406C000FDCD
:102EE00005CF739403CF772019F0872D90E002C0AF
:102EF0008FEF9FEF0F90DF91CF911F910F91FF9078
:102F0000EF90DF90CF90BF90AF909F908F907F9089
:102F10005F904F90089591110C946418803219F0CD
:102F200089508550C8F70895FC010590061621F0D8
:102F30000020D9F7C00108953197CF010895FC0111
:102F40000590615070400110D8F7809590958E0FD4
:102F50009F1F0895FC016150704001900110D8F747
:102F6000809590958E0F9F1F08950F931F93CF9379
:102F7000DF93FB01238121FD03C08FEF9FEF28C06A
:102F800022FF16C04681578124813581421753079D
:102F900044F4A081B1819D012F5F3F4F3183208395
:102FA0008C93268137812F5F3F4F3783268310C054
:102FB000EB01092F182F0084F185E02D0995892B4D
:102FC000E1F68E819F8101969F838E83812F902FC2
:102FD000DF91CF911F910F910895FB01238120FF75
:102FE00012C026FD10C08F3F3FEF930761F0828330
:102FF0002F7D206423832681378121503109378337
:103000002683992708958FEF9FEF0895FA01AA2745
:10301000283051F1203181F1E8946F936E7F6E5F1B
:103020007F4F8F4F9F4FAF4FB1E03ED0B4E03CD0C9
:10303000670F781F891F9A1FA11D680F791F8A1FAC
:10304000911DA11D6A0F711D811D911DA11D20D013
:1030500009F468943F912AE0269F11243019305DCD
:103060003193DEF6CF010895462F4770405D4193BE
:10307000B3E00FD0C9F7F6CF462F4F70405D4A330B
:1030800018F0495D31FD4052419302D0A9F7EACFD3
:10309000B4E0A6959795879577956795BA95C9F702
:1030A00000976105710508959B01AC010A2E0694F5
:1030B0005795479537952795BA95C9F7620F731FAE
:1030C000841F951FA01D08959927882708952F9282
:1030D0003F924F925F926F927F928F929F92AF92A8
:1030E000BF92CF92DF92EF92FF920F931F93CF93F5
:1030F000DF93CDB7DEB7CA1BDB0B0FB6F894DEBF8C
:103100000FBECDBF09942A88398848885F846E84B1
:103110007D848C849B84AA84B984C884DF80EE80FB
:10312000FD800C811B81AA81B981CE0FD11D0FB604
:10313000F894DEBF0FBECDBFED010895EE0FFF1F67
:103140000590F491E02D099481E090E0F8940C94BE
:06315000A918F894FFCF5E
:10315600FFFFFFFFFFFF00E100000000000020036B
:10316600C201C20103050500C18081000000000004
:103176000000D90873089E082009F901AD08C108A6
:10318600000000000F027C03CB0225023002CF02B2
:02319600F10244
:00000001FF
