:100000000C94F4000C941C010C941C010C941C0125
:100010000C941C010C941C010C941C010C941C01EC
:100020000C941C010C941C010C94960C0C94040E62
:100030000C941C010C941C010C941C010C941C01CC
:100040000C941C010C941C010C941C010C941C01BC
:100050000C941C010C941C010C941C010C94330195
:100060000C941C010C94E0090C94BA090C941C012A
:100070000C941C010C941C010C941C010C941C018C
:100080000C941C010C941C010C941C010C941C017C
:100090000C941C010C941C010C941C010C941C016C
:1000A0000C941C010C941C010C941C01110C140CDC
:1000B000030C070C0B0C350C350C350C180C1C0CF8
:1000C000200C260C2A0C350C300C6364696E6F70A2
:1000D000737578585B00070605040100080A0B0CCD
:1000E0000D096F6B0A006F6B0A00542564006C6980
:1000F0006E652072656365697665643A20272573AD
:10010000272025640A0000000000230026002900A3
:100110002C002F000404040404030405020202025C
:100120000403020202020606060606060404020290
:100130000204040408020110408040102040804066
:10014000800802040180402010020110801020402D
:1001500040200000000200090F0000030401000C11
:10016000000000000000000000000000000000008F
:1001700000080B0002020201000904000001020253
:1001800000000524001001052401010104240206D9
:100190000524060001070581031000400904010041
:1001A000020A000000070502024000000705830262
:1001B0004000000403090412010002EF0201404163
:1001C00023368000010102030141726475696E6F7C
:1001D000204C4C430041726475696E6F204C656F12
:1001E0006E6172646F001A1411241FBECFEFDAE043
:1001F000DEBFCDBF22E0A0E4B1E001C01D92A03976
:10020000B207E1F711E0A0E0B1E0E2E0F9E302C0FB
:1002100005900D92A034B107D9F710E0C4EFD0E0FB
:1002200004C02197FE010E94601CC33FD107C9F79B
:100230000E9434100C947F1C0C9400008BE891E019
:100240000C943908682F8BE891E00E94920880E0B6
:1002500090E0089560E070E089ED90E00E948D0BE1
:1002600010924B0108951F920F920FB60F92112416
:100270002F933F938F939F93AF93BF9380914101AF
:1002800090914201A0914301B0914401309140010D
:1002900023E0230F2D3720F40196A11DB11D05C0C9
:1002A00026E8230F0296A11DB11D209340018093E3
:1002B000410190934201A0934301B0934401809186
:1002C000450190914601A0914701B09148010196E6
:1002D000A11DB11D8093450190934601A093470154
:1002E000B0934801BF91AF919F918F913F912F9112
:1002F0000F900FBE0F901F90189581110C942A013A
:1003000060E070E087E29FEF0E948D0B81E08093B8
:100310004B0108955E9A00005E9800000895E8ED94
:10032000F0E0E49120917B00E3FB882780F990E0E6
:1003300035E0880F991F3A95E1F7922F9F7D892B21
:1003400080937B00E770E064E0937C0080917A000A
:10035000806480937A0080917A0086FDFCCF2091A2
:1003600078008091790030E0382BC90181559109DE
:10037000439738F081E090E02233310524F080E0AB
:1003800002C082E090E0215A31092331310510F496
:1003900084E090E00895CF92DF92EF92FF929CE587
:1003A0009CBD1DBC813039F020F0823029F42F989B
:1003B00003C0469801C05F986EBD0DB407FEFDCF27
:1003C0009EB5C52EDD24EE24FF24CEBC0DB407FE61
:1003D000FDCF9EB56A01EE24FF24CEBC0DB407FE0E
:1003E000FDCF9EB5C32ED42EE52EFF24CEBC0DB47A
:1003F00007FEFDCF9EB52EBD0DB407FEFDCF9EB509
:10040000813039F020F0823029F42F9A03C0469AC7
:1004100001C05F9AFF90EF90DF90CF9008959C010C
:1004200088E0369527952115310511F08150C9F7DF
:1004300008951F93CF93DF93182FD42FC22F262F09
:100440002F70822F90E0A0E0B0E0B82FAA27992764
:1004500088279C01AD01C03288F4236D4360506150
:100460006CEE812F0E94CB01DF718D2F90E0A0E018
:10047000B0E0AC01BD016F608C2F13C0236D4160F3
:1004800050616CEE812F0E94CB01D695DF718D2FCC
:1004900090E0A0E0B0E0AC01BD016F608C2F8695CC
:1004A0008F7190E0D82FCC27CE01DD0FAA0BBB0BAC
:1004B0009A01AB01282B392B4A2B5B2B60E9812F4A
:1004C0000E94CB0180E0DF91CF911F9108951F938F
:1004D000CF93DF93C82F662341F0823020F0823023
:1004E00051F4DEE10DC0D3E209C0823030F0823039
:1004F00011F4D1E005C0D0E101C0DEE1C33030F439
:10050000EC2FF0E0E25FFE4F108101C010E1C1303E
:1005100029F482E090E00E940F0205C0C130C0F0D3
:10052000C230B9F380E12D2F412F682F8C2F0E940C
:10053000190281110BC020E030E0A90161E98C2F84
:100540000E94CB01C33038F024E00AC08FEF25C0F1
:1005500080E190E0E0CFEC2FF0E0EF5EFE4F2081F5
:10056000822F220F990BAA0BBB0BAC01332722273A
:100570006DEE8C2F0E94CB0122EC31E040E050E088
:1005800064E98C2F0E94CB0120E831E340E050E089
:1005900060E88C2F0E94CB0180E0DF91CF911F910A
:1005A00008951F93CF93DF93182F3E9A579A279A57
:1005B000469A5F9A2F9A549A249A569A5C982C9845
:1005C0005E98682F80E00E94670221E030E0811190
:1005D00002C020E030E0CC27DD27C21BD30B612F07
:1005E00081E00E946702811102C020E001C02EEF6D
:1005F000C20F612F82E00E94670281118CEF8C0F85
:10060000DF91CF911F9108952091490130914A01C6
:10061000C90184709927AC0156954795C90180712D
:1006200099279695879596958795842B2170822B8F
:1006300008952E98000020E130E040E050E8BA0133
:1006400068237923672B11F02D9A01C02D98479AC2
:10065000000047980000569547952150310979F7D9
:100660002E9A000090934A01809349010895282F03
:100670002270922F990F282F2470220F220F292BDE
:100680008170282B022E000C330B80914901909130
:100690004A018A7E822B932B0C941903CF93DF930C
:1006A000EC0197FF07C0D195C195D1090E940403C1
:1006B0008D7F03C00E94040382600E943703CE0135
:1006C000DF91CF910895CF93DF93EC0197FF07C09F
:1006D000D195C195D1090E9404038E7F03C00E9469
:1006E000040381600E943703CE01DF91CF9108950A
:1006F0004F925F926F927F928F929F92AF92BF9232
:10070000CF92DF92EF92FF920F931F93CF93DF93DD
:10071000EB010E9463034C01CE010E944E03EC01E9
:10072000B401092C000C880B990B0E94971B6B01DC
:100730007C01BE010D2E000C880B990B0E94971BAB
:100740009B01AC01C701B6010E94F41A2B013C01C8
:100750005E018AEFA81AB10804EC19E0C12CD12C73
:1007600076011C161D060CF45C9A000020E030E0B7
:1007700040E85FE3C701B6010E94471C87FD07C040
:100780001814190424F42C9881E0881A91081C1676
:100790001D0614F45C982197000020E030E040E84A
:1007A0005FE3C701B6010E94471C87FD0AC020E035
:1007B00030E040E85FE3C701B6010E94821A6B0196
:1007C0007C01A3019201C701B6010E94831A6B014B
:1007D0007C01C8010E94AF09053883E018074CF07E
:1007E000AC16BD0614F40A501109043C89E0180740
:1007F000ACF4CA3FD10584F020E030E040E85FE38C
:10080000C701B6010E94471C87FDABCF181419041D
:100810000CF0A7CF2C9AA5CF065F1F4F209761F74A
:100820008114910449F7DF91CF911F910F91FF90AF
:10083000EF90DF90CF90BF90AF909F908F907F9080
:100840006F905F904F900895582F44272091490151
:1008500030914A012F733327242B352B882793702F
:100860009695879596958795822B932B0C941903D3
:10087000EF92FF920F931F93CF93DF9300D000D09E
:10088000CDB7DEB78AEA92E00E9424046CE97FEFDC
:1008900086EF9FEF0E948D0B6BEF7FEF80E090E083
:1008A0000E948D0B62E370E080E090E00E94120AEB
:1008B0000E94040381600E94370300ED17E09BE86B
:1008C000E92EFF24F39460E070E081E090E00E9464
:1008D0008D0BC7010197F1F719821A821B821C82C6
:1008E000BE016F5F7F4F80E00E94110B0150110924
:1008F00051F70CE91FEFB80180E090E00E948D0BEA
:1009000062E370E080E090E00E94120AE12CF12C9A
:1009100061E070E080E090E00E948D0B19821A8205
:100920001B821C82BE016F5F7F4F81E00E94110B12
:1009300089819A81937021E1E216F1041CF08436DA
:10094000910540F08FEFE81AF80A20EAE2162FE04E
:10095000F206F1F60C5E1F4F71F685E591E00E94FC
:1009600024046CE871EF8EE79FEF0E948D0B1092CC
:1009700001011092000180E00E947D0180E090E082
:100980000E94240410924D01809100019091010178
:1009900024E030E0281B390B220F331F81E090E068
:1009A00002C0880F991F2A95E2F70E94240481E073
:1009B00080934C010F900F900F900F90DF91CF918B
:1009C0001F910F91FF90EF9008958F929F92AF9299
:1009D000BF92CF92DF92EF92FF920F931F93CF932C
:1009E000DF936EE181E00E94D30A80914B01811177
:1009F0000E942A010E94040384600E943703CCE114
:100A0000D5E200E010E0C12CD12C6AEFE62E64E4C0
:100A1000F62E0E948A012197C83725E0D207A4F458
:100A200020E030E84BEB55E4C701B6010E94EF1A15
:100A300087FF0AC020E030E040E450E4C701B6017F
:100A40000E94831A6B017C01BE010D2E000C880BE5
:100A5000990B0E94971B4B015C0120E030E041EEB6
:100A600054E40E94EF1A87FF14C020E030E44CE108
:100A700055E4C701B6010E94EF1A87FF0AC020E0C3
:100A800030E040E050E4C701B6010E94831A6B01D8
:100A90007C0120E030EF47E056E4C501B4010E943C
:100AA000EF1A87FF18C0C93833E1D307A4F020E05C
:100AB00030E849E054E4C701B6010E94471C18160B
:100AC00054F420E030E040E050E4C701B6010E9459
:100AD000821A6B017C01C701B6010E94661BCB0123
:100AE0000E94AF090E94EB0B892B29F4C43C89E0DA
:100AF000D8070CF408C1023311051CF4209709F043
:100B000088CFC6E9D0E00BE11EE40E948A01C8014B
:100B10000197F1F72197C9F70E94EB0B019769F054
:100B20000E94EB0B019709F0ABC080E00E947D01B1
:100B300004E010E0C1E0D0E05BC0CAE0D0E04BE1EF
:100B4000E42E4EE4F42E5BE7C52E5EE3D52E0E9424
:100B5000EB0B019749F064E670E080E090E00E94C2
:100B6000120A2197A1F733C00E94040384600E94F7
:100B7000370304EB10E00E948A01C7010197F1F7E7
:100B800001501109C1F70E9404038B7F0E943703B3
:100B900006E910E00E948A01C7010197F1F70150B0
:100BA0001109C1F70E94040384600E94370300EA20
:100BB0001FE00E948A01C6010197F1F70E94EB0B2A
:100BC000019709F0C8CF0150110999F7C4CF0E94CD
:100BD000EB0B892B09F0A4CFC6E9D0E00BE11EE4B2
:100BE0000E948A01C8010197F1F72197C9F798CFB0
:100BF00080E090E00E942404809100019091010126
:100C00009801281B390BC901880F991F9E0102C04A
:100C1000220F331F8A95E2F7C9010E94240460E580
:100C200070E080E090E00E94120A809100019091B3
:100C300001019801281B390BC901880F991F9E01DA
:100C400002C0220F331F8A95E2F7C9010E942404D3
:100C500060E570E080E090E00E94120A80E090E0A1
:100C60000E94240464EF71E080E090E00E94120A88
:100C70000E948F01892B09F4BBCF0E942A0130C04A
:100C80000E94040384600E943703C6E2D2E00BE1B5
:100C90001EE40E948A01C8010197F1F72197C9F764
:100CA0000E9404038B7F0E943703C6E9D0E00BED5E
:100CB0001EE20E948A01C8010197F1F72197C9F746
:100CC0000E94040384600E943703C0EAD0E00BED69
:100CD0001EE20E948A01C8010197F1F72197C9F726
:100CE00060E080E00E94D30A10924D01DF91CF9125
:100CF0001F910F91FF90EF90DF90CF90BF90AF903A
:100D00009F908F9008950F5F1F4FF5CECF92DF9287
:100D1000EF92FF920F931F93CF93DF9380914B013C
:100D200081110E942A016EE181E00E94D30A0E9493
:100D300004038B7F0E943703C0EBD4E00BEE15E574
:100D40000E948A01C8010197F1F70E94EB0B892BE1
:100D500011F42197A9F70E94EB0B892B11F50E9442
:100D6000040384600E943703C5EFD1E00BEB1DE55F
:100D70000E948A01C8010197F1F72197C9F70E94E3
:100D800004038B7F0E943703CCEDD5E00BEB1DE510
:100D90000E948A01C8010197F1F70E94EB0B892B91
:100DA00031F00E94EB0B892B09F03DC003C0219765
:100DB00079F7F7CF80E00E947D0104E010E0C1E008
:100DC000D0E080E090E00E94240464E670E080E0DF
:100DD00090E00E94120A8091000190910101980117
:100DE000281B390BC9019E0102C0220F331F8A95AF
:100DF000E2F7C9010E94240464E670E080E090E01C
:100E00000E94120A0E948F01892BD9F20E942A01A6
:100E1000CCEBD2E00BEE15E50E948A01C8010197E8
:100E2000F1F72197C9F7C0E0D0E0C12C80EAD82EB5
:100E30008CE8E82E85E4F82E0E948A01CE010B97FB
:100E400085399F40A0F420E030E046E154E4C7013A
:100E5000B6010E94471C181654F420E030E040E828
:100E600050E4C701B6010E94821A6B017C01CE01D9
:100E7000855691098B339F4098F420E030E046E19D
:100E800054E4C701B6010E94471C18160CF520E077
:100E900030E040E85FE3C701B6010E94821A16C045
:100EA000C1343FE1D307A4F020E030E84BE355E440
:100EB000C701B6010E94EF1A87FF0AC020E030E0A8
:100EC00040E050E4C701B6010E94831A6B017C0127
:100ED000C701B6010E94661BCB010E94AF09219693
:100EE000C43381E2D80709F0A7CF60E080E00E9418
:100EF000D30A81E080934D01DF91CF911F910F9133
:100F0000FF90EF90DF90CF900895CF93DF93880FFD
:100F1000991FC1E0D0E002C0CC0FDD1F8A95E2F737
:100F2000CE010E94240460E570E080E090E00E9421
:100F3000120A80E090E00E94240468E270E080E001
:100F400090E00E94120ACE010E94240460E570E045
:100F500080E090E00E94120A80E090E00E94240469
:100F600068E270E080E090E0DF91CF910C94120A8B
:100F70000F931F93CF93DF938C0180914C018111CC
:100F800002C00E943804809100019091010124E088
:100F900030E0281B390B220F331F82E090E002C0A3
:100FA000880F991F2A95E2F70E942404C09100013E
:100FB000D09101011093010100930001C017D107E6
:100FC00029F4C0914D0181E0C82727C080914B01D1
:100FD00081110E942A018091000190910101AC01D0
:100FE0004C1B5D0B29EB32E0429FB001439F700D1B
:100FF000529F700D1124C81BD90B83E691E09C0110
:10100000C29FC001C39F900DD29F900D11240E94DA
:10101000780380E00E947D01C1E080E090E00E94C2
:101020002404809100019091010124E030E0281B0C
:10103000390B220F331F81E090E002C0880F991F07
:101040002A95E2F70E9424048C2FDF91CF911F9103
:101050000F910895FC01538D448D252F30E0842F8E
:1010600090E0821B930B541710F0CF9608950197D0
:101070000895FC01918D828D981761F0828DDF01BA
:10108000A80FB11D5D968C91928D9F5F9F73928F7B
:1010900090E008958FEF9FEF0895FC01918D828D70
:1010A000981731F0828DE80FF11D858D90E008953D
:1010B0008FEF9FEF0895FC01918D228D892F90E095
:1010C000805C9F4F821B91098F73992708958BE84D
:1010D00091E00E945B0821E0892B09F420E0822F37
:1010E0000895FC01848DDF01A80FB11DA35ABF4FE5
:1010F0002C91848D90E001968F739927848FA68917
:10110000B7892C93A089B1898C9180648C93938D3D
:10111000848D981306C00288F389E02D80818F7D2D
:1011200080830895EF92FF920F931F93CF93DF93E5
:10113000EC0181E0888F9B8D8C8D981305C0E88928
:10114000F989808185FD24C0F62E0B8D10E00F5F9C
:101150001F4F0F731127E02E8C8DE8120CC00FB6B5
:1011600007FCFACFE889F989808185FFF5CFCE01A8
:101170000E947108F1CF8B8DFE01E80FF11DE35A3B
:10118000FF4FF0820B8FEA89FB898081806207C064
:10119000EE89FF896083E889F98980818064808392
:1011A00081E090E0DF91CF911F910F91FF90EF9040
:1011B0000895CF93DF93EC01888D8823C9F0EA89E5
:1011C000FB89808185FD05C0A889B9898C9186FD40
:1011D0000FC00FB607FCF5CF808185FFF2CFA8893D
:1011E000B9898C9185FFEDCFCE010E947108E7CFC0
:1011F000DF91CF91089580E090E0892B29F00E9443
:10120000670881110C9400000895CF93DF931F921B
:10121000CDB7DEB76983DC01ED91FC910280F381EB
:10122000E02D41E050E0BE016F5F7F4F09950F90C8
:10123000DF91CF91089583E08093E9008091F200DF
:10124000882319F08AE38093E8000895FC018485DF
:10125000958597FD0BC09FB7F89482E08093E900D5
:101260008091F2009FBF90E0019608959FB7F89497
:1012700082E08093E9008091F2009FBF90E00895A2
:10128000089580E090E008953FB7F894809145017B
:1012900090914601A0914701B091480126B5A89BC5
:1012A00005C02F3F19F00196A11DB11D3FBFBA2FF8
:1012B000A92F982F8827820F911DA11DB11DBC0158
:1012C000CD0142E0660F771F881F991F4A95D1F71D
:1012D00008950E94710C90E00895CF93DF931F92C0
:1012E000CDB7DEB7FC018485958597FD05C02FEF4E
:1012F0003FEF358724870BC0CE0101960E94470C33
:10130000019719F4898190E002C08FEF9FEF0F9051
:10131000DF91CF9108950F931F93CF93DF931F9287
:10132000CDB7DEB78C01FC018485958597FF0EC093
:10133000CE0101960E94470C019719F4298130E0F3
:1013400002C02FEF3FEFF80135872487F80184852D
:1013500095850F90DF91CF911F910F910895823065
:10136000910538F0880F991F880F991F05970197ED
:10137000F1F708951F920F920FB60F9211242F9339
:101380003F934F935F936F937F938F939F93AF930D
:10139000BF93EF93FF938BE891E00E947108FF9158
:1013A000EF91BF91AF919F918F917F916F915F91DD
:1013B0004F913F912F910F900FBE0F901F90189556
:1013C0001F920F920FB60F9211242F938F939F931A
:1013D000EF93FF93E0919B01F0919C018081E0915C
:1013E000A101F091A20182FD12C090818091A4011F
:1013F0008F5F8F732091A501821751F0E091A401B6
:10140000F0E0E557FE4F958F8093A40101C08081E5
:10141000FF91EF919F918F912F910F900FBE0F90A1
:101420001F9018958F929F92AF92BF92CF92DF92AA
:10143000EF92FF926B017C010E9444094B015C0119
:10144000C114D104E104F104F1F00E944409DC016B
:10145000CB0188199909AA09BB09883E9340A105C7
:10146000B10570F321E0C21AD108E108F10888EE55
:10147000880E83E0981EA11CB11CC114D104E104A4
:10148000F10419F7DDCFFF90EF90DF90CF90BF9080
:10149000AF909F908F9008958F929F92AF92BF923E
:1014A000CF92DF92EF92FF920F931F93CF93DF9330
:1014B0005C016B017A0180910D01882309F45BC006
:1014C00080918A01882309F456C08091870180FFAA
:1014D00005C08091E00082608093E000E70110E0A9
:1014E0000AEF83E0882E9AE3992E2097D9F10E9483
:1014F000710C81110AC0015009F43DC061E070E037
:1015000080E090E00E94120AF0CF282F30E0C2174E
:10151000D3070CF48C2F4FB7F8948092E900909188
:10152000E80095FF1DC0282F30E0C21BD30BF60149
:10153000982F915020F081918093F100FACFC20E44
:10154000D31E112319F09092E80009C08091E800A1
:1015500085FD06C09092E80011E0209709F010E0A8
:101560004FBFC3CF1111C3CF5D9884E6809388012C
:101570001E141F0444F081E090E0F5019383828300
:1015800080E090E001C0C701DF91CF911F910F91E2
:10159000FF90EF90DF90CF90BF90AF909F908F9093
:1015A00008950E947A1C1F93CF93DF9300D0CDB78C
:1015B000DEB7482F82E090E06A8349830E940F02E1
:1015C0002A814981682F82E00E941902182F811117
:1015D00020C020E030E0A90161E982E00E94CB0157
:1015E00020E030E045E050E06DEE82E00E94CB016B
:1015F00022EC31E040E050E064E982E00E94CB015F
:1016000020E831E340E050E060E882E00E94CB0156
:1016100001C01FEF812F0F900F90DF91CF911F918D
:101620000895FB019CE59CBD1DBC813039F020F084
:10163000823029F42F9803C0469801C05F989FE636
:101640009EBD0DB407FEFDCF9EB51EBC0DB407FEBA
:10165000FDCF9EB51EBC0DB407FEFDCF9EB51EBCD2
:101660000DB407FEFDCF9EB51EBC0DB407FEFDCF29
:101670009EB5813039F020F0823029F42F9A03C0D2
:10168000469A01C05F9A9CE59CBD1DBC813039F033
:1016900020F0823029F42F9803C0469801C05F984B
:1016A0001EBC0DB407FEFDCF9EB51EBC0DB407FEDB
:1016B000FDCF4EB550E060E070E0762F652F542FDF
:1016C00044271EBC0DB407FEFDCF2EB5422B762F4E
:1016D000652F542F44271EBC0DB407FEFDCF2EB539
:1016E000422B762F652F542F44271EBC0DB407FEC6
:1016F000FDCF2EB5422B813039F020F0823029F415
:101700002F9A03C0469A01C05F9A309721F0408318
:10171000518362837383892F08959F92AF92BF9202
:10172000CF92DF92EF92FF920F931F93CF93DF93AD
:101730008B010E946303EC01C8010E944E038C01DF
:101740000E9404038B7F0E94370382E3E82EF12C72
:101750009BE9C92E9FE0D92E2BE7A22E2CE0B22EBA
:101760003AE0932E1C161D060CF42C9A1016110646
:101770000CF45C9A00001C161D062CF42C98219782
:10178000C6010197F1F71016110634F45C98015068
:101790001109C5010197F1F700001E141F0454F44C
:1017A0009E9CC0019F9C900D11240E94AF0981E076
:1017B000E81AF10801151105A9F6209799F6DF91AD
:1017C000CF911F910F91FF90EF90DF90CF90BF903E
:1017D000AF909F900895E5E6F1E04491E6E4F1E0F2
:1017E0009491E7E2F1E08491882309F44DC0442309
:1017F000E1F150E0FA013197EF30F105B0F5EA5A26
:10180000FF4F0C94601C209180002F7707C020911F
:1018100080002F7D03C020918000277F20938000CF
:1018200024C024B52F7702C024B52F7D24BD1DC050
:10183000209190002F7707C0209190002F7D03C04A
:1018400020919000277F209390000FC02091C0002E
:101850002F7703C02091C0002F7D2093C00005C0CA
:101860002091C200277F2093C200E82FF0E0EE0F06
:10187000FF1FEA5FFE4FA591B491EC91E92381E04F
:1018800090E021F480E0089580E090E00895FC016C
:1018900080918A01811103C08FEF9FEF08959FB758
:1018A000F89482E08093E9002091F20030E0121673
:1018B000130614F421E030E02115310559F0289881
:1018C00084E6809389018091F10080838091F20009
:1018D000882319F09FBFC90108958BE68093E80023
:1018E000F9CF2FB7F89483E08093E9009091E80056
:1018F000892F807295FF04C09091F20080E4891BCB
:101900002FBF089580912C0281110DC082E0809339
:10191000280284E08093290210922B0210922A025E
:1019200081E080932C0288E292E008951F920F924A
:101930000FB60F9211248F939F938091E1009091A5
:10194000E100937F9093E10083FF0FC01092E900C4
:1019500091E09093EB001092EC0092E39093ED00F5
:1019600010928A0198E09093F00082FF20C093E0EB
:101970009093E9009091F200992319F09AE39093E3
:10198000E80090918801992339F090918801915055
:1019900090938801992389F190918901992339F0D5
:1019A00090918901915090938901992341F184FF8D
:1019B00010C08091E2008E7E81608093E200809171
:1019C000E1008F7E8093E100809187018E7E8061AF
:1019D00011C080FF16C08091E2008E7E80618093EE
:1019E000E2008091E1008E7E8093E100809187018A
:1019F0008E7E81608093870104C05D9ACDCF289A46
:101A0000D6CF9F918F910F900FBE0F901F9018957A
:101A1000409188025091890220918602309187027C
:101A200042175307B4F49091E8009570E1F3909158
:101A3000E80092FD19C08093F10080918802909196
:101A4000890201968F739927892B19F48EEF809361
:101A5000E800809188029091890201969093890212
:101A60008093880281E0089580E00895CF92DF920C
:101A7000EF92FF920F931F93CF93DF931F92CDB7F7
:101A8000DEB7182F062FE42E862F880F8E5F9983DE
:101A90000E94080D83E00E94080DF12EC12E99814D
:101AA000D92E8C2D8F19801798F4F601E7FE02C00D
:101AB000849101C080810E94080D182F80E00E944F
:101AC000080D8123FFEFCF1ADF0A8111EACF01C091
:101AD00081E00F90DF91CF911F910F91FF90EF90D8
:101AE000DF90CF900895DF92EF92FF920F931F93B4
:101AF000CF93DF93D82E8A017B01E40EF51EEB0114
:101B0000CE15DF0571F0D7FE03C0FE01849101C040
:101B100088810E94080D21968111F2CF8FEF9FEFEF
:101B200001C0C801DF91CF911F910F91FF90EF90FD
:101B3000DF900895615030F02091F100FC01208386
:101B40000196F8CF289884E6809389010895CF9272
:101B5000DF92EF92FF920F931F93CF93DF936C016D
:101B60007A018B01C0E0D0E0CE15DF0589F0D80105
:101B70006D918D01D601ED91FC910190F081E02DE8
:101B8000C6010995892B11F47E0102C02196ECCF84
:101B9000C701DF91CF911F910F91FF90EF90DF90E0
:101BA000CF9008950F931F93CF93DF931F92CDB7DC
:101BB000DEB782E0898342E450E061E771E080E8CB
:101BC0000E94730D0E94820CDC0112960D911C91F3
:101BD00013970115110569F0D801ED91FC91028070
:101BE000F381E02DBE016F5F7F4FC801099597FF1C
:101BF00007C089810F90DF91CF911F910F910895B8
:101C0000F80100851185E5CF1F920F920FB60F9254
:101C10001124CF92DF92EF92FF920F931F932F9395
:101C20003F934F935F936F937F938F939F93AF9364
:101C3000BF93EF93FF93CF93DF93CDB7DEB76C974E
:101C4000DEBFCDBF1092E9008091E80083FFEDC1B7
:101C500068E0CE0145960E949A0D82EF8093E800DD
:101C60008D8987FF05C09091E80090FFFCCF03C0ED
:101C70009EEF9093E800982F907609F0C6C09E8959
:101C80002F89188D91110CC0803829F4809185021C
:101C90008093F10002C01092F1001092F10048C14F
:101CA000422F50E0512B913051F4811141C141300C
:101CB000510509F03DC1809185028D7F0BC09330A5
:101CC00061F4811135C14130510509F031C1809174
:101CD00085028260809385022BC1953041F480910A
:101CE000E80080FFFCCF20682093E30021C19630FC
:101CF00009F05FC0EB8CFC8C1092E9001092890215
:101D000010928802123091F510928702109286028A
:101D10000E94D20D99E0BE016F5F7F4FDB01E92F7A
:101D20001D92EA95E9F799831A8391E09E8390EAE0
:101D300098879AEF99872091880230918902275FCE
:101D40003F4F3C832B838D831092E90010928902D0
:101D500010928802F0928702E092860249E050E0F9
:101D600080E00E94730D0E94D20DE2C0F0928702C3
:101D7000E09286020E94820CDC011296ED90FC90AB
:101D80001397E114F10409F4C0C0D701ED91FC915F
:101D90000480F581E02DBE016B5E7F4FC701099580
:101DA000009719F00CF0C4C0C7C0F701E084F184BB
:101DB000E8CF973009F4C0C0983021F481E08093D7
:101DC000F100B6C0993009F0B3C0837009F0B4C017
:101DD000E9E3F1E081E021E036E39081992361F0CD
:101DE0008093E9002093EB0091919093EC00309365
:101DF000ED008F5F873089F78EE78093EA001092BD
:101E0000EA008F8980938A0193C08B8D9C8D1092FC
:101E1000E9001092890210928802909387028093C1
:101E20008602898D811156C08E899D89913A59F417
:101E3000813209F081C047E050E066E071E080E067
:101E40000E94730D75C0913209F076C0833289F417
:101E5000888D90E0982F88272F89822BA0E0B0E012
:101E60008093020190930301A0930401B0930501B4
:101E70005FC0803269F48091E80082FFFCCF67E0A8
:101E800086E091E00E949A0D8BEF8093E80006C0F7
:101E9000823209F04DC08F8980930D0180918402B8
:101EA000882319F0EEEFFAE002C0E0E0F8E080915C
:101EB000060190910701A0910801B0910901803BB2
:101EC0009440A105B10509F07BC080910D0180FF10
:101ED00093C076C00E94820CDC0112960D911C9179
:101EE00013970115110541F1D801ED91FC91019075
:101EF000F081E02DBE016B5E7F4FC8010995811115
:101F000017C0F80100851185ECCF113009F44EC0DF
:101F1000133091F48F89882309F445C0823081F40D
:101F200040E860E185ED91E00E94360D882321F0C4
:101F30008EEF8093E80079C081E28093EB0075C05A
:101F4000813029F440E86BE089EC91E0EDCF8330FB
:101F500099F70E94820CDC011296ED90FC90139789
:101F60008E010F5F1F4F6801E114F10479F0D70172
:101F7000ED91FC910680F781E02DB801C70109952C
:101F8000080F111DF701E084F184EECFD8011C92F7
:101F9000F60101900020E9F73197BF016C197D0926
:101FA00040E0C601C1CF63EB71E002C067EB71E0B6
:101FB0006115710509F2FB01449150E080E840CFC2
:101FC0000FB6F894A89580916000886180936000B6
:101FD000109260000FBEA895EE3F2AE0F20739F09C
:101FE0008091FE0A9091FF0A91838083A1CF109285
:101FF000FF0A1092FE0A9CCFEE3F8AE0F80731F00C
:10200000808191819093FF0A8093FE0A87E797E78A
:10201000918380839BE088E10FB6F894A895809324
:1020200060000FBE9093600083CF6C960FB6F8945B
:10203000DEBF0FBECDBFDF91CF91FF91EF91BF917A
:10204000AF919F918F917F916F915F914F913F9150
:102050002F911F910F91FF90EF90DF90CF900F90F5
:102060000FBE0F901F901895CF93DF9300D01F9253
:10207000CDB7DEB7789484B5826084BD84B58160C5
:1020800084BD85B5826085BD85B5816085BD809143
:102090006E00816080936E001092810080918100BB
:1020A00082608093810080918100816080938100B3
:1020B0008091800081608093800080919100826097
:1020C0008093910080919100816080939100809134
:1020D00090008160809390008091C1008460809323
:1020E000C1008091C10082608093C1008091C100D5
:1020F00081608093C1008091C30081608093C300A0
:102100008091C00082608093C0008091C200816095
:102110008093C20080917A00846080937A008091DD
:102120007A00826080937A0080917A008160809347
:102130007A0080917A00806880937A0010928A01F8
:1021400010928502109287018091D7008160809360
:10215000D70080EA8093D80089B5806189BD89B5B0
:10216000826089BD09B400FEFDCF61E070E080E0CF
:1021700090E00E94120A8091D8008F7C8061809349
:10218000D8008091E000807F8093E0008091E100A2
:102190008E7E8093E1008DE08093E200559A209A34
:1021A000EEEFFFE7859194918B3F9C4D19F481E010
:1021B000809384023F9A269A259A47982E982D98C4
:1021C00010924A011092490180E090E00E941903A8
:1021D0008091490190914A010E94190380E090E0AA
:1021E0000E948507E0919B01F0919C0182E0808331
:1021F000E0919701F09198011082E0919901F0919E
:102200009A0180E180831092A301E0919F01F091F7
:10221000A0018EE08083E0919D01F0919E0180817C
:1022200080618083E0919D01F0919E0180818860B2
:102230008083E0919D01F0919E0180818068808380
:10224000E0919D01F0919E0180818F7D808382E2EB
:1022500091E090938201809381018EE191E09093CF
:1022600084018093830183E080937C011092860136
:102270001092850181E090E00E94850784B1817F02
:1022800084B984B1866084B982E090E00E948507B9
:1022900081E00E94D10283E090E00E9485071092C5
:1022A00053011092520180917A00876080937A00E6
:1022B00080917C00806480937C0080917A008068AB
:1022C00080937A0080E280937E0010927D001092CD
:1022D0005101109250018091520180FD04C0109272
:1022E0004F0110924E0184E090E00E94850780919A
:1022F000490190914A01837D0E94190380E090E09A
:102300000E9424040E9404038B7F0E94370308EC80
:1023100010E03BE7A32E3EE3B32E42E3C42ED12CC4
:10232000EE24E394F12C0E948A01C5010197F1F794
:10233000C801B6010E944C1CCB01880F991FA70150
:1023400002C0440F551F8A95E2F7CA010E94240477
:102350000150110941F70E94040384600E94370371
:1023600018ECA12EB12C0BE7C02E0EE3D02E8EEC74
:10237000E82EFF24FA9401E010E00E948A01C601D1
:102380000197F1F7C501B7010E944C1C9B012C5F1E
:102390003F4F220F331FC80102C0880F991F2A9593
:1023A000E2F70E94240451E0A51AB10831F70E9417
:1023B000380480E00E94D10256E5E52E51E0F52E6A
:1023C0006AEE262E60E0362E74E0A72EB12CE2E0F5
:1023D0008E2E912CCC24C394D12CABE94A2EA8E2AA
:1023E0005A2E80917601909177018097F4F489E7D5
:1023F00091E00E94571497FD1EC08D30910519F091
:102400008A30910511F480E090E0209176013091BE
:102410007701A9014F5F5F4F509377014093760199
:10242000F901EA5AFE4F808306C01092770110929C
:1024300076018FEF9FEF1A821982209176013091F9
:102440007701121613060CF0F0C0892B09F0EDC0CD
:102450003F932F93FF92EF92AEEEB0E0BF93AF9316
:102460000E94B014109277011092760141E050E082
:102470004C0F5D1F5F934F933F922F92FF92EF920D
:102480000E94D6140FB6F894DEBF0FBECDBF18164B
:1024900019060CF0CAC009811A810530110508F02F
:1024A000C4C081E08093780180914C01811102C009
:1024B0000E943804809154019091550101969093A7
:1024C0005501809354016090000170900101C50195
:1024D00086199709880F991F940102C0220F331F94
:1024E0008A95E2F7C9010E94240410930101009328
:1024F000000180914D016016710619F4811123C00D
:102500001EC081110E94E504A8014619570989EBF4
:1025100092E0489FB001499F700D589F700D1124A3
:102520009301201B310B83E691E0AC01249FC00195
:10253000259F900D349F900D11240E9478030E94D6
:10254000860621E001C020E080E090E02B830E941D
:102550002404C501801B910B880F991FD60102C06E
:10256000AA0FBB1F8A95E2F7CD010E94240468ECF4
:1025700070E080E090E00E94120A2B81222309F48F
:1025800046C086EE90E09F938F9389E791E09F93FA
:102590008F930E9495140E9404038B7F0E9437033F
:1025A0006FE081E00E94D30A0F900F900F900F9080
:1025B00000E010E00E948A01C2010197F1F70F5F6D
:1025C0001F4F0935B2E01B0741F00D37110591F798
:1025D0006AE081E00E94D30AEDCF63E081E00E94CF
:1025E000D30A01E213E00E948A018BED9EE201977B
:1025F000F1F701501109B9F760E080E00E94D30AB9
:1026000080E00E947D0181E080934B010EC082EE4C
:1026100090E09F938F9389E791E09F938F930E941F
:1026200095140F900F900F900F9080917801811169
:10263000FEC00E948F01892B09F4F9C068EE73E097
:1026400080E090E00E94120A0E948F018230910582
:1026500089F08430910509F4E0C0019709F0E7C0E2
:102660008091000190910101843091050CF0DFC050
:102670000196DBC068EE73E080E090E00E94120AF1
:102680000E948F01029709F0D2C080E090E00E9482
:10269000240468EC70E080E090E00E94120A8AEA6C
:1026A00092E00E94240460EB74E080E090E00E94DD
:1026B000120A80E090E00E94240468E572E080E065
:1026C00090E00E94120A00E010E080E091E00E9499
:1026D000240461E070E080E090E00E94120A80E053
:1026E00092E00E94240461E070E080E090E00E94AB
:1026F000120AC801880F991F940102C0220F331FCC
:102700008A95E2F7C9010E94240461E070E080E04C
:1027100090E00E94120A0E948F018230910561F0C0
:102720008430910509F46CC0019779F60115110503
:1027300061F2015011096AC001301105B1F1043094
:10274000110519F680E090E00E94240460E971E030
:1027500080E090E00E94120A8AEA92E00E9424043B
:1027600060E971E080E090E00E94120A80E090E071
:102770000E94240460E971E080E090E00E94120A67
:1027800080E090E00E94240480910001909101017A
:10279000081B190B000F111FC60102C0880F991FDB
:1027A0000A95E2F70E94240442C080914D018111F4
:1027B0008CCF0E94860680E091E00E94240462E3B0
:1027C00070E080E090E00E94120A80E092E00E94B7
:1027D000240462E370E080E090E00E94120A88E046
:1027E00090E00E94240462E370E080E090E00E94A8
:1027F000120A0E948F010297F1F60E94E50465CF4C
:10280000043011050CF061CF0F5F1F4F60E273E0E1
:1028100080E090E00E94120A58CF809100019091D0
:102820000101181619061CF401970E94B8070E94AE
:10283000FB08D7CDEBE8F1E01382128288EE93E03B
:10284000A0E0B0E084839583A683B78328E131E0DC
:10285000318320832DEC30E0358724872CEC30E069
:102860003787268728EC30E0318B208B29EC30E04D
:10287000338B228B2AEC30E0358B248B2EEC30E02E
:10288000378B268B118E128E138E148EE4E3F2E0BA
:102890001382128284839583A683B7838AE291E0B0
:1028A000918380838FEF9FEF958784870895CF93DF
:1028B000DF93EC012B8120FF33C026FF0AC02F7B62
:1028C0002B838E819F8101969F838E838A8190E0E6
:1028D00029C022FF0FC0E881F9818081082E000CF9
:1028E000990B009719F420622B831AC03196F98353
:1028F000E8830EC0EA85FB85099597FF09C02B8107
:10290000019611F080E201C080E1822B8B8308C028
:102910002E813F812F5F3F4F3F832E83992702C037
:102920008FEF9FEFDF91CF910895A0E0B0E0EBE94A
:10293000F4E10C94591A0F811885F801838188609D
:102940008383AE01455F5F4F69857A85C8010E9428
:10295000EF14F8012381277F2383E4E00C94751A98
:10296000A0E0B0E0E6EBF4E10C94591AAE01495F47
:102970005F4FDA016D917D91AD010AE812E0F80137
:1029800082819381DC0113962C9113972860139612
:102990002C930E94EF14D8011296ED91FC9113979D
:1029A0002381277F2383E4E00C94751AAEE0B0E026
:1029B000ECEDF4E10C945B1A8DE08C838B899C899F
:1029C0009A838983AE01495E5F4F6D897E89CE010E
:1029D00001960E9441182E96E2E00C94771AACE022
:1029E000B0E0E5EFF4E10C944B1A7C016B018A0135
:1029F000FC0117821682838181FFBDC1CE01019641
:102A00004C01F7019381F60193FD859193FF81912C
:102A10006F01882309F4ABC1853239F493FD8591A8
:102A200093FF81916F01853229F4B70190E00E94F4
:102A30009919E7CF512C312C20E02032A0F48B32B1
:102A400069F030F4803259F0833269F420612CC08F
:102A50008D3239F0803339F4216026C02260246041
:102A600023C0286021C027FD27C030ED380F3A3041
:102A700078F426FF06C0FAE05F9E300D1124532E35
:102A800013C08AE0389E300D1124332E20620CC012
:102A90008E3221F426FD6BC1206406C08C3611F401
:102AA000206802C0883641F4F60193FD859193FFBA
:102AB00081916F018111C1CF982F9F7D95549330E3
:102AC00028F40C5F1F4FFFE3F9830DC0833631F00C
:102AD000833771F0833509F05BC022C0F801808133
:102AE00089830E5F1F4F44244394512C540115C019
:102AF0003801F2E06F0E711CF801A080B18026FF52
:102B000003C0652D70E002C06FEF7FEFC5012C8719
:102B10000E948E192C0183012C852F77222E17C03D
:102B20003801F2E06F0E711CF801A080B18026FF21
:102B300003C0652D70E002C06FEF7FEFC5012C87E9
:102B40000E9483192C012C852068222E830123FCEE
:102B50001BC0832D90E048165906B0F4B70180E2FF
:102B600090E00E9499193A94F4CFF50127FC8591E1
:102B700027FE81915F01B70190E00E949919311001
:102B80003A94F1E04F1A51084114510471F7E5C02D
:102B9000843611F0893639F5F80127FF07C06081C6
:102BA0007181828193810C5F1F4F08C060817181A8
:102BB000072E000C880B990B0E5F1F4F2F76722E7D
:102BC00097FF09C090958095709561957F4F8F4FC5
:102BD0009F4F2068722E2AE030E0A4010E94EA197B
:102BE000A82EA81844C0853729F42F7EB22E2AE0DB
:102BF00030E025C0F22FF97FBF2E8F36C1F018F4D8
:102C0000883579F0B4C0803719F0883721F0AFC02B
:102C10002F2F2061B22EB4FE0DC08B2D8460B82EF4
:102C200009C024FF0AC09F2F9660B92E06C028E075
:102C300030E005C020E130E002C020E132E0F801E0
:102C4000B7FE07C060817181828193810C5F1F4F45
:102C500006C06081718180E090E00E5F1F4FA4018B
:102C60000E94EA19A82EA818FB2DFF777F2E76FE6A
:102C70000BC0372D3E7FA51450F474FE0AC072FCC1
:102C800008C0372D3E7E05C0BA2C372D03C0BA2CA4
:102C900001C0B52C34FF0DC0FE01EA0DF11D80818D
:102CA000803311F4397E09C032FF06C0B394B39467
:102CB00004C0832F867809F0B39433FD13C030FF2E
:102CC00006C05A2CB31418F4530C5B18B32CB3146D
:102CD00068F4B70180E290E03C870E949919B394B0
:102CE0003C85F5CFB31410F43B1801C0312C34FFF0
:102CF00012C0B70180E390E03C870E9499193C859F
:102D000032FF17C031FD03C088E790E002C088E5BC
:102D100090E0B7010CC0832F867859F031FF02C0D4
:102D20008BE201C080E237FD8DE2B70190E00E94A6
:102D30009919A51438F4B70180E390E00E9499191D
:102D40005A94F7CFAA94F401EA0DF11D8081B701DE
:102D500090E00E949919A110F5CF332009F451CECB
:102D6000B70180E290E00E9499193A94F6CFF701FA
:102D70008681978102C08FEF9FEF2C96E2E10C9441
:102D8000671A20FD09C0FC0123FD05C022FF02C017
:102D90007383628351834083089544FD10C046FDD0
:102DA00010C0DB01FC01AA0FBB1FEE1FFF1F109418
:102DB000D1F76A0F7B1F8E1F9F1F31E003C033E0E6
:102DC00001C034E0660F771F881F991F3150D1F77B
:102DD000620F711D811D911D08950F931F93CF9355
:102DE000DF938C01C8010E945714EC0197FD08C0C5
:102DF0000E946F19892BB1F7B801CE010E94D11939
:102E0000CE01DF91CF911F910F910895A1E0B0E025
:102E1000ECE0F7E10C94511A8C01C62E7A0129835B
:102E20000E945714AC01552729814B32510521F0DE
:102E30004D32510569F42068CA94C11002C080E087
:102E400076C0C80129830E945714298197FDF7CFC6
:102E5000322F3D7FD32E322F307349F5803339F531
:102E6000BB24BA94BC0C09F44EC0C80129830E944B
:102E70005714298197FD47C0382F3F7D383569F4B5
:102E80008D2D8264D82ECA94CA94CC20E1F1C80159
:102E90000E94571497FF0BC036C026FF04C02D2D8B
:102EA0002260D22E03C03D2D3261D32ECB2C812C3B
:102EB000912C540120ED280F283080F0D4FE04C05E
:102EC000B8010E94D1191CC02A3040F0D6FEF8CFBC
:102ED0002F7D3FEE320F363098F727504D2DC5012C
:102EE000B4010E94CD164B015C018D2D8260D82E5D
:102EF000CA94CC2059F0C8010E94571497FFDACF2A
:102F0000D1FC04C09CCF812C912C5401D7FE08C069
:102F1000B094A09490948094811C911CA11CB11C2D
:102F20002D2DB501A401C7010E94C11681E0219693
:102F3000ECE00C946D1AA1E2B0E0E1EAF7E10C9448
:102F40004F1A5C017A01CE0101966C0180E2F60114
:102F500011928A95E9F7F501838040E050E0912CC9
:102F6000712C70E0A1E0B0E0F90183FC859183FE53
:102F700081918F01982F9F01811103C080E090E023
:102F80007CC08E3519F44115510549F1E72FF0E069
:102F9000E417F5073CF48D3559F18D3219F477209B
:102FA00001F103C0711001C0982E892F8695869576
:102FB00086958601080F111D892F87703D0101C07C
:102FC000660C8A95EAF7F801808186298083991535
:102FD00059F0991510F49F5FE8CF9150E6CF71E05A
:102FE00004C07724739401C0712C4F5F5F4FBCCF36
:102FF000772019F08E8180628E83711103C099242D
:10300000939416C0F6019E012F5D3F4F80818095FD
:103010008193E217F307D1F7F2CFE114F10429F01D
:10302000F7018083C70101967C016150912CF9F072
:10303000C50169A30E94571469A197FD16C0282FE6
:10304000269526952695F601E20FF11D208130E0A8
:10305000AC014770552702C0359527954A95E2F790
:1030600020FDDBCFB5010E94D119911087CFE1146B
:10307000F10411F0F7011082C801A196EEE00C9462
:103080006B1A4F925F927F928F929F92AF92BF92F4
:10309000CF92DF92EF92FF920F931F93CF93DF9324
:1030A0001F92CDB7DEB76C012B015A01FC011782CC
:1030B0001682712CF601F380F201F3FC8591F3FE88
:1030C0008191382F2F01882309F4F3C090E03983D0
:1030D0000E946F193981892B21F0C6010E94ED16DB
:1030E000E9CF353241F4F201F3FC3591F3FE319131
:1030F0002F01353269F4C60139830E945714398192
:1031000097FDD5C03817B1F2B6010E94D119D1C0D0
:103110003A3239F4F3FC3591F3FE31912F0151E04D
:1031200001C050E0420110E020ED230F2A3090F45E
:103130005260612F70E080E090E040E259830E948D
:10314000CD16162FF401F3FC3591F3FE31914F01AA
:103150005981EACF052F232F240151FF03C01111FC
:1031600002C0A7C01FEF383619F03C3659F011C025
:10317000F401F3FC2591F3FE21912F01283649F447
:10318000052F08600460F201F3FC2591F3FE219104
:103190002F01222309F48DC0622F70E08AEC90E0A9
:1031A00029830E9478192981892B09F482C000FDA6
:1031B00007C0F501E080F180C50102965C0102C004
:1031C000E12CF12C2E3651F4F6014681578160E056
:1031D00070E0202FC7010E94C1166CCF233691F4F6
:1031E00001FF11E0C6010E94571497FD60C0E11471
:1031F000F10429F0F7018083C70101967C01115089
:1032000089F751C02B3559F49201A701612FC601EE
:103210000E949B172C01892B09F045C03FC0C601B5
:1032200029830E94ED16298197FD41C02F3659F15F
:1032300028F4243631F1293649F127C0233769F0C3
:103240002537F9F022C0E114F10429F0F70180825A
:10325000C70101967C01115071F0C6010E945714FC
:103260004C0197FD08C00E946F19892B61F3B601CC
:10327000C4010E94D119E114F104A9F0F7011082F0
:1032800012C0006203C0006101C00064202FA701CA
:10329000612FC6010E940617811105C0F6018381C6
:1032A000807329F406C000FD05CF739403CF772007
:1032B00019F0872D90E002C08FEF9FEF0F90DF9104
:1032C000CF911F910F91FF90EF90DF90CF90BF9023
:1032D000AF909F908F907F905F904F900895911145
:1032E0000C94481A803219F089508550C8F7089517
:1032F000FC010590061621F00020D9F7C0010895C1
:103300003197CF010895FC01059061507040011084
:10331000D8F7809590958E0F9F1F0895FC016150FE
:10332000704001900110D8F7809590958E0F9F1FE7
:1033300008950F931F93CF93DF93FB01238121FD0A
:1033400003C08FEF9FEF28C022FF16C04681578130
:10335000248135814217530744F4A081B1819D0136
:103360002F5F3F4F318320838C93268137812F5FDE
:103370003F4F3783268310C0EB01092F182F00849D
:10338000F185E02D0995892BE1F68E819F810196CB
:103390009F838E83812F902FDF91CF911F910F916B
:1033A0000895FB01238120FF12C026FD10C08F3F2E
:1033B0003FEF930761F082832F7D20642383268172
:1033C00037812150310937832683992708958FEF5C
:1033D0009FEF0895FA01AA27283051F1203181F199
:1033E000E8946F936E7F6E5F7F4F8F4F9F4FAF4F0D
:1033F000B1E03ED0B4E03CD0670F781F891F9A1F20
:10340000A11D680F791F8A1F911DA11D6A0F711DD3
:10341000811D911DA11D20D009F468943F912AE0DF
:10342000269F11243019305D3193DEF6CF010895C7
:10343000462F4770405D4193B3E00FD0C9F7F6CFF8
:10344000462F4F70405D4A3318F0495D31FD4052C0
:10345000419302D0A9F7EACFB4E0A6959795879556
:1034600077956795BA95C9F7009761057105089535
:103470009B01AC010A2E06945795479537952795E1
:10348000BA95C9F7620F731F841F951FA01D089579
:103490009927882708952F923F924F925F926F92BB
:1034A0007F928F929F92AF92BF92CF92DF92EF92D4
:1034B000FF920F931F93CF93DF93CDB7DEB7CA1B55
:1034C000DB0B0FB6F894DEBF0FBECDBF09942A8880
:1034D000398848885F846E847D848C849B84AA8428
:1034E000B984C884DF80EE80FD800C811B81AA81B5
:1034F000B981CE0FD11D0FB6F894DEBF0FBECDBF80
:10350000ED0108955058BB27AA270E949A1A0C94DF
:103510000D1C0E94FF1B38F00E94061C20F039F49D
:103520009F3F19F426F40C94FC1B0EF4E095E7FB86
:103530000C94F61BE92F0E941E1C58F3BA17620761
:1035400073078407950720F079F4A6F50C94401CC6
:103550000EF4E0950B2EBA2FA02D0B01B9019001AE
:103560000C01CA01A0011124FF27591B99F0593FF2
:1035700050F4503E68F11A16F040A22F232F342F3A
:103580004427585FF3CF469537952795A795F04088
:103590005395C9F77EF41F16BA0B620B730B840B9D
:1035A000BAF09150A1F0FF0FBB1F661F771F881F55
:1035B000C2F70EC0BA0F621F731F841F48F48795AD
:1035C00077956795B795F7959E3F08F0B0CF93959F
:1035D000880F08F09927EE0F9795879508950E9418
:1035E000D21B08F481E008950E94081B0C940D1C66
:1035F0000E94061C58F00E94FF1B40F029F45F3F18
:1036000029F00C94F61B51110C94411C0C94FC1BDA
:103610000E941E1C68F39923B1F3552391F3951B67
:10362000550BBB27AA2762177307840738F09F5FE3
:103630005F4F220F331F441FAA1FA9F335D00E2E50
:103640003AF0E0E832D091505040E695001CCAF7BD
:103650002BD0FE2F29D0660F771F881FBB1F261780
:1036600037074807AB07B0E809F0BB0B802DBF0157
:10367000FF2793585F4F3AF09E3F510578F00C9426
:10368000F61B0C94411C5F3FE4F3983ED4F38695FF
:1036900077956795B795F7959F5FC9F7880F911D47
:1036A0009695879597F90895E1E0660F771F881F33
:1036B000BB1F621773078407BA0720F0621B730BE6
:1036C000840BBA0BEE1F88F7E09508950E94261C24
:1036D00088F09F5798F0B92F9927B751B0F0E1F0D3
:1036E000660F771F881F991F1AF0BA95C9F714C083
:1036F000B13091F00E94401CB1E008950C94401C40
:10370000672F782F8827B85F39F0B93FCCF38695BB
:1037100077956795B395D9F73EF490958095709518
:1037200061957F4F8F4F9F4F0895E89409C097FB95
:103730003EF490958095709561957F4F8F4F9F4F88
:103740009923A9F0F92F96E9BB279395F6958795CC
:1037500077956795B795F111F8CFFAF4BB0F11F48F
:1037600060FF1BC06F5F7F4F8F4F9F4F16C0882336
:1037700011F096E911C0772321F09EE8872F762F6C
:1037800005C0662371F096E8862F70E060E02AF0AD
:103790009A95660F771F881FDAF7880F9695879599
:1037A00097F90895990F0008550FAA0BE0E8FEEF6E
:1037B00016161706E807F907C0F012161306E407F5
:1037C000F50798F0621B730B840B950B39F40A26EE
:1037D00061F0232B242B252B21F408950A2609F4CC
:1037E000A140A6958FEF811D811D089597F99F67D0
:1037F00080E870E060E008959FEF80EC0895002479
:103800000A941616170618060906089500240A9445
:1038100012161306140605060895092E0394000CCB
:1038200011F4882352F0BB0F40F4BF2B11F460FF5A
:1038300004C06F5F7F4F8F4F9F4F089557FD905883
:10384000440F551F59F05F3F71F04795880F97FB64
:10385000991F61F09F3F79F087950895121613061E
:103860001406551FF2CF4695F1DF08C0161617064D
:103870001806991FF1CF8695710561050894089582
:10388000E894BB2766277727CB0197F908950E9414
:10389000D21B08F48FEF089597FB072E16F40094BF
:1038A00007D077FD09D00E94661C07FC05D03EF4C6
:1038B000909581959F4F0895709561957F4F0895DC
:1038C000EE0FFF1F0590F491E02D0994AA1BBB1B7E
:1038D00051E107C0AA1FBB1FA617B70710F0A61B10
:1038E000B70B881F991F5A95A9F780959095BC0131
:1038F000CD01089581E090E0F8940C947F1CF89439
:02390000FFCFF7
:10390200FFFFFFFFFFFF00E10000000000001814AE
:1039120001010605000000009208A70D2A08D90837
:103922005B0839084D080000000005094C0A6909C6
:103932001B0926096D098B0900C180810000000066
:00000001FF
