:100000000C94F4000C941C010C941C010C941C0125
:100010000C941C010C941C010C941C010C941C01EC
:100020000C941C010C941C010C94F30B0C94610DAA
:100030000C941C010C941C010C941C010C941C01CC
:100040000C941C010C941C010C941C010C941C01BC
:100050000C941C010C941C010C941C010C94D502F2
:100060000C941C010C9454090C942E090C941C0142
:100070000C941C010C941C010C941C010C941C018C
:100080000C941C010C941C010C941C010C941C017C
:100090000C941C010C941C010C941C010C941C016C
:1000A0000C941C010C941C010C941C016E0B710B24
:1000B000600B640B680B920B920B920B750B790B18
:1000C0007D0B830B870B920B8D0B6364696E6F70D6
:1000D000737578585B00070605040100080A0B0CCD
:1000E0000D096F6B0A006F6B0A00542564006C6980
:1000F0006E652072656365697665643A20272573AD
:10010000272025640A0000000000230026002900A3
:100110002C002F000404040404030405020202025C
:100120000403020202020606060606060404020290
:100130000204040408020110408040102040804066
:10014000800802040180402010020110801020402D
:1001500040200000000200090F0000030401000C11
:10016000000000000000000000000000000000008F
:1001700000080B0002020201000904000001020253
:1001800000000524001001052401010104240206D9
:100190000524060001070581031000400904010041
:1001A000020A000000070502024000000705830262
:1001B0004000000403090412010002EF0201404163
:1001C00023368000010102030141726475696E6F7C
:1001D000204C4C430041726475696E6F204C656F12
:1001E0006E6172646F00281511241FBECFEFDAE034
:1001F000DEBFCDBF23E0ACE2B2E001C01D92AC3760
:10020000B207E1F712E0A0E0B1E0E2E6FBE302C0F2
:1002100005900D92AC32B107D9F710E0C4EFD0E0F1
:1002200004C02197FE010E94901DC33FD107C9F76A
:100230000E94910F0C94AF1D0C940000FC01918D55
:10024000228D892F90E0805C9F4F821B91098F73D4
:100250009927089580E090E0892B29F00E94BB083F
:1002600081110C9400000895CF93DF931F92CDB7B6
:10027000DEB76983DC01ED91FC910280F381E02D12
:1002800041E050E0BE016F5F7F4F09950F90DF9115
:10029000CF91089583E08093E9008091F200882354
:1002A00019F08AE38093E8000895FC018485958520
:1002B00097FD0BC09FB7F89482E08093E90080918E
:1002C000F2009FBF90E0019608959FB7F89482E0F6
:1002D0008093E9008091F2009FBF90E00895089517
:1002E00080E090E008953FB7F894809131029091BA
:1002F0003202A0913302B091340226B5A89B05C00A
:100300002F3F19F00196A11DB11D3FBFBA2FA92F94
:10031000982F8827820F911DA11DB11DBC01CD0111
:1003200042E0660F771F881F991F4A95D1F70895FD
:100330000E94CE0B90E00895CF93DF931F92CDB72C
:10034000DEB7FC018485958597FD05C02FEF3FEF53
:10035000358724870BC0CE0101960E94A40B01971C
:1003600019F4898190E002C08FEF9FEF0F90DF9129
:10037000CF9108950F931F93CF93DF931F92CDB723
:10038000DEB78C01FC018485958597FF0EC0CE01F8
:1003900001960E94A40B019719F4298130E002C054
:1003A0002FEF3FEFF80135872487F8018485958585
:1003B0000F90DF91CF911F910F91089587E792E001
:1003C0000C949908682F87E792E00E94C50880E0A6
:1003D00090E00895FC01848DDF01A80FB11DA35AA0
:1003E000BF4F2C91848D90E001968F739927848F55
:1003F000A689B7892C93A089B1898C9180648C934C
:10040000938D848D981306C00288F389E02D808136
:100410008F7D808308958230910538F0880F991F71
:10042000880F991F05970197F1F708958F929F9272
:10043000AF92BF92CF92DF92EF92FF926B017C015D
:100440000E9473014B015C01C114D104E104F10469
:10045000F1F00E947301DC01CB0188199909AA0906
:10046000BB09883E9340A105B10570F321E0C21A93
:10047000D108E108F10888EE880E83E0981EA11CDF
:10048000B11CC114D104E104F10419F7DDCFFF90D0
:10049000EF90DF90CF90BF90AF909F908F90089596
:1004A0008F929F92AF92BF92CF92DF92EF92FF9284
:1004B0000F931F93CF93DF935C016B017A018091BF
:1004C0000D01882309F45BC080917602882309F42A
:1004D00056C08091730280FF05C08091E000826069
:1004E0008093E000E70110E00AEF83E0882E9AE3B2
:1004F000992E2097D9F10E94CE0B81110AC001508C
:1005000009F43DC061E070E080E090E00E941602D6
:10051000F0CF282F30E0C217D3070CF48C2F4FB741
:10052000F8948092E9009091E80095FF1DC0282F73
:1005300030E0C21BD30BF601982F915020F081912F
:100540008093F100FACFC20ED31E112319F09092BE
:10055000E80009C08091E80085FD06C09092E8009F
:1005600011E0209709F010E04FBFC3CF1111C3CFA6
:100570005D9884E6809374021E141F0444F081E0A9
:1005800090E0F5019383828380E090E001C0C70191
:10059000DF91CF911F910F91FF90EF90DF90CF905F
:1005A000BF90AF909F908F9008951F920F920FB6BB
:1005B0000F9211242F933F938F939F93AF93BF93E9
:1005C00080912D0290912E02A0912F02B0913002C5
:1005D00030912C0223E0230F2D3720F40196A11D2A
:1005E000B11D05C026E8230F0296A11DB11D209361
:1005F0002C0280932D0290932E02A0932F02B09391
:1006000030028091310290913202A0913302B09178
:1006100034020196A11DB11D8093310290933202E4
:10062000A0933302B0933402BF91AF919F918F9109
:100630003F912F910F900FBE0F901F90189560E083
:1006400070E089ED90E00E94E80A10923702089568
:1006500081110C941F0360E070E087E29FEF0E941D
:10066000E80A81E08093370208955E9A00005E9860
:1006700000000895E8EDF0E0E49120917B00E3FBB9
:10068000882780F990E035E0880F991F3A95E1F7C7
:10069000922F9F7D892B80937B00E770E064E0932D
:1006A0007C0080917A00806480937A0080917A0047
:1006B00086FDFCCF209178008091790030E0382BC6
:1006C000C90181559109439738F081E090E02233C8
:1006D000310524F080E002C082E090E0215A310927
:1006E0002331310510F484E090E00895CF92DF9239
:1006F000EF92FF929CE59CBD1DBC813039F020F04B
:10070000823029F42F9803C0469801C05F986EBDCF
:100710000DB407FEFDCF9EB5C52EDD24EE24FF24CB
:10072000CEBC0DB407FEFDCF9EB56A01EE24FF24BA
:10073000CEBC0DB407FEFDCF9EB5C32ED42EE52E44
:10074000FF24CEBC0DB407FEFDCF9EB52EBD0DB46B
:1007500007FEFDCF9EB5813039F020F0823029F4BC
:100760002F9A03C0469A01C05F9AFF90EF90DF90E6
:10077000CF9008959C0188E0369527952115310585
:1007800011F08150C9F708951F93CF93DF93182F6D
:10079000D42FC22F262F2F70822F90E0A0E0B0E040
:1007A000B82FAA27992788279C01AD01C03288F469
:1007B000236D436050616CEE812F0E947603DF71E0
:1007C0008D2F90E0A0E0B0E0AC01BD016F608C2FF8
:1007D00013C0236D416050616CEE812F0E9476033F
:1007E000D695DF718D2F90E0A0E0B0E0AC01BD01A7
:1007F0006F608C2F86958F7190E0D82FCC27CE011B
:10080000DD0FAA0BBB0B9A01AB01282B392B4A2B0E
:100810005B2B60E9812F0E94760380E0DF91CF910E
:100820001F9108951F93CF93DF93C82F662341F044
:10083000823020F0823051F4DEE10DC0D3E209C0F5
:10084000823030F0823011F4D1E005C0D0E101C037
:10085000DEE1C33030F4EC2FF0E0E25FFE4F1081B8
:1008600001C010E1C13029F482E090E00E94BA0397
:1008700005C0C130C0F0C230B9F380E12D2F412F47
:10088000682F8C2F0E94C40381110BC020E030E040
:10089000A90161E98C2F0E947603C33038F024E06F
:1008A0000AC08FEF25C080E190E0E0CFEC2FF0E0B0
:1008B000EF5EFE4F2081822F220F990BAA0BBB0BFC
:1008C000AC01332722276DEE8C2F0E94760322EC99
:1008D00031E040E050E064E98C2F0E94760320E88C
:1008E00031E340E050E060E88C2F0E94760380E026
:1008F000DF91CF911F9108951F93CF93DF93182F0E
:100900003E9A579A279A469A5F9A2F9A549A249A0F
:10091000569A5C982C985E98682F80E00E9412048A
:1009200021E030E0811102C020E030E0CC27DD275B
:10093000C21BD30B612F81E00E941204811102C0FF
:1009400020E001C02EEFC20F612F82E00E9412044E
:1009500081118CEF8C0FDF91CF911F910895209121
:10096000350230913602C90184709927AC01569541
:100970004795C90180719927969587959695879592
:10098000842B2170822B08952E98000020E130E006
:1009900040E050E8BA0168237923672B11F02D9AC3
:1009A00001C02D98479A000047980000569547953A
:1009B0002150310979F72E9A0000909336028093E6
:1009C00035020895282F2270922F990F282F247016
:1009D000220F220F292B8170282B022E000C330BA3
:1009E00080913502909136028A7E822B932B0C9453
:1009F000C404CF93DF93EC0197FF07C0D195C19555
:100A0000D1090E94AF048D7F03C00E94AF048260B1
:100A10000E94E204CE01DF91CF910895CF93DF933E
:100A2000EC0197FF07C0D195C195D1090E94AF0491
:100A30008E7F03C00E94AF0481600E94E204CE0159
:100A4000DF91CF9108954F925F926F927F928F9234
:100A50009F92AF92BF92CF92DF92EF92FF920F934D
:100A60001F93CF93DF93EB010E940E054C01CE0143
:100A70000E94F904EC01B401092C000C880B990BBD
:100A80000E94A51C6B017C01BE010D2E000C880B81
:100A9000990B0E94A51C9B01AC01C701B6010E94E5
:100AA000021C2B013C015E018AEFA81AB10804EC7C
:100AB00019E0C12CD12C76011C161D060CF45C9A91
:100AC000000020E030E040E85FE3C701B6010E948B
:100AD000551D87FD07C01814190424F42C9881E0D3
:100AE000881A91081C161D0614F45C9821970000C2
:100AF00020E030E040E85FE3C701B6010E94551DE9
:100B000087FD0AC020E030E040E85FE3C701B6019E
:100B10000E94901B6B017C01A3019201C701B601E9
:100B20000E94911B6B017C01C8010E940B020538D9
:100B300083E018074CF0AC16BD0614F40A501109F6
:100B4000043C89E01807ACF4CA3FD10584F020E0EA
:100B500030E040E85FE3C701B6010E94551D87FD04
:100B6000ABCF181419040CF0A7CF2C9AA5CF065FB1
:100B70001F4F209761F78114910449F7DF91CF91BE
:100B80001F910F91FF90EF90DF90CF90BF90AF90AB
:100B90009F908F907F906F905F904F900895582F07
:100BA000442720913502309136022F733327242BAE
:100BB000352B882793709695879596958795822BE8
:100BC000932B0C94C404EF92FF920F931F93CF9337
:100BD000DF9300D000D0CDB7DEB78AEA92E00E9462
:100BE000CF056CE97FEF86EF9FEF0E94E80A6BEF7D
:100BF0007FEF80E090E00E94E80A62E370E080E02E
:100C000090E00E9416020E94AF0481600E94E204FC
:100C100000ED17E09BE8E92EFF24F39460E070E01C
:100C200081E090E00E94E80AC7010197F1F719827C
:100C30001A821B821C82BE016F5F7F4F80E00E9480
:100C4000DE090150110951F70CE91FEFB80180E0EE
:100C500090E00E94E80A62E370E080E090E00E9489
:100C60001602E12CF12C61E070E080E090E00E943F
:100C7000E80A19821A821B821C82BE016F5F7F4FB5
:100C800081E00E94DE0989819A81937021E1E21658
:100C9000F1041CF08436910540F08FEFE81AF80A51
:100CA00020EAE2162FE0F206F1F60C5E1F4F71F615
:100CB00085E591E00E94CF056CE871EF8EE79FEF2C
:100CC0000E94E80A109201011092000180E00E9447
:100CD000280380E090E00E94CF05109238028091B6
:100CE00000019091010124E030E0281B390B220F14
:100CF000331F81E090E002C0880F991F2A95E2F728
:100D00000E94CF0581E0809339020F900F900F90E1
:100D10000F90DF91CF911F910F91FF90EF90089569
:100D2000CF92DF92EF92FF920F931F93CF93DF93B7
:100D30008091370281110E941F036EE181E00E94C1
:100D4000A0090E94AF048B7F0E94E2048FE391E030
:100D50000E94DA0A82EE91E00E94460B8091000127
:100D6000909101010E94C20AC0E0D0E00BEE15E5AF
:100D70000E9435032196C8010197F1F70E94480BA4
:100D8000892B21F4C03B24E0D20791F78AE891E057
:100D90000E94460BCE010E94C20A8DEB91E00E9498
:100DA000460B0E94480B0E94C20A0E94480B892BE6
:100DB00009F040C08DE591E00E94DA0A0E94AF047C
:100DC00084600E94E204C5EFD1E00BEB1DE50E94B8
:100DD0003503C8010197F1F72197C9F70E94AF04C5
:100DE0008B7F0E94E204C0E0D0E00BEB1DE50E9487
:100DF00035032196C8010197F1F70E94480B892B12
:100E000021F4CC3D35E0D30791F78AEB91E00E94C5
:100E1000460B0E94480BBC01990F880B990B97FF5A
:100E2000CDC00E949B0A87E891E00E94460BCE014C
:100E30000E94C20A0E94480B892B09F046C086E92D
:100E400091E00E94DA0A8DEB91E00E94460B0E942D
:100E5000480B0E94C20A80E00E94280304E010E0D0
:100E6000C1E0D0E080E090E00E94CF0564E670E051
:100E700080E090E00E9416028091000190910101B3
:100E80009801281B390BC9019E0102C0220F331F94
:100E90008A95E2F7C9010E94CF0564E670E080E020
:100EA00090E00E9416020E943A03892BD9F20E9418
:100EB0001F03CCEBD2E00BEE15E50E943503C80111
:100EC0000197F1F72197C9F707C087EA91E00E94DF
:100ED000460BCE010E94C20AC0E0D0E0C12C80EADD
:100EE000D82E8CE8E82E85E4F82E0E943503CE013A
:100EF0000B9785399F40A0F420E030E046E154E4B0
:100F0000C701B6010E94551D181654F420E030E0C8
:100F100040E850E4C701B6010E94901B6B017C01C0
:100F2000CE01855691098B339F4098F420E030E044
:100F300046E154E4C701B6010E94551D18160CF590
:100F400020E030E040E85FE3C701B6010E94901B5B
:100F500016C0C1343FE1D307A4F020E030E84BE3F2
:100F600055E4C701B6010E94FD1B87FF0AC020E0BF
:100F700030E040E050E4C701B6010E94911B6B01D4
:100F80007C01C701B6010E94741CCB010E940B02B8
:100F90002196C43381E2D80709F0A7CF60E080E052
:100FA0000E94A00981E080933802DF91CF911F91C8
:100FB0000F91FF90EF90DF90CF9008954AE00E944C
:100FC0005A0A31CFCF93DF93880F991FC1E0D0E049
:100FD00002C0CC0FDD1F8A95E2F7CE010E94CF053B
:100FE00062E870E080E090E00E94160280E090E00D
:100FF0000E94CF0560E570E080E090E00E9416025C
:10100000CE010E94CF0562E870E080E090E00E948F
:10101000160280E090E00E94CF0564E670E080E078
:1010200090E0DF91CF910C9416020F931F93CF9312
:10103000DF938C0180913902811102C00E94E30587
:10104000C8010E94C20A809100019091010124E030
:1010500030E0281B390B220F331F82E090E002C0E2
:10106000880F991F2A95E2F70E94CF05C0910001D1
:10107000D09101011093010100930001C017D10725
:1010800029F4C091380281E0C82727C08091370237
:1010900081110E941F038091000190910101AC0118
:1010A0004C1B5D0B29EB32E0429FB001439F700D5A
:1010B000529F700D1124C81BD90B83E691E09C014F
:1010C000C29FC001C39F900DD29F900D11240E941A
:1010D000230580E00E942803C1E080E090E00E94A8
:1010E000CF05809100019091010124E030E0281BA0
:1010F000390B220F331F81E090E002C0880F991F47
:101100002A95E2F70E94CF058C2FDF91CF911F9196
:101110000F910895FC01538D448D252F30E0842FCD
:1011200090E0821B930B541710F0CF96089501970F
:101130000895FC01918D828D981761F0828DDF01F9
:10114000A80FB11D5D968C91928D9F5F9F73928FBA
:1011500090E008958FEF9FEF0895FC01918D828DAF
:10116000981731F0828DE80FF11D858D90E008957C
:101170008FEF9FEF089587E792E00E941E0121E024
:10118000892B09F420E0822F0895EF92FF920F93AC
:101190001F93CF93DF93EC0181E0888F9B8D8C8D23
:1011A000981305C0E889F989808185FD24C0F62E51
:1011B0000B8D10E00F5F1F4F0F731127E02E8C8DEA
:1011C000E8120CC00FB607FCFACFE889F9898081D4
:1011D00085FFF5CFCE010E94EA01F1CF8B8DFE0194
:1011E000E80FF11DE35AFF4FF0820B8FEA89FB896C
:1011F0008081806207C0EE89FF896083E889F98970
:1012000080818064808381E090E0DF91CF911F91A5
:101210000F91FF90EF900895CF93DF93EC01888DAD
:101220008823C9F0EA89FB89808185FD05C0A889EA
:10123000B9898C9186FD0FC00FB607FCF5CF808170
:1012400085FFF2CFA889B9898C9185FFEDCFCE01BA
:101250000E94EA01E7CFDF91CF9108951F920F928C
:101260000FB60F9211242F933F934F935F936F9379
:101270007F938F939F93AF93BF93EF93FF9387E7F2
:1012800092E00E94EA01FF91EF91BF91AF919F918F
:101290008F917F916F915F914F913F912F910F901F
:1012A0000FBE0F901F9018951F920F920FB60F92BE
:1012B00011242F938F939F93EF93FF93E0918702D5
:1012C000F09188028081E0918D02F0918E0282FD82
:1012D00012C09081809190028F5F8F732091910254
:1012E000821751F0E0919002F0E0E958FD4F958FA0
:1012F0008093900201C08081FF91EF919F918F9127
:101300002F910F900FBE0F901F901895BC01009762
:1013100091F0FC0101900020E9F73197AF01481BE3
:10132000590BE0911403F09115030280F381E02D35
:1013300084E193E0099480E090E008950E94AA1D62
:101340001F93CF93DF9300D0CDB7DEB7482F82E055
:1013500090E06A8349830E94BA032A814981682FF9
:1013600082E00E94C403182F811120C020E030E0E9
:10137000A90161E982E00E94760320E030E045E0C7
:1013800050E06DEE82E00E94760322EC31E040E016
:1013900050E064E982E00E94760320E831E340E017
:1013A00050E060E882E00E94760301C01FEF812FC9
:1013B0000F900F90DF91CF911F910895FB019CE555
:1013C0009CBD1DBC813039F020F0823029F42F986B
:1013D00003C0469801C05F989FE69EBD0DB407FE0E
:1013E000FDCF9EB51EBC0DB407FEFDCF9EB51EBC45
:1013F0000DB407FEFDCF9EB51EBC0DB407FEFDCF9C
:101400009EB51EBC0DB407FEFDCF9EB5813039F0F0
:1014100020F0823029F42F9A03C0469A01C05F9AC7
:101420009CE59CBD1DBC813039F020F0823029F450
:101430002F9803C0469801C05F981EBC0DB407FEEC
:10144000FDCF9EB51EBC0DB407FEFDCF4EB550E0DE
:1014500060E070E0762F652F542F44271EBC0DB43A
:1014600007FEFDCF2EB5422B762F652F542F442734
:101470001EBC0DB407FEFDCF2EB5422B762F652F77
:10148000542F44271EBC0DB407FEFDCF2EB5422BB2
:10149000813039F020F0823029F42F9A03C0469A27
:1014A00001C05F9A309721F0408351836283738338
:1014B000892F08958F929F92AF92BF920F931F939F
:1014C000CF93DF93CDB7DEB7A1970FB6F894DEBF09
:1014D0000FBECDBF19A2423008F44AE08E010F5D65
:1014E0001F4F842E912CA12CB12CA50194010E9498
:1014F0006E1DE62FB901CA0101501109EA3014F43A
:10150000E05D01C0E95CD801EC93232B242B252B53
:1015100061F7C8010E948609A1960FB6F894DEBF54
:101520000FBECDBFDF91CF911F910F91BF90AF90B4
:101530009F908F900895CF92DF92EF92FF92CF937A
:10154000DF936B017C01E0911403F091150301908E
:10155000F081E02D6DE284E193E00995EC016627CE
:101560007727CB016C197D098E099F094AE00E94FB
:101570005A0A8C0F9D1FDF91CF91FF90EF90DF9063
:10158000CF900895CF93DF93BC01990F880B990BEF
:1015900097FF03C00E949B0A03C04AE00E945A0AB8
:1015A000EC0188E292E00E9486098C0F9D1FDF917A
:1015B000CF910895CF93DF930E948609EC0188E2D2
:1015C00092E00E9486098C0F9D1FDF91CF910895B4
:1015D0009F92AF92BF92CF92DF92EF92FF920F93C2
:1015E0001F93CF93DF938B010E940E05EC01C8017E
:1015F0000E94F9048C010E94AF048B7F0E94E204D8
:1016000082E3E82EF12C9BE9C92E9FE0D92E2BE72F
:10161000A22E2CE0B22E3AE0932E1C161D060CF4DE
:101620002C9A101611060CF45C9A00001C161D066C
:101630002CF42C982197C6010197F1F7101611068A
:1016400034F45C9801501109C5010197F1F70000CD
:101650001E141F0454F49E9CC0019F9C900D1124E5
:101660000E940B0281E0E81AF10801151105A9F6A4
:10167000209799F6DF91CF911F910F91FF90EF90F6
:10168000DF90CF90BF90AF909F9008950C94860903
:10169000E5E6F1E04491E6E4F1E09491E7E2F1E07F
:1016A0008491882309F44DC04423E1F150E0FA010C
:1016B0003197EF30F105B0F5EA5AFF4F0C94901DC9
:1016C000209180002F7707C0209180002F7D03C0DC
:1016D00020918000277F2093800024C024B52F779D
:1016E00002C024B52F7D24BD1DC0209190002F770E
:1016F00007C0209190002F7D03C020919000277F8C
:10170000209390000FC02091C0002F7703C020913C
:10171000C0002F7D2093C00005C02091C200277F0C
:101720002093C200E82FF0E0EE0FFF1FEA5FFE4FAC
:10173000A591B491EC91E92381E090E021F480E05F
:10174000089580E090E00895FC0180917602811177
:1017500003C08FEF9FEF08959FB7F89482E08093C6
:10176000E9002091F20030E01216130614F421E093
:1017700030E02115310559F0289884E680937502F0
:101780008091F10080838091F200882319F09FBF3F
:10179000C90108958BE68093E800F9CF2FB7F8943C
:1017A00083E08093E9009091E800892F807295FF93
:1017B00004C09091F20080E4891B2FBF08958091AE
:1017C000680381110DC082E08093640384E08093FC
:1017D0006503109267031092660381E080936803AB
:1017E00084E693E008951F920F920FB60F92112492
:1017F0008F939F938091E1009091E100937F90936C
:10180000E10083FF0FC01092E90091E09093EB009C
:101810001092EC0092E39093ED001092760298E023
:101820009093F00082FF20C093E09093E9009091A4
:10183000F200992319F09AE39093E80090917402D2
:10184000992339F0909174029150909374029923E6
:1018500089F190917502992339F090917502915018
:1018600090937502992341F184FF10C08091E200AA
:101870008E7E81608093E2008091E1008F7E809374
:10188000E100809173028E7E806111C080FF16C0DE
:101890008091E2008E7E80618093E2008091E10081
:1018A0008E7E8093E100809173028E7E81608093B2
:1018B000730204C05D9ACDCF289AD6CF9F918F91A5
:1018C0000F900FBE0F901F90189540917403509188
:1018D0007503209172033091730342175307B4F4D8
:1018E0009091E8009570E1F39091E80092FD19C0A5
:1018F0008093F100809174039091750301968F732A
:101900009927892B19F48EEF8093E8008091740356
:10191000909175030196909375038093740381E011
:10192000089580E00895CF92DF92EF92FF920F9397
:101930001F93CF93DF931F92CDB7DEB7182F062FDB
:10194000E42E862F880F8E5F99830E94650C83E0BA
:101950000E94650CF12EC12E9981D92E8C2D8F19E4
:10196000801798F4F601E7FE02C0849101C08081DF
:101970000E94650C182F80E00E94650C8123FFEF08
:10198000CF1ADF0A8111EACF01C081E00F90DF9109
:10199000CF911F910F91FF90EF90DF90CF9008951E
:1019A000DF92EF92FF920F931F93CF93DF93D82E86
:1019B0008A017B01E40EF51EEB01CE15DF0571F007
:1019C000D7FE03C0FE01849101C088810E94650C8E
:1019D00021968111F2CF8FEF9FEF01C0C801DF91F7
:1019E000CF911F910F91FF90EF90DF90089561507C
:1019F00030F02091F100FC0120830196F8CF289867
:101A000084E6809375020895CF92DF92EF92FF9261
:101A10000F931F93CF93DF936C017A018B01C0E08A
:101A2000D0E0CE15DF0589F0D8016D918D01D6018A
:101A3000ED91FC910190F081E02DC6010995892B73
:101A400011F47E0102C02196ECCFC701DF91CF9146
:101A50001F910F91FF90EF90DF90CF9008950F931B
:101A60001F93CF93DF931F92CDB7DEB782E08983B8
:101A700042E450E061E771E080E80E94D00C0E94EF
:101A8000DF0BDC0112960D911C91139701151105C6
:101A900069F0D801ED91FC910280F381E02DBE0147
:101AA0006F5F7F4FC801099597FF07C089810F902D
:101AB000DF91CF911F910F910895F8010085118555
:101AC000E5CF1F920F920FB60F921124CF92DF92A3
:101AD000EF92FF920F931F932F933F934F935F9338
:101AE0006F937F938F939F93AF93BF93EF93FF93E6
:101AF000CF93DF93CDB7DEB76C97DEBFCDBF10922B
:101B0000E9008091E80083FFEDC168E0CE014596D1
:101B10000E94F70C82EF8093E8008D8987FF05C053
:101B20009091E80090FFFCCF03C09EEF9093E800F7
:101B3000982F907609F0C6C09E892F89188D911133
:101B40000CC0803829F4809171038093F10002C0A9
:101B50001092F1001092F10048C1422F50E0512B39
:101B6000913051F4811141C14130510509F03DC11D
:101B7000809171038D7F0BC0933061F4811135C169
:101B80004130510509F031C1809171038260809329
:101B900071032BC1953041F48091E80080FFFCCFA8
:101BA00020682093E30021C1963009F05FC0EB8CE0
:101BB000FC8C1092E900109275031092740312309D
:101BC00091F510927303109272030E942F0D99E009
:101BD000BE016F5F7F4FDB01E92F1D92EA95E9F7A8
:101BE00099831A8391E09E8390EA98879AEF998768
:101BF0002091740330917503275F3F4F3C832B8303
:101C00008D831092E9001092750310927403F09284
:101C10007303E092720349E050E080E00E94D00C30
:101C20000E942F0DE2C0F0927303E09272030E94B3
:101C3000DF0BDC011296ED90FC901397E114F10498
:101C400009F4C0C0D701ED91FC910480F581E02D2D
:101C5000BE016B5E7F4FC7010995009719F00CF02C
:101C6000C4C0C7C0F701E084F184E8CF973009F41D
:101C7000C0C0983021F481E08093F100B6C0993063
:101C800009F0B3C0837009F0B4C0E9E3F1E081E08A
:101C900021E036E39081992361F08093E90020935D
:101CA000EB0091919093EC003093ED008F5F8730C3
:101CB00089F78EE78093EA001092EA008F8980937B
:101CC000760293C08B8D9C8D1092E9001092750363
:101CD000109274039093730380937203898D811122
:101CE00056C08E899D89913A59F4813209F081C09C
:101CF00047E050E066E071E080E00E94D00C75C0E3
:101D0000913209F076C0833289F4888D90E0982F63
:101D100088272F89822BA0E0B0E080930201909366
:101D20000301A0930401B09305015FC0803269F400
:101D30008091E80082FFFCCF67E086E091E00E949E
:101D4000F70C8BEF8093E80006C0823209F04DC09B
:101D50008F8980930D0180917003882319F0EEEF35
:101D6000FAE002C0E0E0F8E08091060190910701FE
:101D7000A0910801B0910901803B9440A105B105F3
:101D800009F07BC080910D0180FF93C076C00E9456
:101D9000DF0BDC0112960D911C91139701151105B3
:101DA00041F1D801ED91FC910190F081E02DBE014F
:101DB0006B5E7F4FC8010995811117C0F80100853E
:101DC0001185ECCF113009F44EC0133091F48F8996
:101DD000882309F445C0823081F440E860E185ED54
:101DE00091E00E94930C882321F08EEF8093E8000D
:101DF00079C081E28093EB0075C0813029F440E81E
:101E00006BE089EC91E0EDCF833099F70E94DF0B16
:101E1000DC011296ED90FC9013978E010F5F1F4F1F
:101E20006801E114F10479F0D701ED91FC9106808D
:101E3000F781E02DB801C7010995080F111DF701C1
:101E4000E084F184EECFD8011C92F60101900020CD
:101E5000E9F73197BF016C197D0940E0C601C1CF98
:101E600063EB71E002C067EB71E06115710509F287
:101E7000FB01449150E080E840CF0FB6F894A8955C
:101E800080916000886180936000109260000FBEB6
:101E9000A895EE3F2AE0F20739F08091FE0A909172
:101EA000FF0A91838083A1CF1092FF0A1092FE0A4D
:101EB0009CCFEE3F8AE0F80731F0808191819093CA
:101EC000FF0A8093FE0A87E797E7918380839BE070
:101ED00088E10FB6F894A895809360000FBE9093A8
:101EE000600083CF6C960FB6F894DEBF0FBECDBFF7
:101EF000DF91CF91FF91EF91BF91AF919F918F9122
:101F00007F916F915F914F913F912F911F910F9111
:101F1000FF90EF90DF90CF900F900FBE0F901F902B
:101F20001895CF93DF9300D0CDB7DEB7789484B502
:101F3000826084BD84B5816084BD85B5826085BDC5
:101F400085B5816085BD80916E00816080936E0053
:101F50001092810080918100826080938100809145
:101F600081008160809381008091800081608093F6
:101F70008000809191008260809391008091910017
:101F800081608093910080919000816080939000A7
:101F90008091C10084608093C1008091C100826003
:101FA0008093C1008091C10081608093C1008091C5
:101FB000C30081608093C3008091C00082608093E1
:101FC000C0008091C20081608093C20080917A003D
:101FD000846080937A0080917A00826080937A0096
:101FE00080917A00816080937A0080917A00806885
:101FF00080937A001092760210927103109273020D
:102000008091D70081608093D70080EA8093D800C8
:1020100089B5806189BD89B5826089BD09B400FE3A
:10202000FDCF61E070E080E090E00E9416028091B8
:10203000D8008F7C80618093D8008091E000807F01
:102040008093E0008091E1008E7E8093E1008DE03E
:102050008093E200559A209AEEEFFFE785919491E4
:102060008B3F9C4D19F481E0809370038FEF9FEFBD
:1020700090932103809320036CED75E080E090E065
:102080000E9416023F9A269A259A47982E982D98D4
:10209000109236021092350280E090E00E94C40453
:1020A00080913502909136020E94C40480E090E055
:1020B0000E94E207E0918702F091880282E080832B
:1020C000E0918302F09184021082E0918502F09108
:1020D000860280E1808310928F02E0918B02F09162
:1020E0008C028EE08083E0918902F0918A028081E7
:1020F00080618083E0918902F0918A02808188600A
:102100008083E0918902F0918A02808180688083D7
:10211000E0918902F0918A0280818F7D808382EE36
:1021200091E090936E0280936D028EED91E090931A
:10213000700280936F0283E08093680210927202B3
:102140001092710281E090E00E94E20784B1817FE9
:1021500084B984B1866084B982E090E00E94E2078D
:1021600081E00E947C0483E090E00E94E2071092EC
:102170003F0210923E0280917A00876080937A003D
:1021800080917C00806480937C0080917A008068DC
:1021900080937A0080E280937E0010927D001092FE
:1021A0003D0210923C0280913E0280FD04C01092DC
:1021B0003B0210923A0284E090E00E94E207809194
:1021C000350290913602837D0E94C40480E090E045
:1021D0000E94CF050E94AF048B7F0E94E20408ECAE
:1021E00010E05BE7A52E5EE3B52E62E3C62ED12C90
:1021F000EE24E394F12C0E943503C5010197F1F719
:10220000C801B6010E945A1DCB01880F991F970182
:1022100002C0220F331F8A95E2F7C9010E94CF0541
:102220000150110941F70E94AF0484600E94E2044A
:1022300098ECA92EB12C2BE7C22E2EE3D22E3EEC29
:10224000E32EFF24FA9401E010E00E943503C6015A
:102250000197F1F7C501B7010E945A1D9B012C5F40
:102260003F4F220F331FC80102C0880F991F2A95C4
:10227000E2F70E94CF0531E0A31AB10831F70E94BE
:10228000E30580E00E947C041BE1812E1EE4912E78
:1022900080916202909163028097F4F485E692E067
:1022A0000E94651597FD1EC08D30910519F08A308A
:1022B000910511F480E090E0209162023091630278
:1022C000A9014F5F5F4F5093630240936202F9018F
:1022D000EE5BFD4F808306C0109263021092620293
:1022E0008FEF9FEF1A821982209162023091630270
:1022F000121613060CF0C6C2892B09F0C3C23F9315
:102300002F9302E412E01F930F938EEE90E09F93C1
:102310008F930E94BE151092630210926202CE014A
:1023200001969F938F938AEE90E09F938F931F93D4
:102330000F930E94E4150FB6F894DEBF0FBECDBF19
:10234000181619060CF09EC289819A81059708F02B
:1023500099C28DEC91E00E94460B60914002709111
:102360004102072E000C880B990B97FF03C00E94B7
:102370009B0A03C04AE00E945A0A8DED91E00E9438
:10238000DA0A09811A8181E080936402809139021E
:10239000811102C00E94E3058091400290914102A8
:1023A00001969093410280934002A0900001B0906A
:1023B000010124E030E02A193B09220F331F82E09B
:1023C00090E002C0880F991F2A95E2F70E94CF057E
:1023D000109301010093000180913802A016B1060C
:1023E00019F48111DAC1D5C1882309F4B4C16EE1B1
:1023F00081E00E94A0098091370281110E941F0391
:102400000E94AF0484600E94E2048FE391E00E9486
:10241000DA0A80EE91E00E94460B809100019091D3
:1024200001010E94C20A0CE115E2212C312CC12CC1
:10243000D12CAAEFEA2EA4E4FA2E0E943503015013
:102440001109083735E01307A4F420E030E84BEB1E
:1024500055E4C701B6010E94FD1B87FF0AC020E0BA
:1024600030E040E450E4C701B6010E94911B6B01CB
:102470007C01B801012E000C880B990B0E94A51C51
:102480002B013C0120E030E041EE54E40E94FD1BB2
:1024900087FF14C020E030E44CE155E4C701B601E9
:1024A0000E94FD1B87FF0AC020E030E040E050E4BE
:1024B000C701B6010E94911B6B017C0120E030EF47
:1024C00047E056E4C301B2010E94FD1B87FF18C01C
:1024D000093883E11807A4F020E030E849E054E42B
:1024E000C701B6010E94551D181654F420E030E0D3
:1024F00040E050E4C701B6010E94901B6B017C01D3
:10250000C701B6010E94741CCB010E940B020E94FD
:10251000480B892B29F4043C29E012070CF494C2DF
:1025200032E32316310424F40115110509F085CF97
:1025300088EE91E00E94460BC8010E94C20A8EEB11
:1025400091E00E94460B0E94480B0E94C20A06E9D5
:1025500010E00E943503C4010197F1F70150110901
:10256000C1F70E94480B019711F18EEB91E00E9498
:10257000460B0E94480B0E94C20A0E94480B01971A
:1025800009F0AEC084EF91E00E94DA0A8EEB91E090
:102590000E94460B0E94480B0E94C20A80E00E94E3
:1025A0002803E4E0EE2EF12C01E010E062C0FAE036
:1025B000EF2EF12C0E94480B019709F03FC00E94BA
:1025C000AF0484600E94E20404EB10E00E94350333
:1025D000C4010197F1F701501109C1F70E94AF043E
:1025E0008B7F0E94E20406E910E00E943503C401DB
:1025F0000197F1F701501109C1F70E94AF048460FF
:102600000E94E20400EA1FE00E9435030150110914
:102610008BE79EE30197F1F70E94480B019719F4AD
:102620000115110589F78DE591E00E94DA0A8FE026
:1026300092E00E94460BC8010E94C20A64E670E064
:1026400080E090E00E94160281E0E81AF10809F0AB
:10265000B1CF0E94480B892B09F087CF06E910E023
:102660000E943503C4010197F1F701501109C1F728
:102670007CCF80E090E00E94CF0580910001909196
:1026800001019701281B390BC901880F991F6801A7
:1026900002C0CC0CDD1C8A95E2F7C6010E94CF0572
:1026A00060E570E080E090E00E941602C6010E94A2
:1026B000CF0560E570E080E090E00E94160280E0C7
:1026C00090E00E94CF0564EF71E080E090E00E940E
:1026D00016020E943A03892B61F20E941F0335C043
:1026E0000E94AF0484600E94E20406E212E00E94AD
:1026F0003503C4010197F1F701501109C1F70E9498
:10270000AF048B7F0E94E20466E9E62EF12C0BED0C
:102710001EE20E943503C8010197F1F731E0E31A88
:10272000F108B9F70E94AF0484600E94E20450EA05
:10273000E52EF12C0BED1EE20E943503C801019736
:10274000F1F781E0E81AF108B9F760E080E00E9453
:10275000A009109238028091000190910101AC0112
:102760004A195B0929EB32E0429FB001439F700D8B
:10277000529F700D1124A81AB90A83E691E09C01BA
:10278000A29EC001A39E900DB29E900D11240E94A6
:1027900023050E94900611E001C010E080E090E067
:1027A0000E94CF05809100019091010124E030E06A
:1027B000281B390B220F331F81E090E002C0880FE5
:1027C000991F2A95E2F70E94CF0568EC70E080E03F
:1027D00090E00E941602112309F446C086EE90E0B4
:1027E0009F938F9385E692E09F938F930E94A3150A
:1027F0000E94AF048B7F0E94E2046FE081E00E94A0
:10280000A0090F900F900F900F9000E010E00E9431
:1028100035038BE998E20197F1F70F5F1F4F0B3FEC
:10282000110541F00D37110591F76AE081E00E9432
:10283000A009EDCF63E081E00E94A00901E911E069
:102840000E9435038BE592E20197F1F701501109DF
:10285000B9F760E080E00E94A00980E00E942803B0
:1028600081E0809337020EC082EE90E09F938F93B9
:1028700085E692E09F938F930E94A3150F900F908F
:102880000F900F90809164028111DBC00E943A0387
:10289000892B09F4D6C068EE73E080E090E00E94D6
:1028A00016020E943A038230910589F08430910526
:1028B00009F4BDC0019709F0C4C080910001909156
:1028C0000101843091050CF0BCC00196B8C068EEDF
:1028D00073E080E090E00E9416020E943A030297A3
:1028E00009F0AFC084E092E00E94DA0A80E090E054
:1028F0000E94CF0568EC70E080E090E00E94160234
:102900008AEA92E00E94CF0560EB74E080E090E0FC
:102910000E94160280E090E00E94CF0568E572E018
:1029200080E090E00E94160200E010E032E0E32E2A
:10293000F12C80E091E00E94CF0561E070E080E042
:1029400090E00E94160280E092E00E94CF0561E0D4
:1029500070E080E090E00E941602C801880F991F85
:10296000970102C0220F331F8A95E2F7C9010E9426
:10297000CF0561E070E080E090E00E9416020E94C6
:102980003A038230910561F08430910509F43FC02B
:10299000019779F60115110561F2015011093DC049
:1029A0000430110531F680E090E00E94CF0560E927
:1029B00071E080E090E00E9416028AEA92E00E94B4
:1029C000CF0560E971E080E090E00E94160280E0AF
:1029D00090E00E94CF0560E971E080E090E00E9405
:1029E000160280E090E00E94CF0580910001909156
:1029F0000101081B190B000F111F81E090E002C0BC
:102A0000880F991F0A95E2F70E94CF051AC004307B
:102A100011050CF08ECF0F5F1F4F60E273E080E076
:102A200090E00E941602C8010E94C20A82CF8091E3
:102A3000000190910101181619061CF401970E94DB
:102A400015080E942A0124CC3FEF231A330A68CDCF
:102A5000E7E7F2E01382128288EE93E0A0E0B0E0B4
:102A600084839583A683B78328E131E03183208373
:102A70002DEC30E0358724872CEC30E03787268733
:102A800028EC30E0318B208B29EC30E0338B228B2B
:102A90002AEC30E0358B248B2EEC30E0378B268B04
:102AA000118E128E138E148EE4E1F3E013821282E3
:102AB00084839583A683B7838AE291E091838083A0
:102AC0008FEF9FEF958784870895CF93DF93EC0175
:102AD0002B8120FF33C026FF0AC02F7B2B838E81E2
:102AE0009F8101969F838E838A8190E029C022FF77
:102AF0000FC0E881F9818081082E000C990B0097A6
:102B000019F420622B831AC03196F983E8830EC032
:102B1000EA85FB85099597FF09C02B81019611F085
:102B200080E201C080E1822B8B8308C02E813F812F
:102B30002F5F3F4F3F832E83992702C08FEF9FEF78
:102B4000DF91CF910895A0E0B0E0E9EAF5E10C94BF
:102B5000671B0F811885F801838188608383AE012C
:102B6000455F5F4F69857A85C8010E94FD15F801B0
:102B70002381277F2383E4E00C94831BA0E0B0E053
:102B8000E4ECF5E10C94671BAE01495F5F4FDA019D
:102B90006D917D91AD0106E713E0F801828193818B
:102BA000DC0113962C911397286013962C930E94A6
:102BB000FD15D8011296ED91FC9113972381277F83
:102BC0002383E4E00C94831BAEE0B0E0EAEEF5E191
:102BD0000C94691B8DE08C838B899C899A838983F3
:102BE000AE01495E5F4F6D897E89CE0101960E94DC
:102BF0004F192E96E2E00C94851BACE0B0E0E3E0C8
:102C0000F6E10C94591B7C016B018A01FC011782CF
:102C10001682838181FFBDC1CE0101964C01F7016F
:102C20009381F60193FD859193FF81916F01882334
:102C300009F4ABC1853239F493FD859193FF8191FD
:102C40006F01853229F4B70190E00E94A71AE7CFFF
:102C5000512C312C20E02032A0F48B3269F030F47A
:102C6000803259F0833269F420612CC08D3239F002
:102C7000803339F4216026C02260246023C028609C
:102C800021C027FD27C030ED380F3A3078F426FFF9
:102C900006C0FAE05F9E300D1124532E13C08AE067
:102CA000389E300D1124332E20620CC08E3221F458
:102CB00026FD6BC1206406C08C3611F4206802C06A
:102CC000883641F4F60193FD859193FF81916F0160
:102CD0008111C1CF982F9F7D9554933028F40C5FBC
:102CE0001F4FFFE3F9830DC0833631F0833771F056
:102CF000833509F05BC022C0F801808189830E5FB3
:102D00001F4F44244394512C540115C03801F2E064
:102D10006F0E711CF801A080B18026FF03C0652DE5
:102D200070E002C06FEF7FEFC5012C870E949C1AF4
:102D30002C0183012C852F77222E17C03801F2E059
:102D40006F0E711CF801A080B18026FF03C0652DB5
:102D500070E002C06FEF7FEFC5012C870E94911ACF
:102D60002C012C852068222E830123FC1BC0832D7F
:102D700090E048165906B0F4B70180E290E00E9456
:102D8000A71A3A94F4CFF50127FC859127FE81918B
:102D90005F01B70190E00E94A71A31103A94F1E068
:102DA0004F1A51084114510471F7E5C0843611F0EF
:102DB000893639F5F80127FF07C06081718182816A
:102DC00093810C5F1F4F08C060817181072E000C3A
:102DD000880B990B0E5F1F4F2F76722E97FF09C03D
:102DE00090958095709561957F4F8F4F9F4F20688C
:102DF000722E2AE030E0A4010E94F81AA82EA8182A
:102E000044C0853729F42F7EB22E2AE030E025C059
:102E1000F22FF97FBF2E8F36C1F018F4883579F084
:102E2000B4C0803719F0883721F0AFC02F2F206150
:102E3000B22EB4FE0DC08B2D8460B82E09C024FFC5
:102E40000AC09F2F9660B92E06C028E030E005C06A
:102E500020E130E002C020E132E0F801B7FE07C017
:102E600060817181828193810C5F1F4F06C06081F8
:102E7000718180E090E00E5F1F4FA4010E94F81A5C
:102E8000A82EA818FB2DFF777F2E76FE0BC0372DBE
:102E90003E7FA51450F474FE0AC072FC08C0372DA2
:102EA0003E7E05C0BA2C372D03C0BA2C01C0B52C0C
:102EB00034FF0DC0FE01EA0DF11D8081803311F455
:102EC000397E09C032FF06C0B394B39404C0832F87
:102ED000867809F0B39433FD13C030FF06C05A2C36
:102EE000B31418F4530C5B18B32CB31468F4B70183
:102EF00080E290E03C870E94A71AB3943C85F5CF0E
:102F0000B31410F43B1801C0312C34FF12C0B701C8
:102F100080E390E03C870E94A71A3C8532FF17C0EF
:102F200031FD03C088E790E002C088E590E0B7017A
:102F30000CC0832F867859F031FF02C08BE201C0AC
:102F400080E237FD8DE2B70190E00E94A71AA51438
:102F500038F4B70180E390E00E94A71A5A94F7CFA3
:102F6000AA94F401EA0DF11D8081B70190E00E945E
:102F7000A71AA110F5CF332009F451CEB70180E292
:102F800090E00E94A71A3A94F6CFF70186819781C4
:102F900002C08FEF9FEF2C96E2E10C94751B20FD91
:102FA00009C0FC0123FD05C022FF02C073836283B8
:102FB00051834083089544FD10C046FD10C0DB01DD
:102FC000FC01AA0FBB1FEE1FFF1F1094D1F76A0F61
:102FD0007B1F8E1F9F1F31E003C033E001C034E030
:102FE000660F771F881F991F3150D1F7620F711D2F
:102FF000811D911D08950F931F93CF93DF938C0133
:10300000C8010E946515EC0197FD08C00E947D1A59
:10301000892BB1F7B801CE010E94DF1ACE01DF91F2
:10302000CF911F910F910895A1E0B0E0EAE1F8E19E
:103030000C945F1B8C01C62E7A0129830E946515B2
:10304000AC01552729814B32510521F04D325105F4
:1030500069F42068CA94C11002C080E076C0C8013B
:1030600029830E946515298197FDF7CF322F3D7F77
:10307000D32E322F307349F5803339F5BB24BA94FF
:10308000BC0C09F44EC0C80129830E946515298132
:1030900097FD47C0382F3F7D383569F48D2D826408
:1030A000D82ECA94CA94CC20E1F1C8010E946515BB
:1030B00097FF0BC036C026FF04C02D2D2260D22EF4
:1030C00003C03D2D3261D32ECB2C812C912C540189
:1030D00020ED280F283080F0D4FE04C0B8010E94F3
:1030E000DF1A1CC02A3040F0D6FEF8CF2F7D3FEE0D
:1030F000320F363098F727504D2DC501B4010E948C
:10310000DB174B015C018D2D8260D82ECA94CC2038
:1031100059F0C8010E94651597FFDACFD1FC04C0B1
:103120009CCF812C912C5401D7FE08C0B094A09460
:1031300090948094811C911CA11CB11C2D2DB50173
:10314000A401C7010E94CF1781E02196ECE00C9406
:103150007B1BA1E2B0E0EFEAF8E10C945D1B5C019F
:103160007A01CE0101966C0180E2F60111928A95F6
:10317000E9F7F501838040E050E0912C712C70E07C
:10318000A1E0B0E0F90183FC859183FE81918F017C
:10319000982F9F01811103C080E090E07CC08E35A4
:1031A00019F44115510549F1E72FF0E0E417F5074F
:1031B0003CF48D3559F18D3219F4772001F103C0BB
:1031C000711001C0982E892F869586958695860167
:1031D000080F111D892F87703D0101C0660C8A956B
:1031E000EAF7F801808186298083991559F09915AD
:1031F00010F49F5FE8CF9150E6CF71E004C07724D0
:10320000739401C0712C4F5F5F4FBCCF772019F0D2
:103210008E8180628E83711103C09924939416C0AD
:10322000F6019E012F5D3F4F808180958193E217CB
:10323000F307D1F7F2CFE114F10429F0F70180830D
:10324000C70101967C016150912CF9F0C50169A379
:103250000E94651569A197FD16C0282F2695269511
:103260002695F601E20FF11D208130E0AC01477098
:10327000552702C0359527954A95E2F720FDDBCF0B
:10328000B5010E94DF1A911087CFE114F10411F00B
:10329000F7011082C801A196EEE00C94791B4F92C1
:1032A0005F927F928F929F92AF92BF92CF92DF9266
:1032B000EF92FF920F931F93CF93DF931F92CDB79F
:1032C000DEB76C012B015A01FC0117821682712CAA
:1032D000F601F380F201F3FC8591F3FE8191382F22
:1032E0002F01882309F4F3C090E039830E947D1AEE
:1032F0003981892B21F0C6010E94FB17E9CF3532B5
:1033000041F4F201F3FC3591F3FE31912F01353296
:1033100069F4C60139830E946515398197FDD5C0CE
:103320003817B1F2B6010E94DF1AD1C03A3239F42F
:10333000F3FC3591F3FE31912F0151E001C050E0D3
:10334000420110E020ED230F2A3090F45260612FEB
:1033500070E080E090E040E259830E94DB17162F76
:10336000F401F3FC3591F3FE31914F015981EACF1D
:10337000052F232F240151FF03C0111102C0A7C044
:103380001FEF383619F03C3659F011C0F401F3FC48
:103390002591F3FE21912F01283649F4052F08606D
:1033A0000460F201F3FC2591F3FE21912F01222309
:1033B00009F48DC0622F70E08AEC90E029830E94AE
:1033C000861A2981892B09F482C000FD07C0F50106
:1033D000E080F180C50102965C0102C0E12CF12C75
:1033E0002E3651F4F6014681578160E070E0202FBF
:1033F000C7010E94CF176CCF233691F401FF11E073
:10340000C6010E94651597FD60C0E114F10429F022
:10341000F7018083C70101967C01115089F751C0E3
:103420002B3559F49201A701612FC6010E94A918FA
:103430002C01892B09F045C03FC0C60129830E9499
:10344000FB17298197FD41C02F3659F128F4243606
:1034500031F1293649F127C0233769F02537F9F0D2
:1034600022C0E114F10429F0F7018082C70101961E
:103470007C01115071F0C6010E9465154C0197FD49
:1034800008C00E947D1A892B61F3B601C4010E9415
:10349000DF1AE114F104A9F0F701108212C00062F2
:1034A00003C0006101C00064202FA701612FC60185
:1034B0000E941418811105C0F6018381807329F4DC
:1034C00006C000FD05CF739403CF772019F0872D38
:1034D00090E002C08FEF9FEF0F90DF91CF911F918F
:1034E0000F91FF90EF90DF90CF90BF90AF909F90A3
:1034F0008F907F905F904F90089591110C94561B80
:10350000803219F089508550C8F70895FC01059064
:10351000061621F00020D9F7C00108953197CF0198
:103520000895FC010590615070400110D8F7809516
:1035300090958E0F9F1F0895FC016150704001907F
:103540000110D8F7809590958E0F9F1F08950F93C7
:103550001F93CF93DF93FB01238121FD03C08FEFE6
:103560009FEF28C022FF16C04681578124813581F4
:103570004217530744F4A081B1819D012F5F3F4F53
:10358000318320838C93268137812F5F3F4F378390
:10359000268310C0EB01092F182F0084F185E02D40
:1035A0000995892BE1F68E819F8101969F838E83F9
:1035B000812F902FDF91CF911F910F910895FB01E3
:1035C000238120FF12C026FD10C08F3F3FEF9307DD
:1035D00061F082832F7D20642383268137812150EF
:1035E000310937832683992708958FEF9FEF089538
:1035F000FA01AA27283051F1203181F1E8946F9324
:103600006E7F6E5F7F4F8F4F9F4FAF4FB1E03ED0C9
:10361000B4E03CD0670F781F891F9A1FA11D680F67
:10362000791F8A1F911DA11D6A0F711D811D911D9A
:10363000A11D20D009F468943F912AE0269F11240F
:103640003019305D3193DEF6CF010895462F477073
:10365000405D4193B3E00FD0C9F7F6CF462F4F70CE
:10366000405D4A3318F0495D31FD4052419302D02C
:10367000A9F7EACFB4E0A6959795879577956795D2
:10368000BA95C9F700976105710508959B01AC01D2
:103690000A2E06945795479537952795BA95C9F7F9
:1036A000620F731F841F951FA01D089599278827F7
:1036B00008952F923F924F925F926F927F928F92D6
:1036C0009F92AF92BF92CF92DF92EF92FF920F93B1
:1036D0001F93CF93DF93CDB7DEB7CA1BDB0B0FB6BB
:1036E000F894DEBF0FBECDBF09942A883988488878
:1036F0005F846E847D848C849B84AA84B984C8840E
:10370000DF80EE80FD800C811B81AA81B981CE0F04
:10371000D11D0FB6F894DEBF0FBECDBFED010895E9
:103720005058BB27AA270E94A81B0C941B1D0E945F
:103730000D1D38F00E94141D20F039F49F3F19F43C
:1037400026F40C940A1D0EF4E095E7FB0C94041D7E
:10375000E92F0E942C1D58F3BA17620773078407DC
:10376000950720F079F4A6F50C944E1D0EF4E09523
:103770000B2EBA2FA02D0B01B90190010C01CA012B
:10378000A0011124FF27591B99F0593F50F4503ED6
:1037900068F11A16F040A22F232F342F4427585FC8
:1037A000F3CF469537952795A795F0405395C9F7E0
:1037B0007EF41F16BA0B620B730B840BBAF0915098
:1037C000A1F0FF0FBB1F661F771F881FC2F70EC037
:1037D000BA0F621F731F841F48F48795779567950A
:1037E000B795F7959E3F08F0B0CF9395880F08F0F6
:1037F0009927EE0F9795879508950E94E01C08F48D
:1038000081E008950E94161C0C941B1D0E94141D3B
:1038100058F00E940D1D40F029F45F3F29F00C94F0
:10382000041D51110C944F1D0C940A1D0E942C1D57
:1038300068F39923B1F3552391F3951B550BBB27DF
:10384000AA2762177307840738F09F5F5F4F220F24
:10385000331F441FAA1FA9F335D00E2E3AF0E0E81B
:1038600032D091505040E695001CCAF72BD0FE2F65
:1038700029D0660F771F881FBB1F261737074807F9
:10388000AB07B0E809F0BB0B802DBF01FF279358B1
:103890005F4F3AF09E3F510578F00C94041D0C9454
:1038A0004F1D5F3FE4F3983ED4F386957795679577
:1038B000B795F7959F5FC9F7880F911D96958795E6
:1038C00097F90895E1E0660F771F881FBB1F621705
:1038D00073078407BA0720F0621B730B840BBA0BC3
:1038E000EE1F88F7E09508950E94341D88F09F57D9
:1038F00098F0B92F9927B751B0F0E1F0660F771F14
:10390000881F991F1AF0BA95C9F714C0B13091F009
:103910000E944E1DB1E008950C944E1D672F782F24
:103920008827B85F39F0B93FCCF3869577956795CE
:10393000B395D9F73EF490958095709561957F4F3A
:103940008F4F9F4F0895E89409C097FB3EF49095E0
:103950008095709561957F4F8F4F9F4F9923A9F068
:10396000F92F96E9BB279395F695879577956795F7
:10397000B795F111F8CFFAF4BB0F11F460FF1BC03B
:103980006F5F7F4F8F4F9F4F16C0882311F096E9CE
:1039900011C0772321F09EE8872F762F05C066237C
:1039A00071F096E8862F70E060E02AF09A95660F35
:1039B000771F881FDAF7880F9695879597F90895EE
:1039C000990F0008550FAA0BE0E8FEEF1616170630
:1039D000E807F907C0F012161306E407F50798F098
:1039E000621B730B840B950B39F40A2661F0232BB1
:1039F000242B252B21F408950A2609F4A140A6952D
:103A00008FEF811D811D089597F99F6780E870E011
:103A100060E008959FEF80EC089500240A94161644
:103A2000170618060906089500240A9412161306AC
:103A3000140605060895092E0394000C11F488233A
:103A400052F0BB0F40F4BF2B11F460FF04C06F5F56
:103A50007F4F8F4F9F4F089557FD9058440F551F2C
:103A600059F05F3F71F04795880F97FB991F61F000
:103A70009F3F79F087950895121613061406551F77
:103A8000F2CF4695F1DF08C0161617061806991FE3
:103A9000F1CF86957105610508940895E894BB27D8
:103AA00066277727CB0197F908950E94E01C08F458
:103AB0008FEF089597FB072E16F4009407D077FD3B
:103AC00009D00E94961D07FC05D03EF49095819583
:103AD0009F4F0895709561957F4F0895A1E21A2E2A
:103AE000AA1BBB1BFD010DC0AA1FBB1FEE1FFF1FA2
:103AF000A217B307E407F50720F0A21BB30BE40BF2
:103B0000F50B661F771F881F991F1A9469F7609538
:103B10007095809590959B01AC01BD01CF010895F2
:103B2000EE0FFF1F0590F491E02D0994AA1BBB1B1B
:103B300051E107C0AA1FBB1FA617B70710F0A61BAD
:103B4000B70B881F991F5A95A9F780959095BC01CE
:103B5000CD01089581E090E0F8940C94AF1DF894A5
:023B6000FFCF95
:103B6200FFFFFFFFFFFF00E100000000000018144C
:103B72000101060500000000C508040D8A080C09B1
:103B82001E019908AD08000000003401500298019E
:103B92004A0155019C01BA0100C180810000002D3B
:103BA2002D2D2D2D2D2D2D2D2D2D2D2D2D2D2D2D43
:103BB2002D2D2D2D2D2D2D2D2D2D2D2D0021212184
:103BC2002121212121212120417474656D707420ED
:103BD200746F20636F727265637420212121212129
:103BE2002121212121210020202020202D20737439
:103BF200657073203A004552524F52206F6E206C0E
:103C02006F6164696E67002020434F5252454354EE
:103C12002C207374657073203A0020202020202D00
:103C220020737769746368206973203A005B2054BB
:103C32004F4F4C4348414E4745203A2000205D00FB
:103C4200554E4C4F41442000202D207374657073F3
:103C5200203A20004552524F52206F6E20756E6CF2
:103C62006F6164005365747570206D656E75002018
:103C7200202D2D20737465707320746F20636F7212
:0C3C820072656374203A20000D0A0000F7
:00000001FF
