; device = mm-control
:100000000C9454010C947C010C947C010C947C01A4
:100010000C947C010C947C010C947C010C947C016C
:100020000C947C010C947C010C94B7110C94291253
:100030000C947C010C947C010C947C010C947C014C
:100040000C947C010C947C010C947C010C947C013C
:100050000C947C010C947C010C947C010C94C915CB
:100060000C947C010C942A0F0C94040F0C947C01CA
:100070000C947C010C947C010C947C010C947C010C
:100080000C947C010C947C010C947C010C947C01FC
:100090000C947C010C947C010C947C010C947C01EC
:1000A0000C947C010C947C010C947C012615291580
:1000B00018151C1520154A154A154A152D15311508
:1000C00035153B153F154A1545156364696E6F700C
:1000D000737578585B00070605040100080A0B0CCD
:1000E0000D096F6B0A006F6B0A00522564006F6B7D
:1000F0000A00452564006F6B0A006F6B0A004325F8
:1001000064006F6B0A004625642025640025646F37
:100110006B0A0025646F6B0A006F6B0A005325643D
:1001200000582564006F6B0A00552564006F6B0A48
:10013000004D2564006F6B0A004C2564006F6B0A4C
:1001400000666C0A006F6B0A005425640046530A6F
:100150000052300A0045340A0045330A0045320A8D
:100160000045310A0045300A0055300A0043300A84
:10017000004C340A004C330A004C320A004C310A5D
:10018000004C300A0054340A0054330A0054320A36
:100190000054310A0054300A0025646F6B0A005085
:1001A000256400080B00020202010009040000019E
:1001B00002020000052400100105240101010424AD
:1001C000020605240600010705810310004009040A
:1001D0000100020A000000070502024000000705B6
:1001E00083024000000403090412010002EF02012F
:1001F00040992C0400000101020301556E6B6E6FE3
:10020000776E004F726967696E616C20507275730A
:1002100061206933204D4B33204D756C7469204D3E
:100220006174657269616C20322E3020757067725E
:100230006164650073746172740A00000000002339
:1002400000260029002C002F0004040404040304E9
:100250000502020202040302020202060606060664
:100260000604040202020404040802011040804053
:1002700010204080408008020401804020100201CC
:10028000108010204040200000000200090F0000F4
:10029000030401000C00000000000000000000004A
:1002A0000000000000000B1911241FBECFEFDAE0A0
:1002B000DEBFCDBF23E0AAE8B1E001C01D92AF30A0
:1002C000B207E1F711E0A0E0B1E0E0ECF3E402C036
:1002D00005900D92AA38B107D9F711E0C4E5D1E035
:1002E00004C02197FE010E94A521C335D107C9F79B
:1002F0000E9413160C94DE210C9400009091DB01F7
:10030000992349F0882381F089ED90E00E948C14B4
:100310001092DB010895811107C087E29FEF0E94D0
:100320008C1481E08093DB010895CF93DF93880FD5
:10033000991FC1E0D0E002C0CC0FDD1F8A95E2F723
:10034000CE010E94131168E270E080E090E00E940C
:100350008F1580E090E00E94131164E170E080E06E
:1003600090E00E948F15CE010E94131168E270E0A8
:1003700080E090E00E948F1580E090E00E941311D1
:100380006AE070E080E090E0DF91CF910C948F15EF
:10039000E8EDF0E0E49120917B00E3FB882780F911
:1003A00090E035E0880F991F3A95E1F7922F9F7DF5
:1003B000892B80937B00E770E064E0937C00809160
:1003C0007A00806480937A0080917A0086FDFCCF69
:1003D000809178002091790090E0922B82339105F2
:1003E00064F09C01215531092331310540F0815AD7
:1003F0009109439730F080E0089581E0089582E00C
:10040000089584E00895EF92FF920F931F93CF9386
:10041000DF9380E00E947E016091100181E00E94E4
:1004200021106091100182E00E942110C4E0D0E010
:1004300001E010E042E0E42EF12C0E94C80182307D
:1004400029F483E10E94FC14892B79F164E670E0C1
:1004500080E090E00E948F1580E090E00E941311F0
:1004600064E670E080E090E00E948F1583E10E94D6
:10047000FC1420910E0130910F01892B39F0CE012F
:10048000821B930B880F991F970106C0CE01821B18
:10049000930B880F991F980102C0220F331F8A9572
:1004A000E2F7C9010E941311C8CF6091100181E0E9
:1004B0000E942A106091100182E00E942A1081E0BF
:1004C000DF91CF911F910F91FF90EF900C94BC049E
:1004D0002F923F924F925F926F927F928F929F9254
:1004E000AF92BF92CF92DF92EF92FF920F931F9342
:1004F000CF93DF93CDB7DEB762970FB6F894DEBF28
:100500000FBECDBF8B831B01288B0C83A986AA202D
:1005100019F022E02A8701C01A861B8680911001FB
:10052000823009F41C82BA01550F880B990B0E9486
:1005300074206C877D878E879F873B81313051F196
:1005400018F03230C9F039C037FE0AC08824992427
:10055000821893080E94C91081600E94FC1006C096
:100560000E94C9108E7F0E94FC1041016091100111
:1005700080E00E942A1023C037FE08C088249924F6
:10058000821893080E94C9108B7F0DC00E94C91069
:1005900084600FC037FE0AC088249924821893080B
:1005A0000E94C9108D7F0E94FC1009C00E94C910D2
:1005B00082600E94FC10410102C0812C912C1A82A1
:1005C0001982A12CB12C1E821D82198A1A8A18E464
:1005D00003E4A814B90409F4B6C03B813130C1F07A
:1005E00018F0323071F01FC02C9A2C988C8188231F
:1005F00009F4ACC085E10E94FC14892B09F4A6C063
:10060000B4C05E9A5E989C81992369F087E106C028
:100610005C9A5C982C81222331F086E10E94FC14C4
:10062000892B09F0A9C03FEFA31AB30AC4018A19A4
:100630009B0998878F8329893A89412F502F60E041
:1006400070E080E89FE30E94D11F2B013C0120E075
:1006500034E244E759E40E9424210E94432062309E
:10066000710548F0660F771F660F771F6550710997
:10067000CB010197F1F729813A8121303105D9F178
:100680002230310509F444C0A7019601C301B2012B
:100690000E9424219B01AC0169897A89812F902FC6
:1006A0000E94601F698B7A8B182F092F9B01482F9E
:1006B000592F6C857D858E859F850E94CC1F1816CD
:1006C0005CF0BE82AD828C85898B9D859A8B1E8560
:1006D0000F8521E030E00CC08F8198858A159B053D
:1006E0001CF01A82198275CFBE82AD8222E030E002
:1006F0003A8329836ECF8D819E812F813885821721
:1007000093070CF466CF82E090E09A83898361CFEF
:10071000A7019601C301B2010E9424219B01AC01F3
:1007200069897A89812F902F0E945F1F698B7A8B4C
:10073000182F092F20E030E048E453E40E94CC1F3A
:1007400087FF47CF42CF8A859B852EC09985992305
:1007500009F469CF12141304F4F483E10E94FC1429
:10076000892B09F460CF80E014C062E370E080E080
:1007700090E00E948F150CC062E370E080E090E092
:100780000E948F152889222319F00E9403024BCF63
:1007900082E090E009C037FE46CF83E10E94FC145E
:1007A000892B09F040CFDFCF62960FB6F894DEBFF9
:1007B0000FBECDBFDF91CF911F910F91FF90EF90B2
:1007C000DF90CF90BF90AF909F908F907F906F9071
:1007D0005F904F903F902F900895AF92CF92DF920D
:1007E000EF92FF920F93AB01A12CC12C20E4D22EEB
:1007F0002CE9E22E27E4F22E01E020E0BC0180E0AB
:100800000E9468020F91FF90EF90DF90CF90AF9021
:100810000895AF92CF92DF92EF92FF920F931F93C2
:10082000CF93DF93EC018B0162E370E080E090E016
:100830000E948F157E01E01AF10A0530110529F496
:10084000C530D10509F089C00DC0C530D10551F0C2
:1008500023E631E0E29EC001E39E900DF29E900DF2
:1008600011240DC024E030E0201B310B43E651E0A1
:10087000249FC001259F900D349F900D11240E944C
:100880008C1410161106ECF42CE33DEFE29EC0012F
:10089000E39E900DF29E900D11240530110511F488
:1008A0008C599F4F259711F484569109DF91CF9170
:1008B0001F910F91FF90EF90DF90CF90AF900C942D
:1008C0005C15A12CC12C20E4D22E2CE9E22E27E4C9
:1008D000F22E01E020E040ED57E064E670E081E0B8
:1008E0000E946802C2E0D0E0A12CC12C90E4D92E75
:1008F0009CE9E92E97E4F92E01E020E040ED57E075
:1009000060E670EF81E00E946802C230D10541F4D8
:1009100020E040ED57E064E670E081E00E9468026C
:10092000219711F7A12CC12C80E4D82E8CE9E82E58
:1009300087E4F82E01E020E040ED57E061E270E04E
:1009400081E00E946802DF91CF911F910F91FF908B
:10095000EF90DF90CF90AF90089523E631E0CE0185
:100960000497AC01429FC001439F900D529F900D90
:1009700011240E948C1488CFAF92BF92CF92DF9245
:10098000EF92FF920F931F93CF93DF93B82E80E0E7
:100990000E9496101091DB01C2E0D0E0A12CC12C86
:1009A00040E4D42E4CE9E42E47E4F42E01E020E0AC
:1009B00048EB5BE060ED77E082E00E946802C230C5
:1009C000D10541F420E048EB5BE062EA7EEF82E093
:1009D0000E946802219711F7A12CC12C30E4D32E7C
:1009E0003CE9E32E37E4F32E01E020E048EB5BE046
:1009F00066E77FEF82E00E946802C2E0D0E0A12CAF
:100A0000C12C20E4D22E2CE9E22E27E4F22E01E0C4
:100A100020E040ED57E060EA7FE081E00E9468025C
:100A2000C230D10541F420E040ED57E064ED7EEFA7
:100A300081E00E946802219711F7A12CC12C80E46B
:100A4000D82E8CE9E82E87E4F82E01E020E040E47F
:100A50005FE16CE871EF81E00E9468028091100113
:100A60000E94961085E591E00E9413111092DB011F
:100A700062E370E080E090E00E948F1580E00E94C9
:100A80007E0180E090E00E9413111092DA018091C3
:100A90000E0190910F0124E030E0281B390B220F4A
:100AA000331F81E090E002C0880F991F2A95E2F77A
:100AB0000E94131181E08093D901BB2081F06091E5
:100AC0000E0170910F0180E090E00E940904812FD7
:100AD0000E947E011092D8011092D70104C010929A
:100AE0000F0110920E01DF91CF911F910F91FF9096
:100AF000EF90DF90CF90BF90AF9008950F931F932A
:100B0000CF93DF938C0183E10E94FC14892B09F0C1
:100B10004DC0C0910E01D0910F0110930F010093B1
:100B20000E018091D901811102C00E94BC04809104
:100B30000E0190910F0124E030E0281B390B220FA9
:100B4000331F82E090E002C0880F991F2A95E2F7D8
:100B50000E94131160910E0170910F01C617D70703
:100B600029F4C091DA0181E0C82707C0CE010E94B4
:100B7000090480E00E947E01C1E080E090E00E94D4
:100B8000131180910E0190910F0124E030E0281B99
:100B9000390B220F331F81E090E002C0880F991FAC
:100BA0002A95E2F70E9413118C2F01C080E0DF919B
:100BB000CF911F910F910895AF92CF92DF92EF9254
:100BC000FF920F93CF93DF9381E00E947E01C3E0F9
:100BD000D0E0AA24A394C12C90E4D92E9CE9E92E5C
:100BE00097E4F92E01E020E04AE852E060EA7FE075
:100BF00080E00E946802892B29F565E070E080E0C2
:100C000090E00E948F15A12C00E020E04AE852E01D
:100C100064E97DEF80E00E94680280910E0190916E
:100C20000F0124E030E0281B390B220F331F81E035
:100C300090E002C0880F991F2A95E2F70E941311D5
:100C4000C1E009C0219731F00E94030281E00E94B7
:100C50007E01BFCFC0E06091100180E00E942110B2
:100C600080E00E947E018C2FDF91CF910F91FF9049
:100C7000EF90DF90CF90AF900895AF92CF92DF9238
:100C8000EF92FF920F936091100180E00E942A1072
:100C90006091100182E00E942A1081E00E947E0192
:100CA000A12CC12C80E8D82E8BEBE82E84E4F82E02
:100CB00000E020E048EB5BE06AE37FED80E00E942B
:100CC0006802AA24A394C12C90E4D92E9CE9E92EB1
:100CD00097E4F92E20E04AE852E060E378EF80E004
:100CE0000E946802892B49F4A12C20E04AE852E0D6
:100CF00064E97DEF80E00E94680283E10E94FC14B9
:100D0000892B11F00E9403021092DA016091100108
:100D100080E00E94211080E00E947E0181E00F911E
:100D2000FF90EF90DF90CF90AF9008956F927F92F9
:100D30008F929F92AF92BF92CF92DF92EF92FF92EB
:100D40000F931F93CF93DF9300D000D0CDB7DEB7C2
:100D5000182FB92E8091D5019091D6018097F4F487
:100D6000812F9B2D0E94481997FD1EC08D30910543
:100D700019F08A30910511F480E090E02091D501BE
:100D80003091D601A9014F5F5F4F5093D601409338
:100D9000D501F901EB54FE4F808306C01092D601B5
:100DA0001092D5018FEF9FEF1A8219821C821B824D
:100DB0002091D5013091D601121613060CF0C9C44A
:100DC000892B09F0C6C46DE471E085EB91E00E94C7
:100DD000C421892B61F0E5E9F1E0A5EBB1E085EBF9
:100DE00091E021912D938E179F07D9F710C1CE0165
:100DF00001969F938F938FE991E09F938F9385EB5B
:100E000091E09F938F930E94A1190F900F900F90E4
:100E10000F900F900F9018161906CCF489819A81C3
:100E2000892B09F0F4C083E10E94FC149F938F93F7
:100E300089E991E09F938F93BF921F930E94861937
:100E40000F900F900F900F900F900F90E0C0E5EB78
:100E5000F1E0A5E9B1E085ED91E021912D938E17A8
:100E60009F07D9F71092D6011092D50160E571E085
:100E700085EB91E00E94C421892B19F085E991E06E
:100E80005EC463E571E085EB91E00E94C421892B8B
:100E900019F081E991E053C466E571E085EB91E0DA
:100EA0000E94C421892B19F08DE891E048C469E5BE
:100EB00071E085EB91E00E94C421892B19F089E84B
:100EC00091E03DC46CE571E085EB91E00E94C421A6
:100ED000892B19F085E891E032C46FE571E085EB6C
:100EE00091E00E94C421892B19F081E891E027C488
:100EF00062E671E085EB91E00E94C421892B19F034
:100F00008DE791E01CC465E671E085EB91E00E94FD
:100F1000C421892B19F089E791E011C468E671E0DA
:100F200085EB91E00E94C421892B19F085E791E0BF
:100F300006C46BE671E085EB91E00E94C421892B29
:100F400019F081E791E0FBC36EE671E085EB91E07B
:100F50000E94C421892B19F08DE691E0F0C361E76E
:100F600071E085EB91E00E94C421892B19F089E69C
:100F700091E0E5C364E771E085EB91E00E94C42154
:100F8000892B19F085E691E0DAC367E771E085EB1C
:100F900091E00E94C421892B19F081E691E0CFC332
:100FA0006AE771E085EB91E00E94C421892B19F07A
:100FB0008DE591E0C4C36DE771E085EB91E00E949F
:100FC000C421892B19F089E591E0B9C360E871E08B
:100FD00085EB91E00E94C421892B19F085E591E011
:100FE000AEC363E871E085EB91E00E94C421892BD8
:100FF00019F081E591E0A3C366E871E085EB91E02B
:101000000E94C421892B19F08DE491E098C31092BD
:10101000D6011092D5019E012F5F3F4F69013F938A
:101020002F9389E491E09F938F93A5EBEA2EA1E0A3
:10103000FA2EFF92EF920E94A1190F900F900F903D
:101040000F900F900F90181619060CF057C1898059
:101050009A8035E08316910408F07BC380910E01DD
:1010600090910F010091DA018816990641F400234E
:1010700031F081E08093940185E491E060C3AA247B
:10108000A394A092930110929401A092F20174E0B3
:10109000E72EF12C9701281B390BC901880F991FE6
:1010A000F2E0CF2ED12C960102C0220F331F8A9579
:1010B000E2F7C9010E94131160900E0170900F01B8
:1010C000709201016092000190920F0180920E01D6
:1010D0008614970489F4011155C0E818F908EE0C3C
:1010E000FF1CC60102C0880F991FEA94E2F70E9414
:1010F0001311A092920146C001110E943D068091F9
:10110000DA0181113FC08091D7019091D8010F97EA
:1011100021F481E00E94BC040BC080918C018111FC
:1011200007C060910E0170910F01C3010E94090474
:1011300080918A0190918B01019690938B0180930D
:101140008A018091D7019091D80101969093D8019E
:101150008093D70180910E0190910F0124E030E03F
:10116000281B390B220F331F82E090E002C0880F4A
:10117000991F2A95E2F70E94131181E08093920152
:1011800010928C0180E090E00E94131180910E017A
:1011900090910F0124E030E0281B390B220F331F00
:1011A00081E090E002C0880F991F2A95E2F70E9423
:1011B000131180919201882309F4CBC281E491E05C
:1011C0009F938F93BF921F930E9486191092910153
:1011D0000F900F900F900F9081E00E947E01609120
:1011E000100180E00E942A10AA24A394C12C30E4AC
:1011F000D32E3CE9E32E37E4F32E00E020E04AE86A
:1012000052E068EE73E080E00E946802892B99F555
:10121000A12CC12C20E8D22E2BEBE22E24E4F22EBE
:1012200020E048EB5BE060E47FE180E00E94680240
:101230008FB7F894C0900502D0900602E0900702A4
:10124000F09008028FBF84EE91E00E9496062FB7BF
:10125000F8948091050290910602A0910702B09146
:1012600008022FBF8C199D09AE09BF098938934127
:10127000A105B10518F00E940302AECF68EB7BE038
:1012800081E090E00E94ED0384EE91E00E949606DA
:10129000809191018823D9F2A12CC12C80E4D82E11
:1012A0008CE9E82E87E4F82E00E020E041E851E0E8
:1012B00066E871E080E00E94680280E090E00E94B1
:1012C000131180910E0190910F0124E030E0281B52
:1012D000390B220F331F81E090E002C0880F991F65
:1012E0002A95E2F70E94131181E08093DA011092AF
:1012F0009301109292018DE391E021C2DF92CF928F
:1013000089E391E09F938F93FF92EF920E94A1193E
:101310000F900F900F900F900F900F9018161906C6
:10132000ECF489819A818530910508F012C22091F0
:10133000DA0121110EC20E947E056AE070E080E0B1
:1013400090E00E948F150E94DC0564E670E080E06A
:1013500090E00E948F1585E391E0F1C1DF92CF927A
:1013600081E391E09F938F93FF92EF920E94A119E6
:101370000F900F900F900F900F900F901816190666
:101380009CF489819A81009729F0019709F0E1C1C5
:1013900082E001C081E080931001809110010E94E1
:1013A00096108DE291E0CBC1DF92CF9289E291E07D
:1013B0009F938F93FF92EF920E94A1190F900F902D
:1013C0000F900F900F900F9018161906BCF40E9402
:1013D0003D0668EC70E080E090E00E948F1585E2A9
:1013E00091E09F938F93BF921F930E948619109252
:1013F000F2011092D8011092D701A7C1DF92CF92CB
:1014000081E291E09F938F93FF92EF920E94A11946
:101410000F900F900F900F900F900F9018161906C5
:1014200084F489819A81892B09F093C198E088E13D
:101430000FB6F894A895809360000FBE909360005B
:1014400088C1DF92CF928DE191E09F938F93FF92BD
:10145000EF920E94A1190F900F900F900F900F9094
:101460000F901816190634F589819A81009719F49E
:1014700089E191E064C18130910531F41F9286EDDC
:101480008F9383E191E009C0029709F062C183E084
:101490008F9387EE8F938DE091E09F938F93BF9210
:1014A0001F930E9486190F900F900F900F900F902E
:1014B0000F904FC166E871E085EB91E00E94C42176
:1014C000892B21F081E08093910143C1CE010396E5
:1014D0009F938F93DF92CF9286E091E09F938F93BB
:1014E000FF92EF920E94A1190FB6F894DEBF0FBED3
:1014F000CDBF181619066CF489819A81059708F0FA
:1015000028C18B819C81039708F023C182E091E080
:1015100016C1DF92CF928EEF90E09F938F93FF9250
:10152000EF920E94A1190F900F900F900F900F90C3
:101530000F90181619060CF05DC089819A81892BCD
:1015400009F007C180919401811151C081E00E948E
:101550007E016091100180E00E942A1061E871E034
:1015600086E990E00E94ED038091100147E161E07F
:10157000813021F480E00E945C0F03C080E00E9473
:10158000C90F61E871E08AEA90E00E94ED03809162
:10159000100147E061E0813021F480E00E945C0F9F
:1015A00003C080E00E94C90F67EC71E084EC91E019
:1015B0000E94ED036091100180E00E94211080E004
:1015C0000E947E01809110014EE161E0813021F4A2
:1015D00080E00E945C0F03C080E00E94C90F609110
:1015E000100180E00E9421108AEF90E0A8C086EFF1
:1015F00090E0A5C0DF92CF9282EF90E09F938F930F
:10160000FF92EF920E94A1190F900F900F900F90F0
:101610000F900F90181619060CF04FC0E980FA8051
:1016200035E0E316F10408F094C08091DA018111ED
:101630000E943D0681E00E947E016091100180E0E1
:101640000E942A1083E0E816F10414F090E001C033
:1016500094E080910E01482F491B2CE33DEF42039B
:101660006001439FD00C1124D0928E01C0928D0155
:10167000282F2E1943E651E02403C001259F900D29
:1016800011249093900180938F010E948C14C601C5
:101690000E945C156AE972E084EC99E00E94ED0317
:1016A00080E00E947E016091100180E00E94211084
:1016B0001092DA018EEE90E042C0DF92CF928AEE75
:1016C00090E09F938F9385EB91E09F938F930E947F
:1016D000A1190F900F900F900F900F900F90181668
:1016E00019060CF589819A81892B99F583E10E946D
:1016F000FC14892B19F00E940302F8CF80918F010E
:10170000909190019195819591090E948C148091FE
:101710008D0190918E019195819591090E945C15A2
:1017200086EE90E00CC080919301811112C08091EF
:101730009101882371F01092910182EE90E09F93C5
:101740008F93BF921F930E9486190F900F900F9056
:101750000F900F900F900F900F90DF91CF911F91EE
:101760000F91FF90EF90DF90CF90BF90AF909F9040
:101770008F907F906F90089580910E0190910F014E
:1017800024E030E0281B390B220F331F81E090E06A
:1017900002C0880F991F2A95E2F70E9413110E9438
:1017A000C8018570B9F00E94C801282F80910E01F0
:1017B00090910F01213019F0243031F00BC08530A9
:1017C000910544F4019604C0181619061CF40197FB
:1017D0000E947E0580910E0190910F010597A1F462
:1017E00082E090E00E94131162E370E080E090E0FC
:1017F0000E948F1581E090E00E94131162E370E077
:1018000080E090E00C948F150895CF92DF92EF92D4
:10181000FF920F931F93CF93DF936C017A018B019B
:10182000C0E0D0E0CE15DF0581F0D8016D918D01CB
:10183000D601ED91FC910190F081E02DC601099552
:10184000892B11F02196EECF7E01C701DF91CF9158
:101850001F910F91FF90EF90DF90CF900895FC01C2
:10186000538D448D252F30E0842F90E0821B930B05
:10187000541710F0CF96089501970895FC01918DAB
:10188000828D981761F0828DDF01A80FB11D5D96E2
:101890008C91928D9F5F9F73928F90E008958FEF50
:1018A0009FEF0895FC01918D828D981731F0828D04
:1018B000E80FF11D858D90E008958FEF9FEF08955B
:1018C000FC01918D228D892F90E0805C9F4F821BBF
:1018D00091098F73992708958BE092E00E94600C24
:1018E00021E0892B09F420E0822F0895FC01848DEA
:1018F000DF01A80FB11DA35ABF4F2C91848D90E03A
:1019000001968F739927848FA689B7892C93A08914
:10191000B1898C9182748C93938D848D981306C0B9
:101920000288F389E02D80818F7D80830895EF9276
:10193000FF920F931F93CF93DF93EC0181E0888F89
:101940009B8D8C8D981305C0E889F989808185FD70
:1019500026C0F62E0B8D10E00F5F1F4F0F7311275F
:10196000E02E8C8DE8120CC00FB607FCFACFE88988
:10197000F989808185FFF5CFCE010E94760CF1CFE9
:101980008B8DFE01E80FF11DE35AFF4FF0829FB7E8
:10199000F8940B8FEA89FB898081806209C09FB728
:1019A000F894EE89FF896083E889F98980818274DF
:1019B00080839FBF81E090E0DF91CF911F910F91D5
:1019C000FF90EF900895CF93DF93EC01888D8823EB
:1019D000C9F0EA89FB89808185FD05C0A889B9899C
:1019E0008C9186FD0FC00FB607FCF5CF808185FF77
:1019F000F2CFA889B9898C9185FFEDCFCE010E94E5
:101A0000760CE7CFDF91CF91089580E090E0892BAD
:101A100029F00E946C0C81110C9400000895CF9362
:101A2000DF931F92CDB7DEB76983DC01ED91FC91A6
:101A30000280F381E02D41E050E0BE016F5F7F4FF7
:101A400009950F90DF91CF91089583E08093E9008D
:101A50008091F200882319F08AE38093E8000895CA
:101A6000FC018485958597FD0BC09FB7F89482E0B3
:101A70008093E9008091F2009FBF90E00196089565
:101A80009FB7F89482E08093E9008091F2009FBFB5
:101A900090E00895089580E090E008958BE092E052
:101AA0000C943E0C682F8BE092E00E94970C80E033
:101AB00090E00895682F88EA92E00E940F0D80E080
:101AC00090E00895CF92DF92EF92FF929CE59CBD4B
:101AD0001DBC813039F020F0823029F42F9803C0EA
:101AE000469801C05F986EBD0DB407FEFDCF9EB550
:101AF000C52EDD24EE24FF24CEBC0DB407FEFDCFA1
:101B00009EB56A01EE24FF24CEBC0DB407FEFDCFC6
:101B10009EB5C32ED42EE52EFF24CEBC0DB407FEF9
:101B2000FDCF9EB52EBD0DB407FEFDCF9EB5813015
:101B300039F020F0823029F42F9A03C0469A01C070
:101B40005F9AFF90EF90DF90CF9008959C0188E01E
:101B5000369527952115310511F08150C9F7089563
:101B60001F93CF93DF93182FD42FC22F262F2F70C0
:101B7000C03270F4822F90E0A0E0B0E0B82FAA2726
:101B8000992788279C01AD01236D436050610FC0E8
:101B9000C695D695822F90E0A0E0B0E0B82FAA2796
:101BA000992788279C01AD01236D416050616CEE3F
:101BB000812F0E94620DCF718C2F90E0982F882783
:101BC000092E000CAA0BBB0BDF714D2F50E060E01B
:101BD00070E06F609A01AB01282B392B4A2B5B2BED
:101BE00060E9812F0E94620D80E0DF91CF911F910B
:101BF00008958F929F92AF92BF92CF92DF92EF9211
:101C0000FF920F931F93CF93DF936C017B018A01A7
:101C100080910D01882309F45CC080910A02882319
:101C200009F457C08091E10180FF05C08091E00078
:101C300082608093E000E801B12C8AEFA82E93E047
:101C4000892E2AE3922E209711F4BB20D9F10E940D
:101C5000D71481110AC0AA94AA20D9F161E070E0DA
:101C600080E090E00E948F15EECF282F30E0C21761
:101C7000D3070CF48C2F9FB7F8948092E900209141
:101C8000E80025FF1DC0282F30E0C21BD30BF70151
:101C9000815020F041914093F100FACFE20EF31E03
:101CA000BB2019F09092E8000AC08091E80085FD01
:101CB00007C09092E800BB24B394209709F0B12CA0
:101CC0009FBFC1CF5D9884E68093E0011016110696
:101CD00044F081E090E0F6019383828380E090E01D
:101CE00001C0C801DF91CF911F910F91FF90EF903C
:101CF000DF90CF90BF90AF909F908F9008950E94FB
:101D0000D71490E008950F931F93CF93DF931F9202
:101D1000CDB7DEB78C01FC018485958597FF0EC099
:101D2000CE0101960E94A914019719F4898190E0CF
:101D300002C08FEF9FEFF80195878487F8018485B3
:101D400095850F90DF91CF911F910F910895CF93BB
:101D5000DF931F92CDB7DEB7FC018485958597FD93
:101D600005C02FEF3FEF358724870BC0CE010196CA
:101D70000E94A914019719F4898190E002C08FEFA5
:101D80009FEF0F90DF91CF91089588EA92E00C9435
:101D9000A70E4091DE015091DF012091DC013091CE
:101DA000DD0142175307B4F49091E8009570E1F318
:101DB0009091E80092FD19C08093F1008091DE01BE
:101DC0009091DF0101968F739927892B19F48EEF7B
:101DD0008093E8008091DE019091DF01019690935D
:101DE000DF018093DE0181E0089580E00895615075
:101DF00030F02091F100FC0120830196F8CF289863
:101E000084E68093090208951F920F920FB60F92F5
:101E100011242F933F934F935F936F937F938F93EF
:101E20009F93AF93BF93EF93FF938BE092E00E9459
:101E3000760CFF91EF91BF91AF919F918F917F9120
:101E40006F915F914F913F912F910F900FBE0F9027
:101E50001F9018951F920F920FB60F9211242F9377
:101E60008F939F93EF93FF93E0911B02F0911C02DD
:101E70008081E0912102F091220282FD12C09081C6
:101E8000809124028F5F8F7320912502821751F079
:101E9000E0912402F0E0E55FFD4F958F80932402EE
:101EA00001C08081FF91EF919F918F912F910F90B1
:101EB0000FBE0F901F9018951F93CF93DF93C82FDD
:101EC000D62F142F813031F028F0823041F480E198
:101ED00090E002C082E090E00E94A60D01C080E187
:101EE000212F4D2F682F8C2F0E94B00DD82F8111DC
:101EF0004AC020E030E0A90161E98C2F0E94620D08
:101F0000C33030F4EC2FF0E0E35EFE4F208101C0DF
:101F100024E0822F220F990BAA0BBB0BAC013327B5
:101F200022276DEE8C2F0E94620D8FEF8C0F823076
:101F300018F022EC31E002C020E931E040E050E04E
:101F400064E98C2F0E94620D20E831E340E050E00C
:101F500060E88C2F0E94620D212F220F220F822F0A
:101F600090E0A0E0B0E09C01AD01C11105C032607D
:101F7000466160EF80E004C03260466060EF8C2F05
:101F80000E94620D01C0DFEF8D2FDF91CF911F9175
:101F900008951F93CF93DF93C82F162FD42F81302E
:101FA00031F028F0823041F480E190E002C082E01C
:101FB00090E00E94A60D01C080E12D2F412F682FD7
:101FC0008C2F0E94B00D182F811135C020E030E019
:101FD000A90161E98C2F0E94620D20E030E044E00D
:101FE00050E06DEE8C2F0E94620D20E030E0A901E0
:101FF00064E98C2F0E94620D24E030E040E050E064
:1020000060E88C2F0E94620D2D2F220F220F822F4D
:1020100090E0A0E0B0E09C01AD013260466060EF6E
:102020008C2F0E94620D20E030E0A90163E98C2F23
:102030000E94620D01C01FEF812FDF91CF911F9190
:10204000089540E0623019F460E00C94C90F60E03C
:102050000C945C0FCF93DF93CDB7DEB72F970FB6FD
:10206000F894DEBF0FBECDBF209111013091120157
:102070004091130129833A834B832C833D834E8304
:102080002091140130911501409116012F8338875A
:1020900049872091170130911801409119012A8731
:1020A0003B874C8720911A0130911B0140911C0104
:1020B0002D873E874F876130E1F098F0623061F5FF
:1020C000282F30E0FE01E20FF31F448162852F9636
:1020D0000FB6F894DEBF0FBECDBFDF91CF910C9449
:1020E000C90F282F30E0FE01E20FF31FDF01458505
:1020F00007C0282F30E0FE01E20FF31FDF0141810E
:1021000017966C912F960FB6F894DEBF0FBECDBF19
:10211000DF91CF910C945C0F80E02F960FB6F8946E
:10212000DEBF0FBECDBFDF91CF9108951F93CF9338
:10213000DF93182F3E9A579A279A469A5F9A2F9ABA
:10214000549A249A569A5C982C985E98682F80E04E
:102150000E942A1021E030E0811102C020E030E02E
:10216000CC27DD27C21BD30B612F81E00E942A10F0
:10217000811102C020E001C02EEFC20F612F82E06A
:102180000E942A1081118CEF8C0FDF91CF911F914B
:1021900008952091E2013091E301C90184709927EB
:1021A000AC0156954795C9018071992796958795F9
:1021B00096958795842B2170822B08952E98000088
:1021C00020E130E040E050E8BC0164237523672B38
:1021D00011F02D9A01C02D98479A000047980000F1
:1021E000569547952150310979F72E9A0000909322
:1021F000E3018093E2010895282F2270922F990F16
:10220000282F2470220F220F292B8170282B022EB9
:10221000000C330B8091E2019091E3018A7E822BC6
:10222000932B0C94DE102091E2013091E3012F7387
:102230003327582F4427242B352B882793709695C6
:10224000879596958795822B932B0C94DE100E9490
:10225000BF21DF92EF92FF920F931F93CF93DF93F3
:10226000D82EF92EE42E062F10E0C8010196880F13
:102270000E94C90E83E00E94C90ECD2DDF2D0C0FE8
:102280001D1FC017D10789F0E7FE03C0FE0184912E
:1022900001C088810E94C90EF82E80E00E94C90EFC
:1022A0008F2121968111EDCF01C081E0DF91CF9187
:1022B0001F910F91FF90EF90DF900895DF92EF92C2
:1022C000FF920F931F93CF93DF93D82E8A017B0148
:1022D000E40EF51EEB01CE15DF0571F0D7FE03C04D
:1022E000FE01849101C088810E94C90E219681114E
:1022F000F2CF8FEF9FEF01C0C801DF91CF911F9107
:102300000F91FF90EF90DF9008950F931F93CF935D
:10231000DF931F92CDB7DEB782E0898342E450E0BD
:1023200063EA71E080E80E945E110E94E814DC011B
:1023300012960D911C9113970115110589F0D80182
:10234000ED91FC910280F381E02DBE016F5F7F4F24
:10235000C801099597FD04C0F80100851185ECCFEF
:1023600089810F90DF91CF911F910F9108951F9256
:102370000F920FB60F9211248F939F938091E100DB
:102380009091E100937F9093E10083FF0FC0109242
:10239000E90091E09093EB001092EC0092E39093AF
:1023A000ED0010920A0298E09093F00082FF20C0A6
:1023B00093E09093E9009091F200992319F09AE349
:1023C0009093E8009091E001992339F09091E00119
:1023D00091509093E001992389F1909109029923FA
:1023E00039F090910902915090930902992341F19B
:1023F00084FF10C08091E2008E7E81608093E200B5
:102400008091E1008F7E8093E1008091E1018E7EDA
:10241000806111C080FF16C08091E2008E7E8061D5
:102420008093E2008091E1008E7E8093E1008091B4
:10243000E1018E7E81608093E10104C05D9ACDCF81
:10244000289AD6CF9F918F910F900FBE0F901F901B
:1024500018951F920F920FB60F921124CF92DF9210
:10246000EF92FF920F931F932F933F934F935F939E
:102470006F937F938F939F93AF93BF93EF93FF934C
:10248000CF93DF93CDB7DEB76C97DEBFCDBF109291
:10249000E9008091E80083FFFBC168E0CE0145962A
:1024A0000E94F70E82EF8093E8008D8987FF05C0B8
:1024B0009091E80090FFFCCF03C09EEF9093E8005E
:1024C000982F907609F0C6C09E894F89588D2F8924
:1024D000F88C91110CC0803829F48091F40180931C
:1024E000F10002C01092F1001092F10045C191304C
:1024F00051F4811141C14130510509F03DC1809134
:10250000F4018D7F0BC0933061F4811135C14130EE
:10251000510509F031C18091F40182608093F4018A
:102520002BC1953049F48091E80080FFFCCF822FC9
:1025300080688093E30020C1963009F05EC00B8D67
:102540001C8D22E01092E9001092DF011092DE0152
:10255000F21232C01092DD011092DC010E9485114E
:1025600099E0BE016F5F7F4FDB01E92F1D92EA9575
:10257000E9F79983FA8291E09E8390EA98879AEF2F
:1025800099872091DE013091DF01275F3F4F3C8327
:102590002B838D831092E9001092DF011092DE01EF
:1025A0001093DD010093DC0149E050E080E00E94DF
:1025B0005E110E948511E0C01093DD010093DC01E3
:1025C0000E94E814DC0112960D911C9113970115DD
:1025D000110509F4BBC0D801ED91FC910480F5818F
:1025E000E02DBE016B5E7F4FC8010995009709F091
:1025F000C7C0F80100851185EACF973009F445C1BD
:10260000983021F481E08093F100B6C0993009F050
:10261000B3C0837009F039C1E1E2F1E081E031E05B
:1026200096E32081211109C08EE78093EA00109281
:10263000EA008F8980930A029FC08093E90030935B
:10264000EB0021912093EC009093ED008F5F873099
:1026500041F7EACF8B8D9C8D1092E9001092DF013B
:102660001092DE019093DD018093DC01898D811150
:1026700053C08E899D89913A49F4813209F005C190
:1026800047E050E066E071E080E0BBC0913209F0C5
:10269000FCC0833269F48F89988DA0E0B0E080930C
:1026A000020190930301A0930401B093050164C05B
:1026B000803269F48091E80082FFFCCF67E086E019
:1026C00091E00E94F70E8BEF8093E80055C08232B4
:1026D00009F052C08F8980930D01EEEFFFE78591DD
:1026E00094918B3F9C4D19F0E0E0F8E002C0EEEFD2
:1026F000FAE08091060190910701A0910801B09144
:102700000901803B9440A105B10509F09EC080916C
:102710000D0180FF79C099C00E94E814FC0102817C
:1027200013810115110509F4B0C0D801ED91FC9198
:102730000190F081E02DBE016B5E7F4FC8010995CD
:1027400081111AC0F80100851185EBCFF1E0FF1669
:1027500009F44EC0F3E0FF1298C08F89882309F472
:102760004AC0823089F440E860E383E092E00E944E
:102770002911882309F489C08EEF8093E80088C06E
:1027800018161906CCF381C0813029F440E867E0BF
:102790008BEF91E0ECCF833009F077C00E94E81412
:1027A000DC011296ED90FC9013978E010F5F1F4F86
:1027B0006801E114F10479F0D701ED91FC910680F4
:1027C000F781E02DB801C7010995080F111DF70128
:1027D000E084F184EECFD8011C92F6010190002034
:1027E000E9F73197BF016C197D0940E0C601BFCF01
:1027F00069EE71E002C065EE71E0FB01449150E0CA
:1028000080E80E945E11B8CFEE3F2AE0F20751F057
:10281000808191818737A7E79A0721F09093FF0A7B
:102820008093FE0A87E797E7918380838091600019
:102830008093F3019BE088E10FB6F894A89580930C
:1028400060000FBE9093600097CF808191818737A1
:10285000974709F091CFA895809160008861809397
:1028600060008091F30180936000EE3FBAE0FB07C7
:1028700039F08091FE0A9091FF0A918380837CCF8A
:102880001092FF0A1092FE0A77CF81E28093EB004C
:102890006C960FB6F894DEBF0FBECDBFDF91CF911F
:1028A000FF91EF91BF91AF919F918F917F916F9128
:1028B0005F914F913F912F911F910F91FF90EF905A
:1028C000DF90CF900F900FBE0F901F9018953FB7DD
:1028D000F8948091F9029091FA02A091FB02B091D4
:1028E000FC0226B5A89B05C02F3F19F00196A11D3B
:1028F000B11D3FBFBA2FA92F982F8827820F911D96
:10290000A11DB11DBC01CD0142E0660F771F881FDC
:10291000991F4A95D1F70895AF92CF92DF92EF9227
:10292000FF920F93A12CC12C20E4D22E2CE9E22E91
:1029300026E4F22E01E021E048EB5BE0BC0182E0FE
:102940000E9468020F91FF90EF90DF90CF90AF90C0
:10295000089520910A02211103C08FEF9FEF08957F
:102960005FB7F89422E02093E9002091F20030E074
:102970001216130614F421E030E0422FFC0184E625
:10298000415038F02898809309029091F10091937A
:10299000F7CF2115310521F08091F200882319F03D
:1029A0005FBFC90108958BE68093E800F9CF2FB788
:1029B000F89483E08093E9009091E800892F807279
:1029C00095FF04C09091F20080E4891B2FBF089509
:1029D0008091010381110DC082E08093FD0284E0AB
:1029E0008093FE02109200031092FF0281E0809318
:1029F00001038DEF92E0089590E0FC01E957FD4F4F
:102A00004491FC01E859FD4F2491FC01E75BFD4F27
:102A10008491882309F44DC04423E1F150E0FA0188
:102A20003197EF30F105B0F5EA5AFF4F0C94A5212C
:102A3000909180009F7707C0909180009F7D03C098
:102A400090918000977F9093800024C094B59F77E9
:102A500002C094B59F7D94BD1DC0909190009F775A
:102A600007C0909190009F7D03C090919000977F48
:102A7000909390000FC09091C0009F7703C09091F9
:102A8000C0009F7D9093C00005C09091C200977FC9
:102A90009093C200E82FF0E0EE0FFF1FE55CFD4FC2
:102AA000A591B491EC91E22381E090E021F480E0E3
:102AB000089580E090E008958F929F92AF92CF9218
:102AC000DF92EF92FF920F93CF93DF934C018091AF
:102AD0001001823019F4C8EBDBE002C0C0E4DFE192
:102AE00083E10E94FC14892B79F4A12CC12C80E491
:102AF000D82E8CE9E82E87E4F82E01E021E0AE0123
:102B0000B40181E00E946802DF91CF910F91FF90A4
:102B1000EF90DF90CF90AF909F908F9008958F921D
:102B20009F92AF92BF92CF92DF92EF92FF926B0192
:102B30007C010E9467144B015C01C114D104E104C3
:102B4000F104F1F00E946714DC01CB0188199909A6
:102B5000AA09BB09883E9340A105B10570F321E0A5
:102B6000C21AD108E108F10888EE880E83E0981EA9
:102B7000A11CB11CC114D104E104F10419F7DDCF8B
:102B8000FF90EF90DF90CF90BF90AF909F908F908D
:102B900008951F920F920FB60F9211242F933F9317
:102BA0008F939F93AF93BF938091050290910602FC
:102BB000A0910702B09108023091F80223E0230FA0
:102BC0002D3720F40196A11DB11D05C026E8230F65
:102BD0000296A11DB11D2093F802809305029093E7
:102BE0000602A0930702B09308028091F902909127
:102BF000FA02A091FB02B091FC020196A11DB11D49
:102C00008093F9029093FA02A093FB02B093FC0226
:102C1000BF91AF919F918F913F912F910F900FBED8
:102C20000F901F901895789484B5826084BD84B508
:102C3000816084BD85B5826085BD85B5816085BDB7
:102C400080916E00816080936E001092810080916F
:102C500081008260809381008091810081608093F7
:102C6000810080918000816080938000809191003C
:102C700082608093910080919100816080939100A7
:102C8000809190008160809390008091C100846069
:102C90008093C1008091C10082608093C1008091C7
:102CA000C10081608093C1008091C30081608093E6
:102CB000C3008091C00082608093C0008091C200F8
:102CC00081608093C20080917A00846080937A0052
:102CD00080917A00826080937A0080917A0081608E
:102CE00080937A0080917A00806880937A001092B5
:102CF0000A021092F4011092E1018091D7008160E4
:102D00008093D70080EA8093D80089B5806189BD1F
:102D100089B5826089BD09B400FEFDCF61E070E035
:102D200080E090E00E948F158091D8008F7C8061B8
:102D30008093D8008091E000807F8093E0008091B4
:102D4000E1008E7E8093E1008DE08093E200559A51
:102D5000209A3F9A269A259A47982E982D98109255
:102D6000E3011092E20180E090E00E94DE10809189
:102D7000E2019091E3010E94DE1080E090E00E9469
:102D8000950168EE73E080E090E00E948F158FEF70
:102D90009FEF9093B5028093B402C7EFD1E08AE52C
:102DA0009DE0909300028093FF0185EC9EE090935C
:102DB00002028093010293E09093FA0110920402C0
:102DC00010920302E0911B02F0911C0282E08083CA
:102DD000E0911702F09118021082E0911902F0912F
:102DE0001A0280E1808310922302E0911F02F09189
:102DF00020028EE08083E0911D02F0911E0280810E
:102E000080618083E0911D02F0911E0280818860C4
:102E10008083E0911D02F0911E0280818068808392
:102E2000E0911D02F0911E0280818F7D808304EE6F
:102E300011E022E53DE03093ED012093EC012EE41A
:102E40003DE03093EF012093EE019093E701109263
:102E5000F1011092F00181E090E00E949501D09381
:102E60000A03C0930903D0930C03C0930B0384E3BC
:102E700092E09F938F931F930F930E94861984B1C2
:102E8000817F84B984B1866084B982E090E00E9439
:102E9000950183E090E00E9495011092F601109256
:102EA000F50180917A00876080937A0080917C00A0
:102EB000806480937C0080917A00806880937A009F
:102EC00080E280937E0010927D0084E090E00E947A
:102ED00095010F900F900F900F90C2E3D0E09BED03
:102EE000692E9EE2792E22E3822E912CA12CC12CF8
:102EF00000E4D02E0CE9E02E07E4F02E01E020E003
:102F000040E050E061E070E080E00E946802C301B0
:102F10000197F1F7CE01B4010E949121660F771F4E
:102F200081E090E002C0880F991F6A95E2F70E9445
:102F300013112197D9F6C2E3D0E0ABED4A2EAEE2F1
:102F40005A2EBEEC6B2E77247A9488248394912C8D
:102F5000A12CC12CE0E4DE2EECE9EE2EE7E4FE2EFF
:102F600001E020E040E050E06FEF7FEF80E00E9462
:102F70006802C2010197F1F7CE01B3010E949121CD
:102F80006C5F7F4F660F771FC40102C0880F991FC7
:102F90006A95E2F70E9413112197D1F60E94C801A9
:102FA000C82F83E10E94FC14892B09F10E94C801FB
:102FB0008130B9F383E10E94FC14892B19F08AEA6D
:102FC00092E002C085E591E00E9413116CE271E08D
:102FD00080E090E00E948F1580E090E00E94131145
:102FE0006CE271E080E090E00E948F15DFCF80E01E
:102FF0000E94BC04C23009F0DBC080E090E00E9477
:10300000131168EC70E080E090E00E948F158AEA6E
:1030100092E00E94131160EB74E080E090E00E9467
:103020008F1580E090E00E94131168E572E080E067
:1030300090E00E948F1511E0C0E0D0E072E0872E92
:10304000912C80E091E00E94131161E070E080E03B
:1030500090E00E948F1580E092E00E94131161E0E1
:1030600070E080E090E00E948F15CE01880F991FDC
:10307000940102C0220F331F8A95E2F7C9010E9412
:10308000131161E070E080E090E00E948F150E94D3
:10309000C801823049F0843009F449C0813089F692
:1030A000209779F2219748C0C230D105E9F144F464
:1030B000C130D10531F604E010E0C2E0D0E008C034
:1030C000C330D10509F4A5C0C430D105E1F1B9CFB1
:1030D0000E94BC0B0E94C8018230D1F780910E0182
:1030E00090910F019801281B390BC901880F991F76
:1030F0009E0102C0220F331F8A95E2F7C9010E9488
:10310000131164EF71E080E090E00E948F150E943F
:10311000C8018230E9F684E090E00E947E0580E0FC
:1031200090E00E947E050FC011118BCF0CC0C430FF
:10313000D1050CF086CF219660E273E080E090E04C
:103140000E948F157ECF80E090E00E94131160E90D
:1031500071E080E090E00E948F158AEA92E00E9480
:10316000131160E971E080E090E00E948F1580E02B
:1031700090E00E94131160E971E080E090E00E940D
:103180008F1580E090E00E94131180910E019091C4
:103190000F0124E030E0281B390B220F331F81E0A0
:1031A00090E002C0880F991F2A95E2F70E94131140
:1031B000C4E0D0E002E010E084EE91E00E949606C8
:1031C0008091F201811122C00E94BC0B0E94C801B3
:1031D0008230E1F480910E0190910F0185309105CC
:1031E000ACF49E01281B390BC901880F991F980167
:1031F00002C0220F331F8A95E2F7C9010E94131102
:103200000E94C801823011F40E94DC050E94050D65
:10321000D3CF10E016CFEBE0F2E01382128288EEFB
:1032200093E0A0E0B0E084839583A683B7832DE28A
:1032300031E0318320832DEC30E0358724872CEC7E
:1032400030E03787268728EC30E0318B208B29EC63
:1032500030E0338B228B2AEC30E0358B248B2EEC44
:1032600030E0378B268B118E128E138E148EE8EA87
:10327000F2E01382128284839583A683B7838FE35F
:1032800091E0918380838FEF9FEF958784870895E6
:10329000CF93DF93EC012B8120FF33C026FF0AC0C0
:1032A0002F7B2B838E819F8101969F838E838A81C2
:1032B00090E029C022FF0FC0E881F9818081082EAB
:1032C000000C990B009719F420622B831AC03196D9
:1032D000F983E8830EC0EA85FB85099597FF09C04D
:1032E0002B81019611F080E201C080E1822B8B835B
:1032F00008C02E813F812F5F3F4F3F832E83992748
:1033000002C08FEF9FEFDF91CF910895A0E0B0E072
:10331000ECE8F9E10C94361F0F811885F8018381E0
:1033200088608383AE01455F5F4F69857A85C801F8
:103330000E94BA19F8012381277F2383E4E00C94CB
:10334000521FAEE0B0E0E7EAF9E10C94381F8DE0DF
:103350008C838B899C899A838983AE01495E5F4FF8
:103360006D897E89CE0101960E94371D2E96E2E07E
:103370000C94541FABE0B0E0E0ECF9E10C94281F92
:103380006C017B018A01FC0117821682838181FF17
:10339000CCC1CE0101963C01F6019381F70193FD6A
:1033A000859193FF81917F01882309F4BAC1853209
:1033B00039F493FD859193FF81917F01853229F442
:1033C000B60190E00E94721EE7CF912C212C312C87
:1033D000FFE1F315D8F08B3279F038F4803279F0D0
:1033E0008332A1F4232D20611DC08D3261F0803322
:1033F00069F4232D216016C0832D8260382EE32DC1
:10340000E4603E2E2AC0F32DF8601DC037FC2DC0AD
:1034100020ED280F2A3040F08E32B9F436FC81C1FD
:10342000232D2064322E19C036FE06C08AE0989EF5
:10343000200D1124922E11C0EAE02E9E200D1124A1
:10344000222EF32DF0623F2E08C08C3621F4832DFE
:103450008068382E02C0883641F4F70193FD8591CB
:1034600093FF81917F018111B3CF982F9F7D955458
:10347000933028F40C5F1F4F9FE399830DC0833670
:1034800031F0833771F0833509F059C021C0F8015C
:10349000808189830E5F1F4F88248394912C530170
:1034A00013C02801F2E04F0E511CF801A080B1803A
:1034B00036FE03C0692D70E002C06FEF7FEFC501DB
:1034C0000E94671E4C018201F32DFF773F2E16C02C
:1034D000280122E0420E511CF801A080B18036FE86
:1034E00003C0692D70E002C06FEF7FEFC5010E943D
:1034F0005C1E4C01F32DF0683F2E820133FC1BC093
:10350000822D90E088169906B0F4B60180E290E032
:103510000E94721E2A94F4CFF50137FC859137FE84
:1035200081915F01B60190E00E94721E21102A94E1
:1035300021E0821A91088114910471F7E8C0843661
:1035400011F0893641F5F80137FE07C060817181BD
:10355000828193810C5F1F4F08C060817181072EAB
:10356000000C880B990B0E5F1F4FF32DFF763F2E3B
:1035700097FF09C090958095709561957F4F8F4F0B
:103580009F4FF0683F2E2AE030E0A3010E94C71E43
:10359000882E861845C0853731F4232D2F7EB22E14
:1035A0002AE030E025C0932D997FB92E8F36C1F0E7
:1035B00018F4883579F0B5C0803719F0883721F0D4
:1035C000B0C0E92FE061BE2EB4FE0DC0FB2DF4604B
:1035D000BF2E09C034FE0AC0292F2660B22E06C0B5
:1035E00028E030E005C020E130E002C020E132E018
:1035F000F801B7FE07C060817181828193810C5F01
:103600001F4F06C06081718180E090E00E5F1F4F08
:10361000A3010E94C71E882E8618FB2DFF773F2E20
:1036200036FE0DC0232D2E7FA22E891458F434FEB1
:103630000BC032FC09C0832D8E7EA82E05C0B82C8D
:10364000A32C03C0B82C01C0B92CA4FE0FC0FE01EE
:10365000E80DF11D8081803321F49A2D997EA92EE9
:1036600009C0A2FE06C0B394B39404C08A2D867824
:1036700009F0B394A3FC11C0A0FE06C0B21488F4F4
:10368000280C922C9B180EC0B21460F4B60180E294
:1036900090E00E94721EB394F7CFB21418F42B1866
:1036A00002C0982C212CA4FE10C0B60180E390E04B
:1036B0000E94721EA2FE17C0A1FC03C088E790E022
:1036C00002C088E590E0B6010CC08A2D867859F0DA
:1036D000A1FE02C08BE201C080E2A7FC8DE2B60130
:1036E00090E00E94721E891438F4B60180E390E0E5
:1036F0000E94721E9A94F7CF8A94F301E80DF11D8F
:103700008081B60190E00E94721E8110F5CF2220C8
:1037100009F442CEB60180E290E00E94721E2A9423
:10372000F6CFF6018681978102C08FEF9FEF2B962F
:10373000E2E10C94441F20FD09C0FC0123FD05C0FB
:1037400022FF02C07383628351834083089544FD46
:1037500017C046FD17C0AB01BC01DA01FB01AA0F7F
:10376000BB1FEE1FFF1F1094D1F74A0F5B1F6E1F88
:103770007F1FCB01BA01660F771F881F991F09C0F1
:1037800033E001C034E0660F771F881F991F315066
:10379000D1F7620F711D811D911D08950F931F9325
:1037A000CF93DF938C01C8010E944819EC0197FD6B
:1037B00008C00E94481E892BB1F7B801CE010E94B3
:1037C000AE1ECE01DF91CF911F910F9108958F9280
:1037D0009F92AF92BF92EF92FF920F931F93CF935E
:1037E000DF938C01D62F7A01B22E0E9448199C01DA
:1037F00033272B32310531F02D32310561F48B2D19
:103800008068B82ED15011F480E068C0C8010E94D1
:10381000481997FDF9CFCB2DCD7F2B2D207309F5BE
:103820008033F9F4AA24AA94AD0E09F443C0C80168
:103830000E94481997FD3EC09C012F7D33272835F3
:10384000310549F4C264D250A9F1C8010E94481957
:1038500097FF07C02FC0B6FE02C0C26001C0C261A0
:10386000DA2D812C912C540120ED280F283080F086
:10387000C4FF04C0B8010E94AE1E19C02A3040F037
:10388000C6FFF8CF2F7D3FEE320F363098F7275026
:103890004C2FC501B4010E94A71B4B015C01C26003
:1038A000D15059F0C8010E94481997FFDDCFC1FDE2
:1038B00004C0AACF812C912C5401C7FF08C0B0943A
:1038C000A09490948094811C911CA11CB11C2C2F5D
:1038D000B501A401C7010E949B1B81E0DF91CF913C
:1038E0001F910F91FF90EF90BF90AF909F908F909E
:1038F0000895A0E2B0E0EFE7FCE10C942B1F5C011F
:10390000962E7A01F9018E010F5F1F4F680180E248
:10391000D8011D928A95E9F7D50113968C9080E025
:1039200090E0612C712C30E061E070E083FC259127
:1039300083FE21918F01522E211103C080E090E07F
:1039400092C02E3511F4009751F1432F50E04817E3
:1039500059073CF42D3559F12D3219F4772009F12E
:1039600003C0772009F46AC0452D469546954695D3
:10397000D601A40FB11D452D47708B0102C0000F69
:10398000111F4A95E2F7A8015C91452B4C936514F1
:1039900059F0561410F45394E7CF5A94E5CF31E020
:1039A00004C07724739401C0712C0196BFCF772097
:1039B00019F08E8180628E83311103C08824839434
:1039C00017C0F6019E012F5D3F4F80818095819346
:1039D0002E173F07D1F7F2CFE114F10429F0D701F8
:1039E0008C93F70131967F019A94812C9920F9F0FC
:1039F000C5010E94481997FD18C0FC01FF2723E06C
:103A0000F595E7952A95E1F7EC0DFD1D208130E055
:103A1000AC014770552702C0359527954A95E2F7C6
:103A200020FDDACFB5010E94AE1E811087CFE114D0
:103A3000F10411F0D7011C92C80115C0422F469520
:103A400046954695D601A40FB11D422F47708B01B4
:103A500002C0000F111F4A95E2F7A8015C91452BA7
:103A60004C93622EA2CFA096EFE00C94471FA0E0EB
:103A7000B0E0EDE3FDE10C942B1F6C01EB015A016A
:103A8000FC0117821682512CF601E380FE01E3FC53
:103A90008591E3FE8191182FEF01882309F4EEC090
:103AA00090E00E94481E892B21F0C6010E94CE1B87
:103AB000EBCF153241F4FE01E3FC1591E3FE1191C9
:103AC000EF01153281F4C6010E94481997FDD4C058
:103AD000412F50E09C01332724173507A9F2B60186
:103AE0000E94AE1ECBC01A3239F4E3FC1591E3FEFE
:103AF0001191EF0101E001C000E0F12C20ED210F58
:103B00002A3080F402606F2D70E080E090E040E2A7
:103B10000E94A71BF62EFE01E3FC1591E3FE119116
:103B2000EF01ECCF01FF03C0F11003C0A7C0FF24D9
:103B3000FA94183619F01C3651F010C0FE01E3FC5F
:103B40001591E3FE1191EF01183641F4086004600D
:103B5000FE01E3FC1591E3FE1191EF01112309F43D
:103B60008DC0612F70E08AEC90E00E94511E892B7D
:103B700009F484C000FD07C0F50180809180C50173
:103B800002965C0102C0812C912C1E3651F4F60184
:103B90004681578160E070E0202FC4010E949B1B8A
:103BA00073CF1336A9F401FD02C0FF24F394C601BC
:103BB0000E94481997FD60C08114910429F0F40116
:103BC0008083C40101964C01FA94F110F0CF50C0EB
:103BD0001B3559F49E01A4016F2DC6010E94791C6A
:103BE000EC01892B09F044C03EC0C6010E94CE1BE7
:103BF00097FD42C01F3661F128F4143639F11936A9
:103C000051F128C0133771F0153701F123C0811429
:103C1000910429F0F4016082C40101964C01FA94E8
:103C2000FF2071F0C6010E9448193C0197FD08C0B1
:103C30000E94481E892B59F3B601C3010E94AE1E93
:103C400081149104A9F0F401108212C0006203C033
:103C5000006101C00064202FA4016F2DC6010E94E5
:103C6000E71B811105C0F6018381807329F406C02A
:103C700000FD0ACF539408CF552019F0852D90E010
:103C800002C08FEF9FEFCDB7DEB7EFE00C94471F78
:103C900091110C94251F803219F089508550C8F776
:103CA0000895FC010590061621F00020D9F7C00107
:103CB00008953197CF010895FC010590615070403F
:103CC0000110D8F7809590958E0F9F1F0895FC01E5
:103CD0006150704001900110D8F7809590958E0F3B
:103CE0009F1F08950F931F93CF93DF93FB012381B1
:103CF00021FD03C08FEF9FEF2CC022FF16C046812D
:103D00005781248135814217530744F4A081B18142
:103D10009D012F5F3F4F318320838C932681378114
:103D20002F5F3F4F3783268314C08B01EC01FB01CB
:103D30000084F185E02D0995892BE1F6D8011696CE
:103D40008D919C911797019617969C938E93169739
:103D5000CE01DF91CF911F910F910895FB01238137
:103D600020FF12C026FD10C08F3F3FEF930761F088
:103D700082832F7D2064238326813781215031095E
:103D800037832683992708958FEF9FEF0895FA01CF
:103D9000AA27283051F1203181F1E8946F936E7F8A
:103DA0006E5F7F4F8F4F9F4FAF4FB1E03ED0B4E07B
:103DB0003CD0670F781F891F9A1FA11D680F791FBC
:103DC0008A1F911DA11D6A0F711D811D911DA11DCD
:103DD00020D009F468943F912AE0269F11243019DD
:103DE000305D3193DEF6CF010895462F4770405D78
:103DF0004193B3E00FD0C9F7F6CF462F4F70405D27
:103E00004A3318F0495D31FD4052419302D0A9F781
:103E1000EACFB4E0A6959795879577956795BA957B
:103E2000C9F700976105710508959B01AC010A2E41
:103E300006945795479537952795BA95C9F7620F18
:103E4000731F841F951FA01D089599278827089523
:103E50002F923F924F925F926F927F928F929F929A
:103E6000AF92BF92CF92DF92EF92FF920F931F9388
:103E7000CF93DF93CDB7DEB7CA1BDB0B0FB6F89439
:103E8000DEBF0FBECDBF09942A88398848885F8479
:103E90006E847D848C849B84AA84B984C884DF80EA
:103EA000EE80FD800C811B81AA81B981CE0FD11DCE
:103EB0000FB6F894DEBF0FBECDBFED010895505888
:103EC000BB27AA270E94771F0C94EA200E94DC20BF
:103ED00038F00E94E32020F039F49F3F19F426F4D3
:103EE0000C94D9200EF4E095E7FB0C94D320E92F35
:103EF0000E94FB2058F3BA176207730784079507DF
:103F000020F079F4A6F50C941D210EF4E0950B2E0B
:103F1000BA2FA02D0B01B90190010C01CA01A0011B
:103F20001124FF27591B99F0593F50F4503E68F176
:103F30001A16F040A22F232F342F4427585FF3CFB7
:103F4000469537952795A795F0405395C9F77EF488
:103F50001F16BA0B620B730B840BBAF09150A1F0D1
:103F6000FF0FBB1F661F771F881FC2F70EC0BA0F57
:103F7000621F731F841F48F4879577956795B795DF
:103F8000F7959E3F08F0B0CF9395880F08F09927DA
:103F9000EE0F9795879508950E94AF2008F481E071
:103FA00008950E94E51F0C94EA200E94E32058F037
:103FB0000E94DC2040F029F45F3F29F00C94D320CC
:103FC00051110C941E210C94D9200E94FB2068F3FF
:103FD0009923B1F3552391F3951B550BBB27AA27C2
:103FE00062177307840738F09F5F5F4F220F331FFC
:103FF000441FAA1FA9F335D00E2E3AF0E0E832D0C4
:1040000091505040E695001CCAF72BD0FE2F29D0C6
:10401000660F771F881FBB1F261737074807AB0798
:10402000B0E809F0BB0B802DBF01FF2793585F4F0D
:104030003AF09E3F510578F00C94D3200C941E2149
:104040005F3FE4F3983ED4F3869577956795B795EF
:10405000F7959F5FC9F7880F911D9695879597F9FA
:104060000895E1E0660F771F881FBB1F6217730773
:104070008407BA0720F0621B730B840BBA0BEE1F88
:1040800088F7E09508950E94032188F09F5798F0E3
:10409000B92F9927B751B0F0E1F0660F771F881F4D
:1040A000991F1AF0BA95C9F714C0B13091F00E9467
:1040B0001D21B1E008950C941D21672F782F8827CA
:1040C000B85F39F0B93FCCF3869577956795B3958E
:1040D000D9F73EF490958095709561957F4F8F4FFD
:1040E0009F4F0895E89409C097FB3EF49095809502
:1040F000709561957F4F8F4F9F4F9923A9F0F92FAE
:1041000096E9BB279395F695879577956795B7952B
:10411000F111F8CFFAF4BB0F11F460FF1BC06F5F11
:104120007F4F8F4F9F4F16C0882311F096E911C023
:10413000772321F09EE8872F762F05C0662371F044
:1041400096E8862F70E060E02AF09A95660F771F58
:10415000881FDAF7880F9695879597F90895990F34
:104160000008550FAA0BE0E8FEEF16161706E80741
:10417000F907C0F012161306E407F50798F0621B62
:10418000730B840B950B39F40A2661F0232B242B37
:10419000252B21F408950A2609F4A140A6958FEF56
:1041A000811D811D089597F99F6780E870E060E0A8
:1041B00008959FEF80EC089500240A9416161706C0
:1041C00018060906089500240A9412161306140608
:1041D00005060895092E0394000C11F4882352F06B
:1041E000BB0F40F4BF2B11F460FF04C06F5F7F4F23
:1041F0008F4F9F4F089557FD9058440F551F59F00A
:104200005F3F71F04795880F97FB991F61F09F3FC3
:1042100079F087950895121613061406551FF2CFEC
:104220004695F1DF08C0161617061806991FF1CF3C
:1042300086957105610508940895E894BB27662763
:104240007727CB0197F908950E9437210C94EA2033
:104250000E94DC2038F00E94E32020F0952311F02A
:104260000C94D3200C94D92011240C941E210E946C
:10427000FB2070F3959FC1F3950F50E0551F629F8F
:10428000F001729FBB27F00DB11D639FAA27F00DAF
:10429000B11DAA1F649F6627B00DA11D661F829FD6
:1042A0002227B00DA11D621F739FB00DA11D621FBB
:1042B000839FA00D611D221F749F3327A00D611DD8
:1042C000231F849F600D211D822F762F6A2F1124BA
:1042D0009F5750409AF0F1F088234AF0EE0FFF1FED
:1042E000BB1F661F771F881F91505040A9F79E3F44
:1042F000510580F00C94D3200C941E215F3FE4F311
:10430000983ED4F3869577956795B795F795E79599
:104310009F5FC1F7FE2B880F911D9695879597F9A2
:10432000089597FB072E16F4009407D077FD09D067
:104330000E94AB2107FC05D03EF4909581959F4FDC
:104340000895709561957F4F0895EE0FFF1F0590BA
:10435000F491E02D0994AA1BBB1B51E107C0AA1FD1
:10436000BB1FA617B70710F0A61BB70B881F991F16
:104370005A95A9F780959095BC01CD01089581E0EB
:1043800090E0F8940C94DE21FB0151915523A9F0A3
:10439000BF01DC014D9145174111E1F759F4CD0101
:1043A0000190002049F04D9140154111C9F3FB01E6
:1043B0004111EFCF81E090E001970895F894FFCF8D
:1043C000FFFFFFFFFFFF00E1000000000000FFFF14
:1043D000011E2323010A16010710012323050606E7
:1043E00000C18081000000E40100000000970C057E
:1043F0000C2F0CE30C600C3E0C520C000000000F64
:104400000DF90D7F0E250D300DA70E830E454500CD
:104410005430005431005432005433005434004CB2
:1044200030004C31004C32004C33004C34004330EF
:10443000005530004530004531004532004533001D
:0A44400045340052300046530000DE
:00000001FF
