; device = mm-control
:100000000C9456010C947E010C947E010C947E019C
:100010000C947E010C947E010C947E010C947E0164
:100020000C947E010C947E010C948E120C9400139F
:100030000C947E010C947E010C947E010C947E0144
:100040000C947E010C947E010C947E010C947E0134
:100050000C947E010C947E010C947E010C94A016ED
:100060000C947E010C9403100C94DD0F0C947E0113
:100070000C947E010C947E010C947E010C947E0104
:100080000C947E010C947E010C947E010C947E01F4
:100090000C947E010C947E010C947E010C947E01E4
:1000A0000C947E010C947E010C947E01FD150016CB
:1000B000EF15F315F715211621162116041608164B
:1000C0000C161216161621161C166364696E6F70D4
:1000D000737578585B00070605040100080A0B0CCD
:1000E0000D096F6B0A00522564006F6B0A004525ED
:1000F00064006F6B0A006F6B0A00432564006F6B2E
:100100000A00462564202564006F6B0A0025646F91
:100110006B0A0025646F6B0A006F6B0A005325643D
:1001200000582564006F6B0A00552564006F6B0A48
:10013000004D2564006F6B0A004C2564006E6B0A4D
:10014000006F6B0A00666C0A006F6B0A005425642E
:100150000046530A0052300A0045340A0045330A6B
:100160000045320A0045310A0045300A0055300A80
:100170000043300A004C340A004C330A004C320A67
:10018000004C310A004C300A0054340A0054330A3F
:100190000054320A0054310A0054300A0025646FBA
:1001A0006B0A0050256400080B00020202010009DE
:1001B00004000001020200000524001001052401D2
:1001C000010104240206052406000107058103102D
:1001D000004009040100020A000000070502024075
:1001E0000000070583024000000403090412010017
:1001F00002EF020140992C040000010102030155A5
:100200006E6B6E6F776E004F726967696E616C20FE
:100210005072757361206933204D4B33204D756CDE
:100220007469204D6174657269616C20322E3020D2
:10023000757067726164650073746172740A00009E
:100240000000002300260029002C002F00040404D5
:10025000040403040502020202040302020202066D
:10026000060606060604040202020404040802014B
:1002700010408040102040804080080204018040EF
:1002800020100201108010204040200000000200D9
:10029000090F0000030401000C0000000000000032
:1002A00000000000000000000000E21911241FBE41
:1002B000CFEFDAE0DEBFCDBF23E0AAE8B1E001C0B6
:1002C0001D92AD30B207E1F711E0A0E0B1E0EEE63B
:1002D000F5E402C005900D92AA38B107D9F711E0F4
:1002E000C6E5D1E004C02197FE010E947C22C535FD
:1002F000D107C9F70E94EA160C94B5220C940000AD
:100300009091D801992349F0882381F089ED90E0FC
:100310000E9463151092D8010895811107C087E2E9
:100320009FEF0E94631581E08093D80108952F927A
:100330003F924F925F926F927F928F929F92AF9275
:10034000BF92CF92DF92EF92FF920F931F93CF93C2
:10035000DF93CDB7DEB762970FB6F894DEBF0FBE5E
:10036000CDBF89831B0129870C83AA86AA2019F097
:1003700022E02B8701C01B861C86809110018230F1
:1003800009F41C82BA01550F880B990B0E944B216E
:100390006D877E878F87988B3981313051F118F0C6
:1003A0003230C9F039C037FE0AC088249924821837
:1003B00093080E94A01181600E94D31106C00E9480
:1003C000A0118E7F0E94D31141016091100180E045
:1003D0000E94011123C037FE08C088249924821886
:1003E00093080E94A0118B7F0DC00E94A011846011
:1003F0000FC037FE0AC088249924821893080E94EF
:10040000A0118D7F0E94D31109C00E94A0118260AB
:100410000E94D311410102C0812C912C1B821A82AF
:10042000A12CB12C1E821D82198A1A8A18E403E4B9
:10043000A814B90409F4C5C039813130D1F018F0DD
:10044000323061F02EC02C9A2C988C818823E1F0F8
:1004500085E10E94D3150197B9F4C0C05E9A5E98F9
:100460009C819923F1F087E10E94D3150197C9F48B
:10047000BEC05C9A5C982C81222399F086E10E9490
:10048000D315019771F414C19A85992351F0121470
:1004900013040CF099C083E10E94D315019709F46D
:1004A0009BC03FEFA31AB30AC4018A199B0998871E
:1004B0008F8329893A89412F502F60E070E080E8CE
:1004C0009FE30E94A8202B013C0120E034E244E796
:1004D00059E40E94FB210E941A216230710548F004
:1004E000660F771F660F771F65507109CB01019763
:1004F000F1F72A813B8121303105D9F122303105D4
:1005000009F444C0A7019601C301B2010E94FB2176
:100510009B01AC0169897A89812F902F0E94372035
:10052000698B7A8B182F092F9B01482F592F6D85C6
:100530007E858F8598890E94A32018165CF0BE8264
:10054000AD828D85898B9E859A8B1F85088921E0D8
:1005500030E00CC08F8198858A159B051CF01B82AA
:100560001A8266CFBE82AD8222E030E03B832A83CE
:100570005FCF8D819E812F813885821793070CF480
:1005800057CF82E090E09B838A8352CFA7019601E8
:10059000C301B2010E94FB219B01AC0169897A89E8
:1005A000812F902F0E943620698B7A8B182F092F6C
:1005B00020E030E048E453E40E94A32087FF38CFD6
:1005C00033CF8B859C8595C037FE6BCF83E10E942E
:1005D000D315892B09F065CF80E007C062E370E096
:1005E00080E090E00E94661682E090E082C062E3C4
:1005F00070E080E090E00E94661629852223A1F336
:100600000E949203892B81F762E370E080E090E022
:100610000E94661680910E0190910F018530910520
:1006200011F484E090E01092D8012DE93EEF829F12
:10063000B001839F700D929F700D1124A12CC12CCD
:1006400020E4D22E2CE9E22E27E4F22E01E021E074
:1006500048EB5BE082E00E94970162E370E080E09B
:1006600090E00E94661680E00E9480011DC02A81F1
:100670003B8125303105D1F18CEB92E0289FB00110
:10068000299F700D389F700D1124A12CC12C90E46E
:10069000D92E9CE9E92E97E4F92E01E021E040E40F
:1006A0005FE181E00E9497011092D90181E09DCF26
:1006B00062E370E080E090E00E94661639853323A3
:1006C00009F492CF0E94D403892B09F08DCF809139
:1006D0000E0190910F019B838A8383E10E94D315C1
:1006E000019729F699819093D901E0CF6CEA7DE0DA
:1006F000CCCF62960FB6F894DEBF0FBECDBFDF91B0
:10070000CF911F910F91FF90EF90DF90CF90BF900E
:10071000AF909F908F907F906F905F904F903F90A1
:100720002F900895AF92CF92DF92EF92FF920F93A6
:10073000CF93DF93C2E0D0E0A12CC12C90E4D92E5E
:100740009CE9E92E97E4F92E01E020E048EB5BE01C
:1007500060ED77E082E00E949701C230D10541F45C
:1007600020E048EB5BE062EA7EEF82E00E949701C6
:10077000219711F7A12CC12C80E4D82E8CE9E82E0A
:1007800087E4F82E01E020E048EB5BE066E77FEFCE
:1007900082E00E949701DF91CF910F91FF90EF903F
:1007A000DF90CF90AF900895AF92CF92DF92EF920B
:1007B000FF920F93CF93DF93C2E0D0E0A12CC12C26
:1007C00090E4D92E9CE9E92E97E4F92E01E020E08F
:1007D00040ED57E060EA7FE081E00E949701C2307F
:1007E000D10541F420E040ED57E064ED7EEF81E07B
:1007F0000E949701219711F7A12CC12C80E4D82EDB
:100800008CE9E82E87E4F82E01E020E040E45FE187
:100810006CE871EF81E00E949701DF91CF910F9119
:10082000FF90EF90DF90CF90AF900895AF92CF926E
:10083000DF92EF92FF920F93AB01A12CC12C20E429
:10084000D22E2CE9E22E27E4F22E01E020E0BC01BA
:1008500080E00E9497010F91FF90EF90DF90CF9082
:10086000AF900895AF92CF92DF92EF92FF920F93E5
:100870001F93CF93DF938B01EC01C61BD70B83E64D
:1008800091E09C01C29FC001C39F900DD29F900D2B
:1008900011240E94631510161106ACF484E49DEF38
:1008A0009C01C29FC001C39F900DD29F900D112447
:1008B000DF91CF911F910F91FF90EF90DF90CF903C
:1008C000AF900C943316A12CC12C20E4D22E2CE92D
:1008D000E22E27E4F22E01E020E040ED57E064E64E
:1008E00070E081E00E949701C2E0D0E0A12CC12C11
:1008F00090E4D92E9CE9E92E97E4F92E01E020E05E
:1009000040ED57E060E670EF81E00E949701C23051
:10091000D10541F420E040ED57E064E670E081E06D
:100920000E949701219711F7A12CC12C80E4D82EA9
:100930008CE9E82E87E4F82E01E020E040ED57E056
:1009400061E270E081E00E949701DF91CF911F91F9
:100950000F91FF90EF90DF90CF90AF900895CF93DD
:10096000C82F80E00E946D110E9492030E94D40360
:10097000809110010E946D1185E591E00E94EA11BD
:100980001092D80162E370E080E090E00E94661669
:1009900080E00E94800180E090E00E94EA111092C5
:1009A000D90180910E0190910F0124E030E0281BC5
:1009B000390B220F331F81E090E002C0880F991F8E
:1009C0002A95E2F70E94EA1181E08093D701CC23B7
:1009D00099F062E370E080E090E00E94661660911A
:1009E0000E0170910F0180E090E00E94320410929D
:1009F000D6011092D50104C010920F0110920E0181
:100A0000CF910895CF93DF93880F991FC1E0D0E075
:100A100002C0CC0FDD1F8A95E2F7CE010E94EA11D9
:100A200068E270E080E090E00E94661680E090E06E
:100A30000E94EA1164E170E080E090E00E94661696
:100A4000CE010E94EA1168E270E080E090E00E942E
:100A5000661680E090E00E94EA116AE070E080E0B3
:100A600090E0DF91CF910C9466160F931F93CF9374
:100A7000DF938C0183E10E94D315019709F45BC0D9
:100A8000C0910E01D0910F0110930F0100930E0140
:100A90008091D701811102C00E94AF0480910E01A4
:100AA00090910F0124E030E0281B390B220F331FF7
:100AB00082E090E002C0880F991F2A95E2F70E9419
:100AC000EA1160910E0170910F01C617D70729F442
:100AD000C091D90181E0C82715C00530110519F46E
:100AE0008CEB92E005C0C530D10529F484E49DEF7C
:100AF0000E94331606C0CE010E94320480E00E949C
:100B00008001C1E080E090E00E94EA1180910E0136
:100B100090910F0124E030E0281B390B220F331F86
:100B200081E090E002C0880F991F2A95E2F70E94A9
:100B3000EA118C2F01C080E0DF91CF911F910F91BE
:100B40000895E8EDF0E0E49120917B00E3FB882735
:100B500080F990E035E0880F991F3A95E1F7922FE0
:100B60009F7D892B80937B00E770E064E0937C009D
:100B700080917A00806480937A0080917A0086FD6B
:100B8000FCCF809178002091790090E0922B823305
:100B9000910564F09C01215531092331310540F064
:100BA000815A9109439730F080E0089581E00895DB
:100BB00082E0089584E00895AF92CF92DF92EF92A1
:100BC000FF920F931F93CF93DF9380E00E948001E9
:100BD00062E370E080E090E00E9466166091100190
:100BE00081E00E94F810C4E0D0E001E010E042E0B3
:100BF000E42EF12C0E94A1058230E9F164E670E058
:100C000080E090E00E94661680E090E00E94EA1189
:100C100064E670E080E090E00E94661683E10E9446
:100C2000D315019761F480910E0190910F019E01FF
:100C3000281B390BC901880F991F970113C00E9407
:100C4000A105813021F40E94AF04C1E015C080915C
:100C50000E0190910F019E01281B390BC901880FCD
:100C6000991F980102C0220F331F8A95E2F7C9012C
:100C70000E94EA11BFCFC0E06091100181E00E94A4
:100C8000011183E10E94D315892B09F046C0C111DF
:100C900044C00E94D40362E370E080E090E00E94D0
:100CA0006616C0910E01D0910F0183E10E94D31509
:100CB000019721F481E08093D90120C0C530D1058E
:100CC00051F08CEB92E0C89FB001C99F700DD89F86
:100CD000700D112402C06CEA7DE0A12CC12C80E4CF
:100CE000D82E8CE9E82E87E4F82E01E021E040E4DC
:100CF0005FE181E00E9497011092D9016AE070E003
:100D000080E090E0DF91CF911F910F91FF90EF90E5
:100D1000DF90CF90AF900C94661683E10E94D315BC
:100D2000019761F7C7CFAF92CF92DF92EF92FF9218
:100D30000F93CF93DF9381E00E948001C3E0D0E066
:100D4000AA24A394C12C90E4D92E9CE9E92E97E41F
:100D5000F92E01E020E04AE852E060EA7FE080E01E
:100D60000E949701892BF9F4A12C00E020E04AE8C9
:100D700052E068EA7DEF80E00E94970180910E01C9
:100D800090910F0124E030E0281B390B220F331F14
:100D900081E090E002C0880F991F2A95E2F70E9437
:100DA000EA11C1E009C0219731F00E94DC0581E021
:100DB0000E948001C5CFC0E06091100180E00E94D8
:100DC000F81080E00E9480018C2FDF91CF910F916D
:100DD000FF90EF90DF90CF90AF900895AF92CF92B9
:100DE000DF92EF92FF920F936091100180E00E94DA
:100DF00001116091100182E00E94011181E00E94C6
:100E00008001A12CC12C90E4D92E9CE9E92E97E415
:100E1000F92E00E020E04EE551E060E77EEF80E053
:100E20000E949701AA24A394C12CD12C2FEAE22E70
:100E300024E4F22E20E040E456E060E271ED80E030
:100E40000E949701892B41F5A12CC12C80E4D82E5A
:100E50008CE9E82E87E4F82E20E046E252E06EECC2
:100E60007FEF80E00E949701AA24A39420E046E24D
:100E700052E068E572E080E00E949701A12C20E03A
:100E800046E252E068EA7DEF80E00E94970183E14C
:100E90000E94D315019711F40E94DC051092D9012C
:100EA0006091100180E00E94F81080E00E948001B3
:100EB00081E00F91FF90EF90DF90CF90AF90089579
:100EC0004F925F926F927F928F929F92AF92BF925A
:100ED000CF92DF92EF92FF920F931F93CF93DF9306
:100EE00000D000D0CDB7DEB7182FB92E8091D30136
:100EF0009091D4018097F4F4812F9B2D0E941F1AAA
:100F000097FD1EC08D30910519F08A30910511F4BE
:100F100080E090E02091D3013091D401A9014F5F8E
:100F20005F4F5093D4014093D301F901ED54FE4F2C
:100F3000808306C01092D4011092D3018FEF9FEFEF
:100F40001A8219821C821B822091D3013091D40114
:100F5000121613060CF0D4C4892B09F0D1C46DE429
:100F600071E083EB91E00E949B22892B61F0E3E921
:100F7000F1E0A3EBB1E083EB91E021912D938E178B
:100F80009F07D9F710C1CE0101969F938F9383EAF3
:100F900091E09F938F9383EB91E09F938F930E94B7
:100FA000781A0F900F900F900F900F900F901816C7
:100FB0001906CCF489819A81892B09F0F4C083E168
:100FC0000E94D3159F938F938DE991E09F938F9308
:100FD000BF921F930E945D1A0F900F900F900F9079
:100FE0000F900F90E0C0E3EBF1E0A3E9B1E083EDF7
:100FF00091E021912D938E179F07D9F71092D4017C
:101000001092D30160E571E083EB91E00E949B2296
:10101000892B19F089E991E069C463E571E083EBFC
:1010200091E00E949B22892B19F085E991E05EC432
:1010300066E571E083EB91E00E949B22892B19F019
:1010400081E991E053C469E571E083EB91E00E948E
:101050009B22892B19F08DE891E048C46CE571E082
:1010600083EB91E00E949B22892B19F089E891E0A3
:101070003DC46FE571E083EB91E00E949B22892BD8
:1010800019F085E891E032C462E671E083EB91E00B
:101090000E949B22892B19F081E891E027C465E624
:1010A00071E083EB91E00E949B22892B19F08DE780
:1010B00091E01CC468E671E083EB91E00E949B2202
:1010C000892B19F089E791E011C46BE671E083EB9D
:1010D00091E00E949B22892B19F085E791E006C4DC
:1010E0006EE671E083EB91E00E949B22892B19F060
:1010F00081E791E0FBC361E771E083EB91E00E943F
:101100009B22892B19F08DE691E0F0C364E771E032
:1011100083EB91E00E949B22892B19F089E691E0F4
:10112000E5C367E771E083EB91E00E949B22892B86
:1011300019F085E691E0DAC36AE771E083EB91E0AC
:101140000E949B22892B19F081E691E0CFC36DE7C5
:1011500071E083EB91E00E949B22892B19F08DE5D1
:1011600091E0C4C360E871E083EB91E00E949B22B0
:10117000892B19F089E591E0B9C363E871E083EB4D
:1011800091E00E949B22892B19F085E591E0AEC386
:1011900066E871E083EB91E00E949B22892B19F0B5
:1011A00081E591E0A3C31092D4011092D3019E0176
:1011B0002F5F3F4F69013F932F938DE491E09F9301
:1011C0008F93B3EBEB2EB1E0FB2EFF92EF920E94D8
:1011D000781A0F900F900F900F900F900F90181695
:1011E00019060CF072C189809A8035E0831691044B
:1011F00008F086C380910E0190910F018816990620
:1012000051F42091D901222331F081E080939201A1
:1012100089E491E06BC31092920121E02093F001E8
:10122000059751F484E090E090930F0180930E01B4
:1012300084E49DEF0E943316E4E0EE2EF12C8091C1
:101240000E0190910F019701281B390BC901880FDE
:10125000991FA2E0CA2ED12C960102C0220F331F83
:101260008A95E2F7C9010E94EA1160900E01709020
:101270000F01709201016092000190920F01809223
:101280000E018091D9018614970469F4811154C02C
:10129000E818F908EE0CFF1CC60102C0880F991F60
:1012A000EA94E2F744C081110E94EE068091D901D0
:1012B000811142C08091D5019091D601449769F483
:1012C00081E00E94AF0462E370E080E090E00E9461
:1012D000661681E00E94800107C060910E01709146
:1012E0000F01C3010E94320480918A0190918B0109
:1012F000019690938B0180938A018091D501909102
:10130000D60101969093D6018093D50180910E016C
:1013100090910F0124E030E0281B390B220F331F7E
:1013200082E090E002C0880F991F2A95E2F70E94A0
:10133000EA1181E08093910180E090E00E94EA113F
:1013400080910E0190910F0124E030E0281B390BB1
:10135000220F331F81E090E002C0880F991F2A9569
:10136000E2F70E94EA1180919101882309F4AAC052
:1013700085E491E09F938F93BF921F930E945D1A23
:101380000F900F900F900F9081E00E94800160916C
:10139000100180E00E940111AA24A394C12C40E412
:1013A000D42E4CE9E42E47E4F42E00E020E04AE895
:1013B00052E064EC79E080E00E949701892B09F00B
:1013C0007EC0A12CC12CD12C2FEAE22E24E4F22ED7
:1013D00020E040ED57E064E371E280E00E94970175
:1013E0008FB7F89440900302509004026090050279
:1013F000709006028FBF1092900182EE91E00E94E1
:1014000060073BE3E32E36E0F32E2FB7F89480918C
:10141000030290910402A0910502B09106022FBF31
:1014200084199509A609B709813E9E42A105B10517
:1014300018F00E94DC0511C060ED77E081E090E0DB
:101440000E94160482EE91E00E946007C701019796
:10145000F1F7809190018823C1F210929001A12CA4
:10146000C12C80E4D82E8CE9E82E87E4F82E00E029
:1014700020E04EE551E06CE771E080E00E949701CA
:1014800081E08093D90180E090E00E94EA11809190
:101490000E0190910F0124E030E0281B390B220F40
:1014A000331F81E090E002C0880F991F2A95E2F770
:1014B0000E94EA111092910181E491E017C20E940A
:1014C000DC0562CF8DE391E011C2DF92CF9289E318
:1014D00091E09F938F93FF92EF920E94781A0F9062
:1014E0000F900F900F900F900F9018161906ECF4B4
:1014F00089819A818530910508F002C22091D90135
:101500002111FEC10E9435056AE070E080E090E0A4
:101510000E9466160E94930664E670E080E090E008
:101520000E94661685E391E0E1C1DF92CF9281E3EC
:1015300091E09F938F93FF92EF920E94781A0F9001
:101540000F900F900F900F900F90181619069CF4A3
:1015500089819A81009729F0019709F0D1C182E031
:1015600001C081E080931001809110010E946D11F3
:101570008DE291E0BBC1DF92CF9289E291E09F932F
:101580008F93FF92EF920E94781A0F900F900F9016
:101590000F900F900F9018161906BCF40E94EE06DB
:1015A00068EC70E080E090E00E94661685E291E0D1
:1015B0009F938F93BF921F930E945D1A1092F00128
:1015C0001092D6011092D50197C1DF92CF9281E29D
:1015D00091E09F938F93FF92EF920E94781A0F9061
:1015E0000F900F900F900F900F901816190684F41B
:1015F00089819A81892B09F083C198E088E10FB62F
:10160000F894A895809360000FBE9093600078C115
:10161000DF92CF928DE191E09F938F93FF92EF92B3
:101620000E94781A0F900F900F900F900F900F90CC
:101630001816190634F589819A81009719F489E101
:1016400091E054C18130910531F41F9285ED8F9363
:1016500083E191E009C0029709F052C183E08F93C2
:1016600087EE8F938DE091E09F938F93BF921F93AE
:101670000E945D1A0F900F900F900F900F900F9097
:101680003FC166E871E083EB91E00E949B22892BC9
:1016900031F081E08093900189E091E027C1CE0193
:1016A00003969F938F93DF92CF9282E091E09F9376
:1016B0008F93FF92EF920E94781A0FB6F894DEBFD4
:1016C0000FBECDBF181619066CF489819A81059753
:1016D00008F016C18B819C81039708F011C18EEF31
:1016E00090E004C1DF92CF928AEF90E09F938F93B6
:1016F000FF92EF920E94781A0F900F900F900F9028
:101700000F900F90181619060CF058C089819A8115
:10171000892B09F0F5C08091920181114CC081E0C4
:101720000E9480016091100180E00E94011161E837
:1017300071E086E990E00E9416048091100147E173
:1017400061E0813021F480E00E94351003C080E028
:101750000E94A01061E871E08AEA90E00E941604FD
:101760008091100147E061E0813021F480E00E9427
:10177000351003C080E00E94A01067EC71E084EC9B
:1017800091E00E941604809110014EE161E08130E9
:1017900021F480E00E94351003C080E00E94A01078
:1017A0006091100180E00E94F81080E00E948001AA
:1017B00086EF90E09BC082EF90E098C0DF92CF92DE
:1017C0008EEE90E09F938F93FF92EF920E94781A93
:1017D0000F900F900F900F900F900F901816190602
:1017E0000CF04FC0E980FA8035E0E316F10408F010
:1017F00087C08091D90181110E94EE0681E00E948C
:1018000080016091100180E00E94011183E0E816E0
:10181000F10414F090E001C094E080910E01482F93
:10182000491B24E43DEF42036001439FD00C112487
:10183000D0928D01C0928C01282F2E1943E651E0E1
:101840002403C001259F900D112490938F01809354
:101850008E010E946315C6010E9433166AE972E088
:1018600084EC99E00E94160480E00E94800160915F
:10187000100180E00E94F8101092D9018AEE90E0E9
:1018800035C0DF92CF9286EE90E09F938F9383EBEB
:1018900091E09F938F930E94781A0F900F900F9072
:1018A0000F900F900F901816190654F589819A81A0
:1018B000892B31F583E10E94D315019719F40E9419
:1018C000DC05F8CF80918E0190918F0191958195E3
:1018D00091090E94631580918C0190918D019195E1
:1018E000819591090E94331682EE90E09F938F9329
:1018F000BF921F930E945D1A0F900F900F900F9050
:101900000F900F900F900F90DF91CF911F910F913B
:10191000FF90EF90DF90CF90BF90AF909F908F900F
:101920007F906F905F904F90089580910E019091FD
:101930000F0124E030E0281B390B220F331F81E018
:1019400090E002C0880F991F2A95E2F70E94EA11E1
:101950000E94A1058570B9F00E94A105282F8091F1
:101960000E0190910F01213019F0243031F00BC09D
:101970008530910544F4019604C0181619061CF42C
:1019800001970E94350580910E0190910F010597F6
:10199000A1F482E090E00E94EA1162E370E080E04E
:1019A00090E00E94661681E090E00E94EA1162E3F6
:1019B00070E080E090E00C9466160895CF92DF927C
:1019C000EF92FF920F931F93CF93DF936C017A01F5
:1019D0008B01C0E0D0E0CE15DF0581F0D8016D911C
:1019E0008D01D601ED91FC910190F081E02DC601B1
:1019F0000995892B11F02196EECF7E01C701DF9169
:101A0000CF911F910F91FF90EF90DF90CF900895AD
:101A1000FC01538D448D252F30E0842F90E0821BF4
:101A2000930B541710F0CF96089501970895FC0179
:101A3000918D828D981761F0828DDF01A80FB11D05
:101A40005D968C91928D9F5F9F73928F90E0089529
:101A50008FEF9FEF0895FC01918D828D981731F0E3
:101A6000828DE80FF11D858D90E008958FEF9FEF37
:101A70000895FC01918D228D892F90E0805C9F4F0D
:101A8000821B91098F739927089589E092E00E9443
:101A9000390D21E0892B09F420E0822F0895FC0103
:101AA000848DDF01A80FB11DA35ABF4F2C91848DE7
:101AB00090E001968F739927848FA689B7892C931C
:101AC000A089B1898C9182748C93938D848D9813A5
:101AD00006C00288F389E02D80818F7D8083089580
:101AE000EF92FF920F931F93CF93DF93EC0181E06E
:101AF000888F9B8D8C8D981305C0E889F98980812A
:101B000085FD26C0F62E0B8D10E00F5F1F4F0F7363
:101B10001127E02E8C8DE8120CC00FB607FCFACF0F
:101B2000E889F989808185FFF5CFCE010E944F0DAC
:101B3000F1CF8B8DFE01E80FF11DE35AFF4FF082CC
:101B40009FB7F8940B8FEA89FB898081806209C076
:101B50009FB7F894EE89FF896083E889F9898081CD
:101B6000827480839FBF81E090E0DF91CF911F91CD
:101B70000F91FF90EF900895CF93DF93EC01888D44
:101B80008823C9F0EA89FB89808185FD05C0A88981
:101B9000B9898C9186FD0FC00FB607FCF5CF808107
:101BA00085FFF2CFA889B9898C9185FFEDCFCE0151
:101BB0000E944F0DE7CFDF91CF91089580E090E034
:101BC000892B29F00E94450D81110C940000089585
:101BD000CF93DF931F92CDB7DEB76983DC01ED9120
:101BE000FC910280F381E02D41E050E0BE016F5F87
:101BF0007F4F09950F90DF91CF91089583E08093F7
:101C0000E9008091F200882319F08AE38093E800CC
:101C10000895FC018485958597FD0BC09FB7F894C6
:101C200082E08093E9008091F2009FBF90E00196EE
:101C300008959FB7F89482E08093E9008091F200C4
:101C40009FBF90E00895089580E090E0089589E0B6
:101C500092E00C94170D682F89E092E00E94700DBD
:101C600080E090E00895682F86EA92E00E94E80DF7
:101C700080E090E00895CF92DF92EF92FF929CE592
:101C80009CBD1DBC813039F020F0823029F42F98A2
:101C900003C0469801C05F986EBD0DB407FEFDCF2E
:101CA0009EB5C52EDD24EE24FF24CEBC0DB407FE68
:101CB000FDCF9EB56A01EE24FF24CEBC0DB407FE15
:101CC000FDCF9EB5C32ED42EE52EFF24CEBC0DB481
:101CD00007FEFDCF9EB52EBD0DB407FEFDCF9EB510
:101CE000813039F020F0823029F42F9A03C0469ACF
:101CF00001C05F9AFF90EF90DF90CF9008959C0114
:101D000088E0369527952115310511F08150C9F7E6
:101D100008951F93CF93DF93182FD42FC22F262F10
:101D20002F70C03270F4822F90E0A0E0B0E0B82FA6
:101D3000AA27992788279C01AD01236D4360506134
:101D40000FC0C695D695822F90E0A0E0B0E0B82FE6
:101D5000AA27992788279C01AD01236D4160506116
:101D60006CEE812F0E943B0ECF718C2F90E0982F4C
:101D70008827092E000CAA0BBB0BDF714D2F50E0FA
:101D800060E070E06F609A01AB01282B392B4A2B81
:101D90005B2B60E9812F0E943B0E80E0DF91CF91A9
:101DA0001F9108958F929F92AF92BF92CF92DF9230
:101DB000EF92FF920F931F93CF93DF936C017B0100
:101DC0008A0180910D01882309F45CC0809108028A
:101DD000882309F457C08091DF0180FF05C08091FE
:101DE000E00082608093E000E801B12C8AEFA82E29
:101DF00093E0892E2AE3922E209711F4BB20D9F18B
:101E00000E94AE1581110AC0AA94AA20D9F161E0FE
:101E100070E080E090E00E946616EECF282F30E060
:101E2000C217D3070CF48C2F9FB7F8948092E90067
:101E30002091E80025FF1DC0282F30E0C21BD30BE6
:101E4000F701815020F041914093F100FACFE20E6A
:101E5000F31EBB2019F09092E8000AC08091E800C0
:101E600085FD07C09092E800BB24B394209709F049
:101E7000B12C9FBFC1CF5D9884E68093DE01101620
:101E8000110644F081E090E0F6019383828380E0C4
:101E900090E001C0C801DF91CF911F910F91FF9099
:101EA000EF90DF90CF90BF90AF909F908F9008956C
:101EB0000E94AE1590E008950F931F93CF93DF9388
:101EC0001F92CDB7DEB78C01FC018485958597FF05
:101ED0000EC0CE0101960E948015019719F48981E8
:101EE00090E002C08FEF9FEFF80195878487F8019B
:101EF000848595850F90DF91CF911F910F91089563
:101F0000CF93DF931F92CDB7DEB7FC018485958513
:101F100097FD05C02FEF3FEF358724870BC0CE011B
:101F200001960E948015019719F4898190E002C002
:101F30008FEF9FEF0F90DF91CF91089586EA92E0A7
:101F40000C94800F4091DC015091DD012091DA0169
:101F50003091DB0142175307B4F49091E80095707B
:101F6000E1F39091E80092FD19C08093F100809117
:101F7000DC019091DD0101968F739927892B19F46B
:101F80008EEF8093E8008091DC019091DD01019655
:101F90009093DD018093DC0181E0089580E0089555
:101FA000615030F02091F100FC0120830196F8CFC0
:101FB000289884E68093070208951F920F920FB627
:101FC0000F9211242F933F934F935F936F937F93BF
:101FD0008F939F93AF93BF93EF93FF9389E092E02A
:101FE0000E944F0DFF91EF91BF91AF919F918F9103
:101FF0007F916F915F914F913F912F910F900FBE05
:102000000F901F9018951F920F920FB60F921124E8
:102010002F938F939F93EF93FF93E0911902F09189
:102020001A028081E0911F02F091200282FD12C00D
:102030009081809122028F5F8F73209123028217FB
:1020400051F0E0912202F0E0E75FFD4F958F809321
:10205000220201C08081FF91EF919F918F912F917A
:102060000F900FBE0F901F9018951F93CF93DF9383
:10207000C82FD62F142F813031F028F0823041F450
:1020800080E190E002C082E090E00E947F0E01C0FB
:1020900080E1212F4D2F682F8C2F0E94890ED82F81
:1020A000811148C020E030E0A90161E98C2F0E9435
:1020B0003B0EC33030F4EC2FF0E0E35EFE4F2081A6
:1020C00001C024E0822F220F990BAA0BBB0BAC019D
:1020D000332722276DEE8C2F0E943B0EC23019F061
:1020E00022EC31E002C020E931E040E050E064E958
:1020F0008C2F0E943B0E20E831E340E050E060E886
:102100008C2F0E943B0E212F220F220F822F90E056
:10211000A0E0B0E09C01AD01C11105C03260466194
:1021200060EF80E004C03260466060EF8C2F0E9458
:102130003B0E01C0DFEF8D2FDF91CF911F910895EE
:102140001F93CF93DF93C82F162FD42F813031F0F8
:1021500028F0823041F480E190E002C082E090E01B
:102160000E947F0E01C080E12D2F412F682F8C2F00
:102170000E94890E182F811135C020E030E0A9019E
:1021800061E98C2F0E943B0E20E030E044E050E0FB
:102190006DEE8C2F0E943B0E20E030E0A90164E937
:1021A0008C2F0E943B0E24E030E040E050E060E8DD
:1021B0008C2F0E943B0E2D2F220F220F822F90E09A
:1021C000A0E0B0E09C01AD013260466060EF8C2F72
:1021D0000E943B0E20E030E0A90163E98C2F0E94B1
:1021E0003B0E01C01FEF812FDF91CF911F9108950A
:1021F00040E0623019F460E00C94A01060E00C94B0
:102200003510CF93DF93CDB7DEB72F970FB6F89485
:10221000DEBF0FBECDBF2091110130911201409160
:10222000130129833A834B832C833D834E83209172
:10223000140130911501409116012F833887498789
:102240002091170130911801409119012A873B878D
:102250004C8720911A0130911B0140911C012D8760
:102260003E874F876130E1F098F0623061F5282FAA
:1022700030E0FE01E20FF31F448162852F960FB616
:10228000F894DEBF0FBECDBFDF91CF910C94A010AC
:10229000282F30E0FE01E20FF31FDF01458507C064
:1022A000282F30E0FE01E20FF31FDF014181179676
:1022B0006C912F960FB6F894DEBF0FBECDBFDF91A5
:1022C000CF910C94351080E02F960FB6F894DEBFB6
:1022D0000FBECDBFDF91CF9108951F93CF93DF93B2
:1022E000182F3E9A579A279A469A5F9A2F9A549A8D
:1022F000249A569A5C982C985E98682F80E00E94E9
:10230000011121E030E0811102C020E030E0CC2753
:10231000DD27C21BD30B612F81E00E9401118111C7
:1023200002C020E001C02EEFC20F612F82E00E94A8
:10233000011181118CEF8C0FDF91CF911F910895C6
:102340002091E0013091E101C90184709927AC012D
:1023500056954795C90180719927969587959695C9
:102360008795842B2170822B08952E98000020E100
:1023700030E040E050E8BC0164237523672B11F086
:102380002D9A01C02D98479A000047980000569555
:1023900047952150310979F72E9A00009093E10179
:1023A0008093E0010895282F2270922F990F282FF3
:1023B0002470220F220F292B8170282B022E000C53
:1023C000330B8091E0019091E1018A7E822B932B67
:1023D0000C94B5112091E0013091E1012F73332766
:1023E000582F4427242B352B882793709695879553
:1023F00096958795822B932B0C94B5110E9496226B
:10240000DF92EF92FF920F931F93CF93DF93D82E1B
:10241000F92EE42E062F10E0C8010196880F0E94C5
:10242000A20F83E00E94A20FCD2DDF2D0C0F1D1FE8
:10243000C017D10789F0E7FE03C0FE01849101C0F7
:1024400088810E94A20FF82E80E00E94A20F8F21A7
:1024500021968111EDCF01C081E0DF91CF911F91D5
:102460000F91FF90EF90DF900895DF92EF92FF922F
:102470000F931F93CF93DF93D82E8A017B01E40E35
:10248000F51EEB01CE15DF0571F0D7FE03C0FE018E
:10249000849101C088810E94A20F21968111F2CF00
:1024A0008FEF9FEF01C0C801DF91CF911F910F9176
:1024B000FF90EF90DF9008950F931F93CF93DF93DA
:1024C0001F92CDB7DEB782E0898342E450E067EA2D
:1024D00071E080E80E9435120E94BF15DC0112965F
:1024E0000D911C9113970115110589F0D801ED91FB
:1024F000FC910280F381E02DBE016F5F7F4FC80128
:10250000099597FD04C0F80100851185ECCF8981FC
:102510000F90DF91CF911F910F9108951F920F920D
:102520000FB60F9211248F939F938091E1009091A9
:10253000E100937F9093E10083FF0FC01092E900C8
:1025400091E09093EB001092EC0092E39093ED00F9
:102550001092080298E09093F00082FF20C093E070
:102560009093E9009091F200992319F09AE39093E7
:10257000E8009091DE01992339F09091DE019150AD
:102580009093DE01992389F190910702992339F004
:1025900090910702915090930702992341F184FF93
:1025A00010C08091E2008E7E81608093E200809175
:1025B000E1008F7E8093E1008091DF018E7E80615B
:1025C00011C080FF16C08091E2008E7E80618093F2
:1025D000E2008091E1008E7E8093E1008091DF0136
:1025E0008E7E81608093DF0104C05D9ACDCF289AF2
:1025F000D6CF9F918F910F900FBE0F901F9018957F
:102600001F920F920FB60F921124CF92DF92EF928A
:10261000FF920F931F932F933F934F935F936F936B
:102620007F938F939F93AF93BF93EF93FF93CF933A
:10263000DF93CDB7DEB76C97DEBFCDBF1092E90058
:102640008091E80083FFFBC168E0CE0145960E94BF
:10265000D00F82EF8093E8008D8987FF05C09091AD
:10266000E80090FFFCCF03C09EEF9093E800982F06
:10267000907609F0C6C09E894F89588D2F89F88CB5
:1026800091110CC0803829F48091F2018093F100FF
:1026900002C01092F1001092F10045C1913051F446
:1026A000811141C14130510509F03DC18091F201D4
:1026B0008D7F0BC0933061F4811135C141305105DC
:1026C00009F031C18091F20182608093F2012BC147
:1026D000953049F48091E80080FFFCCF822F80681C
:1026E0008093E30020C1963009F05EC00B8D1C8DF5
:1026F00022E01092E9001092DD011092DC01F2124A
:1027000032C01092DB011092DA010E945C1299E053
:10271000BE016F5F7F4FDB01E92F1D92EA95E9F75C
:102720009983FA8291E09E8390EA98879AEF99873D
:102730002091DC013091DD01275F3F4F3C832B83EB
:102740008D831092E9001092DD011092DC0110934C
:10275000DB010093DA0149E050E080E00E9435128D
:102760000E945C12E0C01093DB010093DA010E942A
:10277000BF15DC0112960D911C91139701151105DF
:1027800009F4BBC0D801ED91FC910480F581E02DE6
:10279000BE016B5E7F4FC8010995009709F0C7C065
:1027A000F80100851185EACF973009F445C19830CA
:1027B00021F481E08093F100B6C0993009F0B3C0F4
:1027C000837009F039C1E1E2F1E081E031E096E3A4
:1027D0002081211109C08EE78093EA001092EA005F
:1027E0008F89809308029FC08093E9003093EB00AB
:1027F00021912093EC009093ED008F5F873041F79B
:10280000EACF8B8D9C8D1092E9001092DD01109221
:10281000DC019093DB018093DA01898D811153C033
:102820008E899D89913A49F4813209F005C147E0CA
:1028300050E066E071E080E0BBC0913209F0FCC07E
:10284000833269F48F89988DA0E0B0E08093020113
:1028500090930301A0930401B093050164C08032FA
:1028600069F48091E80082FFFCCF67E086E091E0A8
:102870000E94D00F8BEF8093E80055C0823209F0A0
:1028800052C08F8980930D01EEEFFFE785919491FF
:102890008B3F9C4D19F0E0E0F8E002C0EEEFFAE06B
:1028A0008091060190910701A0910801B091090162
:1028B000803B9440A105B10509F09EC080910D01B7
:1028C00080FF79C099C00E94BF15FC01028113816D
:1028D0000115110509F4B0C0D801ED91FC910190EA
:1028E000F081E02DBE016B5E7F4FC801099581111B
:1028F0001AC0F80100851185EBCFF1E0FF1609F44D
:102900004EC0F3E0FF1298C08F89882309F44AC0B3
:10291000823089F440E860E387E092E00E94001290
:10292000882309F489C08EEF8093E80088C01816C8
:102930001906CCF381C0813029F440E867E08FEFBD
:1029400091E0ECCF833009F077C00E94BF15DC0125
:102950001296ED90FC9013978E010F5F1F4F680148
:10296000E114F10479F0D701ED91FC910680F78133
:10297000E02DB801C7010995080F111DF701E0848A
:10298000F184EECFD8011C92F60101900020E9F706
:102990003197BF016C197D0940E0C601BFCF6DEED4
:1029A00071E002C069EE71E0FB01449150E080E803
:1029B0000E943512B8CFEE3F2AE0F20751F0808135
:1029C00091818737A7E79A0721F09093FF0A8093B8
:1029D000FE0A87E797E79183808380916000809368
:1029E000F1019BE088E10FB6F894A8958093600010
:1029F0000FBE9093600097CF808191818737974772
:102A000009F091CFA8958091600088618093600063
:102A10008091F10180936000EE3FBAE0FB0739F04E
:102A20008091FE0A9091FF0A918380837CCF10925F
:102A3000FF0A1092FE0A77CF81E28093EB006C963A
:102A40000FB6F894DEBF0FBECDBFDF91CF91FF91DF
:102A5000EF91BF91AF919F918F917F916F915F9116
:102A60004F913F912F911F910F91FF90EF90DF9029
:102A7000CF900F900FBE0F901F9018953FB7F8940E
:102A80008091F7029091F802A091F902B091FA02B8
:102A900026B5A89B05C02F3F19F00196A11DB11DB9
:102AA0003FBFBA2FA92F982F8827820F911DA11DF4
:102AB000B11DBC01CD0142E0660F771F881F991F31
:102AC0004A95D1F70895AF92CF92DF92EF92FF929D
:102AD0000F93A12CC12C20E4D22E2CE9E22E26E467
:102AE000F22E01E021E048EB5BE0BC0182E00E94B5
:102AF00097010F91FF90EF90DF90CF90AF900895E6
:102B000020910802211103C08FEF9FEF08955FB756
:102B1000F89422E02093E9002091F20030E01216B0
:102B2000130614F421E030E0422FFC0184E641500A
:102B300038F02898809307029091F1009193F7CF95
:102B40002115310521F08091F200882319F05FBF33
:102B5000C90108958BE68093E800F9CF2FB7F89468
:102B600083E08093E9009091E800892F807295FFBF
:102B700004C09091F20080E4891B2FBF08958091DA
:102B8000FF0281110DC082E08093FB0284E08093FC
:102B9000FC021092FE021092FD0281E08093FF027F
:102BA0008BEF92E0089590E0FC01E557FD4F4491D2
:102BB000FC01E459FD4F2491FC01E35BFD4F84913E
:102BC000882309F44DC04423E1F150E0FA01319724
:102BD000EF30F105B0F5EA5AFF4F0C947C2290914A
:102BE00080009F7707C0909180009F7D03C09091E7
:102BF0008000977F9093800024C094B59F7702C097
:102C000094B59F7D94BD1DC0909190009F7707C0A3
:102C1000909190009F7D03C090919000977F90933A
:102C200090000FC09091C0009F7703C09091C000AA
:102C30009F7D9093C00005C09091C200977F9093B4
:102C4000C200E82FF0E0EE0FFF1FE15CFD4FA59101
:102C5000B491EC91E22381E090E021F480E00895CA
:102C600080E090E008958F929F92AF92CF92DF9292
:102C7000EF92FF920F93CF93DF934C01809110015D
:102C8000823019F4C8EBDBE002C0C0E4DFE183E18D
:102C90000E94D315019779F0A12CC12C80E4D82E85
:102CA0008CE9E82E87E4F82E01E021E0AE01B401C2
:102CB00081E00E949701DF91CF910F91FF90EF90FB
:102CC000DF90CF90AF909F908F9008958F929F92BA
:102CD000AF92BF92CF92DF92EF92FF926B017C0195
:102CE0000E943E154B015C01C114D104E104F104C2
:102CF000F1F00E943E15DC01CB0188199909AA095F
:102D0000BB09883E9340A105B10570F321E0C21ACA
:102D1000D108E108F10888EE880E83E0981EA11C16
:102D2000B11CC114D104E104F10419F7DDCFFF9007
:102D3000EF90DF90CF90BF90AF909F908F900895CD
:102D40001F920F920FB60F9211242F933F938F93E0
:102D50009F93AF93BF938091030290910402A0913F
:102D60000502B09106023091F60223E0230F2D37C1
:102D700020F40196A11DB11D05C026E8230F02967F
:102D8000A11DB11D2093F6028093030290930402CB
:102D9000A0930502B09306028091F7029091F80289
:102DA000A091F902B091FA020196A11DB11D809384
:102DB000F7029093F802A093F902B093FA02BF9140
:102DC000AF919F918F913F912F910F900FBE0F90D8
:102DD0001F901895789484B5826084BD84B5816015
:102DE00084BD85B5826085BD85B5816085BD8091D6
:102DF0006E00816080936E0010928100809181004E
:102E00008260809381008091810081608093810045
:102E10008091800081608093800080919100826029
:102E200080939100809191008160809391008091C6
:102E300090008160809390008091C10084608093B5
:102E4000C1008091C10082608093C1008091C10067
:102E500081608093C1008091C30081608093C30032
:102E60008091C00082608093C0008091C200816028
:102E70008093C20080917A00846080937A00809170
:102E80007A00826080937A0080917A0081608093DA
:102E90007A0080917A00806880937A00109208020C
:102EA0001092F2011092DF018091D700816080932F
:102EB000D70080EA8093D80089B5806189BD89B543
:102EC000826089BD09B400FEFDCF61E070E080E062
:102ED00090E00E9466168091D8008F7C806180937C
:102EE000D8008091E000807F8093E0008091E10035
:102EF0008E7E8093E1008DE08093E200559A209AC7
:102F00003F9A269A259A47982E982D981092E1017B
:102F10001092E00180E090E00E94B5118091E00104
:102F20009091E1010E94B51180E090E00E940205BD
:102F300068EE73E080E090E00E9466168FEF9FEFEE
:102F40009093B3028093B202C5EFD1E083E39EE099
:102F50009093FE018093FD018EE99FE09093000223
:102F60008093FF0193E09093F80110920202109277
:102F70000102E0911902F0911A0282E08083E0914F
:102F80001502F09116021082E0911702F0911802DA
:102F900080E1808310922102E0911D02F0911E02D7
:102FA0008EE08083E0911B02F0911C0280818061A1
:102FB0008083E0911B02F0911C02808188608083F5
:102FC000E0911B02F0911C02808180688083E09177
:102FD0001B02F0911C0280818F7D808302EE11E044
:102FE0002BE23EE03093EB012093EA0127E23EE042
:102FF0003093ED012093EC019093E5011092EF01E5
:103000001092EE0181E090E00E940205D093080347
:10301000C0930703D0930A03C093090388E392E0A7
:103020009F938F931F930F930E945D1A84B1817FAA
:1030300084B984B1866084B982E090E00E94020580
:1030400083E090E00E9402051092F4011092F301D7
:1030500080917A00876080937A0080917C00806400
:1030600080937C0080917A00806880937A0080E26F
:1030700080937E0010927D0084E090E00E94020523
:103080000F900F900F900F90C2E3D0E09BED692E50
:103090009EE2792E22E3822E912CA12CC12C00E4F9
:1030A000D02E0CE9E02E07E4F02E01E020E040E015
:1030B00050E061E070E080E00E949701C301019759
:1030C000F1F7CE01B4010E946822660F771F81E0FC
:1030D00090E002C0880F991F6A95E2F70E94EA11FA
:1030E0002197D9F6C2E3D0E0ABED4A2EAEE25A2EDC
:1030F000BEEC6B2E77247A9488248394912CA12C97
:10310000C12CE0E4DE2EECE9EE2EE7E4FE2E01E039
:1031100020E040E050E06FEF7FEF80E00E949701F9
:10312000C2010197F1F7CE01B3010E9468226C5FE2
:103130007F4F660F771FC40102C0880F991F6A95E1
:10314000E2F70E94EA112197D1F60E94A105C82F4B
:1031500083E10E94D315019709F50E94A1058130F2
:10316000B9F383E10E94D315019719F48AEA92E03A
:1031700002C085E591E00E94EA116CE271E080E016
:1031800090E00E94661680E090E00E94EA116CE2F6
:1031900071E080E090E00E946616DFCF80E00E9440
:1031A000AF04C23009F0DBC080E090E00E94EA1179
:1031B00068EC70E080E090E00E9466168AEA92E097
:1031C0000E94EA1160EB74E080E090E00E946616D5
:1031D00080E090E00E94EA1168E572E080E090E013
:1031E0000E94661611E0C0E0D0E072E0872E912CBC
:1031F00080E091E00E94EA1161E070E080E090E000
:103200000E94661680E092E00E94EA1161E070E0A0
:1032100080E090E00E946616CE01880F991F94010D
:1032200002C0220F331F8A95E2F7C9010E94EA11FA
:1032300061E070E080E090E00E9466160E94A105C7
:10324000823049F0843009F449C0813089F62097F2
:1032500079F2219748C0C230D105E9F144F4C13078
:10326000D10531F604E010E0C2E0D0E008C0C33080
:10327000D10509F4A5C0C430D105E1F1B9CF0E9450
:10328000950C0E94A1058230D1F780910E0190919A
:103290000F019801281B390BC901880F991F9E0146
:1032A00002C0220F331F8A95E2F7C9010E94EA117A
:1032B00064EF71E080E090E00E9466160E94A10534
:1032C0008230E9F684E090E00E94350580E090E0ED
:1032D0000E9435050FC011118BCF0CC0C430D10531
:1032E0000CF086CF219660E273E080E090E00E94CF
:1032F00066167ECF80E090E00E94EA1160E971E0FE
:1033000080E090E00E9466168AEA92E00E94EA114C
:1033100060E971E080E090E00E94661680E090E055
:103320000E94EA1160E971E080E090E00E94661678
:1033300080E090E00E94EA1180910E0190910F01CF
:1033400024E030E0281B390B220F331F81E090E08E
:1033500002C0880F991F2A95E2F70E94EA11C4E083
:10336000D0E002E010E082EE91E00E9460078091E0
:10337000F001811122C00E94950C0E94A1058230AB
:10338000E1F480910E0190910F0185309105ACF42C
:103390009E01281B390BC901880F991F980102C093
:1033A000220F331F8A95E2F7C9010E94EA110E9499
:1033B000A105823011F40E9493060E94DE0DD3CF46
:1033C00010E016CFE9E0F2E01382128288EE93E07B
:1033D000A0E0B0E084839583A683B7832DE231E03B
:1033E000318320832DEC30E0358724872CEC30E0CE
:1033F0003787268728EC30E0318B208B29EC30E0B2
:10340000338B228B2AEC30E0358B248B2EEC30E092
:10341000378B268B118E128E138E148EE6EAF2E015
:103420001382128284839583A683B7838FE391E00E
:10343000918380838FEF9FEF958784870895CF9343
:10344000DF93EC012B8120FF33C026FF0AC02F7BC6
:103450002B838E819F8101969F838E838A8190E04A
:1034600029C022FF0FC0E881F9818081082E000C5D
:10347000990B009719F420622B831AC03196F983B7
:10348000E8830EC0EA85FB85099597FF09C02B816B
:10349000019611F080E201C080E1822B8B8308C08D
:1034A0002E813F812F5F3F4F3F832E83992702C09C
:1034B0008FEF9FEFDF91CF910895A0E0B0E0E3E6BA
:1034C000FAE10C940D200F811885F8018381886042
:1034D0008383AE01455F5F4F69857A85C8010E948D
:1034E000911AF8012381277F2383E4E00C9429209B
:1034F000AEE0B0E0EEE7FAE10C940F208DE08C83B3
:103500008B899C899A838983AE01495E5F4F6D895F
:103510007E89CE0101960E940E1E2E96E2E00C944A
:103520002B20ABE0B0E0E7E9FAE10C94FF1F6C015F
:103530007B018A01FC0117821682838181FFCCC145
:10354000CE0101963C01F6019381F70193FD85912F
:1035500093FF81917F01882309F4BAC1853239F440
:1035600093FD859193FF81917F01853229F4B60106
:1035700090E00E94491FE7CF912C212C312CFFE1D4
:10358000F315D8F08B3279F038F4803279F0833249
:10359000A1F4232D20611DC08D3261F0803369F4C8
:1035A000232D216016C0832D8260382EE32DE46028
:1035B0003E2E2AC0F32DF8601DC037FC2DC020ED33
:1035C000280F2A3040F08E32B9F436FC81C1232D09
:1035D0002064322E19C036FE06C08AE0989E200D67
:1035E0001124922E11C0EAE02E9E200D1124222ECD
:1035F000F32DF0623F2E08C08C3621F4832D8068B5
:10360000382E02C0883641F4F70193FD859193FF6F
:1036100081917F018111B3CF982F9F7D9554933075
:1036200028F40C5F1F4F9FE399830DC0833631F060
:10363000833771F0833509F059C021C0F8018081CA
:1036400089830E5F1F4F88248394912C530113C0EC
:103650002801F2E04F0E511CF801A080B18036FE27
:1036600003C0692D70E002C06FEF7FEFC5010E94BB
:103670003E1F4C018201F32DFF773F2E16C028011B
:1036800022E0420E511CF801A080B18036FE03C03A
:10369000692D70E002C06FEF7FEFC5010E94331FFC
:1036A0004C01F32DF0683F2E820133FC1BC0822DAC
:1036B00090E088169906B0F4B60180E290E00E948E
:1036C000491F2A94F4CFF50137FC859137FE81918B
:1036D0005F01B60190E00E94491F21102A9421E069
:1036E000821A91088114910471F7E8C0843611F0B0
:1036F000893641F5F80137FE07C06081718182810A
:1037000093810C5F1F4F08C060817181072E000CF0
:10371000880B990B0E5F1F4FF32DFF763F2E97FFFF
:1037200009C090958095709561957F4F8F4F9F4F01
:10373000F0683F2E2AE030E0A3010E949E1F882EF1
:10374000861845C0853731F4232D2F7EB22E2AE00E
:1037500030E025C0932D997FB92E8F36C1F018F433
:10376000883579F0B5C0803719F0883721F0B0C0BE
:10377000E92FE061BE2EB4FE0DC0FB2DF460BF2E1C
:1037800009C034FE0AC0292F2660B22E06C028E0E8
:1037900030E005C020E130E002C020E132E0F80175
:1037A000B7FE07C060817181828193810C5F1F4FDA
:1037B00006C06081718180E090E00E5F1F4FA30121
:1037C0000E949E1F882E8618FB2DFF773F2E36FE07
:1037D0000DC0232D2E7FA22E891458F434FE0BC069
:1037E00032FC09C0832D8E7EA82E05C0B82CA32CD8
:1037F00003C0B82C01C0B92CA4FE0FC0FE01E80D17
:10380000F11D8081803321F49A2D997EA92E09C063
:10381000A2FE06C0B394B39404C08A2D867809F042
:10382000B394A3FC11C0A0FE06C0B21488F4280C07
:10383000922C9B180EC0B21460F4B60180E290E0A6
:103840000E94491FB394F7CFB21418F42B1802C08A
:10385000982C212CA4FE10C0B60180E390E00E94B9
:10386000491FA2FE17C0A1FC03C088E790E002C078
:1038700088E590E0B6010CC08A2D867859F0A1FE4B
:1038800002C08BE201C080E2A7FC8DE2B60190E0AD
:103890000E94491F891438F4B60180E390E00E9429
:1038A000491F9A94F7CF8A94F301E80DF11D8081A6
:1038B000B60190E00E94491F8110F5CF222009F443
:1038C00042CEB60180E290E00E94491F2A94F6CFD2
:1038D000F6018681978102C08FEF9FEF2B96E2E180
:1038E0000C941B2020FD09C0FC0123FD05C022FF14
:1038F00002C07383628351834083089544FD17C0DF
:1039000046FD17C0AB01BC01DA01FB01AA0FBB1FCA
:10391000EE1FFF1F1094D1F74A0F5B1F6E1F7F1F12
:10392000CB01BA01660F771F881F991F09C033E0CA
:1039300001C034E0660F771F881F991F3150D1F7FF
:10394000620F711D811D911D08950F931F93CF93D9
:10395000DF938C01C8010E941F1AEC0197FD08C07B
:103960000E941F1F892BB1F7B801CE010E94851F4D
:10397000CE01DF91CF911F910F9108958F929F9269
:10398000AF92BF92EF92FF920F931F93CF93DF936B
:103990008C01D62F7A01B22E0E941F1A9C01332768
:1039A0002B32310531F02D32310561F48B2D8068D9
:1039B000B82ED15011F480E068C0C8010E941F1ACF
:1039C00097FDF9CFCB2DCD7F2B2D207309F58033BB
:1039D000F9F4AA24AA94AD0E09F443C0C8010E94C8
:1039E0001F1A97FD3EC09C012F7D332728353105D6
:1039F00049F4C264D250A9F1C8010E941F1A97FF6E
:103A000007C02FC0B6FE02C0C26001C0C261DA2D7D
:103A1000812C912C540120ED280F283080F0C4FF18
:103A200004C0B8010E94851F19C02A3040F0C6FFAB
:103A3000F8CF2F7D3FEE320F363098F727504C2FBE
:103A4000C501B4010E947E1C4B015C01C260D150D3
:103A500059F0C8010E941F1A97FFDDCFC1FD04C0B5
:103A6000AACF812C912C5401C7FF08C0B094A09418
:103A700090948094811C911CA11CB11C2C2FB50129
:103A8000A401C7010E94721C81E0DF91CF911F91B8
:103A90000F91FF90EF90BF90AF909F908F900895FF
:103AA000A0E2B0E0E6E5FDE10C9402205C01962E78
:103AB0007A01F9018E010F5F1F4F680180E2D80182
:103AC0001D928A95E9F7D50113968C9080E090E0DD
:103AD000612C712C30E061E070E083FC259183FE65
:103AE00021918F01522E211103C080E090E092C0FD
:103AF0002E3511F4009751F1432F50E04817590724
:103B00003CF42D3559F12D3219F4772009F103C019
:103B1000772009F46AC0452D469546954695D6010D
:103B2000A40FB11D452D47708B0102C0000F111F5E
:103B30004A95E2F7A8015C91452B4C93651459F026
:103B4000561410F45394E7CF5A94E5CF31E004C0F3
:103B50007724739401C0712C0196BFCF772019F0A0
:103B60008E8180628E83311103C08824839417C0B4
:103B7000F6019E012F5D3F4F8081809581932E1726
:103B80003F07D1F7F2CFE114F10429F0D7018C936C
:103B9000F70131967F019A94812C9920F9F0C501A3
:103BA0000E941F1A97FD18C0FC01FF2723E0F5951E
:103BB000E7952A95E1F7EC0DFD1D208130E0AC0181
:103BC0004770552702C0359527954A95E2F720FDA5
:103BD000DACFB5010E94851F811087CFE114F1046F
:103BE00011F0D7011C92C80115C0422F4695469589
:103BF0004695D601A40FB11D422F47708B0102C01C
:103C0000000F111F4A95E2F7A8015C91452B4C93D8
:103C1000622EA2CFA096EFE00C941E20A0E0B0E0B0
:103C2000E4E1FEE10C9402206C01EB015A01FC017D
:103C300017821682512CF601E380FE01E3FC859188
:103C4000E3FE8191182FEF01882309F4EEC090E084
:103C50000E941F1F892B21F0C6010E94A51CEBCFDB
:103C6000153241F4FE01E3FC1591E3FE1191EF01E1
:103C7000153281F4C6010E941F1A97FDD4C0412F4E
:103C800050E09C01332724173507A9F2B6010E94A2
:103C9000851FCBC01A3239F4E3FC1591E3FE119174
:103CA000EF0101E001C000E0F12C20ED210F2A30EE
:103CB00080F402606F2D70E080E090E040E20E94AE
:103CC0007E1CF62EFE01E3FC1591E3FE1191EF013F
:103CD000ECCF01FF03C0F11003C0A7C0FF24FA948A
:103CE000183619F01C3651F010C0FE01E3FC159196
:103CF000E3FE1191EF01183641F408600460FE0103
:103D0000E3FC1591E3FE1191EF01112309F48DC03D
:103D1000612F70E08AEC90E00E94281F892B09F443
:103D200084C000FD07C0F50180809180C501029626
:103D30005C0102C0812C912C1E3651F4F6014681A3
:103D4000578160E070E0202FC4010E94721C73CF85
:103D50001336A9F401FD02C0FF24F394C6010E94AA
:103D60001F1A97FD60C08114910429F0F40180832B
:103D7000C40101964C01FA94F110F0CF50C01B35EC
:103D800059F49E01A4016F2DC6010E94501DEC0143
:103D9000892B09F044C03EC0C6010E94A51C97FDB6
:103DA00042C01F3661F128F4143639F1193651F149
:103DB00028C0133771F0153701F123C08114910425
:103DC00029F0F4016082C40101964C01FA94FF20AD
:103DD00071F0C6010E941F1A3C0197FD08C00E94A5
:103DE0001F1F892B59F3B601C3010E94851F81143F
:103DF0009104A9F0F401108212C0006203C00061B6
:103E000001C00064202FA4016F2DC6010E94BE1CBA
:103E1000811105C0F6018381807329F406C000FD7D
:103E20000ACF539408CF552019F0852D90E002C099
:103E30008FEF9FEFCDB7DEB7EFE00C941E2091110E
:103E40000C94FC1F803219F089508550C8F70895F2
:103E5000FC010590061621F00020D9F7C001089555
:103E60003197CF010895FC01059061507040011019
:103E7000D8F7809590958E0F9F1F0895FC01615093
:103E8000704001900110D8F7809590958E0F9F1F7C
:103E900008950F931F93CF93DF93FB01238121FD9F
:103EA00003C08FEF9FEF2CC022FF16C046815781C1
:103EB000248135814217530744F4A081B1819D01CB
:103EC0002F5F3F4F318320838C93268137812F5F73
:103ED0003F4F3783268314C08B01EC01FB01008424
:103EE000F185E02D0995892BE1F6D80116968D9183
:103EF0009C911797019617969C938E931697CE01D7
:103F0000DF91CF911F910F910895FB01238120FF35
:103F100012C026FD10C08F3F3FEF930761F08283F0
:103F20002F7D2064238326813781215031093783F7
:103F30002683992708958FEF9FEF0895FA01AA2706
:103F4000283051F1203181F1E8946F936E7F6E5FDC
:103F50007F4F8F4F9F4FAF4FB1E03ED0B4E03CD08A
:103F6000670F781F891F9A1FA11D680F791F8A1F6D
:103F7000911DA11D6A0F711D811D911DA11D20D0D4
:103F800009F468943F912AE0269F11243019305D8E
:103F90003193DEF6CF010895462F4770405D41937F
:103FA000B3E00FD0C9F7F6CF462F4F70405D4A33CC
:103FB00018F0495D31FD4052419302D0A9F7EACF94
:103FC000B4E0A6959795879577956795BA95C9F7C3
:103FD00000976105710508959B01AC010A2E0694B6
:103FE0005795479537952795BA95C9F7620F731F6F
:103FF000841F951FA01D08959927882708952F9243
:104000003F924F925F926F927F928F929F92AF9268
:10401000BF92CF92DF92EF92FF920F931F93CF93B5
:10402000DF93CDB7DEB7CA1BDB0B0FB6F894DEBF4C
:104030000FBECDBF09942A88398848885F846E8472
:104040007D848C849B84AA84B984C884DF80EE80BC
:10405000FD800C811B81AA81B981CE0FD11D0FB6C5
:10406000F894DEBF0FBECDBFED0108955058BB27B9
:10407000AA270E944E200C94C1210E94B32138F03F
:104080000E94BA2120F039F49F3F19F426F40C94D1
:10409000B0210EF4E095E7FB0C94AA21E92F0E94D1
:1040A000D22158F3BA17620773078407950720F0E7
:1040B00079F4A6F50C94F4210EF4E0950B2EBA2FAA
:1040C000A02D0B01B90190010C01CA01A00111241E
:1040D000FF27591B99F0593F50F4503E68F11A16CA
:1040E000F040A22F232F342F4427585FF3CF46955B
:1040F00037952795A795F0405395C9F77EF41F167D
:10410000BA0B620B730B840BBAF09150A1F0FF0F46
:10411000BB1F661F771F881FC2F70EC0BA0F621F32
:10412000731F841F48F4879577956795B795F79522
:104130009E3F08F0B0CF9395880F08F09927EE0FB7
:104140009795879508950E94862108F481E0089547
:104150000E94BC200C94C1210E94BA2158F00E94F8
:10416000B32140F029F45F3F29F00C94AA215111AA
:104170000C94F5210C94B0210E94D22168F399236C
:10418000B1F3552391F3951B550BBB27AA27621753
:104190007307840738F09F5F5F4F220F331F441F60
:1041A000AA1FA9F335D00E2E3AF0E0E832D0915094
:1041B0005040E695001CCAF72BD0FE2F29D0660F81
:1041C000771F881FBB1F261737074807AB07B0E8C4
:1041D00009F0BB0B802DBF01FF2793585F4F3AF0CA
:1041E0009E3F510578F00C94AA210C94F5215F3F75
:1041F000E4F3983ED4F3869577956795B795F79550
:104200009F5FC9F7880F911D9695879597F9089537
:10421000E1E0660F771F881FBB1F621773078407D3
:10422000BA0720F0621B730B840BBA0BEE1F88F7E2
:10423000E09508950E94DA2188F09F5798F0B92FF1
:104240009927B751B0F0E1F0660F771F881F991FCB
:104250001AF0BA95C9F714C0B13091F00E94F42158
:10426000B1E008950C94F421672F782F8827B85F68
:1042700039F0B93FCCF3869577956795B395D9F723
:104280003EF490958095709561957F4F8F4F9F4F2D
:104290000895E89409C097FB3EF490958095709539
:1042A00061957F4F8F4F9F4F9923A9F0F92F96E982
:1042B000BB279395F695879577956795B795F111F7
:1042C000F8CFFAF4BB0F11F460FF1BC06F5F7F4F94
:1042D0008F4F9F4F16C0882311F096E911C07723A6
:1042E00021F09EE8872F762F05C0662371F096E8AF
:1042F000862F70E060E02AF09A95660F771F881F7E
:10430000DAF7880F9695879597F90895990F000821
:10431000550FAA0BE0E8FEEF16161706E807F90797
:10432000C0F012161306E407F50798F0621B730B32
:10433000840B950B39F40A2661F0232B242B252BB3
:1043400021F408950A2609F4A140A6958FEF811D56
:10435000811D089597F99F6780E870E060E00895F7
:104360009FEF80EC089500240A941616170618068D
:104370000906089500240A94121613061406050669
:104380000895092E0394000C11F4882352F0BB0FFA
:1043900040F4BF2B11F460FF04C06F5F7F4F8F4F5D
:1043A0009F4F089557FD9058440F551F59F05F3F98
:1043B00071F04795880F97FB991F61F09F3F79F047
:1043C00087950895121613061406551FF2CF4695C9
:1043D000F1DF08C0161617061806991FF1CF86954B
:1043E0007105610508940895E894BB27662777272F
:1043F000CB0197F908950E940E220C94C1210E94CE
:10440000B32138F00E94BA2120F0952311F00C94CA
:10441000AA210C94B02111240C94F5210E94D221E0
:1044200070F3959FC1F3950F50E0551F629FF00107
:10443000729FBB27F00DB11D639FAA27F00DB11D20
:10444000AA1F649F6627B00DA11D661F829F2227A9
:10445000B00DA11D621F739FB00DA11D621F839F30
:10446000A00D611D221F749F3327A00D611D231F06
:10447000849F600D211D822F762F6A2F11249F5754
:1044800050409AF0F1F088234AF0EE0FFF1FBB1F57
:10449000661F771F881F91505040A9F79E3F510516
:1044A00080F00C94AA210C94F5215F3FE4F3983E30
:1044B000D4F3869577956795B795F795E7959F5FC0
:1044C000C1F7FE2B880F911D9695879597F9089552
:1044D00097FB072E16F4009407D077FD09D00E94B1
:1044E000822207FC05D03EF4909581959F4F089558
:1044F000709561957F4F0895EE0FFF1F0590F49121
:10450000E02D0994AA1BBB1B51E107C0AA1FBB1FCA
:10451000A617B70710F0A61BB70B881F991F5A954F
:10452000A9F780959095BC01CD01089581E090E0B8
:10453000F8940C94B522FB0151915523A9F0BF01C9
:10454000DC014D9145174111E1F759F4CD0101907E
:10455000002049F04D9140154111C9F3FB01411173
:0E456000EFCF81E090E001970895F894FFCF2F
:10456E00FFFFFFFFFFFF00E1000000000000FFFF64
:10457E00011E2323010A1601071001231C0509063B
:10458E0000C18081000000E20100000000700DDE1D
:10459E000C080DBC0D390D170D2B0D00000000E899
:1045AE000DD20E580FFE0D090E800F5C0F45450003
:1045BE005430005431005432005433005434004C03
:1045CE0030004C31004C32004C33004C3400433040
:1045DE00005530004530004531004532004533006E
:0A45EE00453400523000465300002F
:00000001FF
