; device = mm-control
:100000000C9454010C947C010C947C010C947C01A4
:100010000C947C010C947C010C947C010C947C016C
:100020000C947C010C947C010C94F9110C946B12CF
:100030000C947C010C947C010C947C010C947C014C
:100040000C947C010C947C010C947C010C947C013C
:100050000C947C010C947C010C947C010C94101683
:100060000C947C010C94630F0C943D0F0C947C0158
:100070000C947C010C947C010C947C010C947C010C
:100080000C947C010C947C010C947C010C947C01FC
:100090000C947C010C947C010C947C010C947C01EC
:1000A0000C947C010C947C010C947C01A015A3158C
:1000B000921596159A15C415C415C415A715AB1538
:1000C000AF15B515B915C415BF156364696E6F70AA
:1000D000737578585B00070605040100080A0B0CCD
:1000E0000D096F6B0A006F6B0A00522564006F6B7D
:1000F0000A00452564006F6B0A006F6B0A004325F8
:1001000064006F6B0A004625642025640025646F37
:100110006B0A0025646F6B0A006F6B0A005325643D
:1001200000582564006F6B0A00552564006F6B0A48
:10013000004D2564006F6B0A004C2564006F6B0A4C
:1001400000666C0A006F6B0A005425640046530A6F
:100150000052300A0045340A0045330A0045320A8D
:100160000045310A0045300A0055300A0043300A84
:10017000004C340A004C330A004C320A004C310A5D
:10018000004C300A0054340A0054330A0054320A36
:100190000054310A0054300A0025646F6B0A005085
:1001A000256400080B00020202010009040000019E
:1001B00002020000052400100105240101010424AD
:1001C000020605240600010705810310004009040A
:1001D0000100020A000000070502024000000705B6
:1001E00083024000000403090412010002EF02012F
:1001F00040992C0400000101020301556E6B6E6FE3
:10020000776E004F726967696E616C20507275730A
:1002100061206933204D4B33204D756C7469204D3E
:100220006174657269616C20322E3020757067725E
:100230006164650073746172740A00000000002339
:1002400000260029002C002F0004040404040304E9
:100250000502020202040302020202060606060664
:100260000604040202020404040802011040804053
:1002700010204080408008020401804020100201CC
:10028000108010204040200000000200090F0000F4
:10029000030401000C00000000000000000000004A
:1002A000000000000000521911241FBECFEFDAE059
:1002B000DEBFCDBF23E0AAE8B1E001C01D92AF30A0
:1002C000B207E1F711E0A0E0B1E0EEE4F4E402C02F
:1002D00005900D92AA38B107D9F711E0C4E5D1E035
:1002E00004C02197FE010E94EC21C335D107C9F754
:1002F0000E945A160C9425220C9400009091DB0168
:10030000992349F0882381F089ED90E00E9403153C
:100310001092DB010895811107C087E29FEF0E94D0
:10032000031581E08093DB010895CF93DF93880F5D
:10033000991FC1E0D0E002C0CC0FDD1F8A95E2F723
:10034000CE010E944C1168E270E080E090E00E94D3
:10035000D61580E090E00E944C1164E170E080E0EE
:1003600090E00E94D615CE010E944C1168E270E028
:1003700080E090E00E94D61580E090E00E944C1151
:100380006AE070E080E090E0DF91CF910C94D615A8
:10039000E8EDF0E0E49120917B00E3FB882780F911
:1003A00090E035E0880F991F3A95E1F7922F9F7DF5
:1003B000892B80937B00E770E064E0937C00809160
:1003C0007A00806480937A0080917A0086FDFCCF69
:1003D000809178002091790090E0922B82339105F2
:1003E00064F09C01215531092331310540F0815AD7
:1003F0009109439730F080E0089581E0089582E00C
:10040000089584E00895EF92FF920F931F93CF9386
:10041000DF9380E00E947E016091100181E00E94E4
:100420005A106091100182E00E945A10C4E0D0E09E
:1004300001E010E042E0E42EF12C0E94C80182307D
:1004400021F40E946011882371F164E670E080E07D
:1004500090E00E94D61580E090E00E944C1164E686
:1004600070E080E090E00E94D6150E94601120911B
:100470000E0130910F01882339F0CE01821B930BBE
:10048000880F991F970106C0CE01821B930B880F1E
:10049000991F980102C0220F331F8A95E2F7C90104
:1004A0000E944C11CACF6091100181E00E9463103C
:1004B0006091100182E00E94631081E0DF91CF9192
:1004C0001F910F91FF90EF900C94CE042F923F92CA
:1004D0004F925F926F927F928F929F92AF92BF9254
:1004E000CF92DF92EF92FF920F931F93CF93DF9300
:1004F000CDB7DEB761970FB6F894DEBF0FBECDBFA4
:1005000089833B01298B902EC886D986EA86FB8693
:10051000AC86AA2019F062E0262E01C0212C312CD5
:1005200080911001823009F4912CBA01550F880B8B
:10053000990B0E94BB206D877E878F87988B89815E
:10054000813089F118F0823001F140C077FE0AC095
:10055000CC24DD24C618D7080E94021181600E94B5
:10056000351106C00E9402118E7F0E943511630171
:10057000882029F00E9402118B7F0E943511609122
:10058000100180E00E94631023C077FE08C0CC24D5
:10059000DD24C618D7080E9402118B7F0DC00E946F
:1005A000021184600FC077FE0AC0CC24DD24C61877
:1005B000D7080E9402118D7F0E94351109C00E9448
:1005C000021182600E943511630102C0C12CD12C3E
:1005D000412C512CA12CB12C1B821A8210E0F12C41
:1005E00008E483E4E82EC114D10409F4BBC0998166
:1005F000913021F118F09230D9F02AC02C9A2C9821
:100600008AEDC816D10424F4882011F05E9A5E9811
:10061000992009F4AEC085E10E947615019709F092
:10062000A8C062E370E080E090E00E94D615BBC0F5
:100630005E9A5E98992061F087E105C05C9A5C98AB
:10064000992031F086E10E947615019709F49FC048
:100650009FEFA91AB90A81E0C81AD108212F3F2DAE
:10066000402F5E2D60E070E080E89FE30E9418203C
:100670006C837D838E839F8320E034E244E759E4DA
:100680000E946B210E948A206230710548F0660F3B
:10069000771F660F771F65507109CB010197F1F73E
:1006A00091E049165104C9F1288539854A855B8551
:1006B00082E048165104D9F16C817D818E819F8141
:1006C0000E946B219B01AC01612F7F2D802F9E2DFD
:1006D0000E94A71F162FF72E082FE92E262F372F3F
:1006E000482F592F6D857E858F8598890E9413200C
:1006F000181654F0BB82AA821D85FE840F85E888F7
:1007000044244394512C6FCFCA14DB041CF0412CB9
:10071000512C69CFBB82AA8206C08A819B818C152D
:100720009D050CF460CF92E0492E512C5CCF6C817A
:100730007D818E819F810E946B219B01AC01612F85
:100740007F2D802F9E2D0E94A61F162FF72E082F7B
:10075000E92E20E030E048E453E40E94132087FFB4
:1007600042CF3CCF882019F081E08093DB01C101AA
:1007700024C09C85992309F46BCF16141704B4F494
:100780000E946011882309F463CF80E00DC062E30A
:1007900070E080E090E00E94D6158989882319F0E6
:1007A0000E94030255CF82E090E007C077FE50CF51
:1007B0000E94601181114CCFE8CF61960FB6F8947A
:1007C000DEBF0FBECDBFDF91CF911F910F91FF9084
:1007D000EF90DF90CF90BF90AF909F908F907F90E1
:1007E0006F905F904F903F902F9008958F92AF92AF
:1007F000CF92DF92EF92FF920F93AB01812CA12C4D
:10080000C12C20E4D22E2CE9E22E27E4F22E01E0C6
:1008100020E0BC0180E00E9466020F91FF90EF9003
:10082000DF90CF90AF908F9008958F92AF92CF923C
:10083000DF92EF92FF920F931F93CF93DF93EC0120
:100840008B0162E370E080E090E00E94D6157E01AB
:10085000E01AF10A0530110529F4C530D10509F077
:100860008EC00DC0C530D10551F023E631E0E29EC7
:10087000C001E39E900DF29E900D11240DC024E066
:1008800030E0201B310B43E651E0249FC001259F3F
:10089000900D349F900D11240E940315101611061F
:1008A000F4F424E43DEFE29EC001E39E900DF29E3D
:1008B000900D11240530110511F48A569F4F25978C
:1008C00011F486599109DF91CF911F910F91FF90FB
:1008D000EF90DF90CF90AF908F900C94CE14812C3E
:1008E000A12CC12C20E4D22E2CE9E22E27E4F22EFA
:1008F00001E020E040ED57E064E670E081E00E9416
:100900006602C2E0D0E0812CA12CC12C90E4D92E4B
:100910009CE9E92E97E4F92E01E020E040ED57E054
:1009200060E670EF81E00E946602C230D10541F4BA
:1009300020E040ED57E064E670E081E00E9466024E
:10094000219709F7812CA12CC12C80E4D82E8CE9A9
:10095000E82E87E4F82E01E020E040ED57E061E268
:1009600070E081E00E946602DF91CF911F910F91AC
:10097000FF90EF90DF90CF90AF908F90089523E697
:1009800031E0CE010497AC01429FC001439F900D1E
:10099000529F900D11240E94031583CF8F92AF9226
:1009A000BF92CF92DF92EF92FF920F931F93CF935C
:1009B000DF93B82E80E00E94CF101091DB01C2E0DF
:1009C000D0E0812CA12CC12C40E4D42E4CE9E42EA3
:1009D00047E4F42E01E020E048EB5BE060ED77E0D7
:1009E00082E00E946602C230D10541F420E048EB6B
:1009F0005BE062EA7EEF82E00E946602219709F7DF
:100A0000812CA12CC12C30E4D32E3CE9E32E37E419
:100A1000F32E01E020E048EB5BE066E77FEF82E049
:100A20000E946602C2E0D0E0812CA12CC12C20E4FF
:100A3000D22E2CE9E22E27E4F22E01E020E040ED58
:100A400057E060EA7FE081E00E946602C230D10593
:100A500041F420E040ED57E064ED7EEF81E00E943C
:100A60006602219709F7812CA12CC12C80E4D82E95
:100A70008CE9E82E87E4F82E01E020E040E45FE115
:100A80006CE871EF81E00E946602809110010E9483
:100A9000CF1085E591E00E944C111092DB0162E3DA
:100AA00070E080E090E00E94D61580E00E947E0118
:100AB00080E090E00E944C111092DA0180910E01CA
:100AC00090910F0124E030E0281B390B220F331FD7
:100AD00081E090E002C0880F991F2A95E2F70E94FA
:100AE0004C1181E08093D901BB2081F060910E010F
:100AF00070910F0180E090E00E941504812F0E9408
:100B00007E011092D8011092D70104C010920F01FB
:100B100010920E01DF91CF911F910F91FF90EF90F6
:100B2000DF90CF90BF90AF908F9008950F931F9359
:100B3000CF93DF938C010E94601181114DC0C09151
:100B40000E01D0910F0110930F0100930E018091BF
:100B5000D901811102C00E94CE0480910E019091B2
:100B60000F0124E030E0281B390B220F331F82E0F5
:100B700090E002C0880F991F2A95E2F70E944C115D
:100B800060910E0170910F01C617D70729F4C0912B
:100B9000DA0181E0C82707C0CE010E94150480E079
:100BA0000E947E01C1E080E090E00E944C118091A3
:100BB0000E0190910F0124E030E0281B390B220F29
:100BC000331F81E090E002C0880F991F2A95E2F759
:100BD0000E944C118C2F01C080E0DF91CF911F91BA
:100BE0000F9108958F92AF92CF92DF92EF92FF9282
:100BF0000F93CF93DF9381E00E947E01C3E0D0E0AA
:100C0000812CAA24A394C12C90E4D92E9CE9E92E2E
:100C100097E4F92E01E020E04AE852E060EA7FE044
:100C200080E00E946602892BF9F4A12C00E020E00C
:100C30004AE852E068EA7DEF80E00E946602809117
:100C40000E0190910F0124E030E0281B390B220F98
:100C5000331F81E090E002C0880F991F2A95E2F7C8
:100C60000E944C11C1E009C0219731F00E9403029B
:100C700081E00E947E01C4CFC0E06091100180E05D
:100C80000E945A1080E00E947E018C2FDF91CF914C
:100C90000F91FF90EF90DF90CF90AF908F900895DD
:100CA0008F92AF92CF92DF92EF92FF920F9360916B
:100CB000100180E00E9463106091100182E00E94A8
:100CC000631081E00E947E01812CA12CC12C90E454
:100CD000D92E9CE9E92E97E4F92E00E020E042ECC1
:100CE00051E060E77EEF80E00E946602AA24A394B0
:100CF000C12C20E8D22E2BEBE22E24E4F22E20E0B1
:100D000040E659E064E07EED80E00E946602892BB7
:100D100061F5A12CC12C80E4D82E8CE9E82E87E463
:100D2000F82E20E046E252E06EEC7FEF80E00E9479
:100D30006602AA24A39420E046E252E068E572E04D
:100D400080E00E946602A12C20E046E252E068EAC0
:100D50007DEF80E00E94660264E670E080E090E053
:100D60000E94D6150E94601181110E940302109208
:100D7000DA016091100180E00E945A1080E00E9428
:100D80007E0181E00F91FF90EF90DF90CF90AF90C8
:100D90008F9008956F927F928F929F92AF92BF92A1
:100DA000CF92DF92EF92FF920F931F93CF93DF9337
:100DB00000D000D0CDB7DEB7182FB92E8091D50165
:100DC0009091D6018097F4F4812F9B2D0E948F196A
:100DD00097FD1EC08D30910519F08A30910511F4F0
:100DE00080E090E02091D5013091D601A9014F5FBC
:100DF0005F4F5093D6014093D501F901EB54FE4F5C
:100E0000808306C01092D6011092D5018FEF9FEF1C
:100E10001A8219821C821B822091D5013091D60141
:100E2000121613060CF0CEC4892B09F0CBC46DE466
:100E300071E085EB91E00E940B22892B61F0E5E9DE
:100E4000F1E0A5EBB1E085EB91E021912D938E17B8
:100E50009F07D9F70FC1CE0101969F938F938FE91A
:100E600091E09F938F9385EB91E09F938F930E94E6
:100E7000E8190F900F900F900F900F900F90181689
:100E80001906C4F489819A81892B09F0F3C00E9464
:100E900060111F928F9389E991E09F938F93BF9286
:100EA0001F930E94CD190F900F900F900F900F90ED
:100EB0000F90E0C0E5EBF1E0A5E9B1E085ED91E050
:100EC00021912D938E179F07D9F71092D60110927A
:100ED000D50160E571E085EB91E00E940B22892B42
:100EE00019F085E991E064C463E571E085EB91E078
:100EF0000E940B22892B19F081E991E059C466E523
:100F000071E085EB91E00E940B22892B19F08DE8AE
:100F100091E04EC469E571E085EB91E00E940B22FF
:100F2000892B19F089E891E043C46CE571E085EB09
:100F300091E00E940B22892B19F085E891E038C4DA
:100F40006FE571E085EB91E00E940B22892B19F08F
:100F500081E891E02DC462E671E085EB91E00E94AA
:100F60000B22892B19F08DE791E022C465E671E030
:100F700085EB91E00E940B22892B19F089E791E023
:100F800017C468E671E085EB91E00E940B22892B83
:100F900019F085E791E00CC46BE671E085EB91E018
:100FA0000E940B22892B19F081E791E001C46EE6C3
:100FB00071E085EB91E00E940B22892B19F08DE600
:100FC00091E0F6C361E771E085EB91E00E940B22AE
:100FD000892B19F089E691E0EBC364E771E085EBBA
:100FE00091E00E940B22892B19F085E691E0E0C385
:100FF00067E771E085EB91E00E940B22892B19F0E5
:1010000081E691E0D5C36AE771E085EB91E00E944B
:101010000B22892B19F08DE591E0CAC36DE771E0D1
:1010200085EB91E00E940B22892B19F089E591E074
:10103000BFC360E871E085EB91E00E940B22892B31
:1010400019F085E591E0B4C363E871E085EB91E0C8
:101050000E940B22892B19F081E591E0A9C366E873
:1010600071E085EB91E00E940B22892B19F08DE451
:1010700091E09EC31092D6011092D5019E012F5F80
:101080003F4F69013F932F9389E491E09F938F93A2
:1010900025EBE22E21E0F22EFF92EF920E94E8195A
:1010A0000F900F900F900F900F900F901816190639
:1010B0000CF059C189809A8035E08316910408F0BC
:1010C00081C380910E0190910F010091DA01881681
:1010D000990641F4002331F081E08093940185E486
:1010E00091E066C3AA24A394A09293011092940164
:1010F000A092F201A4E0EA2EF12C9701281B390BF3
:10110000C901880F991F92E0C92ED12C960102C007
:10111000220F331F8A95E2F7C9010E944C1160909B
:101120000E0170900F017092010160920001909287
:101130000F0180920E018614970489F4011155C0A5
:10114000E818F908EE0CFF1CC60102C0880F991FB1
:10115000EA94E2F70E944C11A092920146C001115C
:101160000E9450068091DA0181113FC08091D70121
:101170009091D801499721F481E00E94CE040BC0E0
:1011800080918C01811107C060910E0170910F0157
:10119000C3010E94150480918A0190918B010196F0
:1011A00090938B0180938A018091D7019091D8010F
:1011B00001969093D8018093D70180910E01909170
:1011C0000F0124E030E0281B390B220F331F82E08F
:1011D00090E002C0880F991F2A95E2F70E944C11F7
:1011E00081E08093920110928C0180E090E00E9457
:1011F0004C1180910E0190910F0124E030E0281BEA
:10120000390B220F331F81E090E002C0880F991F35
:101210002A95E2F70E944C1180919201882309F4EB
:10122000D1C281E491E09F938F93BF921F930E945C
:10123000CD19109291010F900F900F900F9081E0B7
:101240000E947E016091100180E00E946310812C59
:10125000AA24A394C12C60E4D62E6CE9E62E67E4A0
:10126000F62E00E020E04AE852E068EE73E080E00D
:101270000E946602892B99F5A12CC12C50E8D52E2D
:101280005BEBE52E54E4F52E20E048EB5BE060E4F8
:101290007FE180E00E9466028FB7F894C09005025B
:1012A000D0900602E0900702F09008028FBF84EE13
:1012B00091E00E94CA062FB7F894809105029091A0
:1012C0000602A0910702B09108022FBF8C199D0958
:1012D000AE09BF0989389341A105B10518F00E94F4
:1012E0000302ADCF68EB7BE081E090E00E94F60363
:1012F00084EE91E00E94CA06809191018823D9F280
:10130000812CA12CC12C90E4D92E9CE9E92E97E4E4
:10131000F92E00E020E041E851E066E871E080E06D
:101320000E94660280E090E00E944C1180910E01C4
:1013300090910F0124E030E0281B390B220F331F5E
:1013400081E090E002C0880F991F2A95E2F70E9481
:101350004C1181E08093DA01109293011092920176
:101360008DE391E025C2DF92CF9289E391E09F93D4
:101370008F93FF92EF920E94E8190F900F900F90B9
:101380000F900F900F9018161906ECF489819A812E
:101390008530910508F016C22091DA01211112C2A0
:1013A0000E9496056AE070E080E090E00E94D61509
:1013B0000E94F20564E670E080E090E00E94D6159D
:1013C00085E391E0F5C1DF92CF9281E391E09F93B5
:1013D0008F93FF92EF920E94E8190F900F900F9059
:1013E0000F900F900F90181619069CF489819A811E
:1013F000009729F0019709F0E5C182E001C081E082
:1014000080931001809110010E94CF108DE291E035
:10141000CFC1DF92CF9289E291E09F938F93FF92A9
:10142000EF920E94E8190F900F900F900F900F907D
:101430000F9018161906BCF40E94500668EC70E074
:1014400080E090E00E94D61585E291E09F938F9313
:10145000BF921F930E94CD191092F2011092D801F1
:101460001092D701ABC1DF92CF9281E291E09F93BE
:101470008F93FF92EF920E94E8190F900F900F90B8
:101480000F900F900F901816190684F489819A8195
:10149000892B09F097C198E088E10FB6F894A895D8
:1014A000809360000FBE909360008CC1DF92CF925A
:1014B0008DE191E09F938F93FF92EF920E94E81944
:1014C0000F900F900F900F900F900F901816190615
:1014D00034F589819A81009719F489E191E068C116
:1014E0008130910531F41F9286ED8F9383E191E075
:1014F00009C0029709F066C183E08F9387EE8F934E
:101500008DE091E09F938F93BF921F930E94CD191E
:101510000F900F900F900F900F900F9053C166E8AF
:1015200071E085EB91E00E940B22892B21F081E094
:101530008093910147C1CE0103969F938F93DF92D1
:10154000CF9286E091E09F938F93FF92EF920E945B
:10155000E8190FB6F894DEBF0FBECDBF18161906F6
:101560006CF489819A81059708F02CC18B819C814C
:10157000039708F027C182E091E01AC1DF92CF9271
:101580008EEF90E09F938F93FF92EF920E94E81965
:101590000F900F900F900F900F900F901816190644
:1015A0000CF062C089819A81892B09F00BC180916E
:1015B0009401811156C081E00E947E01609110016A
:1015C00080E00E94631061E871E086E990E00E948B
:1015D000F6038091100147E161E0813021F480E061
:1015E0000E94950F03C080E00E94021061E871E044
:1015F0008AEA90E00E94F6038091100147E061E0E2
:10160000813021F480E00E94950F03C080E00E94A9
:10161000021088248394A12CC12C80E4D82E8CE95C
:10162000E82E87E4F82E01E021E047EC51E064EC7D
:1016300071E080E00E946602809110014EE161E05D
:10164000813021F480E00E94950F03C080E00E9469
:1016500002106091100180E00E945A108AEF90E021
:10166000A7C086EF90E0A4C0DF92CF9282EF90E017
:101670009F938F93FF92EF920E94E8190F900F9023
:101680000F900F900F900F90181619060CF04FC086
:10169000E980FA8035E0E316F10408F093C0809108
:1016A000DA0181110E94500681E00E947E01609162
:1016B000100180E00E94631083E0E816F10414F04A
:1016C00090E001C094E080910E01482F491B24E472
:1016D0003DEF42036001439FD00C1124D0928E0154
:1016E000C0928D01282F2E1943E651E02403C0013A
:1016F000259F900D11249093900180938F010E945B
:101700000315C6010E94CE146AE972E084EC99E0E8
:101710000E94F60380E00E947E016091100180E04B
:101720000E945A101092DA018EEE90E041C0DF92D2
:10173000CF928AEE90E09F938F9385EB91E09F93F9
:101740008F930E94E8190F900F900F900F900F90B9
:101750000F901816190604F589819A81892B91F545
:101760000E946011882319F00E940302F9CF809132
:101770008F01909190019195819591090E94031597
:1017800080918D0190918E019195819591090E9492
:10179000CE1486EE90E00CC080919301811112C0AE
:1017A00080919101882371F01092910182EE90E076
:1017B0009F938F93BF921F930E94CD190F900F900C
:1017C0000F900F900F900F900F900F90DF91CF918F
:1017D0001F910F91FF90EF90DF90CF90BF90AF904F
:1017E0009F908F907F906F90089580910E019091BF
:1017F0000F0124E030E0281B390B220F331F81E05A
:1018000090E002C0880F991F2A95E2F70E944C11C0
:101810000E94C8018570B9F00E94C801282F8091EC
:101820000E0190910F01213019F0243031F00BC0DE
:101830008530910544F4019604C0181619061CF46D
:1018400001970E94960580910E0190910F010597D6
:10185000A1F482E090E00E944C1162E370E080E02D
:1018600090E00E94D61581E090E00E944C1162E366
:1018700070E080E090E00C94D6150895CF92DF924E
:10188000EF92FF920F931F93CF93DF936C017A0136
:101890008B01C0E0D0E0CE15DF0581F0D8016D915D
:1018A0008D01D601ED91FC910190F081E02DC601F2
:1018B0000995892B11F02196EECF7E01C701DF91AA
:1018C000CF911F910F91FF90EF90DF90CF900895EF
:1018D000FC01538D448D252F30E0842F90E0821B36
:1018E000930B541710F0CF96089501970895FC01BB
:1018F000918D828D981761F0828DDF01A80FB11D47
:101900005D968C91928D9F5F9F73928F90E008956A
:101910008FEF9FEF0895FC01918D828D981731F024
:10192000828DE80FF11D858D90E008958FEF9FEF78
:101930000895FC01918D228D892F90E0805C9F4F4E
:10194000821B91098F73992708958BE092E00E9482
:10195000990C21E0892B09F420E0822F0895FC01E5
:10196000848DDF01A80FB11DA35ABF4F2C91848D28
:1019700090E001968F739927848FA689B7892C935D
:10198000A089B1898C9182748C93938D848D9813E6
:1019900006C00288F389E02D80818F7D80830895C1
:1019A000EF92FF920F931F93CF93DF93EC0181E0AF
:1019B000888F9B8D8C8D981305C0E889F98980816B
:1019C00085FD26C0F62E0B8D10E00F5F1F4F0F73A5
:1019D0001127E02E8C8DE8120CC00FB607FCFACF51
:1019E000E889F989808185FFF5CFCE010E94AF0C8F
:1019F000F1CF8B8DFE01E80FF11DE35AFF4FF0820E
:101A00009FB7F8940B8FEA89FB898081806209C0B7
:101A10009FB7F894EE89FF896083E889F98980810E
:101A2000827480839FBF81E090E0DF91CF911F910E
:101A30000F91FF90EF900895CF93DF93EC01888D85
:101A40008823C9F0EA89FB89808185FD05C0A889C2
:101A5000B9898C9186FD0FC00FB607FCF5CF808148
:101A600085FFF2CFA889B9898C9185FFEDCFCE0192
:101A70000E94AF0CE7CFDF91CF91089580E090E016
:101A8000892B29F00E94A50C81110C940000089567
:101A9000CF93DF931F92CDB7DEB76983DC01ED9161
:101AA000FC910280F381E02D41E050E0BE016F5FC8
:101AB0007F4F09950F90DF91CF91089583E0809338
:101AC000E9008091F200882319F08AE38093E8000E
:101AD0000895FC018485958597FD0BC09FB7F89408
:101AE00082E08093E9008091F2009FBF90E0019630
:101AF00008959FB7F89482E08093E9008091F20006
:101B00009FBF90E00895089580E090E008958BE0F5
:101B100092E00C94770C682F8BE092E00E94D00C3E
:101B200080E090E00895682F88EA92E00E94480DD6
:101B300080E090E00895CF92DF92EF92FF929CE5D3
:101B40009CBD1DBC813039F020F0823029F42F98E3
:101B500003C0469801C05F986EBD0DB407FEFDCF6F
:101B60009EB5C52EDD24EE24FF24CEBC0DB407FEA9
:101B7000FDCF9EB56A01EE24FF24CEBC0DB407FE56
:101B8000FDCF9EB5C32ED42EE52EFF24CEBC0DB4C2
:101B900007FEFDCF9EB52EBD0DB407FEFDCF9EB551
:101BA000813039F020F0823029F42F9A03C0469A10
:101BB00001C05F9AFF90EF90DF90CF9008959C0155
:101BC00088E0369527952115310511F08150C9F728
:101BD00008951F93CF93DF93182FD42FC22F262F52
:101BE0002F70C03270F4822F90E0A0E0B0E0B82FE8
:101BF000AA27992788279C01AD01236D4360506176
:101C00000FC0C695D695822F90E0A0E0B0E0B82F27
:101C1000AA27992788279C01AD01236D4160506157
:101C20006CEE812F0E949B0DCF718C2F90E0982F2E
:101C30008827092E000CAA0BBB0BDF714D2F50E03B
:101C400060E070E06F609A01AB01282B392B4A2BC2
:101C50005B2B60E9812F0E949B0D80E0DF91CF918B
:101C60001F9108958F929F92AF92BF92CF92DF9271
:101C7000EF92FF920F931F93CF93DF936C017B0141
:101C80008A0180910D01882309F45CC080910A02C9
:101C9000882309F457C08091E10180FF05C080913D
:101CA000E00082608093E000E801B12C8AEFA82E6A
:101CB00093E0892E2AE3922E209711F4BB20D9F1CC
:101CC0000E94511581110AC0AA94AA20D9F161E09D
:101CD00070E080E090E00E94D615EECF282F30E033
:101CE000C217D3070CF48C2F9FB7F8948092E900A9
:101CF0002091E80025FF1DC0282F30E0C21BD30B28
:101D0000F701815020F041914093F100FACFE20EAB
:101D1000F31EBB2019F09092E8000AC08091E80001
:101D200085FD07C09092E800BB24B394209709F08A
:101D3000B12C9FBFC1CF5D9884E68093E00110165F
:101D4000110644F081E090E0F6019383828380E005
:101D500090E001C0C801DF91CF911F910F91FF90DA
:101D6000EF90DF90CF90BF90AF909F908F900895AD
:101D70000E94511590E008950F931F93CF93DF9326
:101D80001F92CDB7DEB78C01FC018485958597FF46
:101D90000EC0CE0101960E942315019719F4898186
:101DA00090E002C08FEF9FEFF80195878487F801DC
:101DB000848595850F90DF91CF911F910F910895A4
:101DC000CF93DF931F92CDB7DEB7FC018485958555
:101DD00097FD05C02FEF3FEF358724870BC0CE015D
:101DE00001960E942315019719F4898190E002C0A1
:101DF0008FEF9FEF0F90DF91CF91089588EA92E0E7
:101E00000C94E00E4091DE015091DF012091DC0145
:101E10003091DD0142175307B4F49091E8009570BA
:101E2000E1F39091E80092FD19C08093F100809158
:101E3000DE019091DF0101968F739927892B19F4A8
:101E40008EEF8093E8008091DE019091DF01019692
:101E50009093DF018093DE0181E0089580E0089592
:101E6000615030F02091F100FC0120830196F8CF01
:101E7000289884E68093090208951F920F920FB666
:101E80000F9211242F933F934F935F936F937F9300
:101E90008F939F93AF93BF93EF93FF938BE092E069
:101EA0000E94AF0CFF91EF91BF91AF919F918F91E5
:101EB0007F916F915F914F913F912F910F900FBE46
:101EC0000F901F9018951F920F920FB60F9211242A
:101ED0002F938F939F93EF93FF93E0911B02F091C9
:101EE0001C028081E0912102F091220282FD12C049
:101EF0009081809124028F5F8F7320912502821739
:101F000051F0E0912402F0E0E55FFD4F958F809362
:101F1000240201C08081FF91EF919F918F912F91B9
:101F20000F900FBE0F901F9018951F93CF93DF93C4
:101F3000C82FD62F142F813031F028F0823041F491
:101F400080E190E002C082E090E00E94DF0D01C0DD
:101F500080E1212F4D2F682F8C2F0E94E90DD82F63
:101F600081114AC020E030E0A90161E98C2F0E9474
:101F70009B0DC33030F4EC2FF0E0E35EFE4F208188
:101F800001C024E0822F220F990BAA0BBB0BAC01DE
:101F9000332722276DEE8C2F0E949B0D8FEF8C0F25
:101FA000823018F022EC31E002C020E931E040E05C
:101FB00050E064E98C2F0E949B0D20E831E340E063
:101FC00050E060E88C2F0E949B0D212F220F220FE2
:101FD000822F90E0A0E0B0E09C01AD01C11105C0EE
:101FE0003260466160EF80E004C03260466060EFBE
:101FF0008C2F0E949B0D01C0DFEF8D2FDF91CF91C1
:102000001F9108951F93CF93DF93C82F162FD42FBE
:10201000813031F028F0823041F480E190E002C05C
:1020200082E090E00E94DF0D01C080E12D2F412F62
:10203000682F8C2F0E94E90D182F811135C020E0E8
:1020400030E0A90161E98C2F0E949B0D20E030E077
:1020500044E050E06DEE8C2F0E949B0D20E030E0BC
:10206000A90164E98C2F0E949B0D24E030E040E040
:1020700050E060E88C2F0E949B0D2D2F220F220F25
:10208000822F90E0A0E0B0E09C01AD01326046609C
:1020900060EF8C2F0E949B0D20E030E0A90163E9E6
:1020A0008C2F0E949B0D01C01FEF812FDF91CF91DC
:1020B0001F91089540E0623019F460E00C94021022
:1020C00060E00C94950FCF93DF93CDB7DEB72F97D9
:1020D0000FB6F894DEBF0FBECDBF20911101309135
:1020E00012014091130129833A834B832C833D8352
:1020F0004E832091140130911501409116012F83D8
:1021000038874987209117013091180140911901B2
:102110002A873B874C8720911A0130911B014091FF
:102120001C012D873E874F876130E1F098F06230C7
:1021300061F5282F30E0FE01E20FF31F4481628534
:102140002F960FB6F894DEBF0FBECDBFDF91CF91B3
:102150000C940210282F30E0FE01E20FF31FDF0184
:10216000458507C0282F30E0FE01E20FF31FDF0195
:10217000418117966C912F960FB6F894DEBF0FBE73
:10218000CDBFDF91CF910C94950F80E02F960FB6C5
:10219000F894DEBF0FBECDBFDF91CF9108951F939E
:1021A000CF93DF93182F3E9A579A279A469A5F9AB1
:1021B0002F9A549A249A569A5C982C985E98682F75
:1021C00080E00E94631021E030E0811102C020E035
:1021D00030E0CC27DD27C21BD30B612F81E00E94AA
:1021E0006310811102C020E001C02EEFC20F612FE9
:1021F00082E00E94631081118CEF8C0FDF91CF91F0
:102200001F9108952091E2013091E301C90184708A
:102210009927AC0156954795C901807199279695E4
:10222000879596958795842B2170822B08952E98FB
:10223000000020E130E040E050E8BC016423752359
:10224000672B11F02D9A01C02D98479A00004798EE
:102250000000569547952150310979F72E9A0000D4
:102260009093E3018093E2010895282F2270922F2A
:10227000990F282F2470220F220F292B8170282BD1
:10228000022E000C330B8091E2019091E3018A7ED3
:10229000822B932B0C9417112091E2013091E301D2
:1022A0002F733327582F4427242B352B88279370DF
:1022B0009695879596958795822B932B0C9417115D
:1022C00083E10E94761521E0019709F020E0822F3A
:1022D00008950E940622DF92EF92FF920F931F93C0
:1022E000CF93DF93D82EF92EE42E062F10E0C801ED
:1022F0000196880F0E94020F83E00E94020FCD2DED
:10230000DF2D0C0F1D1FC017D10789F0E7FE03C09A
:10231000FE01849101C088810E94020FF82E80E0A6
:102320000E94020F8F2121968111EDCF01C081E023
:10233000DF91CF911F910F91FF90EF90DF90089563
:10234000DF92EF92FF920F931F93CF93DF93D82EDC
:102350008A017B01E40EF51EEB01CE15DF0571F05D
:10236000D7FE03C0FE01849101C088810E94020F44
:1023700021968111F2CF8FEF9FEF01C0C801DF914D
:10238000CF911F910F91FF90EF90DF9008950F93E1
:102390001F93CF93DF931F92CDB7DEB782E089837F
:1023A00042E450E063EA71E080E80E94A0110E94DC
:1023B0006215DC0112960D911C9113970115110500
:1023C00089F0D801ED91FC910280F381E02DBE01EE
:1023D0006F5F7F4FC801099597FD04C0F801008524
:1023E0001185ECCF89810F90DF91CF911F910F91D3
:1023F00008951F920F920FB60F9211248F939F93FF
:102400008091E1009091E100937F9093E10083FF40
:102410000FC01092E90091E09093EB001092EC0055
:1024200092E39093ED0010920A0298E09093F000EE
:1024300082FF20C093E09093E9009091F2009923ED
:1024400019F09AE39093E8009091E001992339F014
:102450009091E00191509093E001992389F190913E
:102460000902992339F09091090291509093090241
:10247000992341F184FF10C08091E2008E7E81603B
:102480008093E2008091E1008F7E8093E100809153
:10249000E1018E7E806111C080FF16C08091E20054
:1024A0008E7E80618093E2008091E1008E7E809339
:1024B000E1008091E1018E7E81608093E10104C0A2
:1024C0005D9ACDCF289AD6CF9F918F910F900FBE56
:1024D0000F901F9018951F920F920FB60F92112414
:1024E000CF92DF92EF92FF920F931F932F933F9320
:1024F0004F935F936F937F938F939F93AF93BF930C
:10250000EF93FF93CF93DF93CDB7DEB76C97DEBF2A
:10251000CDBF1092E9008091E80083FFFBC168E025
:10252000CE0145960E94300F82EF8093E8008D899E
:1025300087FF05C09091E80090FFFCCF03C09EEF9D
:102540009093E800982F907609F0C6C09E894F8935
:10255000588D2F89F88C91110CC0803829F4809106
:10256000F4018093F10002C01092F1001092F1008A
:1025700045C1913051F4811141C14130510509F0FB
:102580003DC18091F4018D7F0BC0933061F48111C6
:1025900035C14130510509F031C18091F4018260AB
:1025A0008093F4012BC1953049F48091E80080FFBD
:1025B000FCCF822F80688093E30020C1963009F021
:1025C0005EC00B8D1C8D22E01092E9001092DF019D
:1025D0001092DE01F21232C01092DD011092DC0185
:1025E0000E94C71199E0BE016F5F7F4FDB01E92FA9
:1025F0001D92EA95E9F79983FA8291E09E8390EA29
:1026000098879AEF99872091DE013091DF01275F4B
:102610003F4F3C832B838D831092E9001092DF01A2
:102620001092DE011093DD010093DC0149E050E0DF
:1026300080E00E94A0110E94C711E0C01093DD014C
:102640000093DC010E946215DC0112960D911C9131
:1026500013970115110509F4BBC0D801ED91FC9148
:102660000480F581E02DBE016B5E7F4FC8010995A6
:10267000009709F0C7C0F80100851185EACF9730AF
:1026800009F445C1983021F481E08093F100B6C08F
:10269000993009F0B3C0837009F039C1E1E2F1E08B
:1026A00081E031E096E32081211109C08EE780931B
:1026B000EA001092EA008F8980930A029FC08093FB
:1026C000E9003093EB0021912093EC009093ED0012
:1026D0008F5F873041F7EACF8B8D9C8D1092E90098
:1026E0001092DF011092DE019093DD018093DC01F6
:1026F000898D811153C08E899D89913A49F4813227
:1027000009F005C147E050E066E071E080E0BBC041
:10271000913209F0FCC0833269F48F89988DA0E072
:10272000B0E08093020190930301A0930401B09361
:10273000050164C0803269F48091E80082FFFCCF1B
:1027400067E086E091E00E94300F8BEF8093E80015
:1027500055C0823209F052C08F8980930D01EEEF8F
:10276000FFE7859194918B3F9C4D19F0E0E0F8E0F4
:1027700002C0EEEFFAE08091060190910701A0916E
:102780000801B0910901803B9440A105B10509F011
:102790009EC080910D0180FF79C099C00E94621592
:1027A000FC01028113810115110509F4B0C0D801A3
:1027B000ED91FC910190F081E02DBE016B5E7F4FA9
:1027C000C801099581111AC0F80100851185EBCF68
:1027D000F1E0FF1609F44EC0F3E0FF1298C08F89B4
:1027E000882309F44AC0823089F440E860E383E03A
:1027F00092E00E946B11882309F489C08EEF8093C8
:10280000E80088C018161906CCF381C0813029F47D
:1028100040E867E08BEF91E0ECCF833009F077C0C0
:102820000E946215DC011296ED90FC9013978E01C8
:102830000F5F1F4F6801E114F10479F0D701ED91AA
:10284000FC910680F781E02DB801C7010995080FBA
:10285000111DF701E084F184EECFD8011C92F6013E
:1028600001900020E9F73197BF016C197D0940E024
:10287000C601BFCF69EE71E002C065EE71E0FB01F9
:10288000449150E080E80E94A011B8CFEE3F2AE0CA
:10289000F20751F0808191818737A7E79A0721F0ED
:1028A0009093FF0A8093FE0A87E797E791838083DE
:1028B000809160008093F3019BE088E10FB6F8946B
:1028C000A895809360000FBE9093600097CF8081A1
:1028D00091818737974709F091CFA8958091600043
:1028E0008861809360008091F30180936000EE3FE7
:1028F000BAE0FB0739F08091FE0A9091FF0A9183BC
:1029000080837CCF1092FF0A1092FE0A77CF81E27B
:102910008093EB006C960FB6F894DEBF0FBECDBF70
:10292000DF91CF91FF91EF91BF91AF919F918F91E7
:102930007F916F915F914F913F912F911F910F91D7
:10294000FF90EF90DF90CF900F900FBE0F901F90F1
:1029500018953FB7F8948091F9029091FA02A091EE
:10296000FB02B091FC0226B5A89B05C02F3F19F0D1
:102970000196A11DB11D3FBFBA2FA92F982F8827FF
:10298000820F911DA11DB11DBC01CD0142E0660F5A
:10299000771F881F991F4A95D1F708956F927F92EC
:1029A0008F92AF92CF92DF92EF92FF920F93CF93DD
:1029B000DF933C0180911001823019F4C8EBDBE019
:1029C00002C0C0E4DFE10E946011811110C0812CBF
:1029D000A12CC12C80E4D82E8CE9E82E87E4F82EB7
:1029E00001E021E0AE01B30181E00E946602DF91C7
:1029F000CF910F91FF90EF90DF90CF90AF908F909D
:102A00007F906F9008958F92AF92CF92DF92EF9266
:102A1000FF920F93812CA12CC12C20E4D22E2CE903
:102A2000E22E26E4F22E01E021E048EB5BE0BC015F
:102A300082E00E9466020F91FF90EF90DF90CF90AE
:102A4000AF908F90089520910A02211103C08FEF5B
:102A50009FEF08955FB7F89422E02093E90020915A
:102A6000F20030E01216130614F421E030E0422F99
:102A7000FC0184E6415038F0289880930902909137
:102A8000F1009193F7CF2115310521F08091F200EB
:102A9000882319F05FBFC90108958BE68093E80091
:102AA000F9CF2FB7F89483E08093E9009091E80084
:102AB000892F807295FF04C09091F20080E4891BF9
:102AC0002FBF08958091010381110DC082E0809392
:102AD000FD0284E08093FE02109200031092FF0238
:102AE00081E0809301038DEF92E0089590E0FC0176
:102AF000E957FD4F4491FC01E859FD4F2491FC0139
:102B0000E75BFD4F8491882309F44DC04423E1F134
:102B100050E0FA013197EF30F105B0F5EA5AFF4F76
:102B20000C94EC21909180009F7707C090918000D9
:102B30009F7D03C090918000977F9093800024C078
:102B400094B59F7702C094B59F7D94BD1DC09091B0
:102B500090009F7707C0909190009F7D03C0909157
:102B60009000977F909390000FC09091C0009F7746
:102B700003C09091C0009F7D9093C00005C09091CC
:102B8000C200977F9093C200E82FF0E0EE0FFF1F86
:102B9000E55CFD4FA591B491EC91E22381E090E0DA
:102BA00021F480E0089580E090E008958F929F9254
:102BB000AF92BF92CF92DF92EF92FF926B017C01B6
:102BC0000E94A9144B015C01C114D104E104F10479
:102BD000F1F00E94A914DC01CB0188199909AA0916
:102BE000BB09883E9340A105B10570F321E0C21AEC
:102BF000D108E108F10888EE880E83E0981EA11C38
:102C0000B11CC114D104E104F10419F7DDCFFF9028
:102C1000EF90DF90CF90BF90AF909F908F900895EE
:102C20001F920F920FB60F9211242F933F938F9301
:102C30009F93AF93BF938091050290910602A0915C
:102C40000702B09108023091F80223E0230F2D37DC
:102C500020F40196A11DB11D05C026E8230F0296A0
:102C6000A11DB11D2093F8028093050290930602E6
:102C7000A0930702B09308028091F9029091FA02A2
:102C8000A091FB02B091FC020196A11DB11D8093A1
:102C9000F9029093FA02A093FB02B093FC02BF9159
:102CA000AF919F918F913F912F910F900FBE0F90F9
:102CB0001F901895789484B5826084BD84B5816036
:102CC00084BD85B5826085BD85B5816085BD8091F7
:102CD0006E00816080936E0010928100809181006F
:102CE0008260809381008091810081608093810067
:102CF000809180008160809380008091910082604B
:102D000080939100809191008160809391008091E7
:102D100090008160809390008091C10084608093D6
:102D2000C1008091C10082608093C1008091C10088
:102D300081608093C1008091C30081608093C30053
:102D40008091C00082608093C0008091C200816049
:102D50008093C20080917A00846080937A00809191
:102D60007A00826080937A0080917A0081608093FB
:102D70007A0080917A00806880937A0010920A022B
:102D80001092F4011092E1018091D700816080934C
:102D9000D70080EA8093D80089B5806189BD89B564
:102DA000826089BD09B400FEFDCF61E070E080E083
:102DB00090E00E94D6158091D8008F7C806180932E
:102DC000D8008091E000807F8093E0008091E10056
:102DD0008E7E8093E1008DE08093E200559A209AE8
:102DE0003F9A269A259A47982E982D981092E3019B
:102DF0001092E20180E090E00E9417118091E201C0
:102E00009091E3010E94171180E090E00E949501EB
:102E100068EE73E080E090E00E94D6158FEF9FEFA0
:102E20009093B5028093B402C7EFD1E083E99DE0AF
:102E3000909300028093FF018EEF9EE09093020238
:102E40008093010293E09093FA0110920402109291
:102E50000302E0911B02F0911C0282E08083E0916A
:102E60001702F09118021082E0911902F0911A02F3
:102E700080E1808310922302E0911F02F0912002F2
:102E80008EE08083E0911D02F0911E0280818061BE
:102E90008083E0911D02F0911E0280818860808312
:102EA000E0911D02F0911E02808180688083E09194
:102EB0001D02F0911E0280818F7D808304EE11E05F
:102EC0002BE83DE03093ED012093EC0127E83DE055
:102ED0003093EF012093EE019093E7011092F101FE
:102EE0001092F00181E090E00E949501D0930A03D6
:102EF000C0930903D0930C03C0930B0384E392E0C7
:102F00009F938F931F930F930E94CD1984B1817F5C
:102F100084B984B1866084B982E090E00E94950112
:102F200083E090E00E9495011092F6011092F50165
:102F300080917A00876080937A0080917C00806421
:102F400080937C0080917A00806880937A0080E290
:102F500080937E0010927D0084E090E00E949501B5
:102F60000F900F900F900F90C2E3D0E09BED492E91
:102F70009EE2592E22E3622E712C812CA12CC12CB1
:102F800000E4D02E0CE9E02E07E4F02E01E020E072
:102F900040E050E061E070E080E00E946602C20123
:102FA0000197F1F7CE01B3010E94D821660F771F78
:102FB00081E090E002C0880F991F6A95E2F70E94B5
:102FC0004C112197D1F6C2E3D0E0ABED4A2EAEE230
:102FD0005A2EBEEC6B2E77247A9422242394312C23
:102FE000812CA12CC12CE0E4DE2EECE9EE2EE7E4EE
:102FF000FE2E01E020E040E050E06FEF7FEF80E048
:103000000E946602C2010197F1F7CE01B3010E944E
:10301000D8216C5F7F4F660F771FC10102C0880FF8
:10302000991F6A95E2F70E944C112197C9F60E94F8
:10303000C801C82F0E946011882301F10E94C801B5
:103040008130C1F30E946011882319F08AEA92E06E
:1030500002C085E591E00E944C116CE271E080E0D5
:1030600090E00E94D61580E090E00E944C116CE246
:1030700071E080E090E00E94D615E0CF80E00E94F1
:10308000CE04C23009F0DBC080E090E00E944C1119
:1030900068EC70E080E090E00E94D6158AEA92E049
:1030A0000E944C1160EB74E080E090E00E94D61525
:1030B00080E090E00E944C1168E572E080E090E0D2
:1030C0000E94D61511E0C0E0D0E072E0672E712CAE
:1030D00080E091E00E944C1161E070E080E090E0BF
:1030E0000E94D61580E092E00E944C1161E070E0F1
:1030F00080E090E00E94D615CE01880F991F9301C1
:1031000002C0220F331F8A95E2F7C9010E944C11B9
:1031100061E070E080E090E00E94D6150E94C80156
:10312000823049F0843009F449C0813089F6209713
:1031300079F2219748C0C230D105E9F144F4C13099
:10314000D10531F604E010E0C2E0D0E008C0C330A1
:10315000D10509F4A5C0C430D105E1F1B9CF0E9471
:10316000F50B0E94C8018230D1F780910E01909139
:103170000F019801281B390BC901880F991F9E0167
:1031800002C0220F331F8A95E2F7C9010E944C1139
:1031900064EF71E080E090E00E94D6150E94C801C3
:1031A0008230E9F684E090E00E94960580E090E0AD
:1031B0000E9496050FC011118BCF0CC0C430D105F1
:1031C0000CF086CF219660E273E080E090E00E94F0
:1031D000D6157ECF80E090E00E944C1160E971E04E
:1031E00080E090E00E94D6158AEA92E00E944C119D
:1031F00060E971E080E090E00E94D61580E090E008
:103200000E944C1160E971E080E090E00E94D615C8
:1032100080E090E00E944C1180910E0190910F018E
:1032200024E030E0281B390B220F331F81E090E0AF
:1032300002C0880F991F2A95E2F70E944C11C4E042
:10324000D0E002E010E084EE91E00E94CA06809196
:10325000F201811122C00E94F50B0E94C801823048
:10326000E1F480910E0190910F0185309105ACF44D
:103270009E01281B390BC901880F991F980102C0B4
:10328000220F331F8A95E2F7C9010E944C110E9458
:10329000C801823011F40E94F2050E943E0DD3CF86
:1032A00010E016CFEBE0F2E01382128288EE93E09A
:1032B000A0E0B0E084839583A683B7832DE231E05C
:1032C000318320832DEC30E0358724872CEC30E0EF
:1032D0003787268728EC30E0318B208B29EC30E0D3
:1032E000338B228B2AEC30E0358B248B2EEC30E0B4
:1032F000378B268B118E128E138E148EE8EAF2E035
:103300001382128284839583A683B7838FE391E02F
:10331000918380838FEF9FEF958784870895CF9364
:10332000DF93EC012B8120FF33C026FF0AC02F7BE7
:103330002B838E819F8101969F838E838A8190E06B
:1033400029C022FF0FC0E881F9818081082E000C7E
:10335000990B009719F420622B831AC03196F983D8
:10336000E8830EC0EA85FB85099597FF09C02B818C
:10337000019611F080E201C080E1822B8B8308C0AE
:103380002E813F812F5F3F4F3F832E83992702C0BD
:103390008FEF9FEFDF91CF910895A0E0B0E0E3EDD4
:1033A000F9E10C947D1F0F811885F80183818860F5
:1033B0008383AE01455F5F4F69857A85C8010E94AE
:1033C000011AF8012381277F2383E4E00C94991FDD
:1033D000AEE0B0E0EEEEF9E10C947F1F8DE08C835F
:1033E0008B899C899A838983AE01495E5F4F6D8981
:1033F0007E89CE0101960E947E1D2E96E2E00C94FD
:103400009B1FABE0B0E0E7E0FAE10C946F1F6C01AA
:103410007B018A01FC0117821682838181FFCCC166
:10342000CE0101963C01F6019381F70193FD859150
:1034300093FF81917F01882309F4BAC1853239F461
:1034400093FD859193FF81917F01853229F4B60127
:1034500090E00E94B91EE7CF912C212C312CFFE186
:10346000F315D8F08B3279F038F4803279F083326A
:10347000A1F4232D20611DC08D3261F0803369F4E9
:10348000232D216016C0832D8260382EE32DE46049
:103490003E2E2AC0F32DF8601DC037FC2DC020ED54
:1034A000280F2A3040F08E32B9F436FC81C1232D2A
:1034B0002064322E19C036FE06C08AE0989E200D88
:1034C0001124922E11C0EAE02E9E200D1124222EEE
:1034D000F32DF0623F2E08C08C3621F4832D8068D6
:1034E000382E02C0883641F4F70193FD859193FF91
:1034F00081917F018111B3CF982F9F7D9554933097
:1035000028F40C5F1F4F9FE399830DC0833631F081
:10351000833771F0833509F059C021C0F8018081EB
:1035200089830E5F1F4F88248394912C530113C00D
:103530002801F2E04F0E511CF801A080B18036FE48
:1035400003C0692D70E002C06FEF7FEFC5010E94DC
:10355000AE1E4C018201F32DFF773F2E16C02801CD
:1035600022E0420E511CF801A080B18036FE03C05B
:10357000692D70E002C06FEF7FEFC5010E94A31EAE
:103580004C01F32DF0683F2E820133FC1BC0822DCD
:1035900090E088169906B0F4B60180E290E00E94AF
:1035A000B91E2A94F4CFF50137FC859137FE81913D
:1035B0005F01B60190E00E94B91E21102A9421E01B
:1035C000821A91088114910471F7E8C0843611F0D1
:1035D000893641F5F80137FE07C06081718182812B
:1035E00093810C5F1F4F08C060817181072E000C12
:1035F000880B990B0E5F1F4FF32DFF763F2E97FF21
:1036000009C090958095709561957F4F8F4F9F4F22
:10361000F0683F2E2AE030E0A3010E940E1F882EA2
:10362000861845C0853731F4232D2F7EB22E2AE02F
:1036300030E025C0932D997FB92E8F36C1F018F454
:10364000883579F0B5C0803719F0883721F0B0C0DF
:10365000E92FE061BE2EB4FE0DC0FB2DF460BF2E3D
:1036600009C034FE0AC0292F2660B22E06C028E009
:1036700030E005C020E130E002C020E132E0F80196
:10368000B7FE07C060817181828193810C5F1F4FFB
:1036900006C06081718180E090E00E5F1F4FA30142
:1036A0000E940E1F882E8618FB2DFF773F2E36FEB8
:1036B0000DC0232D2E7FA22E891458F434FE0BC08A
:1036C00032FC09C0832D8E7EA82E05C0B82CA32CF9
:1036D00003C0B82C01C0B92CA4FE0FC0FE01E80D38
:1036E000F11D8081803321F49A2D997EA92E09C085
:1036F000A2FE06C0B394B39404C08A2D867809F064
:10370000B394A3FC11C0A0FE06C0B21488F4280C28
:10371000922C9B180EC0B21460F4B60180E290E0C7
:103720000E94B91EB394F7CFB21418F42B1802C03C
:10373000982C212CA4FE10C0B60180E390E00E94DA
:10374000B91EA2FE17C0A1FC03C088E790E002C02A
:1037500088E590E0B6010CC08A2D867859F0A1FE6C
:1037600002C08BE201C080E2A7FC8DE2B60190E0CE
:103770000E94B91E891438F4B60180E390E00E94DB
:10378000B91E9A94F7CF8A94F301E80DF11D808158
:10379000B60190E00E94B91E8110F5CF222009F4F5
:1037A00042CEB60180E290E00E94B91E2A94F6CF84
:1037B000F6018681978102C08FEF9FEF2B96E2E1A1
:1037C0000C948B1F20FD09C0FC0123FD05C022FFC6
:1037D00002C07383628351834083089544FD17C000
:1037E00046FD17C0AB01BC01DA01FB01AA0FBB1FEC
:1037F000EE1FFF1F1094D1F74A0F5B1F6E1F7F1F34
:10380000CB01BA01660F771F881F991F09C033E0EB
:1038100001C034E0660F771F881F991F3150D1F720
:10382000620F711D811D911D08950F931F93CF93FA
:10383000DF938C01C8010E948F19EC0197FD08C02D
:103840000E948F1E892BB1F7B801CE010E94F51E90
:10385000CE01DF91CF911F910F9108958F929F928A
:10386000AF92BF92EF92FF920F931F93CF93DF938C
:103870008C01D62F7A01B22E0E948F199C0133271A
:103880002B32310531F02D32310561F48B2D8068FA
:10389000B82ED15011F480E068C0C8010E948F1981
:1038A00097FDF9CFCB2DCD7F2B2D207309F58033DC
:1038B000F9F4AA24AA94AD0E09F443C0C8010E94E9
:1038C0008F1997FD3EC09C012F7D33272835310588
:1038D00049F4C264D250A9F1C8010E948F1997FF20
:1038E00007C02FC0B6FE02C0C26001C0C261DA2D9F
:1038F000812C912C540120ED280F283080F0C4FF3A
:1039000004C0B8010E94F51E19C02A3040F0C6FF5D
:10391000F8CF2F7D3FEE320F363098F727504C2FDF
:10392000C501B4010E94EE1B4B015C01C260D15085
:1039300059F0C8010E948F1997FFDDCFC1FD04C067
:10394000AACF812C912C5401C7FF08C0B094A09439
:1039500090948094811C911CA11CB11C2C2FB5014A
:10396000A401C7010E94E21B81E0DF91CF911F916A
:103970000F91FF90EF90BF90AF909F908F90089520
:10398000A0E2B0E0E6ECFCE10C94721F5C01962E24
:103990007A01F9018E010F5F1F4F680180E2D801A3
:1039A0001D928A95E9F7D50113968C9080E090E0FE
:1039B000612C712C30E061E070E083FC259183FE86
:1039C00021918F01522E211103C080E090E092C01E
:1039D0002E3511F4009751F1432F50E04817590745
:1039E0003CF42D3559F12D3219F4772009F103C03B
:1039F000772009F46AC0452D469546954695D6012F
:103A0000A40FB11D452D47708B0102C0000F111F7F
:103A10004A95E2F7A8015C91452B4C93651459F047
:103A2000561410F45394E7CF5A94E5CF31E004C014
:103A30007724739401C0712C0196BFCF772019F0C1
:103A40008E8180628E83311103C08824839417C0D5
:103A5000F6019E012F5D3F4F8081809581932E1747
:103A60003F07D1F7F2CFE114F10429F0D7018C938D
:103A7000F70131967F019A94812C9920F9F0C501C4
:103A80000E948F1997FD18C0FC01FF2723E0F595D0
:103A9000E7952A95E1F7EC0DFD1D208130E0AC01A2
:103AA0004770552702C0359527954A95E2F720FDC6
:103AB000DACFB5010E94F51E811087CFE114F10421
:103AC00011F0D7011C92C80115C0422F46954695AA
:103AD0004695D601A40FB11D422F47708B0102C03D
:103AE000000F111F4A95E2F7A8015C91452B4C93FA
:103AF000622EA2CFA096EFE00C948E1FA0E0B0E063
:103B0000E4E8FDE10C94721F6C01EB015A01FC0129
:103B100017821682512CF601E380FE01E3FC8591A9
:103B2000E3FE8191182FEF01882309F4EEC090E0A5
:103B30000E948F1E892B21F0C6010E94151CEBCF1D
:103B4000153241F4FE01E3FC1591E3FE1191EF0102
:103B5000153281F4C6010E948F1997FDD4C0412F00
:103B600050E09C01332724173507A9F2B6010E94C3
:103B7000F51ECBC01A3239F4E3FC1591E3FE119126
:103B8000EF0101E001C000E0F12C20ED210F2A300F
:103B900080F402606F2D70E080E090E040E20E94CF
:103BA000EE1BF62EFE01E3FC1591E3FE1191EF01F1
:103BB000ECCF01FF03C0F11003C0A7C0FF24FA94AB
:103BC000183619F01C3651F010C0FE01E3FC1591B7
:103BD000E3FE1191EF01183641F408600460FE0124
:103BE000E3FC1591E3FE1191EF01112309F48DC05F
:103BF000612F70E08AEC90E00E94981E892B09F4F6
:103C000084C000FD07C0F50180809180C501029647
:103C10005C0102C0812C912C1E3651F4F6014681C4
:103C2000578160E070E0202FC4010E94E21B73CF37
:103C30001336A9F401FD02C0FF24F394C6010E94CB
:103C40008F1997FD60C08114910429F0F4018083DD
:103C5000C40101964C01FA94F110F0CF50C01B350D
:103C600059F49E01A4016F2DC6010E94C01CEC01F5
:103C7000892B09F044C03EC0C6010E94151C97FD67
:103C800042C01F3661F128F4143639F1193651F16A
:103C900028C0133771F0153701F123C08114910446
:103CA00029F0F4016082C40101964C01FA94FF20CE
:103CB00071F0C6010E948F193C0197FD08C00E9457
:103CC0008F1E892B59F3B601C3010E94F51E811482
:103CD0009104A9F0F401108212C0006203C00061D7
:103CE00001C00064202FA4016F2DC6010E942E1C6C
:103CF000811105C0F6018381807329F406C000FD9F
:103D00000ACF539408CF552019F0852D90E002C0BA
:103D10008FEF9FEFCDB7DEB7EFE00C948E1F9111C0
:103D20000C946C1F803219F089508550C8F70895A3
:103D3000FC010590061621F00020D9F7C001089576
:103D40003197CF010895FC0105906150704001103A
:103D5000D8F7809590958E0F9F1F0895FC016150B4
:103D6000704001900110D8F7809590958E0F9F1F9D
:103D700008950F931F93CF93DF93FB01238121FDC0
:103D800003C08FEF9FEF2CC022FF16C046815781E2
:103D9000248135814217530744F4A081B1819D01EC
:103DA0002F5F3F4F318320838C93268137812F5F94
:103DB0003F4F3783268314C08B01EC01FB01008445
:103DC000F185E02D0995892BE1F6D80116968D91A4
:103DD0009C911797019617969C938E931697CE01F8
:103DE000DF91CF911F910F910895FB01238120FF57
:103DF00012C026FD10C08F3F3FEF930761F0828312
:103E00002F7D206423832681378121503109378318
:103E10002683992708958FEF9FEF0895FA01AA2727
:103E2000283051F1203181F1E8946F936E7F6E5FFD
:103E30007F4F8F4F9F4FAF4FB1E03ED0B4E03CD0AB
:103E4000670F781F891F9A1FA11D680F791F8A1F8E
:103E5000911DA11D6A0F711D811D911DA11D20D0F5
:103E600009F468943F912AE0269F11243019305DAF
:103E70003193DEF6CF010895462F4770405D4193A0
:103E8000B3E00FD0C9F7F6CF462F4F70405D4A33ED
:103E900018F0495D31FD4052419302D0A9F7EACFB5
:103EA000B4E0A6959795879577956795BA95C9F7E4
:103EB00000976105710508959B01AC010A2E0694D7
:103EC0005795479537952795BA95C9F7620F731F90
:103ED000841F951FA01D08959927882708952F9264
:103EE0003F924F925F926F927F928F929F92AF928A
:103EF000BF92CF92DF92EF92FF920F931F93CF93D7
:103F0000DF93CDB7DEB7CA1BDB0B0FB6F894DEBF6D
:103F10000FBECDBF09942A88398848885F846E8493
:103F20007D848C849B84AA84B984C884DF80EE80DD
:103F3000FD800C811B81AA81B981CE0FD11D0FB6E6
:103F4000F894DEBF0FBECDBFED0108955058BB27DA
:103F5000AA270E94BE1F0C9431210E94232138F011
:103F60000E942A2120F039F49F3F19F426F40C9482
:103F700020210EF4E095E7FB0C941A21E92F0E9412
:103F8000422158F3BA17620773078407950720F098
:103F900079F4A6F50C9464210EF4E0950B2EBA2F5B
:103FA000A02D0B01B90190010C01CA01A00111243F
:103FB000FF27591B99F0593F50F4503E68F11A16EB
:103FC000F040A22F232F342F4427585FF3CF46957C
:103FD00037952795A795F0405395C9F77EF41F169E
:103FE000BA0B620B730B840BBAF09150A1F0FF0F68
:103FF000BB1F661F771F881FC2F70EC0BA0F621F54
:10400000731F841F48F4879577956795B795F79543
:104010009E3F08F0B0CF9395880F08F09927EE0FD8
:104020009795879508950E94F62008F481E00895F9
:104030000E942C200C9431210E942A2158F00E94C9
:10404000232140F029F45F3F29F00C941A215111EB
:104050000C9465210C9420210E94422168F399233D
:10406000B1F3552391F3951B550BBB27AA27621774
:104070007307840738F09F5F5F4F220F331F441F81
:10408000AA1FA9F335D00E2E3AF0E0E832D09150B5
:104090005040E695001CCAF72BD0FE2F29D0660FA2
:1040A000771F881FBB1F261737074807AB07B0E8E5
:1040B00009F0BB0B802DBF01FF2793585F4F3AF0EB
:1040C0009E3F510578F00C941A210C9465215F3FB6
:1040D000E4F3983ED4F3869577956795B795F79571
:1040E0009F5FC9F7880F911D9695879597F9089559
:1040F000E1E0660F771F881FBB1F621773078407F5
:10410000BA0720F0621B730B840BBA0BEE1F88F703
:10411000E09508950E944A2188F09F5798F0B92FA2
:104120009927B751B0F0E1F0660F771F881F991FEC
:104130001AF0BA95C9F714C0B13091F00E94642109
:10414000B1E008950C946421672F782F8827B85F19
:1041500039F0B93FCCF3869577956795B395D9F744
:104160003EF490958095709561957F4F8F4F9F4F4E
:104170000895E89409C097FB3EF49095809570955A
:1041800061957F4F8F4F9F4F9923A9F0F92F96E9A3
:10419000BB279395F695879577956795B795F11118
:1041A000F8CFFAF4BB0F11F460FF1BC06F5F7F4FB5
:1041B0008F4F9F4F16C0882311F096E911C07723C7
:1041C00021F09EE8872F762F05C0662371F096E8D0
:1041D000862F70E060E02AF09A95660F771F881F9F
:1041E000DAF7880F9695879597F90895990F000843
:1041F000550FAA0BE0E8FEEF16161706E807F907B9
:10420000C0F012161306E407F50798F0621B730B53
:10421000840B950B39F40A2661F0232B242B252BD4
:1042200021F408950A2609F4A140A6958FEF811D77
:10423000811D089597F99F6780E870E060E0089518
:104240009FEF80EC089500240A94161617061806AE
:104250000906089500240A9412161306140605068A
:104260000895092E0394000C11F4882352F0BB0F1B
:1042700040F4BF2B11F460FF04C06F5F7F4F8F4F7E
:104280009F4F089557FD9058440F551F59F05F3FB9
:1042900071F04795880F97FB991F61F09F3F79F068
:1042A00087950895121613061406551FF2CF4695EA
:1042B000F1DF08C0161617061806991FF1CF86956C
:1042C0007105610508940895E894BB276627772750
:1042D000CB0197F908950E947E210C9431210E9410
:1042E000232138F00E942A2120F0952311F00C940C
:1042F0001A210C94202111240C9465210E94422142
:1043000070F3959FC1F3950F50E0551F629FF00128
:10431000729FBB27F00DB11D639FAA27F00DB11D41
:10432000AA1F649F6627B00DA11D661F829F2227CA
:10433000B00DA11D621F739FB00DA11D621F839F51
:10434000A00D611D221F749F3327A00D611D231F27
:10435000849F600D211D822F762F6A2F11249F5775
:1043600050409AF0F1F088234AF0EE0FFF1FBB1F78
:10437000661F771F881F91505040A9F79E3F510537
:1043800080F00C941A210C9465215F3FE4F3983E71
:10439000D4F3869577956795B795F795E7959F5FE1
:1043A000C1F7FE2B880F911D9695879597F9089573
:1043B00097FB072E16F4009407D077FD09D00E94D2
:1043C000F22107FC05D03EF4909581959F4F08950A
:1043D000709561957F4F0895EE0FFF1F0590F49142
:1043E000E02D0994AA1BBB1B51E107C0AA1FBB1FEC
:1043F000A617B70710F0A61BB70B881F991F5A9571
:10440000A9F780959095BC01CD01089581E090E0D9
:10441000F8940C942522FB0151915523A9F0BF017A
:10442000DC014D9145174111E1F759F4CD0101909F
:10443000002049F04D9140154111C9F3FB01411194
:0E444000EFCF81E090E001970895F894FFCF50
:10444E00FFFFFFFFFFFF00E1000000000000FFFF85
:10445E00011E2323010A1601071001232305060658
:10446E0000C18081000000E40100000000D00C3E7D
:10447E000C680C1C0D990C770C8B0C00000000487E
:10448E000D320EB80E5E0D690DE00EBC0E454500E8
:10449E005430005431005432005433005434004C24
:1044AE0030004C31004C32004C33004C3400433061
:1044BE00005530004530004531004532004533008F
:0A44CE004534005230004653000050
:00000001FF
