:1000000001C2000030C200002EC200002CC200005D
:100010002AC2000028C2000026C2000024C200003C
:1000200022C2000020C200001EC200001CC200004C
:100030001AC2000018C2000016C2000014C200005C
:1000400012C2000010C200000EC200000CC200006C
:100050000AC2000008C2000006C200000C94E912A7
:1000600002C200000C9468110C943F11FCC1000006
:10007000FAC10000F8C10000F6C10000F4C10000A0
:10008000F2C10000F0C10000EEC10000ECC10000B0
:100090000C9409110C94E010E6C10000E4C10000CA
:1000A000E2C10000E0C10000DEC10000DCC10000D0
:1000B000DAC10000D8C10000D6C10000D4C10000E0
:1000C000D2C10000D0C10000CEC10000CCC10000F0
:1000D000CAC10000C8C10000C6C10000C4C1000000
:1000E000C2C100003412371226122A122E126E12CA
:1000F0003B123F12451249124D12531257125B1216
:100100006E126112651269126E616E00696E660090
:1001100000407A10F35A00A0724E18090010A5D4BE
:10012000E80000E87648170000E40B54020000CA1B
:100130009A3B000000E1F505000080969800000061
:1001400040420F000000A0860100000010270000C0
:100150000000E803000000006400000000000A0046
:10016000000000000100000000002C76D888DC6749
:100170004F0823DFC1DFAE59E1B1B796E5E3E453A1
:10018000C63AE651997696E8E6C28426EB898C9BBE
:1001900062ED407C6FFCEFBC9C9F40F2BAA56FA55E
:1001A000F490055A2AF75C936B6CF9676DC11BFCE0
:1001B000E0E40D47FEF520E6B500D0ED902E0300FB
:1001C000943577050080841E080000204E0A000048
:1001D00000C80C333333330F986E12831141EF8D07
:1001E0002114893BE65516CFFEE6DB18D1844B3847
:1001F0001BF77C1D901DA4BBE424203284725E2278
:100200008100C9F124ECA1E53D276364696E6F703C
:10021000737578585B006F6B0A00522564006F6B32
:100220000A00452564006F6B0A006F6B0A004325C6
:1002300064006F6B0A00462564202564006F6B0A1A
:100240000025646F6B0A0025646F6B0A006F6B0AF0
:100250000053256400582564006F6B0A005525641F
:10026000006F6B0A004D2564006F6B0A004C25641B
:10027000006E6B0A006F6B0A00666C0A006F6B0AF7
:10028000005425640046530A0052300A0045340ADF
:100290000045330A0045320A0045310A0045300A5C
:1002A0000055300A0043300A004C340A004C330A2F
:1002B000004C320A004C310A004C300A0054340A17
:1002C0000054330A0054320A0054310A0054300AF0
:1002D0000025646F6B0A00502564006F6B0A007381
:1002E000746172740A0000002000230026002900B7
:1002F0002C002F003200000100000301060109015B
:1003000005050505070508080808020202020A0A91
:1003100008080404040401010101010101010303AF
:10032000030303030303040707070C0C0C0C0C0C5A
:100330000C0C0202020206060606060606060B0B57
:100340000B0B0B0B0B0B07070A0A0A0A0A0A050517
:1003500005040404080801021020200808102040A9
:100360001020408002010201080402010102040879
:100370001020408080402010080402018004020107
:100380008040201008040201080402010102040850
:10039000102040800102040810204080100804084A
:1003A00080102040044080102040048000000A0B90
:1003B00002090C0D0E0807030401000000000000F4
:1003C000000000000000000000000000000000002D
:1003D00000000000000000001211100000000000EA
:1003E000000000000000000000000000000000000D
:1003F00000000000000000000000000000000000FD
:100400000000501911241FBECFEFD1E2DEBFCDBFD7
:1004100000E00CBF24E0A0E6B2E001C01D92AC31C8
:10042000B207E1F712E0A0E0B2E0EEEFF1E400E0A5
:100430000BBF02C007900D92A036B107D9F712E0AA
:10044000C2E0D2E000E006C021970109802FFE0142
:100450000E94C320C130D10780E00807A9F70E949D
:10046000BC160C94FD20CCCDAF92CF92DF92EF92D0
:10047000FF920F93AB01A12CC12C20E5D22E23E4D7
:10048000E22E27E4F22E01E020E0BC0180E00E9491
:10049000FE0D0F91FF90EF90DF90CF90AF900895F9
:1004A000AF92CF92DF92EF92FF920F931F93CF9371
:1004B000DF938B01EC01C61BD70B83E691E09C0117
:1004C000C29FC001C39F900DD29F900D11240E9426
:1004D000C31110161106ACF484E49DEF9C01C29F79
:1004E000C001C39F900DD29F900D1124DF91CF9139
:1004F0001F910F91FF90EF90DF90CF90AF900C94F1
:100500008012A12CC12C20E5D22E23E4E22E27E478
:10051000F22E01E020E040ED57E064E670E081E07B
:100520000E94FE0DC2E0D0E0A12CC12C90E5D92E96
:1005300093E4E92E97E4F92E01E020E040ED57E046
:1005400060E670EF81E00E94FE0DC230D10541F4FB
:1005500020E040ED57E064E670E081E00E94FE0D8F
:10056000219711F7A12CC12C80E5D82E83E4E82E29
:1005700087E4F82E01E020E040ED57E061E270E012
:1005800081E00E94FE0DDF91CF911F910F91FF90AE
:10059000EF90DF90CF90AF900895AF92CF92DF921F
:1005A000EF92FF920F93CF93DF93C2E0D0E0A12CA4
:1005B000C12C90E5D92E93E4E92E97E4F92E01E0C1
:1005C00020E048EB5BE060ED77E082E00E94FE0D0A
:1005D000C230D10541F420E048E057E062EA7EEF06
:1005E00082E00E94FE0D219711F7A12CC12C80E51D
:1005F000D82E83E4E82E87E4F82E01E020E048E0DE
:1006000057E066E77FEF82E00E94FE0DDF91CF9119
:100610000F91FF90EF90DF90CF90AF900895AF9241
:10062000CF92DF92EF92FF920F93CF93DF93C2E0CE
:10063000D0E0A12CC12C90E5D92E93E4E92E97E4CB
:10064000F92E01E020E040ED57E060EA7FE081E034
:100650000E94FE0DC230D10541F420E040ED57E08C
:1006600064ED7EEF81E00E94FE0D219711F7A12C31
:10067000C12C80E5D82E83E4E82E87E4F82E01E033
:1006800020E040E45FE16CE871EF81E00E94FE0D44
:10069000DF91CF910F91FF90EF90DF90CF90AF90CF
:1006A00008959091B002992349F0882381F089ED53
:1006B00090E00E94C3111092B0020895811107C00A
:1006C00087E29FEF0E94C31181E08093B0020895FA
:1006D000CF93C82F62DFA3DF85E591E00E94EB0D89
:1006E00081E08093AF02CC2379F080910202909157
:1006F00003021092030210920202892B49F0109219
:10070000AE021092AD0204C01092030210920202D7
:100710001092B00280E0C5DF80E090E00E94EB0D17
:100720001092B102809102029091030224E030E025
:10073000281B390B220F331F81E090E002C0880F85
:10074000991F2A95E2F7CF910C94EB0DCF93DF938D
:10075000880F991FC1E0D0E002C0CC0FDD1F8A9541
:10076000E2F7CE010E94EB0D68E270E080E090E0DD
:100770000E94B11280E090E00E94EB0D64E170E015
:1007800080E090E00E94B112CE010E94EB0D68E281
:1007900070E080E090E00E94B11280E090E00E9462
:1007A000EB0D6AE070E080E090E0DF91CF910C9477
:1007B000B1120F931F93CF93DF938C0187E30E94B5
:1007C0000612019709F458C0C0910202D0910302A9
:1007D00010930302009302028091AF02811101C0C5
:1007E00077DF809102029091030224E030E0281B21
:1007F000390B220F331F82E090E002C0880F991F4F
:100800002A95E2F70E94EB0D6091020270910302BB
:10081000C617D70729F4C091B10281E0C82713C0D9
:100820000530110519F48CEB92E005C0C530D105F7
:1008300029F484E49DEF0E94801204C0CE0130DED2
:1008400080E02FDFC1E080E090E00E94EB0D80911E
:1008500002029091030224E030E0281B390B220FA2
:10086000331F81E090E002C0880F991F2A95E2F7BC
:100870000E94EB0D8C2F01C080E0DF91CF911F9182
:100880000F91089580917B00877F80937B0082E4A5
:1008900080937C0080917A00806480937A008091BC
:1008A0007A0086FDFCCF809178002091790090E05D
:1008B000922B8233910564F09C012155310923313B
:1008C000310540F0815A9109439730F080E0089556
:1008D00081E0089582E0089584E00895AF92CF9278
:1008E000DF92EF92FF920F931F93CF93DF931092BB
:1008F000AC0281E08093AB0280E0D3DE62E370E083
:1009000080E090E00E94B1126091040281E00E94B8
:10091000160DC4E0D0E001E010E042E0E42EF12C3E
:10092000B1DF823029F487E30E940612892B91F10E
:1009300064E670E080E090E00E94B11280E090E018
:100940000E94EB0D64E670E080E090E00E94B1123E
:1009500087E30E9406122091020230910302019760
:1009600039F4CE01821B930B880F991F970106C0A3
:10097000CE01821B930B880F991F980102C0220F92
:10098000331F8A95E2F7C9010E94EB0D84EB92E0D8
:1009900012D1C6CF6091040281E00E941D0D3FDE9E
:1009A000C0910202D091030287E30E9406120197D0
:1009B000F1F0C530D10551F08CEB92E0C89FB00149
:1009C000C99F700DD89F700D112402C06CEA7DE0A4
:1009D000A12CC12C80E5D82E83E4E82E87E4F82EE4
:1009E00001E021E048E853E181E00E94FE0D109211
:1009F000B1026AE070E080E090E00E94B11281E014
:100A00008093AC02DF91CF911F910F91FF90EF90F7
:100A1000DF90CF90AF900895AF92CF92DF92EF9298
:100A2000FF920F93CF93DF9381E03BDEC3E0D0E0F2
:100A30004EE161E080E04AD7AA24A394C12C90E55E
:100A4000D92E93E4E92E97E4F92E01E020E04AE85C
:100A500052E060EA7FE080E00E94FE0D892B19F5EC
:100A60004EE161E080E032D7A12C00E020E04AE8CE
:100A700052E068EA7DEF80E00E94FE0D8091020264
:100A80009091030224E030E0281B390B220F331F22
:100A900081E090E002C0880F991F2A95E2F70E943A
:100AA000EB0DC1E005C0219711F018DFC1CFC0E008
:100AB0006091040280E0BAD780E0F3DD8C2FDF91F3
:100AC000CF910F91FF90EF90DF90CF90AF9008956E
:100AD000AF92CF92DF92EF92FF920F93CF936091FC
:100AE000040280E0AAD76091040282E0A6D781E0E8
:100AF000D8DDA12CC12C90E5D92E93E4E92E97E402
:100B0000F92E00E020E04EE551E060E77EEF80E066
:100B10000E94FE0DAA24A394C12CD12C2FEAE22E10
:100B200024E4F22E20E040E055E060E271ED80E048
:100B30000E94FE0D892B71F5A12CC12C80E5D82EC9
:100B400083E4E82E87E4F82E20E04AE852E06EECD9
:100B50007FEF80E00E94FE0DAA24A39420E04AE8E3
:100B600052E068E572E080E00E94FE0DA12C20E0DA
:100B70004AE852E068EA7DEF80E00E94FE0D87E3DC
:100B80000E940612019711F4A9DE0DC01092B10265
:100B9000C1E002C0A3DEC0E06091040280E046D75D
:100BA00080E07FDD8C2FCF910F91FF90EF90DF9051
:100BB000CF90AF9008954F925F926F927F928F92F5
:100BC0009F92AF92BF92CF92DF92EF92FF920F93DC
:100BD0001F93CF93DF9300D01F92CDB7DEB7182FAE
:100BE000B92E8091A9029091AA028097F4F4812FE6
:100BF0009B2D0E94911A7C0197FD1EC08D3091059E
:100C000011F00A9711F4E12CF12C8091A902909136
:100C1000AA029C012F5F3F4F3093AA022093A902A2
:100C2000FC01E757FD4FE08207C01092AA02109224
:100C3000A902EE24EA94FE2C1A8219821C821B82DD
:100C40008091AB02882329F01092AA021092A90287
:100C500018C08091AC028823A1F01092AB021092D0
:100C6000AC028BED92E09F938F93BF921F930E94F3
:100C7000CF1A1092AA021092A9020F900F900F9013
:100C80000F908091A9029091AA02181619060CF0F3
:100C9000D6C4EF2809F0D3C463E272E089E892E099
:100CA0000E94E320892B61F0E9E6F2E0A9E8B2E0D6
:100CB00089E892E021912D938E179F07D9F710C1F3
:100CC000CE0101969F938F9387ED92E09F938F9330
:100CD00089E892E09F938F930E94271B0F900F90BB
:100CE0000F900F900F900F9018161906CCF4898171
:100CF0009A81892B09F0F4C087E30E9406129F9322
:100D00008F9381ED92E09F938F93BF921F930E94E8
:100D1000CF1A0F900F900F900F900F900F90E0C090
:100D2000E9E8F2E0A9E6B2E089EA92E021912D93A8
:100D30008E179F07D9F71092AA021092A90266E2B5
:100D400072E089E892E00E94E320892B19F08DEC93
:100D500092E06BC469E272E089E892E00E94E320CD
:100D6000892B19F089EC92E060C46CE272E089E8AA
:100D700092E00E94E320892B19F085EC92E055C4A3
:100D80006FE272E089E892E00E94E320892B19F07B
:100D900081EC92E04AC462E372E089E892E00E944A
:100DA000E320892B19F08DEB92E03FC465E372E0FC
:100DB00089E892E00E94E320892B19F089EB92E008
:100DC00034C468E372E089E892E00E94E320892B52
:100DD00019F085EB92E029C46BE372E089E892E0B8
:100DE0000E94E320892B19F081EB92E01EC46EE390
:100DF00072E089E892E00E94E320892B19F08DEAE5
:100E000092E013C461E472E089E892E00E94E3207A
:100E1000892B19F089EA92E008C464E472E089E859
:100E200092E00E94E320892B19F085EA92E0FDC34D
:100E300067E472E089E892E00E94E320892B19F0D0
:100E400081EA92E0F2C36AE472E089E892E00E94EB
:100E5000E320892B19F08DE992E0E7C36DE472E09D
:100E600089E892E00E94E320892B19F089E992E059
:100E7000DCC360E572E089E892E00E94E320892B00
:100E800019F085E992E0D1C363E572E089E892E068
:100E90000E94E320892B19F081E992E0C6C366E540
:100EA00072E089E892E00E94E320892B19F08DE836
:100EB00092E0BBC369E572E089E892E00E94E3201A
:100EC000892B19F089E892E0B0C36CE572E089E8FB
:100ED00092E00E94E320892B19F085E892E0A5C3F7
:100EE0001092AA021092A902CE0101966C019F9362
:100EF0008F9381E892E09F938F9349E8E42E42E03C
:100F0000F42EFF92EF920E94271B0F900F900F90EC
:100F10000F900F900F90181619060CF087C189805A
:100F20009A8095E08916910408F089C380910202A5
:100F3000909103028816990651F42091B102222360
:100F400031F081E0809368028DE792E06EC31092E9
:100F5000680221E02093C202059751F484E090E0FA
:100F6000909303028093020284E49DEF0E9480121A
:100F700084E0E82EF12C8091020290910302970107
:100F8000281B390BC901880F991F32E0C32ED12CC1
:100F9000960102C0220F331F8A95E2F7C9011BD6C2
:100FA000209102023091030230930102209300024B
:100FB00090920302809202028091B10282169306FF
:100FC00069F4811159C0E818F908EE0CFF1CC6013C
:100FD00002C0880F991FEA94E2F74AC0811178DDB8
:100FE0008091B102811148C08091AD029091AE0212
:100FF000449791F481E06CDB6091020270910302EE
:1010000080E090E04DDA62E370E080E090E00E94E2
:10101000B11281E046DB09C06091020270910302C7
:1010200080910002909101023BDA809160029091E0
:101030006102019690936102809360028091AD02FB
:101040009091AE0201969093AE028093AD02809192
:1010500002029091030224E030E0281B390B220F9A
:10106000331F82E090E002C0880F991F2A95E2F7B3
:10107000B2D581E08093670280E090E0ACD5E4E0F7
:101080008E2E912C80910202909103029401281BD4
:10109000390BC901880F991F66246394712C930141
:1010A00002C0220F331F8A95E2F7C90194D58091BF
:1010B0006702882309F4B7C089E792E09F938F9372
:1010C000BF921F930E94CF1A81E0EBDA6091040275
:1010D00080E0B3D44EE161E080E0F8D3AA24A39489
:1010E000C12C70E5D72E73E4E72E77E4F72E00E0ED
:1010F00020E04AE852E064EC79E080E07FD50F9090
:101100000F900F900F90892B09F075C04EE161E0B0
:1011100080E0DCD3A12CC12CD12C5FEAE52E54E475
:10112000F52E20E040E456E064E371E280E066D50D
:101130008FB7F8944090D3025090D4026090D502BB
:101140007090D6028FBF1092660284EB92E033DD7E
:101150006BE3E62E66E0F62E2FB7F8948091D3026B
:101160009091D402A091D502B091D6022FBF8419DC
:101170009509A609B709813E9E42A105B10510F067
:10118000ADDB4CC060E476E081E090E06DD984EBAB
:1011900092E011DDC7010197F1F780916602882383
:1011A000D9F210926602A12CC12C90E5D92E93E4BD
:1011B000E92E97E4F92E00E020E04EE551E068E6E4
:1011C00071E080E01BD581E08093B10280E090E087
:1011D00002D5809102029091030224E030E0281BA6
:1011E000390B220F331F81E090E002C0880F991F56
:1011F0002A95E2F712C072DB80E090E0ECD4809197
:10120000020290910302881A990A880C991CC30162
:1012100002C0880F991F8A94E2F7DDD4109267020A
:1012200085E792E002C281E792E0FFC1DF92CF92B0
:101230008DE692E09F938F93FF92EF920E94271B7F
:101240000F900F900F900F900F900F901816190697
:10125000DCF489819A818530910508F0F0C12091F4
:10126000B1022111ECC1A5DA6AE070E080E090E003
:101270000E94B112D1DB64E670E080E090E00E9451
:10128000B11289E692E0D1C1DF92CF9285E692E079
:101290009F938F93FF92EF920E94271B0F900F90C6
:1012A0000F900F900F900F901816190694F48981E3
:1012B0009A81009729F0019709F0C1C182E001C02D
:1012C00081E0809304028091040221D481E692E0BF
:1012D000ACC1DF92CF928DE592E09F938F93FF9206
:1012E000EF920E94271B0F900F900F900F900F907E
:1012F0000F9018161906B4F4EBDB68EC70E080E090
:1013000090E00E94B11289E592E09F938F93BF9283
:101310001F930E94CF1A1092C2021092AE02109236
:10132000AD0289C1DF92CF9285E592E09F938F93C2
:10133000FF92EF920E94271B0F900F900F900F903B
:101340000F900F901816190684F489819A81892BC1
:1013500009F075C198E088E10FB6F894A8958093DC
:1013600060000FBE909360006AC1DF92CF9281E56A
:1013700092E09F938F93FF92EF920E94271B0F9012
:101380000F900F900F900F900F901816190634F5CC
:1013900089819A81009719F48DE492E046C18130E9
:1013A000910531F41F9284ED8F9387E492E009C098
:1013B000029709F044C183E08F9387EE8F9381E415
:1013C00092E09F938F93BF921F930E94CF1A0F902A
:1013D0000F900F900F900F900F9031C16CE572E05D
:1013E00089E892E00E94E320892B31F081E080932C
:1013F00066028DE392E019C1CE0103969F938F930D
:10140000DF92CF9286E392E09F938F93FF92EF92C9
:101410000E94271B0FB6F894DEBF0FBECDBF181673
:1014200019066CF489819A81059708F008C18B81AF
:101430009C81039708F003C182E392E0F6C0DF923B
:10144000CF928EE292E09F938F93FF92EF920E9451
:10145000271B0F900F900F900F900F900F90181662
:1014600019060CF04BC089819A81892B09F0E7C0DD
:101470008091680281113FC060910402DED261E870
:1014800071E086E990E00E9434028091040247E115
:1014900061E0813019F480E019D202C080E076D298
:1014A00061E871E08AEA90E00E94340280910402CF
:1014B00047E061E0813019F480E008D202C080E0AA
:1014C00065D267EC71E084EC91E00E943402809177
:1014D00004024EE161E0813019F480E0F7D102C0EE
:1014E00080E054D26091040280E0A0D280E0D9D89C
:1014F0008AE292E09AC086E292E097C0DF92CF92B1
:1015000082E292E09F938F93FF92EF920E94271BBB
:101510000F900F900F900F900F900F9018161906C4
:101520000CF046C0E980FA8035E0E316F10408F0DB
:1015300086C08091B1028111CBDA81E0B2D860918E
:10154000040280E07AD283E0E816F10414F090E01F
:1015500001C094E080910202482F491B24E43DEF32
:1015600042036001439FD00C1124D0926302C092C9
:101570006202282F2E1943E651E02403C001259F63
:10158000900D11249093650280936402FCD6C601ED
:10159000B7D76AE972E084EC99E00E94340280E0F7
:1015A00080D86091040280E041D28EE192E03DC09B
:1015B000DF92CF928AE192E09F938F9389E892E045
:1015C0009F938F930E94271B0F900F900F900F9067
:1015D0000F900F901816190694F589819A81892B1E
:1015E00071F56091040280E028D281E05AD860E46D
:1015F00076E08CE396EF0E94340280E052D880912E
:10160000640290916502919581959109BCD6809173
:1016100062029091630291958195910971D76091D1
:10162000040280E003D286E192E09F938F93BF9201
:101630001F930E94CF1A0F900F900F900F900F9052
:101640000F900F900F90DF91CF911F910F91FF900E
:10165000EF90DF90CF90BF90AF909F908F907F9052
:101660006F905F904F9008958091020290910302D5
:1016700024E030E0281B390B220F331F81E090E07B
:1016800002C0880F991F2A95E2F7A5D2FBD8857072
:10169000A9F0F8D8282F80910202909103022130FE
:1016A00019F0243031F00AC0853091053CF40196E0
:1016B00004C01816190614F401977BD88091020211
:1016C00090910302059781F482E090E084D262E376
:1016D00070E080E090E045D781E090E07CD262E36A
:1016E00070E080E090E03DC7089580E090E0892BB5
:1016F00019F0CCD4811120C080E090E0892B19F042
:10170000BCD481111CC080E090E0892B41F080E0C6
:1017100090E0892B21F00E940000811113C080E02D
:1017200090E0892BA1F080E090E0892B81F00E946D
:10173000000081110AC008950E940000DDCF0E94C0
:101740000000E1CF0E940000EACF0C940000089551
:10175000CF92DF92EF92FF929CE59CBD1DBC813041
:1017600039F020F0823029F42F9803C0469801C048
:101770005F986EBD0DB407FEFDCF9EB5C52EDD246E
:10178000EE24FF24CEBC0DB407FEFDCF9EB56A014A
:10179000EE24FF24CEBC0DB407FEFDCF9EB5C32EB4
:1017A000D42EE52EFF24CEBC0DB407FEFDCF9EB592
:1017B0002EBD0DB407FEFDCF9EB5813039F020F06F
:1017C000823029F42F9A03C0469A01C05F9AFF9095
:1017D000EF90DF90CF9008959C0188E03695279593
:1017E0002115310511F08150C9F708951F93CF934A
:1017F000DF93182FD42FC22F262F2F70C03270F4F2
:10180000822F90E0A0E0B0E0B82FAA279927882780
:101810009C01AD01236D436050610FC0C695D69504
:10182000822F90E0A0E0B0E0B82FAA279927882760
:101830009C01AD01236D416050616CEE812F88DF0A
:10184000CF718C2F90E0982F8827092E000CAA0BBF
:10185000BB0BDF714D2F50E060E070E06F609A01CC
:10186000AB01282B392B4A2B5B2B60E9812F70DFD2
:1018700080E0DF91CF911F9108952091B2023091C5
:10188000B302C90184709927AC0156954795C901E7
:10189000807199279695879596958795842B2170C9
:1018A000822B089587ED92E0BAC384E793E0B7C333
:1018B000682F87ED92E015D480E090E00895682FBE
:1018C00084E793E00ED480E090E008951F93CF93D7
:1018D000DF93C82FD62F142F813031F028F08230BB
:1018E00039F480E190E002C082E090E075DF01C051
:1018F00080E1212F4D2F682F8C2F78DFD82F811179
:101900003FC020E030E0A90161E98C2F21DFC13028
:1019100029F030F0C23021F024E003C029E001C0FA
:1019200025E0822F220F990BAA0BBB0BAC013327AA
:1019300022276DEE8C2F0CDF22EC31E040E050E0EE
:1019400064E98C2F05DF20E831E340E050E060E8F7
:101950008C2FFEDE212F220F220F822F90E0A0E09D
:10196000B0E09C01AD01C11105C03260466160EF7D
:1019700080E004C03260466060EF8C2FE9DE01C079
:10198000DFEF8D2FDF91CF911F9108951F93CF939C
:10199000DF93C82F162FD42F813031F028F08230FA
:1019A00039F480E190E002C082E090E015DF01C0F0
:1019B00080E12D2F412F682F8C2F18DF182F8111D8
:1019C0002FC020E030E0A90161E98C2FC1DE20E0CA
:1019D00030E044E050E06DEE8C2FBADE20E030E0E5
:1019E000A90164E98C2FB4DE24E030E040E050E04F
:1019F00060E88C2FADDE2D2F220F220F822F90E07A
:101A0000A0E0B0E09C01AD013260466060EF8C2F39
:101A10009FDE20E030E0A90163E98C2F99DE01C050
:101A20001FEF812FDF91CF911F91089540E0623029
:101A300011F460E0ABCF60E049CFCF93DF93CDB737
:101A4000DEB72F970FB6F894DEBF0FBECDBF209143
:101A50000502309106024091070229833A834B83A5
:101A60002C833D834E8320910802309109024091DE
:101A70000A022F833887498720910B0230910C028C
:101A800040910D022A873B874C8720910E023091AE
:101A90000F02409110022D873E874F876130D9F0A9
:101AA00090F0623051F5282F30E0FE01E20FF31F75
:101AB000448162852F960FB6F894DEBF0FBECDBF6E
:101AC000DF91CF9163CF282F30E0FE01E20FF31FAB
:101AD000DF01458507C0282F30E0FE01E20FF31F2C
:101AE000DF01418117966C912F960FB6F894DEBFF7
:101AF0000FBECDBFDF91CF91E9CE80E02F960FB61C
:101B0000F894DEBF0FBECDBFDF91CF9108951F9334
:101B1000CF93DF93182F3E9A579A279A469A5F9A47
:101B20002F9A549A249A569A5C982C985E98682F0B
:101B300080E083DF21E030E0811102C020E030E06E
:101B4000CC27DD27C21BD30B612F81E076DF81110B
:101B500002C020E001C02EEFC20F612F82E06DDFD6
:101B600081118CEF8C0FDF91CF911F9108952E98EA
:101B7000000020E130E040E050E8BC016423752320
:101B8000672B11F02D9A01C02D98479A00004798B5
:101B90000000569547952150310979F72E9A00009B
:101BA0009093B3028093B2020895282F2270922F4F
:101BB000990F282F2470220F220F292B8170282B98
:101BC000022E000C330B8091B2029091B3028A7EF8
:101BD000822B932BCCCF2091B2023091B3022F7382
:101BE0003327582F4427242B352B8827937096951D
:101BF000879596958795822B932BB9CF2F923F92FD
:101C00004F925F926F927F928F929F92AF92BF920C
:101C1000CF92DF92EF92FF920F931F93CF93DF93B8
:101C2000CDB7DEB760970FB6F894DEBF0FBECDBF5D
:101C300089831B0129870C83AE8680910402823040
:101C400009F41C82BA01550F880B990B0E949D1F45
:101C50006A877B878C879D8729812130E1F018F086
:101C6000223069F027C037FE07C0882499248218E3
:101C7000930803DE816017C000DE8E7F18C037FE38
:101C800007C08824992482189308F7DD8B7F0BC046
:101C9000F4DD84600CC037FE08C0882499248218C3
:101CA0009308EBDD8D7F81DF07C0E7DD82607DDF9C
:101CB000410102C0812C912C1B821A82A12CB12CD3
:101CC0001E821D821F86188A18E403E4A814B90432
:101CD00009F4CDC039813130E9F018F0323081F0AB
:101CE0002FC02C9A2C988C818823F1F089E38ED315
:101CF0000197D1F462E370E080E090E032D4C6C096
:101D00005E9A5E989C819923D9F08BE37FD30197EB
:101D1000B9F4B0C05C9A5C982C81222389F08AE3E4
:101D200075D3019769F406C19E85992349F0121471
:101D300013040CF095C087E369D3019709F497C0A9
:101D40003FEFA31AB30AC4018A199B0998878F83AE
:101D50002F853889412F502F60E070E080E89FE3A5
:101D60000E94071F2B013C0120E034E244E759E4C4
:101D70000E944D200E946F1F6230710548F0660F6F
:101D8000771F660F771F65507109CB010197F1F737
:101D90002A813B8121303105D9F12230310509F406
:101DA00044C0A7019601C301B2010E944D209B01CE
:101DB000AC016F857889812F902F0E949F1E6F87BD
:101DC000788B182F092F9B01482F592F6A857B8507
:101DD0008C859D850E94031F18165CF0BE82AD8223
:101DE0003A853F878B85888B1C850D8521E030E007
:101DF0000CC08F8198858A159B051CF01B821A8266
:101E000065CFBE82AD8222E030E03B832A835ECF85
:101E10008D819E812F813885821793070CF456CFD0
:101E200082E090E09B838A8351CFA7019601C30192
:101E3000B2010E944D209B01AC016F857889812FF2
:101E4000902F0E949E1E6F87788B182F092F20E0FD
:101E500030E048E453E40E94031F87FF37CF32CFBE
:101E600037FE6ECF87E3D2D2892B09F069CF80E0AD
:101E700090E07FC062E370E080E090E072D329855B
:101E8000222321F00E94CD02892B19F082E090E0FC
:101E900070C062E370E080E090E063D38091020262
:101EA000909103028530910511F484E090E0109246
:101EB000B0022DE93EEF829FB001839F700D929F8B
:101EC000700D1124A12CC12C20E5D22E23E4E22E8A
:101ED00027E4F22E01E021E048E057E082E08EDEC8
:101EE00062E370E080E090E03CD380E00E94510328
:101EF0001CC02A813B8125303105C1F18CEB92E079
:101F0000289FB001299F700D389F700D1124A12CBE
:101F1000C12C90E5D92E93E4E92E97E4F92E01E047
:101F200021E048E853E181E069DE1092B10281E0EE
:101F300090E01FC062E370E080E090E012D339854A
:101F4000332309F4A3CF0E940F03892B09F09ECFFE
:101F500080910202909103029B838A8387E356D289
:101F6000019739F699819093B102E1CF6CEA7DE057
:101F7000CECF60960FB6F894DEBF0FBECDBFDF9117
:101F8000CF911F910F91FF90EF90DF90CF90BF9076
:101F9000AF909F908F907F906F905F904F903F9009
:101FA0002F900895CF92DF92EF92FF920F931F939D
:101FB000CF93DF936C017A018B01C0E0D0E0CE15A6
:101FC000DF0581F0D8016D918D01D601ED91FC9175
:101FD0000190F081E02DC6011995892B11F0219611
:101FE000EECF7E01C701DF91CF911F910F91FF903E
:101FF000EF90DF90CF900895089580E090E00895ED
:10200000FC01538D448D252F30E0842F90E0821BFE
:10201000930B541710F0CF96089501970895FC0183
:10202000918D828D981761F0828DDF01A80FB11D0F
:102030005D968C91928D9F5F9F73928F90E0089533
:102040008FEF9FEF0895FC01918D828D981731F0ED
:10205000828DE80FF11D858D90E008958FEF9FEF41
:102060000895FC01918D228D892F90E0805C9F4F17
:10207000821B91098F739927089587ED92E0F1DF14
:1020800021E0892B09F420E0822F089584E793E072
:10209000E8DF21E0892B09F420E0822F0895FC017C
:1020A000848DDF01A80FB11DA35ABF4F2C91848DE1
:1020B00090E001968F739927848FA689B7892C9316
:1020C000A089B1898C91837080648C93938D848D69
:1020D000981306C00288F389E02D80818F7D80836C
:1020E0000895EF92FF920F931F93CF93DF93EC012C
:1020F00081E0888F9B8D8C8D981305C0E889F989C4
:10210000808185FD25C0F62E0B8D10E00F5F1F4FDF
:102110000F731127E02E8C8DE8120BC00FB607FC51
:10212000FACFE889F989808185FFF5CFCE01B7DF45
:10213000F2CF8B8DFE01E80FF11DE35AFF4FF082C5
:102140009FB7F8940B8FEA89FB89808180620AC06F
:102150009FB7F894EE89FF896083E889F9898081C7
:102160008370806480839FBF81E090E0DF91CF9196
:102170001F910F91FF90EF900895CF93DF93EC01A3
:10218000888D8823C1F0EA89FB89808185FD05C09F
:10219000A889B9898C9186FD0EC00FB607FCF5CFD2
:1021A000808185FFF2CFA889B9898C9185FFEDCF19
:1021B000CE0175DFE8CFDF91CF9108950E94DF2037
:1021C0001F920F920FB60F9211240BB60F922F93FE
:1021D0003F934F935F936F937F938F939F93AF93AF
:1021E000BF93EF93FF9387ED92E059DFFF91EF915B
:1021F000BF91AF919F918F917F916F915F914F911F
:102200003F912F910F900BBE0F900FBE0F901F901C
:1022100018951F920F920FB60F9211240BB60F92C2
:102220002F938F939F93EF93FF93E091E702F091A9
:10223000E8028081E091ED02F091EE0282FD12C091
:1022400090818091F0028F5F8F732091F10282174D
:1022500051F0E091F002F0E0E952FD4F958F80934C
:10226000F00201C08081FF91EF919F918F912F919A
:102270000F900BBE0F900FBE0F901F9018951F92DE
:102280000F920FB60F9211240BB60F922F933F931C
:102290004F935F936F937F938F939F93AF93BF936E
:1022A000EF93FF9384E793E0FADEFF91EF91BF9104
:1022B000AF919F918F917F916F915F914F913F91DE
:1022C0002F910F900BBE0F900FBE0F901F9018957F
:1022D0001F920F920FB60F9211240BB60F922F93ED
:1022E0008F939F93EF93FF93E0918403F091850385
:1022F0008081E0918A03F0918B0382FD12C090816E
:1023000080918D038F5F8F7320918E03821751F020
:10231000E0918D03F0E0EC58FC4F958F80938D0396
:1023200001C08081FF91EF919F918F912F910F902C
:102330000BBE0F900FBE0F901F9018953FB7F894EB
:102340008091120490911304A0911404B09115048B
:1023500026B5A89B05C02F3F19F00196A11DB11D00
:102360003FBFBA2FA92F982F8827820F911DA11D3B
:10237000B11DBC01CD0142E0660F771F881F991F78
:102380004A95D1F70895AF92CF92DF92EF92FF92E4
:102390000F93A12CC12C20E5D22E23ECE22E26E4B3
:1023A000F22E01E021E048E057E0BC0182E026DCAB
:1023B0000F91FF90EF90DF90CF90AF900895FC01C8
:1023C000A089B18982E08C93A485B5851C92A685ED
:1023D000B78580E18C93108EA489B5898EE08C93AB
:1023E000A289B3898C9180618C93A289B3898C91E5
:1023F00088608C93A289B3898C9180688C930288C1
:10240000F389E02D80818F7D8083089590E0FC0129
:10241000E455FC4F4491FC01EA5AFC4F2491FC0125
:10242000E050FD4F9491992309F467C0442309F4C7
:1024300055C050E0FA013197E231F10508F04EC085
:102440008827EE58FF4F8F4F0C94C3208091800057
:102450008F7707C0809180008F7D03C080918000BE
:10246000877F809380003AC084B58F7702C084B59F
:102470008F7D84BD33C08091B0008F7703C0809181
:10248000B0008F7D8093B00029C0809190008F773D
:1024900007C0809190008F7D03C080919000877F5E
:1024A000809390001BC08091A0008F7707C080911F
:1024B000A0008F7D03C08091A000877F8093A00043
:1024C0000DC0809120018F7707C0809120018F7D02
:1024D00003C080912001877F80932001E92FF0E0E5
:1024E000EE0FFF1FEA51FD4FA591B491EC91E2234D
:1024F00081E090E021F480E0089580E090E008958C
:102500008F929F92AF92CF92DF92EF92FF920F93B2
:10251000CF93DF934C0180910402823019F4C8EB11
:10252000DBE002C0C8E8D3E187E370DF019771F018
:10253000A12CC12C80E5D82E83E4E82E87E4F82E68
:1025400001E021E0AE01B40181E058DBDF91CF91E1
:102550000F91FF90EF90DF90CF90AF909F908F9072
:1025600008958F929F92AF92BF92CF92DF92EF9297
:10257000FF926B017C01E2DE4B015C01C114D104CE
:10258000E104F104E9F0DADEDC01CB0188199909F4
:10259000AA09BB09883E9340A105B10578F321E063
:1025A000C21AD108E108F10888EE880E83E0981E6F
:1025B000A11CB11CC114D104E104F10421F7DECF48
:1025C000FF90EF90DF90CF90BF90AF909F908F9053
:1025D00008951F920F920FB60F9211242F933F93DD
:1025E0008F939F93AF93BF938091D3029091D40226
:1025F000A091D502B091D6023091110423E0230FAF
:102600002D3720F40196A11DB11D05C026E8230F2A
:102610000296A11DB11D209311048093D3029093C3
:10262000D402A093D502B093D60280911204909167
:102630001304A0911404B09115040196A11DB11DBD
:102640008093120490931304A0931404B093150480
:10265000BF91AF919F918F913F912F910F900FBE9E
:102660000F901F9018952F923F924F925F926F920A
:102670007F928F929F92AF92BF92CF92DF92EF9212
:10268000FF920F931F93CF93DF93CDB7DEB7609781
:102690000FB6F894DEBF0FBECDBF7C011B016A01EF
:1026A000FC0117821682838181FF2AC39E012F5F5E
:1026B0003F4F3901F7019381F10193FD859193FF1C
:1026C00081911F01882309F417C3853239F493FDE2
:1026D000859193FF81911F01853231F4B70190E01C
:1026E0007AD756016501E6CF10E0512C912CFFE11D
:1026F000F915D8F08B3279F038F4803279F08332E2
:10270000A1F4F92DF0612EC08D3261F0803369F4AF
:10271000292D21602DC0392D3260932E892D8460A2
:10272000982E2AC0E92DE86015C097FC2DC020ED39
:10273000280F2A3088F496FE06C03AE0139F200D39
:102740001124122F19C08AE0589E200D1124522EF8
:10275000E92DE0629E2E10C08E3231F496FCCCC280
:10276000F92DF0649F2E08C08C3621F4292D2068A5
:10277000922E02C0883641F4F10193FD859193FFBA
:1027800081911F018111B3CF9BEB980F933020F4FF
:10279000992D9061805E07C09BE9980F933008F0F7
:1027A00059C1992D9F7E96FF16E09F73992E85360D
:1027B00019F49064992E08C0863621F4392F3068B8
:1027C000932E02C01111115097FE07C01C3350F414
:1027D00044244394410E27E00BC0183038F027E022
:1027E00017E005C027E09CE3492E02C0212F412CB1
:1027F000560184E0A80EB11CF601608171818281CE
:102800009381042DA3019FD56C01F981FC87F0FF12
:1028100002C0F3FF06C091FC06C092FE06C000E2B3
:1028200005C00DE203C00BE201C000E08C858C7096
:1028300019F0011143C280C297FE10C04C0CFC85F8
:10284000F4FF04C08A81813309F44A94141474F5A6
:1028500028E0241578F588E0482E2CC096FC2AC084
:10286000812F90E08C159D059CF03CEFC3163FEF47
:10287000D30674F0892D8068982E0AC0E2E0F0E05B
:10288000EC0FFD1FE10FF11D8081803319F4115011
:102890001111F4CF97FE0EC044244394410E812FB2
:1028A00090E0C816D9062CF41C1904C044244394A3
:1028B00001C010E097FE06C01C141D0434F4C601CC
:1028C000019605C085E090E002C081E090E0011132
:1028D0000196112331F0212F30E02F5F3F4F820FFF
:1028E000931F252D30E08217930714F4581A01C066
:1028F000512C892D897041F4552031F0B70180E2C7
:1029000090E069D65A94F8CF002321F0B701802FC8
:1029100090E061D693FC08C0552031F0B70180E308
:1029200090E059D65A94F8CF97FE4AC04601D7FE98
:1029300002C0812C912CC60188199909F301E80F76
:10294000F91FFE87ED87960124193109388B2F87EF
:10295000012F10E01195019511093FEF83169306A1
:1029600021F4B7018EE290E036D6C814D9044CF0B9
:102970008F8598898815990524F4ED85FE858181D8
:1029800001C080E3F1E08F1A91082D853E852F5F0D
:102990003F4F3E872D878016910624F0B70190E0C7
:1029A0001AD6DBCFC814D90441F49A81963320F4A7
:1029B000953319F43C8534FF81E3B70190E048C0BA
:1029C0008A81813319F09C859F7E9C87B70190E0B6
:1029D00002D6111105C094FC16C085E690E015C022
:1029E000B7018EE290E0F7D51E5F82E001E0080FAC
:1029F000F301E80FF11D8081B70190E0ECD5802F45
:102A00000113F4CFE8CF85E490E0B701E4D5D7FC1B
:102A100006C0C114D10441F4EC85E4FF05C0D19493
:102A2000C194D1088DE201C08BE2B70190E0D3D50B
:102A300080E32AE0C216D1042CF08F5FFAE0CF1AAF
:102A4000D108F7CFB70190E0C6D5B701C601C0964F
:102A5000C2D549C1833631F0833779F0833509F027
:102A600052C01FC0560132E0A30EB11CF601808196
:102A7000898301E010E0630111C05601F2E0AF0E5E
:102A8000B11CF601C080D18096FE03C0612F70E0BA
:102A900002C06FEF7FEFC60139D58C01F92DFF77AA
:102AA00013C0560122E0A20EB11CF601C080D180F5
:102AB00096FE03C0612F70E002C06FEF7FEFC6018A
:102AC0001AD58C01F92DF0689F2EF3FD18C0852DC5
:102AD00090E00817190798F4B70180E290E07BD5E1
:102AE0005A94F5CFF60197FC859197FE81916F017D
:102AF000B70190E070D551105A9401501109011599
:102B0000110581F7F0C0843611F0893659F5560168
:102B100097FE09C024E0A20EB11CF601608171810C
:102B2000828193810AC0F2E0AF0EB11CF601608190
:102B30007181072E000C880B990BF92DFF769F2EC3
:102B400097FF09C090958095709561957F4F8F4F45
:102B50009F4FF0689F2E2AE030E0A30199D5C82E40
:102B6000C6183EC0092D853721F40F7E2AE030E0DB
:102B70001DC0097F8F3691F018F4883559F0BCC01C
:102B8000803719F0883711F0B7C0006104FF09C021
:102B9000046007C094FE08C0066006C028E030E06C
:102BA00005C020E130E002C020E132E0560107FF1D
:102BB00009C084E0A80EB11CF60160817181828198
:102BC000938108C0F2E0AF0EB11CF6016081718103
:102BD00080E090E0A3015CD5C82EC6180F77902E38
:102BE00096FE0BC0092D0E7FC11650F494FE0AC04C
:102BF00092FC08C0092D0E7E05C0DC2C092D03C0F7
:102C0000DC2C01C0D12E04FF0DC0FE01EC0DF11D26
:102C10008081803311F4097E09C002FF06C0D3947D
:102C2000D39404C0802F867809F0D39403FD10C09C
:102C300000FF06C01C2DD51478F4150D1D190CC00D
:102C4000D51450F4B70180E290E0C5D4D394F8CF06
:102C5000D51410F45D1801C0512C04FF0FC0B7014A
:102C600080E390E0B8D402FF16C001FD03C088E7FE
:102C700090E002C088E590E0B7010CC0802F867814
:102C800051F001FF02C08BE201C080E207FD8DE23E
:102C9000B70190E0A0D4C11630F4B70180E390E012
:102CA0009AD41150F8CFCA94F301EC0DF11D808134
:102CB000B70190E090D4C110F6CF15C0F4E0F5153F
:102CC00050F584E0581A93FE1EC0011125C02C85D2
:102CD00023FF27C008E011E0392D3071932EF80151
:102CE0008491811121C0552009F4FCCCB70180E208
:102CF00090E071D45A94F7CFF7018681978123C071
:102D00008FEF9FEF20C0B70180E290E064D45A9427
:102D10005110F9CFDACF512CB701802F90E05BD45E
:102D2000D6CF0CE011E0D8CF91108052B70190E0DF
:102D300052D40F5F1F4FD3CF23E0251510F483E04B
:102D4000C1CF512CC4CF60960FB6F894DEBF0FBE32
:102D5000CDBFDF91CF911F910F91FF90EF90DF904A
:102D6000CF90BF90AF909F908F907F906F905F902B
:102D70004F903F902F900895789484B5826084BDE1
:102D800084B5816084BD85B5826085BD85B581606F
:102D900085BD80916E00816080936E0010928100ED
:102DA00080918100826080938100809181008160A8
:102DB0008093810080918000816080938000809169
:102DC000B10084608093B1008091B00081608093F5
:102DD000B000809191008260809391008091910079
:102DE0008160809391008091900081608093900039
:102DF0008091A10082608093A1008091A1008160F8
:102E00008093A1008091A00081608093A0008091B8
:102E10002101826080932101809121018160809352
:102E200021018091200181608093200180917A00AE
:102E3000846080937A0080917A00826080937A0027
:102E400080917A00816080937A0080917A00806816
:102E500080937A001092C1003F9A269A259A47984B
:102E60002E982D981092B3021092B20280E090E05A
:102E70000E94B70D8091B2029091B3020E94B70DEB
:102E800080E090E00E94A60368EE73E080E090E0AE
:102E900068DB84E793E093DA05EC12E08FE59CE0D1
:102EA0009093CE028093CD0285E59CE09093D00272
:102EB0008093CF0293E0992E9092C8021092D20292
:102EC0001092D10287ED92E07ADAC4EBD2E088E585
:102ED0009CE09093BD028093BC0282E59CE09093BD
:102EE000BF028093BE029092B7021092C10210926C
:102EF000C00281E090E00E94A603109317040093A3
:102F0000160410931904009318048FED92E09F9318
:102F10008F93DF93CF9343D384B1817F84B984B1FE
:102F2000866084B982E090E00E94A60380E00E945F
:102F3000870D83E090E00E94A6031092C4021092D5
:102F4000C30280917A00876080937A0080917C0030
:102F5000806480937C0080917A00806880937A00FE
:102F600080E280937E0010927D0084E090E00E94D9
:102F7000A6030F900F900F900F90C2E3D0E02BEDBF
:102F8000622E2EE2722E32E3832E912CA12CC12CC4
:102F900000E5D02E03E4E02E07E4F02E01E020E06F
:102FA00040E050E061E070E080E00E94FE0DC3016F
:102FB0000197F1F7CE01B4010E94B020660F771F90
:102FC00081E090E002C0880F991F6A95E2F70E94A5
:102FD000EB0D2197D9F6C2E3D0E0ABED4A2EAEE27D
:102FE0005A2EBEEC6B2E77247A9488248394912CED
:102FF000A12CC12CE0E5DE2EE3E4EE2EE7E4FE2E6C
:1030000001E020E040E050E06FEF7FEF80E00E94C1
:10301000FE0DC2010197F1F7CE01B3010E94B0206D
:103020006C5F7F4F660F771FC40102C0880F991F26
:103030006A95E2F70E94EB0D2197D1F60E944204B7
:10304000C82F87E3E3D90197F1F40E94420481304D
:10305000C1F387E3DBD9019719F48AEA92E002C051
:1030600085E591E00E94EB0D6CE271E080E090E07C
:1030700078DA80E090E00E94EB0D6CE271E080E095
:1030800090E06FDAE2CF80E00E9468038091040252
:103090000E94870DC23009F0D0C080E090E00E940D
:1030A000EB0D68EC70E080E090E05BDA8AEA92E099
:1030B0000E94EB0D60EB74E080E090E052DA80E07B
:1030C00090E00E94EB0D68E572E080E090E049DA64
:1030D00011E0C0E0D0E072E0872E912C80E091E01A
:1030E0000E94EB0D61E070E080E090E03ADA80E071
:1030F00092E00E94EB0D61E070E080E090E031DA58
:10310000CE01880F991F940102C0220F331F8A95A8
:10311000E2F7C9010E94EB0D61E070E080E090E011
:1031200020DA0E944204823049F0843009F448C019
:103130008130A1F6209791F2219747C0C230D10586
:10314000E1F144F4C130D10549F604E010E0C2E0F9
:10315000D0E008C0C330D10509F4A0C0C430D10507
:10316000D1F1BCCF0E94340B0E9442048230D1F7CF
:1031700080910202909103029801281B390BC9012A
:10318000880F991F9E0102C0220F331F8A95E2F714
:10319000C9010E94EB0D64EF71E080E090E0E1D99D
:1031A0000E9442048230F1F684E090E00E94D9034C
:1031B00080E090E00E94D9030EC011118FCF0BC0A8
:1031C000C430D1050CF08ACF219660E273E080E034
:1031D00090E0C7D983CF80E090E00E94EB0D60E9DA
:1031E00071E080E090E0BDD98AEA92E00E94EB0DA8
:1031F00060E971E080E090E0B4D980E090E00E9466
:10320000EB0D60E971E080E090E0ABD980E090E008
:103210000E94EB0D809102029091030224E030E0C5
:10322000281B390B220F331F81E090E002C0880F6A
:10323000991F2A95E2F70E94EB0DC4E0D0E002E06E
:1032400010E084EB92E00E94DB058091C2028111C4
:1032500022C00E94340B0E9442048230E1F480912B
:1032600002029091030285309105ACF49E01281B67
:10327000390BC901880F991F980102C0220F331F13
:103280008A95E2F7C9010E94EB0D0E944204823048
:1032900011F40E940C050E94750BD3CF10E01ECFD5
:1032A000E7EDF2E01382128248EE53E060E070E056
:1032B000448355836683778385E192E0918380839D
:1032C0002DEC30E0358724872CEC30E037872687DB
:1032D00028EC30E0318B208B29EC30E0338B228BD3
:1032E0002AEC30E0358B248B2EEC30E0378B268BAC
:1032F000118E128E138E148EE4E7F3E01382128285
:1033000044835583668377839183808385EC90E043
:103310009587848784EC90E09787868780EC90E09F
:10332000918B808B81EC90E0938B828B82EC90E090
:10333000958B848B86EC90E0978B868B118E128E0A
:10334000138E148E0895283008F027E03327DA0111
:10335000990F311D87FD916000966105710539F463
:1033600032602E5F3D9330E32A95E1F708959F3F49
:1033700030F080387105610509F03C5F3C5F3D939A
:10338000913008F08068911DDF93CF931F930F93C6
:10339000FF92EF92192F987F9695E92F9695969523
:1033A000E90FFF27E659FE4F99273327EE24FF2424
:1033B000A701E70105900894079428F4360FE71E4B
:1033C000F81E491F511D660F771F881F991F06940D
:1033D000A1F70590079428F4E70EF81E491F561F21
:1033E000C11D770F881F991F661F0694A1F70590CE
:1033F000079428F4F80E491F561FC71FD11D880FC8
:10340000991F661F771F0694A1F70590079420F473
:10341000490F561FC71FD81F990F661F771F881F98
:103420000694A9F784911095177041F0D695C79529
:1034300057954795F794E7941A95C1F7E0E1F1E0C5
:1034400068941590159135916591959105907FE25D
:103450007395E118F10A430B560BC90BD009C0F75D
:10346000E10CF11E431F561FC91FD01D7EF470339F
:1034700011F48A95E6CFE894015030F0080F0AF471
:103480000027021708F4202F2395022F7A3328F003
:1034900079E37D932A95E9F710C07D932A9589F603
:1034A000069497956795379517951794E118F10A43
:1034B000430B560BC90BD00998F023957E91739559
:1034C0007A3308F070E37C932013B8F77E91706133
:1034D0007D9330F0839571E37D9370E32A95E1F756
:1034E0001124EF90FF900F911F91CF91DF919927B9
:1034F00087FD90950895FC01059061507040011082
:10350000D8F7809590958E0F9F1F0895FC0161500C
:10351000704001900110D8F7809590958E0F9F1FF5
:103520000895CF93DF93EC012B8120FF33C026FF5A
:103530000AC02F7B2B838E819F8101969F838E8370
:103540008A8190E029C022FF0FC0E881F981808143
:10355000082E000C990B009719F420622B831AC0D7
:103560003196F983E8830EC0EA85FB85199597FFAC
:1035700009C02B81019611F080E201C080E1822B0D
:103580008B8308C02E813F812F5F3F4F3F832E8367
:10359000992702C08FEF9FEFDF91CF9108950F938E
:1035A0001F93CF93DF93CDB7DEB708851985F80158
:1035B000838188608383AE01445F5F4F6A857B852A
:1035C000C80151D8F8012381277F2383DF91CF9150
:1035D0001F910F9108950F931F93CF93DF93FB01DA
:1035E000238121FD03C08FEF9FEF2CC022FF16C067
:1035F00046815781248135814217530744F4A081C5
:10360000B1819D012F5F3F4F318320838C932681B1
:1036100037812F5F3F4F3783268314C08B01EC0126
:10362000FB010084F185E02D1995892BE1F6D80185
:1036300016968D919C911797019617969C938E9351
:103640001697CE01DF91CF911F910F910895CF93DF
:10365000DF93CDB7DEB72E970FB6F894DEBF0FBE5F
:10366000CDBF8DE08C838C899D899A838983AE013F
:10367000485E5F4F6E897F89CE01019619D22E96E2
:103680000FB6F894DEBF0FBECDBFDF91CF91089586
:10369000FA01AA27283051F1203181F1E8946F9383
:1036A0006E7F6E5F7F4F8F4F9F4FAF4FB1E03ED029
:1036B000B4E03CD0670F781F891F9A1FA11D680FC7
:1036C000791F8A1F911DA11D6A0F711D811D911DFA
:1036D000A11D20D009F468943F912AE0269F11246F
:1036E0003019305D3193DEF6CF010895462F4770D3
:1036F000405D4193B3E00FD0C9F7F6CF462F4F702E
:10370000405D4A3318F0495D31FD4052419302D08B
:10371000A9F7EACFB4E0A695979587957795679531
:10372000BA95C9F700976105710508959B01AC0131
:103730000A2E06945795479537952795BA95C9F758
:10374000620F731F841F951FA01D089520FD09C0DF
:10375000FC0123FD05C022FF02C0738362835183F5
:103760004083089544FD17C046FD17C0AB01BC015E
:10377000DA01FB01AA0FBB1FEE1FFF1F1094D1F748
:103780004A0F5B1F6E1F7F1FCB01BA01660F771FA9
:10379000881F991F09C033E001C034E0660F771F0E
:1037A000881F991F3150D1F7620F711D811D911D26
:1037B00008950F931F93CF93DF938C01C801B1DE5F
:1037C000EC0197FD06C08BD2892BC1F7B801CE0161
:1037D00099D2CE01DF91CF911F910F9108958F92D1
:1037E0009F92AF92BF92EF92FF920F931F93CF934E
:1037F000DF938C01D62F7A01B22E93DE9C01332702
:103800002B32310531F02D32310559F48B2D806882
:10381000B82ED15011F480E061C0C80182DE97FD5E
:10382000FACFCB2DCD7F2B2D2073F9F48033E9F423
:10383000AA24AA94AD0E09F43EC0C80172DE97FD19
:103840003AC09C012F7D33272835310541F4C264ED
:10385000D25089F1C80165DE97FF07C02CC0B6FEC3
:1038600002C0C26001C0C261DA2D812C912C5401CA
:1038700020ED280F283078F0C4FF03C0B80142D2F1
:1038800017C02A3040F0C6FFF9CF2F7D3FEE320F30
:103890003630A0F727504C2FC501B40163DF4B0130
:1038A0005C01C260D15051F0C8013BDE97FFE0CF10
:1038B000C1FD04C0B0CF812C912C5401C7FF08C0BA
:1038C000B094A09490948094811C911CA11CB11C74
:1038D0002C2FB501A401C70139DF81E0DF91CF9121
:1038E0001F910F91FF90EF90BF90AF909F908F909E
:1038F00008955F926F927F928F929F92AF92BF9244
:10390000CF92DF92EF92FF920F931F93CF93DF93AB
:10391000CDB7DEB7A0970FB6F894DEBF0FBECDBF10
:103920005C01962E7A01F9018E010F5F1F4F68012D
:1039300080E2D8011D928A95E9F7D50113968C9003
:1039400080E090E0612C712C30E061E070E083FC5D
:10395000259183FE21918F01522E211103C080E019
:1039600090E090C02E3511F4009751F1432F50E0B4
:10397000481759073CF42D3559F12D3219F47720A9
:1039800009F103C0772009F468C0452D4695469596
:103990004695D601A40FB11D452D47708B0102C07D
:1039A000000F111F4A95E2F7A8015C91452B4C933B
:1039B000651459F0561410F45394E7CF5A94E5CF98
:1039C00031E004C07724739401C0712C0196BFCFFD
:1039D000772019F08E8180628E83311103C0882494
:1039E000839417C0F6019E012F5D3F4F8081809523
:1039F00081932E173F07D1F7F2CFE114F10429F09C
:103A0000D7018C93F70131967F019A94812C9920EC
:103A1000E9F0C50186DD97FD17C0FC01FF2723E013
:103A2000F595E7952A95E1F7EC0DFD1D208130E035
:103A3000AC014770552702C0359527954A95E2F7A6
:103A400020FDDBCFB5015ED1811089CFE114F104F7
:103A500011F0D7011C92C80115C0422F469546951A
:103A60004695D601A40FB11D422F47708B0102C0AD
:103A7000000F111F4A95E2F7A8015C91452B4C936A
:103A8000622EA4CFA0960FB6F894DEBF0FBECDBFB6
:103A9000DF91CF911F910F91FF90EF90DF90CF902A
:103AA000BF90AF909F908F907F906F905F900895A0
:103AB0005F926F927F928F929F92AF92BF92CF92BE
:103AC000DF92EF92FF920F931F93CF93DF936C01DE
:103AD000EB015A01FC0117821682512CF601E3809A
:103AE000FE01E3FC8591E3FE8191182FEF0188230D
:103AF00009F4E0C090E0F3D0892B19F0C60159DE3B
:103B0000EDCF153241F4FE01E3FC1591E3FE119176
:103B1000EF01153271F4C60104DD97FDC9C0412FD4
:103B200050E09C01332724173507C1F2B601EAD0D3
:103B3000C1C01A3239F4E3FC1591E3FE1191EF0193
:103B400001E001C000E0F12C20ED210F2A3078F4D3
:103B500002606F2D70E080E090E040E203DEF62E20
:103B6000FE01E3FC1591E3FE1191EF01EDCF01FFA2
:103B700003C0F11003C09EC0FF24FA94183619F058
:103B80001C3651F010C0FE01E3FC1591E3FE1191CB
:103B9000EF01183641F408600460FE01E3FC159162
:103BA000E3FE1191EF01112309F484C0612F70E04D
:103BB0008AE092E09CD0892B09F47CC000FD07C00C
:103BC000F50180809180C50102965C0102C0812CC4
:103BD000912C1E3649F4F6014681578160E070E071
:103BE000202FC401B3DD7ACF1336A1F401FD02C04A
:103BF000FF24F394C60195DC97FD5AC0811491040B
:103C000029F0F4018083C40101964C01FA94F1106B
:103C1000F1CF4AC01B3551F49E01A4016F2DC6019E
:103C200068DEEC01892B09F03FC039C0C601C1DD57
:103C300097FD3EC01F3649F128F4143621F119369C
:103C400039F125C0133771F01537E9F020C0811420
:103C5000910429F0F4016082C40101964C01FA94A8
:103C6000FF2059F0C6015DDC3C0197FD06C037D04E
:103C7000892B69F3B601C30145D081149104A1F0E9
:103C8000F401108211C0006203C0006101C0006431
:103C9000202FA4016F2DC601A2DD811105C0F60100
:103CA0008381807329F406C000FD18CF539416CF8A
:103CB000552019F0852D90E002C08FEF9FEFDF9126
:103CC000CF911F910F91FF90EF90DF90CF90BF9019
:103CD000AF909F908F907F906F905F90089591111B
:103CE0002AC0803219F089508550D0F70895FC0120
:103CF0000590061621F00020D9F7C00108953197EC
:103D0000CF010895FB01238120FF12C026FD10C0C2
:103D10008F3F3FEF930761F082832F7D20642383E1
:103D200026813781215031093783268399270895C9
:103D30008FEF9FEF08959927882708955058BB2744
:103D4000AA270ED070C161D130F066D120F031F4D5
:103D50009F3F11F41EF456C10EF4E095E7FB4CC1F1
:103D6000E92F72D180F3BA176207730784079507AA
:103D700018F071F49EF58AC10EF4E0950B2EBA2F5F
:103D8000A02D0B01B90190010C01CA01A001112461
:103D9000FF27591B99F0593F50F4503E68F11A160D
:103DA000F040A22F232F342F4427585FF3CF46959E
:103DB00037952795A795F0405395C9F77EF41F16C0
:103DC000BA0B620B730B840BBAF09150A1F0FF0F8A
:103DD000BB1F661F771F881FC2F70EC0BA0F621F76
:103DE000731F841F48F4879577956795B795F79566
:103DF0009E3F08F0B3CF9395880F08F09927EE0FF8
:103E0000979587950895D4D008F481E008950CD053
:103E10000AC102D140F0F9D030F021F45F3F19F02F
:103E2000EBC0511134C1EEC00FD198F39923C9F3FF
:103E30005523B1F3951B550BBB27AA2762177307B0
:103E4000840738F09F5F5F4F220F331F441FAA1F64
:103E5000A9F333D00E2E3AF0E0E830D09150504024
:103E6000E695001CCAF729D0FE2F27D0660F771FD2
:103E7000881FBB1F261737074807AB07B0E809F0B4
:103E8000BB0B802DBF01FF2793585F4F2AF09E3F49
:103E9000510568F0B1C0FBC05F3FECF3983EDCF326
:103EA000869577956795B795F7959F5FC9F7880FC2
:103EB000911D9695879597F90895E1E0660F771F14
:103EC000881FBB1F621773078407BA0720F0621BA5
:103ED000730B840BBA0BEE1F88F7E0950895BCD0E6
:103EE00088F09F5790F0B92F9927B751A0F0D1F0E3
:103EF000660F771F881F991F1AF0BA95C9F712C06D
:103F0000B13081F0C3D0B1E00895C0C0672F782FE1
:103F10008827B85F39F0B93FCCF3869577956795D8
:103F2000B395D9F73EF490958095709561957F4F44
:103F30008F4F9F4F0895E89409C097FB3EF49095EA
:103F40008095709561957F4F8F4F9F4F9923A9F072
:103F5000F92F96E9BB279395F69587957795679501
:103F6000B795F111F8CFFAF4BB0F11F460FF1BC045
:103F70006F5F7F4F8F4F9F4F16C0882311F096E9D8
:103F800011C0772321F09EE8872F762F05C0662386
:103F900071F096E8862F70E060E02AF09A95660F3F
:103FA000771F881FDAF7880F9695879597F90895F8
:103FB000990F0008550FAA0BE0E8FEEF161617063A
:103FC000E807F907C0F012161306E407F50798F0A2
:103FD000621B730B840B950B39F40A2661F0232BBB
:103FE000242B252B21F408950A2609F4A140A69537
:103FF0008FEF811D811D089597F99F6780E870E01C
:1040000060E008959FEF80EC089500240A9416164E
:10401000170618060906089500240A9412161306B6
:10402000140605060895092E0394000C11F4882344
:1040300052F0BB0F40F4BF2B11F460FF04C06F5F60
:104040007F4F8F4F9F4F089557FD9058440F551F36
:1040500059F05F3F71F04795880F97FB991F61F00A
:104060009F3F79F087950895121613061406551F81
:10407000F2CF4695F1DF08C0161617061806991FED
:10408000F1CF86957105610508940895E894BB27E2
:1040900066277727CB0197F908950BD0C4CFB5DFFA
:1040A00028F0BADF18F0952309F0A6CFABCF112482
:1040B000EECFCADFA0F3959FD1F3950F50E0551FC7
:1040C000629FF001729FBB27F00DB11D639FAA276D
:1040D000F00DB11DAA1F649F6627B00DA11D661FBC
:1040E000829F2227B00DA11D621F739FB00DA11DDD
:1040F000621F839FA00D611D221F749F3327A00D97
:10410000611D231F849F600D211D822F762F6A2F32
:1041100011249F5750408AF0E1F088234AF0EE0FB7
:10412000FF1FBB1F661F771F881F91505040A9F7C4
:104130009E3F510570F060CFAACF5F3FECF3983EF1
:10414000DCF3869577956795B795F795E7959F5F2B
:10415000C1F7FE2B880F911D9695879597F90895C5
:1041600097FB072E16F4009406D077FD08D013D0E5
:1041700007FC05D03EF4909581959F4F089570956A
:1041800061957F4F0895EE0FFF1F881F8BBF07902B
:10419000F691E02D1994AA1BBB1B51E107C0AA1F81
:1041A000BB1FA617B70710F0A61BB70B881F991FD8
:1041B0005A95A9F780959095BC01CD01089581E0AD
:1041C00090E0F8941AC0FB0151915523A9F0BF016A
:1041D000DC014D9145174111E1F759F4CD010190F2
:1041E000002049F04D9140154111C9F3FB014111E7
:0E41F000EFCF81E090E001970895F894FFCFA3
:1041FE00FFFFFFFF011E2323010A160107100123F3
:10420E0023000000007110D20F0010BD1031100FEE
:10421E0010231045450054300054310054320054E0
:10422E0033005434004C30004C31004C32004C33CF
:10423E00004C34004330005530004530004531000D
:10424E0045320045330045340052300046530000DD
:00000001FF
