:10000000FDC100002CC200002AC2000028C200006E
:1000100026C2000024C2000022C2000020C200004C
:100020001EC200001CC200001AC2000018C200005C
:1000300016C2000014C2000012C2000010C200006C
:100040000EC200000CC200000AC2000008C200007C
:1000500006C2000004C2000002C200000C942E126E
:10006000FEC100000C94A8100C947F10F8C1000091
:10007000F6C10000F4C10000F2C10000F0C10000B0
:10008000EEC10000ECC10000EAC10000E8C10000C0
:100090000C9449100C942010E2C10000E0C1000053
:1000A000DEC10000DCC10000DAC10000D8C10000E0
:1000B000D6C10000D4C10000D2C10000D0C10000F0
:1000C000CEC10000CCC10000CAC10000C8C1000000
:1000D000C6C10000C4C10000C2C10000C0C1000010
:1000E000BEC10000AA11AD119C11A011A411E41110
:1000F000B111B511BB11BF11C311C911CD11D1116E
:10010000E411D711DB11DF116E616E00696E6600BC
:1001100000407A10F35A00A0724E18090010A5D4BE
:10012000E80000E87648170000E40B54020000CA1B
:100130009A3B000000E1F505000080969800000061
:1001400040420F000000A0860100000010270000C0
:100150000000E803000000006400000000000A0046
:10016000000000000100000000002C76D888DC6749
:100170004F0823DFC1DFAE59E1B1B796E5E3E453A1
:10018000C63AE651997696E8E6C28426EB898C9BBE
:1001900062ED407C6FFCEFBC9C9F40F2BAA56FA55E
:1001A000F490055A2AF75C936B6CF9676DC11BFCE0
:1001B000E0E40D47FEF520E6B500D0ED902E0300FB
:1001C000943577050080841E080000204E0A000048
:1001D00000C80C333333330F986E12831141EF8D07
:1001E0002114893BE65516CFFEE6DB18D1844B3847
:1001F0001BF77C1D901DA4BBE424203284725E2278
:100200008100C9F124ECA1E53D276364696E6F703C
:10021000737578585B006F6B0A006F6B0A0052258C
:1002200064006F6B0A00452564006F6B0A006F6BFA
:100230000A00432564006F6B0A004625642025648C
:100240000025646F6B0A0025646F6B0A006F6B0AF0
:100250000053256400582564006F6B0A005525641F
:10026000006F6B0A004D2564006F6B0A004C25641B
:10027000006F6B0A00666C0A006F6B0A00542564FD
:100280000046530A0052300A0045340A0045330A3A
:100290000045320A0045310A0045300A0055300A4F
:1002A0000043300A004C340A004C330A004C320A36
:1002B000004C310A004C300A0054340A0054330A0E
:1002C0000054320A0054310A0054300A0025646F89
:1002D0006B0A005025640073746172740A00000098
:1002E00020002300260029002C002F0032000001EE
:1002F00000000301060109010505050507050808B9
:100300000808020202020A0A08080404040401019F
:1003100001010101010103030303030303030407B4
:1003200007070C0C0C0C0C0C0C0C0202020206064B
:100330000606060606060B0B0B0B0B0B0B0B070733
:100340000A0A0A0A0A0A0505050404040808010243
:1003500010202008081020401020408002010201D7
:10036000080402010102040810204080804020108F
:1003700008040201800402018040201008040201E8
:100380000804020101020408102040800102040850
:100390001020408010080408801020400440801085
:1003A0002040048000000A0B02090C0D0E08070310
:1003B0000401000000000000000000000000000038
:1003C000000000000000000000000000000000002D
:1003D00012111000000000000000000000000000EA
:1003E000000000000000000000000000000000000D
:1003F00000000000000000000000901811241FBE43
:10040000CFEFD1E2DEBFCDBF00E00CBF24E0A2E61B
:10041000B2E001C01D92AE31B207E1F712E0A0E0F8
:10042000B2E0EEE7F0E400E00BBF02C007900D92EF
:10043000A236B107D9F711E0CEEFD1E000E006C057
:1004400021970109802FFE010E940320CD3FD10793
:1004500080E00807A9F70E9401160C943D20D0CD3A
:100460008F92AF92CF92DF92EF92FF920F93AB01F8
:10047000812CA12CC12C20E4D22E2CE9E22E27E4E1
:10048000F22E01E020E0BC0180E00E94950D0F916A
:10049000FF90EF90DF90CF90AF908F900895909164
:1004A000B302992349F0882381F089ED90E00E94FE
:1004B00036111092B3020895811107C087E29FEFB1
:1004C0000E94361181E08093B30208958F92AF921B
:1004D000CF92DF92EF92FF920F931F93CF93DF9310
:1004E000EC018B0162E370E080E090E00E94F61185
:1004F0007E01E01AF10A0530110529F4C530D10555
:1005000009F08EC00DC0C530D10551F023E631E0B1
:10051000E29EC001E39E900DF29E900D11240DC04D
:1005200024E030E0201B310B43E651E0249FC00162
:10053000259F900D349F900D11240E9436111016A6
:100540001106F4F42FE33DEFE29EC001E39E900D0F
:10055000F29E900D11240530110511F48A569F4F1B
:10056000259711F486599109DF91CF911F910F9131
:10057000FF90EF90DF90CF90AF908F900C9403118D
:10058000812CA12CC12C20E4D22E2CE9E22E27E4D0
:10059000F22E01E020E040ED57E064E670E081E0FB
:1005A0000E94950DC2E0D0E0812CA12CC12C90E4DA
:1005B000D92E9CE9E92E97E4F92E01E020E040EDE8
:1005C00057E060E670EF81E00E94950DC230D105E2
:1005D00041F420E040ED57E064E670E081E00E94E5
:1005E000950D219709F7812CA12CC12C80E4D82EE0
:1005F0008CE9E82E87E4F82E01E020E040ED57E09A
:1006000061E270E081E00E94950DDF91CF911F9132
:100610000F91FF90EF90DF90CF90AF908F90089563
:1006200023E631E0CE010497AC01429FC001439F15
:10063000900D529F900D11240E94361183CF8F92FE
:10064000AF92BF92CF92DF92EF92FF920F931F93E0
:10065000CF93DF93B82E80E00E94160D1091B30265
:10066000C2E0D0E0812CA12CC12C40E4D42E4CE976
:10067000E42E47E4F42E01E020E048EB5BE060ED7F
:1006800077E082E00E94950DC230D10541F420E070
:1006900048EB5BE062EA7EEF82E00E94950D2197D5
:1006A00009F7812CA12CC12C30E4D32E3CE9E32E98
:1006B00037E4F32E01E020E048EB5BE066E77FEFF4
:1006C00082E00E94950DC2E0D0E0812CA12CC12CCB
:1006D00020E4D22E2CE9E22E27E4F22E01E020E0E5
:1006E00040ED57E060EA7FE081E00E94950DC23066
:1006F000D10541F420E040ED57E064ED7EEF81E06C
:100700000E94950D219709F7812CA12CC12C80E422
:10071000D82E8CE9E82E87E4F82E01E020E040E4B2
:100720005FE16CE871EF81E00E94950D8091040219
:100730000E94160D85E591E00E947A0D1092B30299
:1007400062E370E080E090E00E94F61180E0A7DEB6
:1007500080E090E00E947A0D1092B2028091020235
:100760009091030224E030E0281B390B220F331F45
:1007700081E090E002C0880F991F2A95E2F70E945D
:100780007A0D81E08093B102BB2071F0609102028A
:100790007091030280E090E099DE812F80DE10925C
:1007A000B0021092AF0204C0109203021092020233
:1007B000DF91CF911F910F91FF90EF90DF90CF903D
:1007C000BF90AF908F900895CF93DF93880F991FBC
:1007D000C1E0D0E002C0CC0FDD1F8A95E2F7CE0168
:1007E0000E947A0D68E270E080E090E00E94F611CD
:1007F00080E090E00E947A0D64E170E080E090E09B
:100800000E94F611CE010E947A0D68E270E080E04D
:1008100090E00E94F61180E090E00E947A0D6AE07C
:1008200070E080E090E0DF91CF910C94F6110F938F
:100830001F93CF93DF938C010E948D0D81114AC0CD
:10084000C0910202D09103021093030200930202AE
:100850008091B102811101C0F2DE8091020290917B
:10086000030224E030E0281B390B220F331F82E003
:1008700090E002C0880F991F2A95E2F70E947A0D36
:100880006091020270910302C617D70729F4C09144
:10089000B20281E0C82705C0CE0118DE80E0FFDD8E
:1008A000C1E080E090E00E947A0D80910202909178
:1008B000030224E030E0281B390B220F331F81E0B4
:1008C00090E002C0880F991F2A95E2F70E947A0DE6
:1008D0008C2F01C080E0DF91CF911F910F9108957F
:1008E00080917B00877F80937B0082E480937C00F3
:1008F00080917A00806480937A0080917A0086FDEE
:10090000FCCF809178002091790090E0922B823387
:10091000910564F09C01215531092331310540F0E6
:10092000815A9109439730F080E0089581E008955D
:1009300082E0089584E00895EF92FF920F931F9351
:10094000CF93DF9380E0ABDD6091040281E0FDD7BF
:100950006091040282E0F9D7C4E0D0E001E010E049
:1009600042E0E42EF12CBCDF823021F40E948D0D98
:10097000882371F164E670E080E090E00E94F61157
:1009800080E090E00E947A0D64E670E080E090E004
:100990000E94F6110E948D0D2091020230910302F7
:1009A000882339F0CE01821B930B880F991F970182
:1009B00006C0CE01821B930B880F991F980102C0BD
:1009C000220F331F8A95E2F7C9010E947A0DCBCF1F
:1009D0006091040281E0C0D76091040282E0BCD73C
:1009E00081E0DF91CF911F910F91FF90EF9027CE83
:1009F0008F92AF92CF92DF92EF92FF920F93CF93AD
:100A0000DF9381E04CDDC3E0D0E0812CAA24A394E5
:100A1000C12C90E4D92E9CE9E92E97E4F92E01E04F
:100A200020E04AE852E060EA7FE080E00E94950D15
:100A3000892BF9F4A12C00E020E04AE852E068EAB2
:100A40007DEF80E00E94950D80910202909103025B
:100A500024E030E0281B390B220F331F81E090E0A7
:100A600002C0880F991F2A95E2F70E947A0DC1E013
:100A700007C0219721F060DF81E011DDC6CFC0E023
:100A80006091040280E061D780E009DD8C2FDF9166
:100A9000CF910F91FF90EF90DF90CF90AF908F901C
:100AA00008958F92AF92CF92DF92EF92FF920F93C1
:100AB0006091040280E050D76091040282E04CD73C
:100AC00081E0EDDC812CA12CC12C90E4D92E9CE995
:100AD000E92E97E4F92E00E020E042EC51E060E7D7
:100AE0007EEF80E00E94950DAA24A394C12CD12C06
:100AF0002FEAE22E24E4F22E20E044EC59E060E2FA
:100B000071ED80E00E94950D892B49F5A12CC12C37
:100B100080E4D82E8CE9E82E87E4F82E20E046E227
:100B200052E06EEC7FEF80E00E94950DAA24A39422
:100B300020E046E252E068E572E080E0F6D7A12CC2
:100B400020E046E252E068EA7DEF80E0EED764E61E
:100B500070E080E090E00E94F611DFD78111ECDEBA
:100B60001092B2026091040280E0EFD680E097DC40
:100B700081E00F91FF90EF90DF90CF90AF908F903A
:100B800008956F927F928F929F92AF92BF92CF9271
:100B9000DF92EF92FF920F931F93CF93DF9300D0DA
:100BA0001F92CDB7DEB7182FB92E8091AD0290916C
:100BB000AE028097F4F4812F9B2D0E94D11997FDEE
:100BC0001EC08D30910519F08A30910511F480E036
:100BD00090E02091AD023091AE02A9014F5F5F4FCE
:100BE0005093AE024093AD02F901E357FD4F80836D
:100BF00006C01092AE021092AD028FEF9FEF1A82E4
:100C000019821C821B822091AD023091AE02121615
:100C100013060CF09FC4892B09F09CC466E272E0B5
:100C20008DE892E00E942320892B61F0EDE6F2E04E
:100C3000ADE8B2E08DE892E021912D938E179F07E9
:100C4000D9F70EC1CE0101969F938F9383ED92E069
:100C50009F938F938DE892E09F938F930E94671AE2
:100C60000F900F900F900F900F900F90181619067D
:100C7000BCF489819A81892B09F0F2C04ED71F926A
:100C80008F938DEC92E09F938F93BF921F930E945E
:100C90000F1A0F900F900F900F900F900F90E0C0D1
:100CA000EDE8F2E0ADE6B2E08DEA92E021912D931D
:100CB0008E179F07D9F71092AE021092AD0269E22B
:100CC00072E08DE892E00E942320892B19F089ECD4
:100CD00092E036C46CE272E08DE892E00E9423203C
:100CE000892B19F085EC92E02BC46FE272E08DE85D
:100CF00092E00E942320892B19F081EC92E020C41D
:100D000062E372E08DE892E00E942320892B19F0C3
:100D10008DEB92E015C465E372E08DE892E00E94ED
:100D20002320892B19F089EB92E00AC468E372E072
:100D30008DE892E00E942320892B19F085EB92E048
:100D4000FFC36BE372E08DE892E00E942320892BC1
:100D500019F081EB92E0F4C36EE372E08DE892E06B
:100D60000E942320892B19F08DEA92E0E9C361E407
:100D700072E08DE892E00E942320892B19F089EA25
:100D800092E0DEC364E472E08DE892E00E942320EA
:100D9000892B19F085EA92E0D3C367E472E08DE80D
:100DA00092E00E942320892B19F081EA92E0C8C3C7
:100DB0006AE472E08DE892E00E942320892B19F00A
:100DC0008DE992E0BDC36DE472E08DE892E00E948F
:100DD0002320892B19F089E992E0B2C360E572E023
:100DE0008DE892E00E942320892B19F085E992E09A
:100DF000A7C363E572E08DE892E00E942320892B6F
:100E000019F081E992E09CC366E572E08DE892E01A
:100E10000E942320892B19F08DE892E091C369E5A7
:100E200072E08DE892E00E942320892B19F089E876
:100E300092E086C36CE572E08DE892E00E94232088
:100E4000892B19F085E892E07BC36FE572E08DE8AD
:100E500092E00E942320892B19F081E892E070C370
:100E60001092AE021092AD029E012F5F3F4F6901BA
:100E70003F932F938DE792E09F938F932DE8E22E7F
:100E800022E0F22EFF92EF920E94671A0F900F90CD
:100E90000F900F900F900F90181619060CF045C187
:100EA00089809A8035E08316910408F053C38091BD
:100EB0000202909103020091B2028816990641F451
:100EC000002331F081E080936C0289E792E038C31F
:100ED000AA24A394A0926B0210926C02A092C40266
:100EE000A4E0EA2EF12C9701281B390BC901880FC9
:100EF000991F92E0C92ED12C960102C0220F331FF8
:100F00008A95E2F7C901F6D560900202709003025B
:100F1000709201026092000290920302809202029B
:100F20008614970481F4011150C0E818F908EE0CFA
:100F3000FF1CC60102C0880F991FEA94E2F7DAD5B8
:100F4000A0926A0242C00111ACDD8091B20281110F
:100F50003CC08091AF029091B002059719F481E0F6
:100F60006EDB0AC080916402811106C060910202AA
:100F700070910302C301AADA809162029091630228
:100F8000019690936302809362028091AF029091E8
:100F9000B00201969093B0028093AF02809102025A
:100FA0009091030224E030E0281B390B220F331FFD
:100FB00082E090E002C0880F991F2A95E2F79AD547
:100FC00081E080936A021092640280E090E092D502
:100FD000809102029091030224E030E0281B390B3B
:100FE000220F331F81E090E002C0880F991F2A95DD
:100FF000E2F780D580916A02882309F4ABC285E7C5
:1010000092E09F938F93BF921F930E940F1A1092AA
:1010100069020F900F900F900F9081E040DA60917D
:10102000040280E099D4812CAA24A394C12C60E40A
:10103000D62E6CE9E62E67E4F62E00E020E04AE8C2
:1010400052E068EE73E080E070D5892B81F5A12C29
:10105000C12CD12C5FEAE52E54E4F52E20E048EBBC
:101060005BE060E47FE180E060D58FB7F894C090EA
:10107000D502D090D602E090D702F090D8028FBF70
:1010800086EB92E07EDD2FB7F8948091D5029091A7
:10109000D602A091D702B091D8022FBF8C199D091A
:1010A000AE09BF0989389341A105B10510F044DCB0
:1010B000B4CF68EB7BE081E090E0D2D986EB92E0A0
:1010C00060DD809169028823F1F2812CA12CC12C72
:1010D00090E4D92E9CE9E92E97E4F92E00E020E077
:1010E00041E851E06CE771E080E01FD580E090E0DE
:1010F00001D5809102029091030224E030E0281B88
:10110000390B220F331F81E090E002C0880F991F36
:101110002A95E2F7EFD481E08093B20210926B023D
:1011200010926A0281E792E00BC2DF92CF928DE6C5
:1011300092E09F938F93FF92EF920E94671A0F9015
:101140000F900F900F900F900F9018161906DCF467
:1011500089819A818530910508F0FCC12091B20205
:101160002111F8C164DB6AE070E080E090E00E9449
:10117000F6113EDC64E670E080E090E00E94F6113B
:1011800089E692E0DDC1DF92CF9285E692E09F93FF
:101190008F93FF92EF920E94671A0F900F900F901B
:1011A0000F900F900F901816190694F489819A8168
:1011B000009729F0019709F0CDC182E001C081E0DC
:1011C000809304028091040231D481E692E0B8C198
:1011D000DF92CF928DE592E09F938F93FF92EF92F3
:1011E0000E94671A0F900F900F900F900F900F9022
:1011F00018161906B4F455DC68EC70E080E090E055
:101200000E94F61189E592E09F938F93BF921F93FE
:101210000E940F1A1092C4021092B0021092AF02F4
:1012200095C1DF92CF9285E592E09F938F93FF92D5
:10123000EF920E94671A0F900F900F900F900F90EF
:101240000F901816190684F489819A81892B09F068
:1012500081C198E088E10FB6F894A895809360006A
:101260000FBE9093600076C1DF92CF9281E592E04D
:101270009F938F93FF92EF920E94671A0F900F90A7
:101280000F900F900F900F901816190634F5898162
:101290009A81009719F48DE492E052C18130910552
:1012A00031F41F9286ED8F9387E492E009C0029794
:1012B00009F050C183E08F9387EE8F9381E492E031
:1012C0009F938F93BF921F930E940F1A0F900F90BE
:1012D0000F900F900F900F903DC16FE572E08DE879
:1012E00092E00E942320892B21F081E08093690203
:1012F00031C1CE0103969F938F93DF92CF928AE301
:1013000092E09F938F93FF92EF920E94671A0FB61D
:10131000F894DEBF0FBECDBF181619066CF4898194
:101320009A81059708F016C18B819C81039708F07C
:1013300011C186E392E004C1DF92CF9282E392E092
:101340009F938F93FF92EF920E94671A0F900F90D6
:101350000F900F900F900F90181619060CF056C0B2
:1013600089819A81892B09F0F5C080916C028111E5
:101370004AC081E094D86091040280E0EDD261E837
:1013800071E086E990E06CD88091040247E161E069
:10139000813019F480E023D202C080E086D261E877
:1013A00071E08AEA90E05CD88091040247E061E055
:1013B000813019F480E013D202C080E076D2882414
:1013C0008394A12CC12C80E4D82E8CE9E82E87E4EC
:1013D000F82E01E021E047EC51E064EC71E080E0A0
:1013E000A4D3809104024EE161E0813019F480E0E1
:1013F000F6D102C080E059D26091040280E0A5D20B
:101400008EE292E09DC08AE292E09AC0DF92CF9293
:1014100086E292E09F938F93FF92EF920E94671A69
:101420000F900F900F900F900F900F9018161906B5
:101430000CF049C0E980FA8035E0E316F10408F0C9
:1014400089C08091B20281112CDB81E028D86091A3
:10145000040280E081D283E0E816F10414F090E009
:1014600001C094E080910202482F491B2FE33DEF19
:1014700042036001439FD00C1124D0926602C092B7
:101480006502282F2E1943E651E02403C001259F51
:10149000900D11249093680280936702E7D6C601ED
:1014A000B2D66AE972E084EC99E00E94300280E0F2
:1014B0000E944F026091040280E047D21092B20273
:1014C00082E292E03DC0DF92CF928EE192E09F9364
:1014D0008F938DE892E09F938F930E94671A0F90ED
:1014E0000F900F900F900F900F9018161906E4F4BC
:1014F00089819A81892B71F510D3882311F01CDA28
:10150000FBCF809167029091680291958195910936
:10151000ADD6809165029091660291958195910971
:1015200072D68AE192E00CC080916B02811112C0E8
:1015300080916902882371F01092690286E192E03D
:101540009F938F93BF921F930E940F1A0F900F903B
:101550000F900F900F900F900F900F90DF91CF9101
:101560001F910F91FF90EF90DF90CF90BF90AF90C1
:101570009F908F907F906F9008958091020290913C
:10158000030224E030E0281B390B220F331F81E0D7
:1015900090E002C0880F991F2A95E2F7ABD2A0D93C
:1015A0008570A9F09DD9282F8091020290910302A5
:1015B000213019F0243031F00AC0853091053CF417
:1015C000019604C01816190614F4019730D98091B9
:1015D000020290910302059781F482E090E08AD2A2
:1015E00062E370E080E090E001D781E090E082D299
:1015F00062E370E080E090E0F9C6089580E090E05A
:10160000892B19F083D4811120C080E090E0892BD0
:1016100019F073D481111CC080E090E0892B41F057
:1016200080E090E0892B21F00E940000811113C01E
:1016300080E090E0892BA1F080E090E0892B81F0A0
:101640000E94000081110AC008950E940000DDCFB1
:101650000E940000E1CF0E940000EACF0C9400003D
:101660000895CF92DF92EF92FF929CE59CBD1DBC46
:10167000813039F020F0823029F42F9803C0469849
:1016800001C05F986EBD0DB407FEFDCF9EB5C52E9F
:10169000DD24EE24FF24CEBC0DB407FEFDCF9EB5A5
:1016A0006A01EE24FF24CEBC0DB407FEFDCF9EB52B
:1016B000C32ED42EE52EFF24CEBC0DB407FEFDCFE5
:1016C0009EB52EBD0DB407FEFDCF9EB5813039F01D
:1016D00020F0823029F42F9A03C0469A01C05F9A05
:1016E000FF90EF90DF90CF9008959C0188E03695B1
:1016F00027952115310511F08150C9F708951F93E1
:10170000CF93DF93182FD42FC22F262F2F70C032E4
:1017100070F4822F90E0A0E0B0E0B82FAA279927BC
:1017200088279C01AD01236D436050610FC0C695B1
:10173000D695822F90E0A0E0B0E0B82FAA27992795
:1017400088279C01AD01236D416050616CEE812FB3
:1017500088DFCF718C2F90E0982F8827092E000CFE
:10176000AA0BBB0BDF714D2F50E060E070E06F60A3
:101770009A01AB01282B392B4A2B5B2B60E9812F77
:1017800070DF80E0DF91CF911F9108952091B40226
:101790003091B502C90184709927AC0156954795DF
:1017A000C901807199279695879596958795842B81
:1017B0002170822B089589ED92E071C386E793E052
:1017C0006EC3682F89ED92E0CCD380E090E008955D
:1017D000682F86E793E0C5D380E090E008951F93DB
:1017E000CF93DF93C82FD62F142F813031F028F0FC
:1017F000823039F480E190E002C082E090E075DF51
:1018000001C080E1212F4D2F682F8C2F78DFD82F3A
:10181000811145C020E030E0A90161E98C2F21DF72
:10182000C33030F4EC2FF0E0EF5EFD4F208101C0BB
:1018300024E0822F220F990BAA0BBB0BAC0133279C
:1018400022276DEE8C2F0DDF8FEF8C0F823018F07A
:1018500022EC31E002C020E931E040E050E064E9F0
:101860008C2FFFDE20E831E340E050E060E88C2F71
:10187000F8DE212F220F220F822F90E0A0E0B0E0AF
:101880009C01AD01C11105C03260466160EF80E08E
:1018900004C03260466060EF8C2FE3DE01C0DFEFF2
:1018A0008D2FDF91CF911F9108951F93CF93DF93D9
:1018B000C82F162FD42F813031F028F0823039F420
:1018C00080E190E002C082E090E00FDF01C080E1A3
:1018D0002D2F412F682F8C2F12DF182F81112FC031
:1018E00020E030E0A90161E98C2FBBDE20E030E090
:1018F00044E050E06DEE8C2FB4DE20E030E0A90132
:1019000064E98C2FAEDE24E030E040E050E060E897
:101910008C2FA7DE2D2F220F220F822F90E0A0E028
:10192000B0E09C01AD013260466060EF8C2F99DE23
:1019300020E030E0A90163E98C2F93DE01C01FEFA6
:10194000812FDF91CF911F91089540E0623011F413
:1019500060E0ABCF60E043CFCF93DF93CDB7DEB78E
:101960002F970FB6F894DEBF0FBECDBF20910502B2
:10197000309106024091070229833A834B832C83DE
:101980003D834E83209108023091090240910A0262
:101990002F833887498720910B0230910C024091A8
:1019A0000D022A873B874C8720910E0230910F024F
:1019B000409110022D873E874F876130D9F090F01B
:1019C000623051F5282F30E0FE01E20FF31F448111
:1019D00062852F960FB6F894DEBF0FBECDBFDF91A4
:1019E000CF9163CF282F30E0FE01E20FF31FDF011C
:1019F000458507C0282F30E0FE01E20FF31FDF010D
:101A0000418117966C912F960FB6F894DEBF0FBEEA
:101A1000CDBFDF91CF91E3CE80E02F960FB6F89443
:101A2000DEBF0FBECDBFDF91CF9108951F93CF933F
:101A3000DF93182F3E9A579A279A469A5F9A2F9AC1
:101A4000549A249A569A5C982C985E98682F80E055
:101A500083DF21E030E0811102C020E030E0CC27BC
:101A6000DD27C21BD30B612F81E076DF811102C01D
:101A700020E001C02EEFC20F612F82E06DDF8111E7
:101A80008CEF8C0FDF91CF911F9108952E9800005D
:101A900020E130E040E050E8BC0164237523672B6F
:101AA00011F02D9A01C02D98479A00004798000028
:101AB000569547952150310979F72E9A0000909359
:101AC000B5028093B4020895282F2270922F990FA7
:101AD000282F2470220F220F292B8170282B022EF1
:101AE000000C330B8091B4029091B5028A7E822B58
:101AF000932BCCCF2091B4023091B5022F733327B2
:101B0000582F4427242B352B88279370969587953B
:101B100096958795822B932BB9CF87E3EDD321E060
:101B2000019709F020E0822F08952F923F924F9263
:101B30005F926F927F928F929F92AF92BF92CF925D
:101B4000DF92EF92FF920F931F93CF93DF93CDB766
:101B5000DEB761970FB6F894DEBF0FBECDBF8983A5
:101B60003B01298B902EC886D986EA86FB86AC86F7
:101B7000AA2019F062E0262E01C0212C312C809180
:101B80000402823009F4912CBA01550F880B990B8D
:101B90000E94DD1E6D877E878F87988B89818130BB
:101BA00041F118F08230C9F033C077FE08C0CC2470
:101BB000DD24C618D708EADD816086DF04C0E6DDD3
:101BC0008E7F82DF6301882019F0E0DD8B7F7CDF70
:101BD0006091040280E0C0DE1DC077FE07C0CC2407
:101BE000DD24C618D708D2DD8B7F0BC0CFDD846023
:101BF0000CC077FE08C0CC24DD24C618D708C6DD8B
:101C00008D7F62DF07C0C2DD82605EDF630102C0DC
:101C1000C12CD12C412C512CA12CB12C1B821A820D
:101C200010E0F12C08E483E4E82EC114D10409F497
:101C3000B8C09981913011F118F09230C9F027C0E5
:101C40002C9A2C988AEDC816D10424F4882011F01F
:101C50005E9A5E98992009F4ABC089E34DD3019751
:101C600009F0A6C062E370E080E090E0BFD3B8C0A6
:101C70005E9A5E98992059F08BE305C05C9A5C9857
:101C8000992029F08AE338D3019709F49EC09FEF89
:101C9000A91AB90A81E0C81AD108212F3F2D402F77
:101CA0005E2D60E070E080E89FE30E94471E6C8339
:101CB0007D838E839F8320E034E244E759E40E94D1
:101CC0008D1F0E94AF1E6230710548F0660F771FAE
:101CD000660F771F65507109CB010197F1F791E00D
:101CE00049165104C9F1288539854A855B8582E00A
:101CF00048165104D9F16C817D818E819F810E94AB
:101D00008D1F9B01AC01612F7F2D802F9E2D0E9486
:101D1000DF1D162FF72E082FE92E262F372F482FDD
:101D2000592F6D857E858F8598890E94431E1816D0
:101D300054F0BB82AA821D85FE840F85E888442466
:101D40004394512C72CFCA14DB041CF0412C512C4B
:101D50006CCFBB82AA8206C08A819B818C159D05AF
:101D60000CF463CF92E0492E512C5FCF6C817D81C2
:101D70008E819F810E948D1F9B01AC01612F7F2D61
:101D8000802F9E2D0E94DE1D162FF72E082FE92E84
:101D900020E030E048E453E40E94431E87FF45CF33
:101DA0003FCF882019F081E08093B302C10121C0A8
:101DB0009C85992309F46BCF16141704A4F4ADDEA7
:101DC000882309F464CF80E00CC062E370E080E017
:101DD00090E00CD38989882319F00E949C0457CF86
:101DE00082E090E006C077FE52CF97DE81114FCFA0
:101DF000EACF61960FB6F894DEBF0FBECDBFDF917C
:101E0000CF911F910F91FF90EF90DF90CF90BF90F7
:101E1000AF909F908F907F906F905F904F903F908A
:101E20002F900895CF92DF92EF92FF920F931F931E
:101E3000CF93DF936C017A018B01C0E0D0E0CE1527
:101E4000DF0581F0D8016D918D01D601ED91FC91F6
:101E50000190F081E02DC6011995892B11F0219692
:101E6000EECF7E01C701DF91CF911F910F91FF90BF
:101E7000EF90DF90CF900895089580E090E008956E
:101E8000FC01538D448D252F30E0842F90E0821B80
:101E9000930B541710F0CF96089501970895FC0105
:101EA000918D828D981761F0828DDF01A80FB11D91
:101EB0005D968C91928D9F5F9F73928F90E00895B5
:101EC0008FEF9FEF0895FC01918D828D981731F06F
:101ED000828DE80FF11D858D90E008958FEF9FEFC3
:101EE0000895FC01918D228D892F90E0805C9F4F99
:101EF000821B91098F739927089589ED92E0F1DF94
:101F000021E0892B09F420E0822F089586E793E0F1
:101F1000E8DF21E0892B09F420E0822F0895FC01FD
:101F2000848DDF01A80FB11DA35ABF4F2C91848D62
:101F300090E001968F739927848FA689B7892C9397
:101F4000A089B1898C91837080648C93938D848DEA
:101F5000981306C00288F389E02D80818F7D8083ED
:101F60000895EF92FF920F931F93CF93DF93EC01AD
:101F700081E0888F9B8D8C8D981305C0E889F98945
:101F8000808185FD25C0F62E0B8D10E00F5F1F4F61
:101F90000F731127E02E8C8DE8120BC00FB607FCD3
:101FA000FACFE889F989808185FFF5CFCE01B7DFC7
:101FB000F2CF8B8DFE01E80FF11DE35AFF4FF08247
:101FC0009FB7F8940B8FEA89FB89808180620AC0F1
:101FD0009FB7F894EE89FF896083E889F989808149
:101FE0008370806480839FBF81E090E0DF91CF9118
:101FF0001F910F91FF90EF900895CF93DF93EC0125
:10200000888D8823C1F0EA89FB89808185FD05C020
:10201000A889B9898C9186FD0EC00FB607FCF5CF53
:10202000808185FFF2CFA889B9898C9185FFEDCF9A
:10203000CE0175DFE8CFDF91CF9108950E941F2078
:102040001F920F920FB60F9211240BB60F922F937F
:102050003F934F935F936F937F938F939F93AF9330
:10206000BF93EF93FF9389ED92E059DFFF91EF91DA
:10207000BF91AF919F918F917F916F915F914F91A0
:102080003F912F910F900BBE0F900FBE0F901F909E
:1020900018951F920F920FB60F9211240BB60F9244
:1020A0002F938F939F93EF93FF93E091E902F09129
:1020B000EA028081E091EF02F091F00282FD12C00D
:1020C00090818091F2028F5F8F732091F3028217CB
:1020D00051F0E091F202F0E0E752FD4F958F8093CE
:1020E000F20201C08081FF91EF919F918F912F911A
:1020F0000F900BBE0F900FBE0F901F9018951F9260
:102100000F920FB60F9211240BB60F922F933F939D
:102110004F935F936F937F938F939F93AF93BF93EF
:10212000EF93FF9386E793E0FADEFF91EF91BF9183
:10213000AF919F918F917F916F915F914F913F915F
:102140002F910F900BBE0F900FBE0F901F90189500
:102150001F920F920FB60F9211240BB60F922F936E
:102160008F939F93EF93FF93E0918603F091870302
:102170008081E0918C03F0918D0382FD12C09081EB
:1021800080918F038F5F8F7320919003821751F09E
:10219000E0918F03F0E0EA58FC4F958F80938F0316
:1021A00001C08081FF91EF919F918F912F910F90AE
:1021B0000BBE0F900FBE0F901F9018953FB7F8946D
:1021C0008091140490911504A0911604B091170405
:1021D00026B5A89B05C02F3F19F00196A11DB11D82
:1021E0003FBFBA2FA92F982F8827820F911DA11DBD
:1021F000B11DBC01CD0142E0660F771F881F991FFA
:102200004A95D1F708956F927F928F92AF92CF92B5
:10221000DF92EF92FF920F93CF93DF933C01809177
:102220000402823019F4C8EBDBE002C0C0E4DFE155
:1022300074DC81110FC0812CA12CC12C80E4D82E1C
:102240008CE9E82E87E4F82E01E021E0AE01B3012D
:1022500081E06BDCDF91CF910F91FF90EF90DF90E9
:10226000CF90AF908F907F906F9008958F92AF92A4
:10227000CF92DF92EF92FF920F93812CA12CC12C71
:1022800020E4D22E2CE9E22E26E4F22E01E021E019
:1022900048EB5BE0BC0182E048DC0F91FF90EF90DF
:1022A000DF90CF90AF908F900895FC01A089B18905
:1022B00082E08C93A485B5851C92A685B78580E1C4
:1022C0008C93108EA489B5898EE08C93A289B389F2
:1022D0008C9180618C93A289B3898C9188608C9356
:1022E000A289B3898C9180688C930288F389E02D50
:1022F00080818F7D8083089590E0FC01EC55FC4F38
:102300004491FC01E25BFC4F2491FC01E850FD4F3D
:102310009491992309F467C0442309F455C050E00F
:10232000FA013197E231F10508F04EC08827EE58E6
:10233000FF4F8F4F0C940320809180008F7707C050
:10234000809180008F7D03C080918000877F809383
:1023500080003AC084B58F7702C084B58F7D84BD7C
:1023600033C08091B0008F7703C08091B0008F7D23
:102370008093B00029C0809190008F7707C0809132
:1023800090008F7D03C080919000877F80939000A4
:102390001BC08091A0008F7707C08091A0008F7D27
:1023A00003C08091A000877F8093A0000DC0809122
:1023B00020018F7707C0809120018F7D03C080911D
:1023C0002001877F80932001E92FF0E0EE0FFF1FAF
:1023D000E252FD4FA591B491EC91E22381E090E0AF
:1023E00021F480E0089580E090E008958F929F921C
:1023F000AF92BF92CF92DF92EF92FF926B017C017E
:10240000DDDE4B015C01C114D104E104F104E9F00B
:10241000D5DEDC01CB0188199909AA09BB09883EE0
:102420009340A105B10578F321E0C21AD108E10873
:10243000F10888EE880E83E0981EA11CB11CC1141F
:10244000D104E104F10421F7DECFFF90EF90DF909B
:10245000CF90BF90AF909F908F9008951F920F9252
:102460000FB60F9211242F933F938F939F93AF93A7
:10247000BF938091D5029091D602A091D702B091DE
:10248000D8023091130423E0230F2D3720F4019656
:10249000A11DB11D05C026E8230F0296A11DB11D87
:1024A000209313048093D5029093D602A093D70271
:1024B000B093D8028091140490911504A091160451
:1024C000B09117040196A11DB11D8093140490933F
:1024D0001504A0931604B0931704BF91AF919F9178
:1024E0008F913F912F910F900FBE0F901F901895D5
:1024F0002F923F924F925F926F927F928F929F9214
:10250000AF92BF92CF92DF92EF92FF920F931F9301
:10251000CF93DF93CDB7DEB760970FB6F894DEBFE9
:102520000FBECDBF7C011B016A01FC011782168220
:10253000838181FF2AC39E012F5F3F4F3901F7013D
:102540009381F10193FD859193FF81911F01882370
:1025500009F417C3853239F493FD859193FF819176
:102560001F01853231F4B70190E075D7560165013E
:10257000E6CF10E0512C912CFFE1F915D8F08B3209
:1025800079F038F4803279F08332A1F4F92DF061DA
:102590002EC08D3261F0803369F4292D21602DC069
:1025A000392D3260932E892D8460982E2AC0E92D12
:1025B000E86015C097FC2DC020ED280F2A3088F464
:1025C00096FE06C03AE0139F200D1124122F19C069
:1025D0008AE0589E200D1124522EE92DE0629E2E95
:1025E00010C08E3231F496FCCCC2F92DF0649F2ECF
:1025F00008C08C3621F4292D2068922E02C088361E
:1026000041F4F10193FD859193FF81911F018111A7
:10261000B3CF9BEB980F933020F4992D9061805E9F
:1026200007C09BE9980F933008F059C1992D9F7E00
:1026300096FF16E09F73992E853619F49064992EB3
:1026400008C0863621F4392F3068932E02C011114C
:10265000115097FE07C01C3350F444244394410E9C
:1026600027E00BC0183038F027E017E005C027E05E
:102670009CE3492E02C0212F412C560184E0A80E74
:10268000B11CF6016081718182819381042DA301C7
:102690009AD56C01F981FC87F0FF02C0F3FF06C0F8
:1026A00091FC06C092FE06C000E205C00DE203C028
:1026B0000BE201C000E08C858C7019F0011143C25F
:1026C00080C297FE10C04C0CFC85F4FF04C08A81C8
:1026D000813309F44A94141474F528E0241578F52C
:1026E00088E0482E2CC096FC2AC0812F90E08C15E3
:1026F0009D059CF03CEFC3163FEFD30674F0892D87
:102700008068982E0AC0E2E0F0E0EC0FFD1FE10FB8
:10271000F11D8081803319F411501111F4CF97FE0F
:102720000EC044244394410E812F90E0C816D90670
:102730002CF41C1904C04424439401C010E097FEFB
:1027400006C01C141D0434F4C601019605C085E0C2
:1027500090E002C081E090E001110196112331F078
:10276000212F30E02F5F3F4F820F931F252D30E048
:102770008217930714F4581A01C0512C892D8970BF
:1027800041F4552031F0B70180E290E064D65A94CC
:10279000F8CF002321F0B701802F90E05CD693FCA6
:1027A00008C0552031F0B70180E390E054D65A9428
:1027B000F8CF97FE4AC04601D7FE02C0812C912C6B
:1027C000C60188199909F301E80FF91FFE87ED8703
:1027D000960124193109388B2F87012F10E01195AC
:1027E000019511093FEF8316930621F4B7018EE29C
:1027F00090E031D6C814D9044CF08F85988988159B
:10280000990524F4ED85FE85818101C080E3F1E026
:102810008F1A91082D853E852F5F3F4F3E872D876C
:102820008016910624F0B70190E015D6DBCFC814CE
:10283000D90441F49A81963320F4953319F43C85F8
:1028400034FF81E3B70190E048C08A81813319F0F9
:102850009C859F7E9C87B70190E0FDD5111105C036
:1028600094FC16C085E690E015C0B7018EE290E0BA
:10287000F2D51E5F82E001E0080FF301E80FF11DC1
:102880008081B70190E0E7D5802F0113F4CFE8CF26
:1028900085E490E0B701DFD5D7FC06C0C114D104B0
:1028A00041F4EC85E4FF05C0D194C194D1088DE2D8
:1028B00001C08BE2B70190E0CED580E32AE0C216DA
:1028C000D1042CF08F5FFAE0CF1AD108F7CFB7010F
:1028D00090E0C1D5B701C601C096BDD549C18336C8
:1028E00031F0833779F0833509F052C01FC05601AB
:1028F00032E0A30EB11CF6018081898301E010E073
:10290000630111C05601F2E0AF0EB11CF601C080A8
:10291000D18096FE03C0612F70E002C06FEF7FEFA1
:10292000C60134D58C01F92DFF7713C0560122E082
:10293000A20EB11CF601C080D18096FE03C0612FAB
:1029400070E002C06FEF7FEFC60115D58C01F92D45
:10295000F0689F2EF3FD18C0852D90E00817190729
:1029600098F4B70180E290E076D55A94F5CFF6015D
:1029700097FC859197FE81916F01B70190E06BD52F
:1029800051105A94015011090115110581F7F0C039
:10299000843611F0893659F5560197FE09C024E0B6
:1029A000A20EB11CF60160817181828193810AC0FF
:1029B000F2E0AF0EB11CF60160817181072E000CB0
:1029C000880B990BF92DFF769F2E97FF09C09095E4
:1029D0008095709561957F4F8F4F9F4FF0689F2E28
:1029E0002AE030E0A30194D5C82EC6183EC0092DB8
:1029F000853721F40F7E2AE030E01DC0097F8F3635
:102A000091F018F4883559F0BCC0803719F0883738
:102A100011F0B7C0006104FF09C0046007C094FE54
:102A200008C0066006C028E030E005C020E130E0C4
:102A300002C020E132E0560107FF09C084E0A80E81
:102A4000B11CF601608171818281938108C0F2E03E
:102A5000AF0EB11CF6016081718180E090E0A301AE
:102A600057D5C82EC6180F77902E96FE0BC0092D8D
:102A70000E7FC11650F494FE0AC092FC08C0092DC6
:102A80000E7E05C0DC2C092D03C0DC2C01C0D12E2C
:102A900004FF0DC0FE01EC0DF11D8081803311F4A7
:102AA000097E09C002FF06C0D394D39404C0802FCE
:102AB000867809F0D39403FD10C000FF06C01C2DDA
:102AC000D51478F4150D1D190CC0D51450F4B701A8
:102AD00080E290E0C0D4D394F8CFD51410F45D1800
:102AE00001C0512C04FF0FC0B70180E390E0B3D4C4
:102AF00002FF16C001FD03C088E790E002C088E530
:102B000090E0B7010CC0802F867851F001FF02C021
:102B10008BE201C080E207FD8DE2B70190E09BD41B
:102B2000C11630F4B70180E390E095D41150F8CF8E
:102B3000CA94F301EC0DF11D8081B70190E08BD4B4
:102B4000C110F6CF15C0F4E0F51550F584E0581A21
:102B500093FE1EC0011125C02C8523FF27C008E06D
:102B600011E0392D3071932EF8018491811121C02B
:102B7000552009F4FCCCB70180E290E06CD45A9463
:102B8000F7CFF7018681978123C08FEF9FEF20C099
:102B9000B70180E290E05FD45A945110F9CFDACFB8
:102BA000512CB701802F90E056D4D6CF0CE011E025
:102BB000D8CF91108052B70190E04DD40F5F1F4FD6
:102BC000D3CF23E0251510F483E0C1CF512CC4CF1F
:102BD00060960FB6F894DEBF0FBECDBFDF91CF91E8
:102BE0001F910F91FF90EF90DF90CF90BF90AF902B
:102BF0009F908F907F906F905F904F903F902F901D
:102C00000895789484B5826084BD84B5816084BD64
:102C100085B5826085BD85B5816085BD80916E007A
:102C2000816080936E0010928100809181008260AB
:102C300080938100809181008160809381008091E8
:102C400080008160809380008091B10084608093D7
:102C5000B1008091B00081608093B00080919100BC
:102C600082608093910080919100816080939100B7
:102C7000809190008160809390008091A10082609B
:102C80008093A1008091A10081608093A100809138
:102C9000A00081608093A0008091210182608093D8
:102CA0002101809121018160809321018091200187
:102CB00081608093200180917A00846080937A0003
:102CC00080917A00826080937A0080917A0081609E
:102CD00080937A0080917A00806880937A001092C5
:102CE000C1003F9A269A259A47982E982D981092BF
:102CF000B5021092B40280E090E00E94460D8091EF
:102D0000B4029091B5020E94460D80E090E00E94CE
:102D1000E40368EE73E080E090E068DB86E793E030
:102D2000C4DA07EC12E088EE9BE09093D002809327
:102D3000CF028EED9BE09093D2028093D10293E07C
:102D4000792E7092CA021092D4021092D30289EDA9
:102D500092E0ABDAC6EBD2E081EE9BE09093BF024B
:102D60008093BE028BED9BE09093C1028093C002E2
:102D70007092B9021092C3021092C20281E090E0F8
:102D80000E94E403109319040093180410931B0489
:102D900000931A0487ED92E09F938F93DF93CF9374
:102DA0003ED384B1817F84B984B1866084B982E0E6
:102DB00090E00E94E40383E090E00E94E40310921C
:102DC000C6021092C50280917A00876080937A00D3
:102DD00080917C00806480937C0080917A00806880
:102DE00080937A0080E280937E0010927D0084E0E0
:102DF00090E00E94E4030F900F900F900F90C2E3B9
:102E0000D0E02BED422E2EE2522E32E3632E712CB7
:102E1000812CA12CC12C00E4D02E0CE9E02E07E47B
:102E2000F02E01E020E040E050E061E070E080E062
:102E30000E94950DC2010197F1F7CE01B3010E94E6
:102E4000F01F660F771F81E090E002C0880F991F86
:102E50006A95E2F70E947A0D2197D1F6C2E3D0E09D
:102E6000ABED4A2EAEE25A2EBEEC6B2E77247A944E
:102E700022242394312C812CA12CC12CE0E4DE2EC1
:102E8000ECE9EE2EE7E4FE2E01E020E040E050E029
:102E90006FEF7FEF80E00E94950DC2010197F1F77F
:102EA000CE01B3010E94F01F6C5F7F4F660F771F4A
:102EB000C10102C0880F991F6A95E2F70E947A0D3E
:102EC0002197C9F60E947004C82F0E948D0D882397
:102ED000F1F00E9470048130C1F30E948D0D8823AF
:102EE00019F08AEA92E002C085E591E00E947A0D2D
:102EF0006CE271E080E090E079DA80E090E00E949E
:102F00007A0D6CE271E080E090E070DAE2CF80E070
:102F10000E941F03C23009F0D0C080E090E00E9400
:102F20007A0D68EC70E080E090E060DA8AEA92E086
:102F30000E947A0D60EB74E080E090E057DA80E068
:102F400090E00E947A0D68E572E080E090E04EDA51
:102F500011E0C0E0D0E072E0672E712C80E091E0DB
:102F60000E947A0D61E070E080E090E03FDA80E05E
:102F700092E00E947A0D61E070E080E090E036DA45
:102F8000CE01880F991F930102C0220F331F8A952B
:102F9000E2F7C9010E947A0D61E070E080E090E004
:102FA00025DA0E947004823049F0843009F448C068
:102FB0008130A1F6209791F2219747C0C230D10508
:102FC000E1F144F4C130D10549F604E010E0C2E07B
:102FD000D0E008C0C330D10509F4A0C0C430D10589
:102FE000D1F1BCCF0E94BD0A0E9470048230D1F79B
:102FF00080910202909103029801281B390BC901AC
:10300000880F991F9E0102C0220F331F8A95E2F795
:10301000C9010E947A0D64EF71E080E090E0E6D98A
:103020000E9470048230F1F684E090E00E94170460
:1030300080E090E00E9417040EC011118FCF0BC0EA
:10304000C430D1050CF08ACF219660E273E080E0B5
:1030500090E0CCD983CF80E090E00E947A0D60E9C7
:1030600071E080E090E0C2D98AEA92E00E947A0D95
:1030700060E971E080E090E0B9D980E090E00E94E2
:103080007A0D60E971E080E090E0B0D980E090E0F6
:103090000E947A0D809102029091030224E030E0B8
:1030A000281B390B220F331F81E090E002C0880FEC
:1030B000991F2A95E2F70E947A0DC4E0D0E002E061
:1030C00010E086EB92E00E94C1058091C40281115C
:1030D00022C00E94BD0A0E9470048230E1F48091F7
:1030E00002029091030285309105ACF49E01281BE9
:1030F000390BC901880F991F980102C0220F331F95
:103100008A95E2F7C9010E947A0D0E94700482300C
:1031100011F40E94F8040E94FE0AD3CF10E01ECFE3
:10312000E9EDF2E01382128248EE53E060E070E0D5
:10313000448355836683778388E192E0918380831B
:103140002DEC30E0358724872CEC30E0378726875C
:1031500028EC30E0318B208B29EC30E0338B228B54
:103160002AEC30E0358B248B2EEC30E0378B268B2D
:10317000118E128E138E148EE6E7F3E01382128204
:1031800044835583668377839183808385EC90E0C5
:103190009587848784EC90E09787868780EC90E021
:1031A000918B808B81EC90E0938B828B82EC90E012
:1031B000958B848B86EC90E0978B868B118E128E8C
:1031C000138E148E0895283008F027E03327DA0193
:1031D000990F311D87FD916000966105710539F4E5
:1031E00032602E5F3D9330E32A95E1F708959F3FCB
:1031F00030F080387105610509F03C5F3C5F3D931C
:10320000913008F08068911DDF93CF931F930F9347
:10321000FF92EF92192F987F9695E92F96959695A4
:10322000E90FFF27E659FE4F99273327EE24FF24A5
:10323000A701E70105900894079428F4360FE71ECC
:10324000F81E491F511D660F771F881F991F06948E
:10325000A1F70590079428F4E70EF81E491F561FA2
:10326000C11D770F881F991F661F0694A1F705904F
:10327000079428F4F80E491F561FC71FD11D880F49
:10328000991F661F771F0694A1F70590079420F4F5
:10329000490F561FC71FD81F990F661F771F881F1A
:1032A0000694A9F784911095177041F0D695C795AB
:1032B00057954795F794E7941A95C1F7E0E1F1E047
:1032C00068941590159135916591959105907FE2DF
:1032D0007395E118F10A430B560BC90BD009C0F7DF
:1032E000E10CF11E431F561FC91FD01D7EF4703321
:1032F00011F48A95E6CFE894015030F0080F0AF4F3
:103300000027021708F4202F2395022F7A3328F084
:1033100079E37D932A95E9F710C07D932A9589F684
:10332000069497956795379517951794E118F10AC4
:10333000430B560BC90BD00998F023957E917395DA
:103340007A3308F070E37C932013B8F77E917061B4
:103350007D9330F0839571E37D9370E32A95E1F7D7
:103360001124EF90FF900F911F91CF91DF9199273A
:1033700087FD90950895FC01059061507040011003
:10338000D8F7809590958E0F9F1F0895FC0161508E
:10339000704001900110D8F7809590958E0F9F1F77
:1033A0000895CF93DF93EC012B8120FF33C026FFDC
:1033B0000AC02F7B2B838E819F8101969F838E83F2
:1033C0008A8190E029C022FF0FC0E881F9818081C5
:1033D000082E000C990B009719F420622B831AC059
:1033E0003196F983E8830EC0EA85FB85199597FF2E
:1033F00009C02B81019611F080E201C080E1822B8F
:103400008B8308C02E813F812F5F3F4F3F832E83E8
:10341000992702C08FEF9FEFDF91CF9108950F930F
:103420001F93CF93DF93CDB7DEB708851985F801D9
:10343000838188608383AE01445F5F4F6A857B85AB
:10344000C80156D8F8012381277F2383DF91CF91CC
:103450001F910F9108950F931F93CF93DF93FB015B
:10346000238121FD03C08FEF9FEF2CC022FF16C0E8
:1034700046815781248135814217530744F4A08146
:10348000B1819D012F5F3F4F318320838C93268133
:1034900037812F5F3F4F3783268314C08B01EC01A8
:1034A000FB010084F185E02D1995892BE1F6D80107
:1034B00016968D919C911797019617969C938E93D3
:1034C0001697CE01DF91CF911F910F910895CF9361
:1034D000DF93CDB7DEB72E970FB6F894DEBF0FBEE1
:1034E000CDBF8DE08C838C899D899A838983AE01C1
:1034F000485E5F4F6E897F89CE01019619D22E9664
:103500000FB6F894DEBF0FBECDBFDF91CF91089507
:10351000FA01AA27283051F1203181F1E8946F9304
:103520006E7F6E5F7F4F8F4F9F4FAF4FB1E03ED0AA
:10353000B4E03CD0670F781F891F9A1FA11D680F48
:10354000791F8A1F911DA11D6A0F711D811D911D7B
:10355000A11D20D009F468943F912AE0269F1124F0
:103560003019305D3193DEF6CF010895462F477054
:10357000405D4193B3E00FD0C9F7F6CF462F4F70AF
:10358000405D4A3318F0495D31FD4052419302D00D
:10359000A9F7EACFB4E0A6959795879577956795B3
:1035A000BA95C9F700976105710508959B01AC01B3
:1035B0000A2E06945795479537952795BA95C9F7DA
:1035C000620F731F841F951FA01D089520FD09C061
:1035D000FC0123FD05C022FF02C073836283518377
:1035E0004083089544FD17C046FD17C0AB01BC01E0
:1035F000DA01FB01AA0FBB1FEE1FFF1F1094D1F7CA
:103600004A0F5B1F6E1F7F1FCB01BA01660F771F2A
:10361000881F991F09C033E001C034E0660F771F8F
:10362000881F991F3150D1F7620F711D811D911DA7
:1036300008950F931F93CF93DF938C01C801B1DEE0
:10364000EC0197FD06C08BD2892BC1F7B801CE01E2
:1036500099D2CE01DF91CF911F910F9108958F9252
:103660009F92AF92BF92EF92FF920F931F93CF93CF
:10367000DF938C01D62F7A01B22E93DE9C01332783
:103680002B32310531F02D32310559F48B2D806804
:10369000B82ED15011F480E061C0C80182DE97FDE0
:1036A000FACFCB2DCD7F2B2D2073F9F48033E9F4A5
:1036B000AA24AA94AD0E09F43EC0C80172DE97FD9B
:1036C0003AC09C012F7D33272835310541F4C2646F
:1036D000D25089F1C80165DE97FF07C02CC0B6FE45
:1036E00002C0C26001C0C261DA2D812C912C54014C
:1036F00020ED280F283078F0C4FF03C0B80142D273
:1037000017C02A3040F0C6FFF9CF2F7D3FEE320FB1
:103710003630A0F727504C2FC501B40163DF4B01B1
:103720005C01C260D15051F0C8013BDE97FFE0CF91
:10373000C1FD04C0B0CF812C912C5401C7FF08C03B
:10374000B094A09490948094811C911CA11CB11CF5
:103750002C2FB501A401C70139DF81E0DF91CF91A2
:103760001F910F91FF90EF90BF90AF909F908F901F
:1037700008955F926F927F928F929F92AF92BF92C5
:10378000CF92DF92EF92FF920F931F93CF93DF932D
:10379000CDB7DEB7A0970FB6F894DEBF0FBECDBF92
:1037A0005C01962E7A01F9018E010F5F1F4F6801AF
:1037B00080E2D8011D928A95E9F7D50113968C9085
:1037C00080E090E0612C712C30E061E070E083FCDF
:1037D000259183FE21918F01522E211103C080E09B
:1037E00090E090C02E3511F4009751F1432F50E036
:1037F000481759073CF42D3559F12D3219F477202B
:1038000009F103C0772009F468C0452D4695469517
:103810004695D601A40FB11D452D47708B0102C0FE
:10382000000F111F4A95E2F7A8015C91452B4C93BC
:10383000651459F0561410F45394E7CF5A94E5CF19
:1038400031E004C07724739401C0712C0196BFCF7E
:10385000772019F08E8180628E83311103C0882415
:10386000839417C0F6019E012F5D3F4F80818095A4
:1038700081932E173F07D1F7F2CFE114F10429F01D
:10388000D7018C93F70131967F019A94812C99206E
:10389000E9F0C50186DD97FD17C0FC01FF2723E095
:1038A000F595E7952A95E1F7EC0DFD1D208130E0B7
:1038B000AC014770552702C0359527954A95E2F728
:1038C00020FDDBCFB5015ED1811089CFE114F10479
:1038D00011F0D7011C92C80115C0422F469546959C
:1038E0004695D601A40FB11D422F47708B0102C02F
:1038F000000F111F4A95E2F7A8015C91452B4C93EC
:10390000622EA4CFA0960FB6F894DEBF0FBECDBF37
:10391000DF91CF911F910F91FF90EF90DF90CF90AB
:10392000BF90AF909F908F907F906F905F90089521
:103930005F926F927F928F929F92AF92BF92CF923F
:10394000DF92EF92FF920F931F93CF93DF936C015F
:10395000EB015A01FC0117821682512CF601E3801B
:10396000FE01E3FC8591E3FE8191182FEF0188238E
:1039700009F4E0C090E0F3D0892B19F0C60159DEBC
:10398000EDCF153241F4FE01E3FC1591E3FE1191F8
:10399000EF01153271F4C60104DD97FDC9C0412F56
:1039A00050E09C01332724173507C1F2B601EAD055
:1039B000C1C01A3239F4E3FC1591E3FE1191EF0115
:1039C00001E001C000E0F12C20ED210F2A3078F455
:1039D00002606F2D70E080E090E040E203DEF62EA2
:1039E000FE01E3FC1591E3FE1191EF01EDCF01FF24
:1039F00003C0F11003C09EC0FF24FA94183619F0DA
:103A00001C3651F010C0FE01E3FC1591E3FE11914C
:103A1000EF01183641F408600460FE01E3FC1591E3
:103A2000E3FE1191EF01112309F484C0612F70E0CE
:103A30008AE092E09CD0892B09F47CC000FD07C08D
:103A4000F50180809180C50102965C0102C0812C45
:103A5000912C1E3649F4F6014681578160E070E0F2
:103A6000202FC401B3DD7ACF1336A1F401FD02C0CB
:103A7000FF24F394C60195DC97FD5AC0811491048C
:103A800029F0F4018083C40101964C01FA94F110ED
:103A9000F1CF4AC01B3551F49E01A4016F2DC60120
:103AA00068DEEC01892B09F03FC039C0C601C1DDD9
:103AB00097FD3EC01F3649F128F4143621F119361E
:103AC00039F125C0133771F01537E9F020C08114A2
:103AD000910429F0F4016082C40101964C01FA942A
:103AE000FF2059F0C6015DDC3C0197FD06C037D0D0
:103AF000892B69F3B601C30145D081149104A1F06B
:103B0000F401108211C0006203C0006101C00064B2
:103B1000202FA4016F2DC601A2DD811105C0F60181
:103B20008381807329F406C000FD18CF539416CF0B
:103B3000552019F0852D90E002C08FEF9FEFDF91A7
:103B4000CF911F910F91FF90EF90DF90CF90BF909A
:103B5000AF909F908F907F906F905F90089591119C
:103B60002AC0803219F089508550D0F70895FC01A1
:103B70000590061621F00020D9F7C001089531976D
:103B8000CF010895FB01238120FF12C026FD10C044
:103B90008F3F3FEF930761F082832F7D2064238363
:103BA000268137812150310937832683992708954B
:103BB0008FEF9FEF08959927882708955058BB27C6
:103BC000AA270ED070C161D130F066D120F031F457
:103BD0009F3F11F41EF456C10EF4E095E7FB4CC173
:103BE000E92F72D180F3BA1762077307840795072C
:103BF00018F071F49EF58AC10EF4E0950B2EBA2FE1
:103C0000A02D0B01B90190010C01CA01A0011124E2
:103C1000FF27591B99F0593F50F4503E68F11A168E
:103C2000F040A22F232F342F4427585FF3CF46951F
:103C300037952795A795F0405395C9F77EF41F1641
:103C4000BA0B620B730B840BBAF09150A1F0FF0F0B
:103C5000BB1F661F771F881FC2F70EC0BA0F621FF7
:103C6000731F841F48F4879577956795B795F795E7
:103C70009E3F08F0B3CF9395880F08F09927EE0F79
:103C8000979587950895D4D008F481E008950CD0D5
:103C90000AC102D140F0F9D030F021F45F3F19F0B1
:103CA000EBC0511134C1EEC00FD198F39923C9F381
:103CB0005523B1F3951B550BBB27AA276217730732
:103CC000840738F09F5F5F4F220F331F441FAA1FE6
:103CD000A9F333D00E2E3AF0E0E830D091505040A6
:103CE000E695001CCAF729D0FE2F27D0660F771F54
:103CF000881FBB1F261737074807AB07B0E809F036
:103D0000BB0B802DBF01FF2793585F4F2AF09E3FCA
:103D1000510568F0B1C0FBC05F3FECF3983EDCF3A7
:103D2000869577956795B795F7959F5FC9F7880F43
:103D3000911D9695879597F90895E1E0660F771F95
:103D4000881FBB1F621773078407BA0720F0621B26
:103D5000730B840BBA0BEE1F88F7E0950895BCD067
:103D600088F09F5790F0B92F9927B751A0F0D1F064
:103D7000660F771F881F991F1AF0BA95C9F712C0EE
:103D8000B13081F0C3D0B1E00895C0C0672F782F63
:103D90008827B85F39F0B93FCCF38695779567955A
:103DA000B395D9F73EF490958095709561957F4FC6
:103DB0008F4F9F4F0895E89409C097FB3EF490956C
:103DC0008095709561957F4F8F4F9F4F9923A9F0F4
:103DD000F92F96E9BB279395F69587957795679583
:103DE000B795F111F8CFFAF4BB0F11F460FF1BC0C7
:103DF0006F5F7F4F8F4F9F4F16C0882311F096E95A
:103E000011C0772321F09EE8872F762F05C0662307
:103E100071F096E8862F70E060E02AF09A95660FC0
:103E2000771F881FDAF7880F9695879597F9089579
:103E3000990F0008550FAA0BE0E8FEEF16161706BB
:103E4000E807F907C0F012161306E407F50798F023
:103E5000621B730B840B950B39F40A2661F0232B3C
:103E6000242B252B21F408950A2609F4A140A695B8
:103E70008FEF811D811D089597F99F6780E870E09D
:103E800060E008959FEF80EC089500240A941616D0
:103E9000170618060906089500240A941216130638
:103EA000140605060895092E0394000C11F48823C6
:103EB00052F0BB0F40F4BF2B11F460FF04C06F5FE2
:103EC0007F4F8F4F9F4F089557FD9058440F551FB8
:103ED00059F05F3F71F04795880F97FB991F61F08C
:103EE0009F3F79F087950895121613061406551F03
:103EF000F2CF4695F1DF08C0161617061806991F6F
:103F0000F1CF86957105610508940895E894BB2763
:103F100066277727CB0197F908950BD0C4CFB5DF7B
:103F200028F0BADF18F0952309F0A6CFABCF112403
:103F3000EECFCADFA0F3959FD1F3950F50E0551F48
:103F4000629FF001729FBB27F00DB11D639FAA27EE
:103F5000F00DB11DAA1F649F6627B00DA11D661F3D
:103F6000829F2227B00DA11D621F739FB00DA11D5E
:103F7000621F839FA00D611D221F749F3327A00D18
:103F8000611D231F849F600D211D822F762F6A2FB4
:103F900011249F5750408AF0E1F088234AF0EE0F39
:103FA000FF1FBB1F661F771F881F91505040A9F746
:103FB0009E3F510570F060CFAACF5F3FECF3983E73
:103FC000DCF3869577956795B795F795E7959F5FAD
:103FD000C1F7FE2B880F911D9695879597F9089547
:103FE00097FB072E16F4009406D077FD08D013D067
:103FF00007FC05D03EF4909581959F4F08957095EC
:1040000061957F4F0895EE0FFF1F881F8BBF0790AC
:10401000F691E02D1994AA1BBB1B51E107C0AA1F02
:10402000BB1FA617B70710F0A61BB70B881F991F59
:104030005A95A9F780959095BC01CD01089581E02E
:1040400090E0F8941AC0FB0151915523A9F0BF01EB
:10405000DC014D9145174111E1F759F4CD01019073
:10406000002049F04D9140154111C9F3FB01411168
:0E407000EFCF81E090E001970895F894FFCF24
:10407E00FFFFFFFF011E2323010A16010710012374
:10408E001E05060600000000B10F120F400FFD0FB7
:10409E00710F4F0F630F45450054300054310054DB
:1040AE0032005433005434004C30004C31004C324A
:1040BE00004C33004C340043300055300045300086
:1040CE00453100453200453300453400523000463C
:0240DE0053008D
:00000001FF
