:10000000FAC1000029C2000027C2000025C200007A
:1000100023C2000021C200001FC200001DC2000058
:100020001BC2000019C2000017C2000015C2000068
:1000300013C2000011C200000FC200000DC2000078
:100040000BC2000009C2000007C2000005C2000088
:1000500003C2000001C20000FFC100000C947C122A
:10006000FBC100000C94FB100C94D210F5C10000F1
:10007000F3C10000F1C10000EFC10000EDC10000BC
:10008000EBC10000E9C10000E7C10000E5C10000CC
:100090000C949C100C947310DFC10000DDC10000B3
:1000A000DBC10000D9C10000D7C10000D5C10000EC
:1000B000D3C10000D1C10000CFC10000CDC10000FC
:1000C000CBC10000C9C10000C7C10000C5C100000C
:1000D000C3C10000C1C10000BFC10000BDC100001C
:1000E000BBC10000C711CA11B911BD11C111011264
:1000F000CE11D211D811DC11E011E611EA11EE1186
:100100000112F411F811FC116E616E00696E660047
:1001100000407A10F35A00A0724E18090010A5D4BE
:10012000E80000E87648170000E40B54020000CA1B
:100130009A3B000000E1F505000080969800000061
:1001400040420F000000A0860100000010270000C0
:100150000000E803000000006400000000000A0046
:10016000000000000100000000002C76D888DC6749
:100170004F0823DFC1DFAE59E1B1B796E5E3E453A1
:10018000C63AE651997696E8E6C28426EB898C9BBE
:1001900062ED407C6FFCEFBC9C9F40F2BAA56FA55E
:1001A000F490055A2AF75C936B6CF9676DC11BFCE0
:1001B000E0E40D47FEF520E6B500D0ED902E0300FB
:1001C000943577050080841E080000204E0A000048
:1001D00000C80C333333330F986E12831141EF8D07
:1001E0002114893BE65516CFFEE6DB18D1844B3847
:1001F0001BF77C1D901DA4BBE424203284725E2278
:100200008100C9F124ECA1E53D276364696E6F703C
:10021000737578585B006F6B0A006F6B0A0052258C
:1002200064006F6B0A00452564006F6B0A0043256C
:1002300064006F6B0A00462564202564006F6B0A1A
:1002400000465325640025646F6B0A0025646F6BBC
:100250000A006F6B0A005325640025646F6B0A0067
:1002600050256400582564006F6B0A005525640012
:100270006F6B0A004D2564006F6B0A004C2564000B
:100280006F6B0A005425640052300A0045340A009E
:1002900045330A0045320A0045310A0045300A005C
:1002A00055300A0043300A004C340A004C330A002F
:1002B0004C320A004C310A004C300A0054340A0017
:1002C00054330A0054320A0054310A0054300A00F0
:1002D00073746172740A0000002000230026002954
:1002E000002C002F0032000001000003010601096C
:1002F0000105050505070508080808020202020AAB
:100300000A080804040404010101010101010103B8
:1003100003030303030303040707070C0C0C0C0C73
:100320000C0C0C0202020206060606060606060B66
:100330000B0B0B0B0B0B0B07070A0A0A0A0A0A0521
:1003400005050404040808010210202008081020F4
:100350004010204080020102010804020101020451
:100360000810204080804020100804020180040210
:100370000180402010080402010804020101020467
:10038000081020408001020408102040801008045A
:100390000880102040044080102040048000000AA3
:1003A0000B02090C0D0E08070304010000000000F9
:1003B000000000000000000000000000000000003D
:1003C00000000000000000000012111000000000FA
:1003D000000000000000000000000000000000001D
:1003E000000000000000000000000000000000000D
:1003F00000000000E31811241FBECFEFD1E2DEBFE2
:10040000CDBF00E00CBF24E0ACE5B2E001C01D921E
:10041000A531B207E1F712E0A0E0B2E0E4E2F1E4D6
:1004200000E00BBF02C007900D92AC35B107D9F7C1
:1004300011E0CBEFD1E000E006C021970109802F49
:10044000FE010E945620CA3FD10780E00807A9F7A5
:100450000E944F160C949020D3CDAF92CF92DF9292
:10046000EF92FF920F931F93CF93DF938B01EC01D9
:10047000C61BD70B83E691E09C01C29FC001C39FBE
:10048000900DD29F900D11240E9456111016110646
:10049000ACF484E49DEF9C01C29FC001C39F900D0A
:1004A000D29F900D1124DF91CF911F910F91FF905A
:1004B000EF90DF90CF90AF900C941312A12CC12C31
:1004C00020E5D22E23E4E22E27E4F22E01E020E004
:1004D00040ED57E064E670E081E00E94250DC2E047
:1004E000D0E0A12CC12C90E5D92E93E4E92E97E41D
:1004F000F92E01E020E040ED57E060E670EF81E08A
:100500000E94250DC230D10541F420E040ED57E0B6
:1005100064E670E081E00E94250D219711F7A12C7F
:10052000C12C80E5D82E83E4E82E87E4F82E01E084
:1005300020E040ED57E064E170E081E00E94250D8D
:10054000DF91CF911F910F91FF90EF90DF90CF90AF
:10055000AF9008959091A902992349F0882381F0E2
:1005600089ED90E00E9456111092A9020895811120
:1005700007C087E29FEF0E94561181E08093A90295
:100580000895CF93C82F0E940B0F0E94E60C85E5BB
:1005900091E00E94D30C81E08093A802CC2379F0F3
:1005A00080910202909103021092030210920202C3
:1005B000892B49F01092A7021092A60204C0109253
:1005C0000302109202021092A90280E0C3DF80E0D1
:1005D00090E00E94D30C1092AA02809102029091A6
:1005E000030224E030E0281B390B220F331F81E087
:1005F00090E002C0880F991F2A95E2F7CF910C94E2
:10060000D30CCF93DF93880F991FC1E0D0E002C0D5
:10061000CC0FDD1F8A95E2F7CE010E94D30C68E271
:1006200070E080E090E00E94441280E090E00E9440
:10063000D30C64E170E080E090E00E944412CE01AF
:100640000E94D30C68E270E080E090E00E944412C7
:1006500080E090E00E94D30C6AE070E080E090E0DF
:10066000DF91CF910C9444120F931F93CF93DF939C
:100670008C0187E30E949911019709F458C0C09139
:100680000202D091030210930302009302028091B0
:10069000A802811101C075DF8091020290910302CE
:1006A00024E030E0281B390B220F331F82E090E05A
:1006B00002C0880F991F2A95E2F70E94D30C60911F
:1006C000020270910302C617D70729F4C091AA024B
:1006D00081E0C82713C00530110519F48CEB92E0B6
:1006E00005C0C530D10529F484E49DEF0E941312A2
:1006F00004C0CE01B2DE80E02DDFC1E080E090E0FA
:100700000E94D30C809102029091030224E030E019
:10071000281B390B220F331F81E090E002C0880FA5
:10072000991F2A95E2F70E94D30C8C2F01C080E01C
:10073000DF91CF911F910F91089580917B00877F6A
:1007400080937B0082E480937C0080917A008064B7
:1007500080937A0080917A0086FDFCCF80917800AA
:100760002091790090E0922B8233910564F09C01F6
:10077000215531092331310540F0815A91094397C0
:1007800030F080E0089581E0089582E0089584E0EB
:100790000895AF92CF92DF92EF92FF920F931F9343
:1007A000CF93DF9380E0D6DE62E370E080E090E0FC
:1007B0000E9444126091040281E00E94FE0B04E05A
:1007C00010E0C2E0D0E0B9DF823029F487E30E9474
:1007D0009911892B21F180910202909103029801D5
:1007E000281B390BC901880F991F9E0102C0220FD7
:1007F000331F8A95E2F7C9010E94D30C66E970E0C5
:1008000080E090E00E94441280E090E00E94D30CCF
:1008100066E970E080E090E00E944412D4CF6091DD
:10082000040281E0F2D70E94E60C892BE1F7C09127
:100830000202D091030287E30E9499110197F1F01F
:10084000C530D10551F08CEB92E0C89FB001C99F33
:10085000700DD89F700D112402C06CEA7DE0A12CB0
:10086000C12C30E5D32E33E4E32E37E4F32E01E040
:1008700021E048E853E181E00E94250D1092AA0290
:100880006AE070E080E090E0DF91CF911F910F91DE
:10089000FF90EF90DF90CF90AF900C944412AF9206
:1008A000CF92DF92EF92FF920F93CF93DF9381E08D
:1008B00051DEC3E0D0E04EE161E080E0EFD6AA2453
:1008C000A394C12C90E5D92E93E4E92E97E4F92E58
:1008D00001E020E04AE852E060EA7FE080E00E9428
:1008E000250D892B19F54EE161E080E0D7D6A12CCA
:1008F00000E020E04AE852E068EA7DEF80E00E94F4
:10090000250D809102029091030224E030E0281B23
:10091000390B220F331F81E090E002C0880F991F2E
:100920002A95E2F70E94D30CC1E005C0219711F08F
:1009300030DFC1CFC0E06091040280E05FD780E08B
:1009400009DE8C2FDF91CF910F91FF90EF90DF9018
:10095000CF90AF900895AF92CF92DF92EF92FF9237
:100960000F93CF936091040280E04FD7609104020F
:1009700082E04BD781E0EEDDA12CC12C90E5D92E91
:1009800093E4E92E97E4F92E00E020E04EE551E0F3
:1009900060E77EEF80E00E94250DAA24A394C12C7D
:1009A000D12C2FEAE22E24E4F22E20E040E055E0A4
:1009B00060E271ED80E00E94250D009721F0029722
:1009C00089F5E7DE2FC0A12CC12C80E5D82E83E469
:1009D000E82E87E4F82E00E020E04AE852E06EECD2
:1009E0007FEF80E00E94250DAA24A39420E04AE82E
:1009F00052E068E572E080E00E94250DA12C20E025
:100A00004AE852E068EA7DEF80E00E94250D87E326
:100A10000E949911019711F4BCDEA4CF1092AA0292
:100A2000C1E001C0C0E06091040280E0E7D680E050
:100A300091DD8C2FCF910F91FF90EF90DF90CF90B1
:100A4000AF900895AF92CF92DF92EF92FF920F9303
:100A5000CF93DF93CBEAD4E081E07CDD60910402A8
:100A600080E0D3D64EE161E080E018D6AA24A394BA
:100A7000C12C30E5D32E33E4E32E37E4F32E00E02F
:100A800020E04AE852E064EC79E080E0DED7892B90
:100A9000B1F54EE161E080E001D6A12CC12CD12C52
:100AA0002FEAE22E24E4F22E20E040E456E064E354
:100AB00071E280E0CAD78FB7F894C090CC02D09092
:100AC000CD02E090CE02F090CF028FBF1092A5022F
:100AD0008DEA92E05CD02FB7F8948091CC0290918F
:100AE000CD02A091CE02B091CF022FBF8C199D09EB
:100AF000AE09BF09813E9E42A105B10510F049DE55
:100B0000ABCF60E476E081E090E00E944A0F8DEA8E
:100B100092E03DD0CE010197F1F78091A5028823A4
:100B2000D1F21092A4021092A502A12CC12C80E552
:100B3000D82E83E4E82E87E4F82E00E020E04EE58E
:100B400051E06CE771E080E080D781E08093AA02F9
:100B500080E090E028D7809102029091030224E087
:100B600030E0281B390B220F331F82E090E002C0D7
:100B7000880F991F2A95E2F716D781E0DF91CF9170
:100B80000F91FF90EF90DF90CF90AF900895AF92CC
:100B9000BF92CF92DF92EF92FF920F931F93CF936A
:100BA000DF9300D01F92CDB7DEB7182F092F8091A9
:100BB000A2029091A3028097F4F4812F902F0E94BB
:100BC000241A97FD1EC08D30910519F08A309105C9
:100BD00011F480E090E02091A2023091A302A901DB
:100BE0004F5F5F4F5093A3024093A202F901EE576B
:100BF000FD4F808306C01092A3021092A2028FEFD5
:100C00009FEF1A8219821C821B822091A2023091CE
:100C1000A302121613060CF000C4892B09F0FDC3C1
:100C200063E272E082E892E00E947620892B61F014
:100C3000E2E6F2E0A2E8B2E082E892E021912D93B0
:100C40008E179F07D9F7D1C0E2E8F2E0A2E6B2E042
:100C500082EA92E021912D938E179F07D9F766E2E1
:100C600072E082E892E00E947620892B19F08CECE9
:100C700092E0C9C369E272E082E892E00E947620C5
:100C8000892B19F088EC92E0BEC36CE272E082E836
:100C900092E00E947620892B19F084EC92E0B3C395
:100CA0006FE272E082E892E00E947620892B19F0D0
:100CB00080EC92E0A8C362E372E082E892E00E94D6
:100CC0007620892B19F08CEB92E09DC365E372E0EE
:100CD00082E892E00E947620892B19F088EB92E05E
:100CE00092C368E372E082E892E00E947620892B4A
:100CF00019F084EB92E087C36BE372E082E892E044
:100D00000E947620892B19F080EB92E07CC36EE381
:100D100072E082E892E00E947620892B19F08CEA3A
:100D200092E071C361E472E082E892E00E94762072
:100D3000892B19F088EA92E066C364E472E082E8E5
:100D400092E00E947620892B19F084EA92E05BC33E
:100D500067E472E082E892E00E947620892B19F025
:100D600080EA92E050C36AE472E082E892E00E9476
:100D70007620892B19F08CE992E045C36DE472E08E
:100D800082E892E00E947620892B19F088E992E0AF
:100D90003AC360E572E082E892E00E947620892BF7
:100DA00019F084E992E02FC363E572E082E892E0F3
:100DB0000E947620892B19F080E992E024C366E531
:100DC00072E082E892E00E947620892B19F08CE88C
:100DD00092E019C369E572E082E892E00E94762011
:100DE000892B19F088E892E00EC31092A3021092AA
:100DF000A2029E012F5F3F4F69013F932F9384E82A
:100E000092E09F938F93E2E8EE2EE2E0FE2EFF92B7
:100E1000EF920E94BA1A0F900F900F900F900F90C0
:100E20000F90181619060CF0BDC089819A8105979C
:100E300008F0F3C2FF24F394F092A40280E892E059
:100E40009F938F930F931F930E94621AA980BA8079
:100E5000F092BB020F900F900F900F9080910202C2
:100E600090910302059751F484E090E0909303027F
:100E70008093020284E49DEF0E94131204E010E0CC
:100E800080910202909103029801281B390BC9013D
:100E9000880F991F72E0C72ED12C960102C0220F35
:100EA000331F8A95E2F7C9017ED5E0900202F090E7
:100EB0000302F0920102E0920002B0920302A092BB
:100EC00002028091AA02AE14BF0469F4811154C0D9
:100ED0000A191B09000F111FC60102C0880F991FB4
:100EE0000A95E2F747C0811136DD8091AA0281118F
:100EF00043C08091A6029091A702449791F481E0AB
:100F000040DB609102027091030280E090E0A5DA7C
:100F100062E370E080E090E00E94441281E01ADB1E
:100F200006C06091020270910302C70196DA8091B7
:100F30005C0290915D02019690935D0280935C0249
:100F40008091A6029091A70201969093A7028093A8
:100F5000A602809102029091030224E030E0281B57
:100F6000390B220F331F82E090E002C0880F991FD7
:100F70002A95E2F718D566DD80E090E014D58091DF
:100F800002029091030224E030E0281B390B220F6B
:100F9000331F82E090E002C0880F991F2A95E2F784
:100FA00002D53BC2DF92CF928CE792E09F938F9362
:100FB000FF92EF920E94BA1A0F900F900F900F902D
:100FC0000F900F9018161906DCF489819A818530EC
:100FD000910508F022C22091AA0221111EC244DB11
:100FE0006AE070E080E090E00E94441258DC64E621
:100FF00070E080E090E00E94441288E792E003C233
:10100000DF92CF9284E792E09F938F93FF92EF92CB
:101010000E94BA1A0F900F900F900F900F900F90A0
:101020001816190694F489819A81009729F001977E
:1010300009F0F3C182E001C081E080930402809155
:1010400004024DD480E792E0DEC1DF92CF928CE6BD
:1010500092E09F938F93FF92EF920E94BA1A0F90A3
:101060000F900F900F900F900F9018161906B4F470
:1010700072DC68EC70E080E090E00E94441288E648
:1010800092E09F938F930F931F930E94621A109286
:10109000BB021092A7021092A602BBC1DF92CF92B0
:1010A00084E692E09F938F93FF92EF920E94BA1A88
:1010B0000F900F900F900F900F900F901816190629
:1010C00084F489819A81892B09F0A7C198E088E18D
:1010D0000FB6F894A895809360000FBE90936000BF
:1010E0009CC1DF92CF9280E692E09F938F93FF9214
:1010F000EF920E94BA1A0F900F900F900F900F90DE
:101100000F90181619066CF489819A81892B09F0C1
:1011100084C187E30E9499119F938F938AE592E09F
:101120002CC0DF92CF9286E592E09F938F93FF923F
:10113000EF920E94BA1A0F900F900F900F900F909D
:101140000F901816190634F589819A81009719F4C1
:1011500082E592E058C18130910531F41F9284ED0F
:101160008F938CE492E009C0029709F056C183E0A6
:101170008F9387EE8F9386E492E09F938F930F93E4
:101180001F930E94621A0F900F900F900F900F9074
:101190000F9043C1DF92CF9281E492E09F938F93AF
:1011A000FF92EF920E94BA1A0F900F900F900F903B
:1011B0000F900F901816190634F481E08093A50261
:1011C0008DE392E020C1CE0103969F938F93DF922F
:1011D000CF9286E392E09F938F93FF92EF920E94CB
:1011E000BA1A0FB6F894DEBF0FBECDBF1816190697
:1011F0006CF489819A81059708F00FC18B819C81DD
:10120000039708F00AC182E392E0FDC0DF92CF921B
:101210008EE292E09F938F93FF92EF920E94BA1A10
:101220000F900F900F900F900F900F9018161906B7
:101230000CF042C089819A81892B09F0EEC060913F
:10124000040280E0E2D261E871E086E990E022D613
:101250008091040247E161E0813019F480E01ED200
:1012600002C080E07BD261E871E08AEA90E012D6A9
:101270008091040247E061E0813019F480E00ED2F1
:1012800002C080E06BD267EC71E084EC91E002D6A2
:10129000809104024EE161E0813019F480E0FED1DA
:1012A00002C080E05BD26091040280E0A7D280E0BF
:1012B00051D98AE292E0A7C0DF92CF9286E292E013
:1012C0009F938F9382E8E82E82E0F82EFF92EF92B0
:1012D0000E94BA1A0F900F900F900F900F900F90DE
:1012E000181619060CF046C0E980FA8035E0E316BE
:1012F000F10408F092C08091AA0281112CDB81E0F8
:1013000029D96091040280E080D283E0E816F104DC
:1013100014F090E001C094E080910202482F491B34
:1013200024E43DEF42036001439FD00C1124D0928E
:101330005F02C0925E02282F2E1943E651E024037B
:10134000C001259F900D112490936102809360024B
:10135000ADD7C6010E9413126AE972E084EC99E0ED
:1013600099D580E0F7D86091040280E047D282E20C
:1013700092E049C0DF92CF928EE192E09F938F93EB
:10138000FF92EF920E94BA1A0F900F900F900F9059
:101390000F900F901816190654F589819A81892BA0
:1013A00009F03BC06091040280E02FD281E0D2D8E6
:1013B00060E476E08CE396EF6DD580E0CBD8809149
:1013C0006002909161029195819591096FD780910A
:1013D0005E0290915F029195819591090E9413128E
:1013E0006091040280E00AD28AE192E00CC0809110
:1013F000A402882391F064E670E080E090E00E940F
:10140000441286E192E09F938F930F931F930E9463
:10141000621A0F900F900F900F900F900F900F90F7
:101420000F90DF91CF911F910F91FF90EF90DF9080
:10143000CF90BF90AF9008958091020290910302E7
:1014400024E030E0281B390B220F331F81E090E0AD
:1014500002C0880F991F2A95E2F7A5D26ED9857030
:10146000A9F06BD9282F80910202909103022130BC
:1014700019F0243031F00AC0853091053CF4019612
:1014800004C01816190614F40197EED880910202D0
:1014900090910302059781F482E090E084D262E3A8
:1014A00070E080E090E0F0D781E090E07CD262E3F1
:1014B00070E080E090E0E8C7089580E090E0892B3C
:1014C00019F077D5811120C080E090E0892B19F0C8
:1014D00067D581111CC080E090E0892B41F080E04D
:1014E00090E0892B21F00E940000811113C080E060
:1014F00090E0892BA1F080E090E0892B81F00E94A0
:10150000000081110AC008950E940000DDCF0E94F2
:101510000000E1CF0E940000EACF0C940000089583
:10152000CF92DF92EF92FF929CE59CBD1DBC813073
:1015300039F020F0823029F42F9803C0469801C07A
:101540005F986EBD0DB407FEFDCF9EB5C52EDD24A0
:10155000EE24FF24CEBC0DB407FEFDCF9EB56A017C
:10156000EE24FF24CEBC0DB407FEFDCF9EB5C32EE6
:10157000D42EE52EFF24CEBC0DB407FEFDCF9EB5C4
:101580002EBD0DB407FEFDCF9EB5813039F020F0A1
:10159000823029F42F9A03C0469A01C05F9AFF90C7
:1015A000EF90DF90CF9008959C0188E036952795C5
:1015B0002115310511F08150C9F708951F93CF937C
:1015C000DF93182FD42FC22F262F2F70C03270F424
:1015D000822F90E0A0E0B0E0B82FAA2799278827B3
:1015E0009C01AD01236D436050610FC0C695D69537
:1015F000822F90E0A0E0B0E0B82FAA279927882793
:101600009C01AD01236D416050616CEE812F88DF3C
:10161000CF718C2F90E0982F8827092E000CAA0BF1
:10162000BB0BDF714D2F50E060E070E06F609A01FE
:10163000AB01282B392B4A2B5B2B60E9812F70DF04
:1016400080E0DF91CF911F9108952091AB023091FE
:10165000AC02C90184709927AC0156954795C90120
:10166000807199279695879596958795842B2170FB
:10167000822B089580ED92E065C48DE693E062C40C
:10168000682F80ED92E0C0D480E090E00895682F4C
:101690008DE693E0B9D480E090E008951F93CF9356
:1016A000DF93C82FD62F142F813031F028F08230ED
:1016B00039F480E190E002C082E090E075DF01C083
:1016C00080E1212F4D2F682F8C2F78DFD82F8111AB
:1016D0003FC020E030E0A90161E98C2F21DFC1305B
:1016E00029F030F0C23021F024E003C029E001C02D
:1016F00025E0822F220F990BAA0BBB0BAC013327DD
:1017000022276DEE8C2F0CDF22EC31E040E050E020
:1017100064E98C2F05DF20E831E340E050E060E829
:101720008C2FFEDE212F220F220F822F90E0A0E0CF
:10173000B0E09C01AD01C11105C03260466160EFAF
:1017400080E004C03260466060EF8C2FE9DE01C0AB
:10175000DFEF8D2FDF91CF911F9108951F93CF93CE
:10176000DF93C82F162FD42F813031F028F082302C
:1017700039F480E190E002C082E090E015DF01C022
:1017800080E12D2F412F682F8C2F18DF182F81110A
:101790002FC020E030E0A90161E98C2FC1DE20E0FC
:1017A00030E044E050E06DEE8C2FBADE20E030E017
:1017B000A90164E98C2FB4DE24E030E040E050E081
:1017C00060E88C2FADDE2D2F220F220F822F90E0AC
:1017D000A0E0B0E09C01AD013260466060EF8C2F6C
:1017E0009FDE20E030E0A90163E98C2F99DE01C083
:1017F0001FEF812FDF91CF911F91089540E062305C
:1018000011F460E0ABCF60E049CFCF93DF93CDB769
:10181000DEB72F970FB6F894DEBF0FBECDBF209175
:101820000502309106024091070229833A834B83D7
:101830002C833D834E832091080230910902409110
:101840000A022F833887498720910B0230910C02BE
:1018500040910D022A873B874C8720910E023091E0
:101860000F02409110022D873E874F876130D9F0DB
:1018700090F0623051F5282F30E0FE01E20FF31FA7
:10188000448162852F960FB6F894DEBF0FBECDBFA0
:10189000DF91CF9163CF282F30E0FE01E20FF31FDD
:1018A000DF01458507C0282F30E0FE01E20FF31F5E
:1018B000DF01418117966C912F960FB6F894DEBF29
:1018C0000FBECDBFDF91CF91E9CE80E02F960FB64E
:1018D000F894DEBF0FBECDBFDF91CF9108951F9367
:1018E000CF93DF93182F3E9A579A279A469A5F9A7A
:1018F0002F9A549A249A569A5C982C985E98682F3E
:1019000080E083DF21E030E0811102C020E030E0A0
:10191000CC27DD27C21BD30B612F81E076DF81113D
:1019200002C020E001C02EEFC20F612F82E06DDF08
:1019300081118CEF8C0FDF91CF911F9108952E981C
:10194000000020E130E040E050E8BC016423752352
:10195000672B11F02D9A01C02D98479A00004798E7
:101960000000569547952150310979F72E9A0000CD
:101970009093AC028093AB020895282F2270922F8F
:10198000990F282F2470220F220F292B8170282BCA
:10199000022E000C330B8091AB029091AC028A7E38
:1019A000822B932BCCCF2091AB023091AC022F73C2
:1019B0003327582F4427242B352B8827937096954F
:1019C000879596958795822B932BB9CFAF92CF921F
:1019D000DF92EF92FF920F93CF93DF93C2E0D0E0BC
:1019E000A12CC12C90E5D92E93E4E92E97E4F92E91
:1019F00001E020E040ED57E060EA7FE081E025D0A3
:101A0000C230D10539F420E040ED57E064ED7EEFBF
:101A100081E01BD0219721F7A12CC12C80E5D82E85
:101A200083E4E82E87E4F82E01E020E040E45FE163
:101A30006DE771EF81E009D0DF91CF910F91FF90B9
:101A4000EF90DF90CF90AF9008952F923F924F92FA
:101A50005F926F927F928F929F92AF92BF92CF923E
:101A6000DF92EF92FF920F931F93CF93DF93CDB747
:101A7000DEB760970FB6F894DEBF0FBECDBF898387
:101A80001B015B834A8329870C83AE868091040205
:101A9000823009F41C8280E090E085DF2A813B815E
:101AA000B901330F880B990B0E94301F6A877B871F
:101AB0008C879D8739813130E9F018F0323069F038
:101AC00027C037FE07C08824992482189308BDDDFB
:101AD00081600BC0BADD8E7F18C037FE08C0882435
:101AE000992482189308B1DD8B7F47DF13C0ADDDE9
:101AF00084600BC037FE07C088249924821893089D
:101B0000A4DD8D7FF2CFA1DD826037DF410102C00D
:101B1000812C912C81E090E046DF1B821A82A12C5F
:101B2000B12C1E821D821F86188A18E403E4A814B3
:101B3000B90409F4D7C089818130E9F018F0823006
:101B400081F02FC02C9A2C989C819923F1F089E385
:101B5000F0D30197D1F462E370E080E090E094D498
:101B6000CFC05E9A5E982C812223D9F08BE3E1D31B
:101B70000197B9F4BAC05C9A5C983C81332389F030
:101B80008AE3D7D3019769F40FC19E85992349F061
:101B9000121413040CF09FC087E3CBD3019709F410
:101BA000A1C03FEFA31AB30AC4018A199B09988701
:101BB0008F832F853889412F502F60E070E080E8B7
:101BC0009FE30E949A1E2B013C0120E034E244E78F
:101BD00059E40E94E01F0E94021F6230710548F024
:101BE000660F771F660F771F65507109CB0101974C
:101BF000F1F72A813B812130310509F441C02230BF
:101C0000310509F44DC0A7019601C301B2010E943C
:101C1000E01F9B01AC016F857889812F902F0E9476
:101C2000321E6F87788B182F092F9B01482F592F51
:101C30006A857B858C859D850E94961E181674F09A
:101C400084E090E0B0DEBE82AD823A853F878B852E
:101C5000888B1C850D8521E030E00FC08F81988531
:101C60008A159B051CF01B821A8261CF80E190E0EF
:101C70009ADEBE82AD8222E030E03B832A8357CFDA
:101C80008D819E812F813885821793070CF44FCF69
:101C900080E190E088DE82E090E09B838A8347CFFA
:101CA000A7019601C301B2010E94E01F9B01AC0194
:101CB0006F857889812F902F0E94311E6F87788BD6
:101CC000182F092F20E030E048E453E40E94961ECC
:101CD00087FF2DCF28CF37FE64CF87E32AD3892B08
:101CE00009F05FCF80E090E07DC062E370E080E0CB
:101CF00090E0CAD32985222319F08DD0892B19F0C1
:101D000082E090E06FC062E370E080E090E0BCD3DE
:101D100080910202909103028530910511F484E0D4
:101D200090E01092A9022DE93EEF829FB001839FBF
:101D3000700D929F700D1124A12CC12C20E5D22E84
:101D400023E4E22E27E4F22E01E021E048E057E010
:101D500082E07BDE62E370E080E090E095D380E09B
:101D60000E94AA021CC02A813B8125303105B9F1AD
:101D70008CEB92E0289FB001299F700D389F700D69
:101D80001124A12CC12C90E5D92E93E4E92E97E4DF
:101D9000F92E01E021E048E853E181E056DE10929F
:101DA000AA0281E090E01EC062E370E080E090E073
:101DB0006BD33985332309F4A3CF08DE892B09F0CF
:101DC0009FCF80910202909103029B838A8387E3D5
:101DD000B0D2019741F699819093AA02E2CF6CEAC2
:101DE0007DE0CFCF60960FB6F894DEBF0FBECDBFBB
:101DF000DF91CF911F910F91FF90EF90DF90CF90E7
:101E0000BF90AF909F908F907F906F905F904F901A
:101E10003F902F900895AF92CF92DF92EF92FF9272
:101E20000F93CF93DF93C2E0D0E0A12CC12C90E5BB
:101E3000D92E93E4E92E97E4F92E01E020E048EB57
:101E40005BE060ED77E082E000DEC230D10539F47E
:101E500020E048E057E062EA7EEF82E0F6DD21977D
:101E600021F7A12CC12C80E5D82E83E4E82E87E44D
:101E7000F82E01E020E048E057E066E77FEF82E0DF
:101E8000E4DDDF91CF910F91FF90EF90DF90CF9045
:101E9000AF900895AF92CF92DF92EF92FF920F939F
:101EA000AB01A12CC12C20E5D22E23E4E22E27E4A5
:101EB000F22E01E020E0BC0180E0C7DD0F91FF9031
:101EC000EF90DF90CF90AF900895CF92DF92EF9296
:101ED000FF920F931F93CF93DF936C017A018B01D5
:101EE000C0E0D0E0CE15DF0581F0D8016D918D0105
:101EF000D601ED91FC910190F081E02DC60119957C
:101F0000892B11F02196EECF7E01C701DF91CF9191
:101F10001F910F91FF90EF90DF90CF90089508955B
:101F200080E090E00895FC01538D448D252F30E032
:101F3000842F90E0821B930B541710F0CF960895D6
:101F400001970895FC01918D828D981761F0828D23
:101F5000DF01A80FB11D5D968C91928D9F5F9F73DD
:101F6000928F90E008958FEF9FEF0895FC01918D7F
:101F7000828D981731F0828DE80FF11D858D90E0EC
:101F800008958FEF9FEF0895FC01918D228D892F89
:101F900090E0805C9F4F821B91098F739927089571
:101FA00080ED92E0F1DF21E0892B09F420E0822F1F
:101FB00008958DE693E0E8DF21E0892B09F420E025
:101FC000822F0895FC01848DDF01A80FB11DA35A53
:101FD000BF4F2C91848D90E001968F739927848F49
:101FE000A689B7892C93A089B1898C91837080646C
:101FF0008C93938D848D981306C00288F389E02D0D
:1020000080818F7D80830895EF92FF920F931F93BD
:10201000CF93DF93EC0181E0888F9B8D8C8D98139B
:1020200005C0E889F989808185FD25C0F62E0B8DD4
:1020300010E00F5F1F4F0F731127E02E8C8DE812F9
:102040000BC00FB607FCFACFE889F989808185FFBC
:10205000F5CFCE01B7DFF2CF8B8DFE01E80FF11D7A
:10206000E35AFF4FF0829FB7F8940B8FEA89FB8900
:10207000808180620AC09FB7F894EE89FF896083EF
:10208000E889F98980818370806480839FBF81E0C3
:1020900090E0DF91CF911F910F91FF90EF90089505
:1020A000CF93DF93EC01888D8823C1F0EA89FB8907
:1020B000808185FD05C0A889B9898C9186FD0EC0F7
:1020C0000FB607FCF5CF808185FFF2CFA889B989CB
:1020D0008C9185FFEDCFCE0175DFE8CFDF91CF91F9
:1020E00008950E9472201F920F920FB60F92112432
:1020F0000BB60F922F933F934F935F936F937F9302
:102100008F939F93AF93BF93EF93FF9380ED92E0F4
:1021100059DFFF91EF91BF91AF919F918F917F9187
:102120006F915F914F913F912F910F900BBE0F9048
:102130000FBE0F901F9018951F920F920FB60F921F
:1021400011240BB60F922F938F939F93EF93FF93CE
:10215000E091E002F091E1028081E091E602F091ED
:10216000E70282FD12C090818091E9028F5F8F7338
:102170002091EA02821751F0E091E902F0E0E05389
:10218000FD4F958F8093E90201C08081FF91EF910F
:102190009F918F912F910F900BBE0F900FBE0F90BC
:1021A0001F9018951F920F920FB60F9211240BB625
:1021B0000F922F933F934F935F936F937F938F93E0
:1021C0009F93AF93BF93EF93FF938DE693E0FADE77
:1021D000FF91EF91BF91AF919F918F917F916F91FF
:1021E0005F914F913F912F910F900BBE0F900FBEBB
:1021F0000F901F9018951F920F920FB60F921124F7
:102200000BB60F922F938F939F93EF93FF93E091D1
:102210007D03F0917E038081E0918303F09184033C
:1022200082FD12C09081809186038F5F8F73209111
:102230008703821751F0E0918603F0E0E359FC4FE9
:10224000958F8093860301C08081FF91EF919F91CC
:102250008F912F910F900BBE0F900FBE0F901F907C
:1022600018953FB7F89480910B0490910C04A091BD
:102270000D04B0910E0426B5A89B05C02F3F19F0A0
:102280000196A11DB11D3FBFBA2FA92F982F8827F6
:10229000820F911DA11DB11DBC01CD0142E0660F51
:1022A000771F881F991F4A95D1F70895AF92CF9253
:1022B000DF92EF92FF920F93A12CC12C20E5D22E3A
:1022C00023ECE22E26E4F22E01E021E048E057E084
:1022D000BC0182E0BADB0F91FF90EF90DF90CF90CE
:1022E000AF900895FC01A089B18982E08C93A48508
:1022F000B5851C92A685B78580E18C93108EA48944
:10230000B5898EE08C93A289B3898C9180618C937E
:10231000A289B3898C9188608C93A289B3898C91AE
:1023200080688C930288F389E02D80818F7D808383
:10233000089590E0FC01E356FC4F4491FC01E95BF9
:10234000FC4F2491FC01EF50FD4F9491992309F427
:1023500067C0442309F455C050E0FA013197E231D7
:10236000F10508F04EC08827EE58FF4F8F4F0C94B0
:102370005620809180008F7707C0809180008F7DEC
:1023800003C080918000877F809380003AC084B52D
:102390008F7702C084B58F7D84BD33C08091B0003B
:1023A0008F7703C08091B0008F7D8093B00029C0EB
:1023B000809190008F7707C0809190008F7D03C03F
:1023C00080919000877F809390001BC08091A00037
:1023D0008F7707C08091A0008F7D03C08091A000FF
:1023E000877F8093A0000DC0809120018F7707C068
:1023F000809120018F7D03C080912001877F809391
:102400002001E92FF0E0EE0FFF1FE952FD4FA591EB
:10241000B491EC91E22381E090E021F480E0089512
:1024200080E090E008958F929F92AF92CF92DF92DA
:10243000EF92FF920F93CF93DF934C0180910402B0
:10244000823019F4C8EBDBE002C0C8E8D3E187E3CF
:1024500070DF019771F0A12CC12C80E5D82E83E4A8
:10246000E82E87E4F82E01E021E0AE01B40181E01E
:10247000ECDADF91CF910F91FF90EF90DF90CF904A
:10248000AF909F908F9008958F929F92AF92BF923E
:10249000CF92DF92EF92FF926B017C01E2DE4B0163
:1024A0005C01C114D104E104F104E9F0DADEDC01DD
:1024B000CB0188199909AA09BB09883E9340A10557
:1024C000B10578F321E0C21AD108E108F10888EEDD
:1024D000880E83E0981EA11CB11CC114D104E10434
:1024E000F10421F7DECFFF90EF90DF90CF90BF9007
:1024F000AF909F908F9008951F920F920FB60F92FA
:1025000011242F933F938F939F93AF93BF93809109
:10251000CC029091CD02A091CE02B091CF02309129
:102520000A0423E0230F2D3720F40196A11DB11DCD
:1025300005C026E8230F0296A11DB11D20930A04B1
:102540008093CC029093CD02A093CE02B093CF02A1
:1025500080910B0490910C04A0910D04B0910E0495
:102560000196A11DB11D80930B0490930C04A093C0
:102570000D04B0930E04BF91AF919F918F913F9145
:102580002F910F900FBE0F901F9018952F923F9292
:102590004F925F926F927F928F929F92AF92BF9273
:1025A000CF92DF92EF92FF920F931F93CF93DF931F
:1025B000CDB7DEB760970FB6F894DEBF0FBECDBFC4
:1025C0007C011B016A01FC0117821682838181FF55
:1025D0002AC39E012F5F3F4F3901F7019381F1011B
:1025E00093FD859193FF81911F01882309F417C3FF
:1025F000853239F493FD859193FF81911F018532D6
:1026000031F4B70190E07AD756016501E6CF10E0CA
:10261000512C912CFFE1F915D8F08B3279F038F478
:10262000803279F08332A1F4F92DF0612EC08D3221
:1026300061F0803369F4292D21602DC0392D32607D
:10264000932E892D8460982E2AC0E92DE86015C04C
:1026500097FC2DC020ED280F2A3088F496FE06C086
:102660003AE0139F200D1124122F19C08AE0589EC2
:10267000200D1124522EE92DE0629E2E10C08E32C4
:1026800031F496FCCCC2F92DF0649F2E08C08C3634
:1026900021F4292D2068922E02C0883641F4F101E0
:1026A00093FD859193FF81911F018111B3CF9BEB26
:1026B000980F933020F4992D9061805E07C09BE9BC
:1026C000980F933008F059C1992D9F7E96FF16E020
:1026D0009F73992E853619F49064992E08C086361A
:1026E00021F4392F3068932E02C01111115097FE3A
:1026F00007C01C3350F444244394410E27E00BC020
:10270000183038F027E017E005C027E09CE3492E99
:1027100002C0212F412C560184E0A80EB11CF60105
:102720006081718182819381042DA3019FD56C0109
:10273000F981FC87F0FF02C0F3FF06C091FC06C0E0
:1027400092FE06C000E205C00DE203C00BE201C02C
:1027500000E08C858C7019F0011143C280C297FE95
:1027600010C04C0CFC85F4FF04C08A81813309F44D
:102770004A94141474F528E0241578F588E0482E5E
:102780002CC096FC2AC0812F90E08C159D059CF0F2
:102790003CEFC3163FEFD30674F0892D8068982E66
:1027A0000AC0E2E0F0E0EC0FFD1FE10FF11D8081B7
:1027B000803319F411501111F4CF97FE0EC0442448
:1027C0004394410E812F90E0C816D9062CF41C19B1
:1027D00004C04424439401C010E097FE06C01C14BA
:1027E0001D0434F4C601019605C085E090E002C0E6
:1027F00081E090E001110196112331F0212F30E0AA
:102800002F5F3F4F820F931F252D30E082179307D4
:1028100014F4581A01C0512C892D897041F45520A7
:1028200031F0B70180E290E069D65A94F8CF0023E6
:1028300021F0B701802F90E061D693FC08C05520AD
:1028400031F0B70180E390E059D65A94F8CF97FE63
:102850004AC04601D7FE02C0812C912CC6018819BE
:102860009909F301E80FF91FFE87ED8796012419F6
:102870003109388B2F87012F10E01195019511092F
:102880003FEF8316930621F4B7018EE290E036D62F
:10289000C814D9044CF08F8598898815990524F4BB
:1028A000ED85FE85818101C080E3F1E08F1A9108FA
:1028B0002D853E852F5F3F4F3E872D8780169106E1
:1028C00024F0B70190E01AD6DBCFC814D90441F444
:1028D0009A81963320F4953319F43C8534FF81E3D3
:1028E000B70190E048C08A81813319F09C859F7EB2
:1028F0009C87B70190E002D6111105C094FC16C068
:1029000085E690E015C0B7018EE290E0F7D51E5F36
:1029100082E001E0080FF301E80FF11D8081B701AB
:1029200090E0ECD5802F0113F4CFE8CF85E490E060
:10293000B701E4D5D7FC06C0C114D10441F4EC853D
:10294000E4FF05C0D194C194D1088DE201C08BE2AF
:10295000B70190E0D3D580E32AE0C216D1042CF071
:102960008F5FFAE0CF1AD108F7CFB70190E0C6D554
:10297000B701C601C096C2D549C1833631F083374D
:1029800079F0833509F052C01FC0560132E0A30E22
:10299000B11CF6018081898301E010E0630111C060
:1029A0005601F2E0AF0EB11CF601C080D18096FE58
:1029B00003C0612F70E002C06FEF7FEFC60139D511
:1029C0008C01F92DFF7713C0560122E0A20EB11C35
:1029D000F601C080D18096FE03C0612F70E002C076
:1029E0006FEF7FEFC6011AD58C01F92DF0689F2E8D
:1029F000F3FD18C0852D90E00817190798F4B7016A
:102A000080E290E07BD55A94F5CFF60197FC859152
:102A100097FE81916F01B70190E070D551105A94E3
:102A2000015011090115110581F7F0C0843611F02C
:102A3000893659F5560197FE09C024E0A20EB11C53
:102A4000F60160817181828193810AC0F2E0AF0E4C
:102A5000B11CF60160817181072E000C880B990B67
:102A6000F92DFF769F2E97FF09C090958095709560
:102A700061957F4F8F4F9F4FF0689F2E2AE030E087
:102A8000A30199D5C82EC6183EC0092D853721F45B
:102A90000F7E2AE030E01DC0097F8F3691F018F4D8
:102AA000883559F0BCC0803719F0883711F0B7C0AD
:102AB000006104FF09C0046007C094FE08C00660FE
:102AC00006C028E030E005C020E130E002C020E18F
:102AD00032E0560107FF09C084E0A80EB11CF601E0
:102AE000608171818281938108C0F2E0AF0EB11CD8
:102AF000F6016081718180E090E0A3015CD5C82E71
:102B0000C6180F77902E96FE0BC0092D0E7FC116AA
:102B100050F494FE0AC092FC08C0092D0E7E05C038
:102B2000DC2C092D03C0DC2C01C0D12E04FF0DC00C
:102B3000FE01EC0DF11D8081803311F4097E09C086
:102B400002FF06C0D394D39404C0802F867809F086
:102B5000D39403FD10C000FF06C01C2DD51478F4DB
:102B6000150D1D190CC0D51450F4B70180E290E08A
:102B7000C5D4D394F8CFD51410F45D1801C0512CEE
:102B800004FF0FC0B70180E390E0B8D402FF16C085
:102B900001FD03C088E790E002C088E590E0B7013E
:102BA0000CC0802F867851F001FF02C08BE201C07B
:102BB00080E207FD8DE2B70190E0A0D4C11630F4A9
:102BC000B70180E390E09AD41150F8CFCA94F30192
:102BD000EC0DF11D8081B70190E090D4C110F6CFCB
:102BE00015C0F4E0F51550F584E0581A93FE1EC0A8
:102BF000011125C02C8523FF27C008E011E0392DE5
:102C00003071932EF8018491811121C0552009F46F
:102C1000FCCCB70180E290E071D45A94F7CFF70171
:102C20008681978123C08FEF9FEF20C0B70180E29C
:102C300090E064D45A945110F9CFDACF512CB701F7
:102C4000802F90E05BD4D6CF0CE011E0D8CF91106C
:102C50008052B70190E052D40F5F1F4FD3CF23E0D3
:102C6000251510F483E0C1CF512CC4CF60960FB668
:102C7000F894DEBF0FBECDBFDF91CF911F910F91B2
:102C8000FF90EF90DF90CF90BF90AF909F908F908C
:102C90007F906F905F904F903F902F900895789421
:102CA00084B5826084BD84B5816084BD85B5826051
:102CB00085BD85B5816085BD80916E008160809302
:102CC0006E0010928100809181008260809381006B
:102CD000809181008160809381008091800081607B
:102CE000809380008091B10084608093B1008091D6
:102CF000B00081608093B0008091910082608093E9
:102D0000910080919100816080939100809190006A
:102D10008160809390008091A10082608093A100E7
:102D20008091A10081608093A1008091A0008160CA
:102D30008093A00080912101826080932101809185
:102D40002101816080932101809120018160809325
:102D5000200180917A00846080937A0080917A00CB
:102D6000826080937A0080917A00816080937A00FB
:102D700080917A00806880937A001092C1003F9A17
:102D8000269A259A47982E982D981092AC02109268
:102D9000AB0280E090E00E949F0C8091AB0290918A
:102DA000AC020E949F0C80E090E00E94010368EE5C
:102DB00073E080E090E068DB8DE693E093DA0EEB61
:102DC00012E087E49BE09093C7028093C6028DE3F4
:102DD0009BE09093C9028093C80293E0992E909251
:102DE000C1021092CB021092CA0280ED92E07ADA10
:102DF000CDEAD2E080E49BE09093B6028093B502E6
:102E00008AE39BE09093B8028093B7029092B0025D
:102E10001092BA021092B90281E090E00E94010380
:102E20001093100400930F041093120400931104E4
:102E300080ED92E09F938F93DF93CF9343D384B140
:102E4000817F84B984B1866084B982E090E00E9479
:102E5000010380E00E946F0C83E090E00E94010378
:102E60001092BD021092BC0280917A00876080931C
:102E70007A0080917C00806480937C0080917A004D
:102E8000806880937A0080E280937E0010927D00BB
:102E900084E090E00E9401030F900F900F900F903C
:102EA000C2E3D0E02BED622E2EE2722E32E3832EAF
:102EB000912CA12CC12C00E5D02E03E4E02E07E4D8
:102EC000F02E01E020E040E050E061E070E080E0C2
:102ED0000E94250DC3010197F1F7CE01B4010E94B4
:102EE0004320660F771F81E090E002C0880F991F92
:102EF0006A95E2F70E94D30C2197D9F6C2E3D0E09D
:102F0000ABED4A2EAEE25A2EBEEC6B2E77247A94AD
:102F100088248394912CA12CC12CE0E5DE2EE3E4DF
:102F2000EE2EE7E4FE2E01E020E040E050E06FEFFF
:102F30007FEF80E00E94250DC2010197F1F7CE01DD
:102F4000B3010E9443206C5F7F4F660F771FC4015F
:102F500002C0880F991F6A95E2F70E94D30C21974F
:102F6000D1F60E949D03C82F87E3E3D90197F1F4BE
:102F70000E949D038130C1F387E3DBD9019719F4E7
:102F80008AEA92E002C085E591E00E94D30C6CE2EF
:102F900071E080E090E078DA80E090E00E94D30C6D
:102FA0006CE271E080E090E06FDAE2CF80E00E94B6
:102FB000C102809104020E946F0CC23009F0D0C09F
:102FC00080E090E00E94D30C68EC70E080E090E03C
:102FD0005BDA8AEA92E00E94D30C60EB74E080E056
:102FE00090E052DA80E090E00E94D30C68E572E055
:102FF00080E090E049DA11E0C0E0D0E072E0872E96
:10300000912C80E091E00E94D30C61E070E080E0C0
:1030100090E03ADA80E092E00E94D30C61E070E048
:1030200080E090E031DACE01880F991F940102C050
:10303000220F331F8A95E2F7C9010E94D30C61E089
:1030400070E080E090E020DA0E949D03823049F039
:10305000843009F448C08130A1F6209791F221977D
:1030600047C0C230D105E1F144F4C130D10549F681
:1030700004E010E0C2E0D0E008C0C330D10509F49C
:10308000A0C0C430D105D1F1BCCF0E941C0A0E945F
:103090009D038230D1F78091020290910302980142
:1030A000281B390BC901880F991F9E0102C0220FEE
:1030B000331F8A95E2F7C9010E94D30C64EF71E0D7
:1030C00080E090E0E1D90E949D038230F1F684E037
:1030D00090E00E94340380E090E00E9434030EC030
:1030E00011118FCF0BC0C430D1050CF08ACF2196BF
:1030F00060E273E080E090E0C7D983CF80E090E0A9
:103100000E94D30C60E971E080E090E0BDD98AEACA
:1031100092E00E94D30C60E971E080E090E0B4D9C5
:1031200080E090E00E94D30C60E971E080E090E0E4
:10313000ABD980E090E00E94D30C80910202909184
:10314000030224E030E0281B390B220F331F81E0FB
:1031500090E002C0880F991F2A95E2F70E94D30CD5
:10316000C4E0D0E002E010E08DEA92E00E94C705E2
:103170008091BB02811122C00E941C0A0E949D0303
:103180008230E1F480910202909103028530910532
:10319000ACF49E01281B390BC901880F991F9801B7
:1031A00002C0220F331F8A95E2F7C9010E94D30C97
:1031B0000E949D03823011F40E944F040E945D0A18
:1031C000D3CF10E01ECFE0EDF2E01382128248EE82
:1031D00053E060E070E0448355836683778385E144
:1031E00092E0918380832DEC30E0358724872CECAE
:1031F00030E03787268728EC30E0318B208B29ECB4
:1032000030E0338B228B2AEC30E0358B248B2EEC94
:1032100030E0378B268B118E128E138E148EEDE6D6
:10322000F3E013821282448355836683778391830C
:10323000808385EC90E09587848784EC90E0978785
:10324000868780EC90E0918B808B81EC90E0938B73
:10325000828B82EC90E0958B848B86EC90E0978B50
:10326000868B118E128E138E148E0895283008F0DE
:1032700027E03327DA01990F311D87FD9160009611
:103280006105710539F432602E5F3D9330E32A9574
:10329000E1F708959F3F30F080387105610509F02E
:1032A0003C5F3C5F3D93913008F08068911DDF9357
:1032B000CF931F930F93FF92EF92192F987F9695BC
:1032C000E92F96959695E90FFF27E659FE4F992726
:1032D0003327EE24FF24A701E70105900894079403
:1032E00028F4360FE71EF81E491F511D660F771F81
:1032F000881F991F0694A1F70590079428F4E70EFC
:10330000F81E491F561FC11D770F881F991F661F82
:103310000694A1F70590079428F4F80E491F561F4C
:10332000C71FD11D880F991F661F771F0694A1F72D
:103330000590079420F4490F561FC71FD81F990FF7
:10334000661F771F881F0694A9F784911095177040
:1033500041F0D695C79557954795F794E7941A95F8
:10336000C1F7E0E1F1E06894159015913591659110
:10337000959105907FE27395E118F10A430B560B86
:10338000C90BD009C0F7E10CF11E431F561FC91F1E
:10339000D01D7EF4703311F48A95E6CFE894015085
:1033A00030F0080F0AF40027021708F4202F2395A5
:1033B000022F7A3328F079E37D932A95E9F710C03C
:1033C0007D932A9589F60694979567953795179575
:1033D0001794E118F10A430B560BC90BD00998F06A
:1033E00023957E9173957A3308F070E37C932013D4
:1033F000B8F77E9170617D9330F0839571E37D9392
:1034000070E32A95E1F71124EF90FF900F911F913F
:10341000CF91DF91992787FD90950895FC01059044
:10342000615070400110D8F7809590958E0F9F1FC6
:103430000895FC016150704001900110D8F780950B
:1034400090958E0F9F1F0895CF93DF93EC012B81F2
:1034500020FF33C026FF0AC02F7B2B838E819F81E4
:1034600001969F838E838A8190E029C022FF0FC03E
:10347000E881F9818081082E000C990B009719F4DE
:1034800020622B831AC03196F983E8830EC0EA8547
:10349000FB85199597FF09C02B81019611F080E2F9
:1034A00001C080E1822B8B8308C02E813F812F5F7A
:1034B0003F4F3F832E83992702C08FEF9FEFDF910D
:1034C000CF9108950F931F93CF93DF93CDB7DEB7BE
:1034D00008851985F801838188608383AE01445F84
:1034E0005F4F6A857B85C80151D8F8012381277F0A
:1034F0002383DF91CF911F910F9108950F931F9315
:10350000CF93DF93FB01238121FD03C08FEF9FEF5A
:103510002CC022FF16C04681578124813581421775
:10352000530744F4A081B1819D012F5F3F4F318348
:1035300020838C93268137812F5F3F4F37832683EB
:1035400014C08B01EC01FB010084F185E02D19957D
:10355000892BE1F6D80116968D919C9117970196CB
:1035600017969C938E931697CE01DF91CF911F9162
:103570000F910895CF93DF93CDB7DEB72E970FB697
:10358000F894DEBF0FBECDBF8DE08C838C899D8902
:103590009A838983AE01485E5F4F6E897F89CE0131
:1035A000019619D22E960FB6F894DEBF0FBECDBF8E
:1035B000DF91CF910895FA01AA27283051F12031E7
:1035C00081F1E8946F936E7F6E5F7F4F8F4F9F4FB7
:1035D000AF4FB1E03ED0B4E03CD0670F781F891FF9
:1035E0009A1FA11D680F791F8A1F911DA11D6A0FC7
:1035F000711D811D911DA11D20D009F468943F917A
:103600002AE0269F11243019305D3193DEF6CF0178
:103610000895462F4770405D4193B3E00FD0C9F73E
:10362000F6CF462F4F70405D4A3318F0495D31FDAB
:103630004052419302D0A9F7EACFB4E0A6959795FE
:10364000879577956795BA95C9F7009761057105D4
:1036500008959B01AC010A2E06945795479537951E
:103660002795BA95C9F7620F731F841F951FA01D78
:10367000089520FD09C0FC0123FD05C022FF02C002
:103680007383628351834083089544FD17C046FDD0
:1036900017C0AB01BC01DA01FB01AA0FBB1FEE1F73
:1036A000FF1F1094D1F74A0F5B1F6E1F7F1FCB01C6
:1036B000BA01660F771F881F991F09C033E001C048
:1036C00034E0660F771F881F991F3150D1F7620FC2
:1036D000711D811D911D08950F931F93CF93DF934B
:1036E0008C01C801B1DEEC0197FD06C08BD2892B9D
:1036F000C1F7B801CE0199D2CE01DF91CF911F91D0
:103700000F9108958F929F92AF92BF92EF92FF9286
:103710000F931F93CF93DF938C01D62F7A01B22E94
:1037200093DE9C0133272B32310531F02D323105E8
:1037300059F48B2D8068B82ED15011F480E061C00F
:10374000C80182DE97FDFACFCB2DCD7F2B2D2073C4
:10375000F9F48033E9F4AA24AA94AD0E09F43EC02A
:10376000C80172DE97FD3AC09C012F7D33272835B2
:10377000310541F4C264D25089F1C80165DE97FF7A
:1037800007C02CC0B6FE02C0C26001C0C261DA2D03
:10379000812C912C540120ED280F283078F0C4FFA3
:1037A00003C0B80142D217C02A3040F0C6FFF9CF9B
:1037B0002F7D3FEE320F3630A0F727504C2FC5013A
:1037C000B40163DF4B015C01C260D15051F0C8010C
:1037D0003BDE97FFE0CFC1FD04C0B0CF812C912C20
:1037E0005401C7FF08C0B094A09490948094811CA9
:1037F000911CA11CB11C2C2FB501A401C70139DFFC
:1038000081E0DF91CF911F910F91FF90EF90BF90DA
:10381000AF909F908F9008955F926F927F928F925A
:103820009F92AF92BF92CF92DF92EF92FF920F934F
:103830001F93CF93DF93CDB7DEB7A0970FB6F89461
:10384000DEBF0FBECDBF5C01962E7A01F9018E015D
:103850000F5F1F4F680180E2D8011D928A95E9F73A
:10386000D50113968C9080E090E0612C712C30E0B3
:1038700061E070E083FC259183FE21918F01522E3F
:10388000211103C080E090E090C02E3511F4009724
:1038900051F1432F50E0481759073CF42D3559F1A9
:1038A0002D3219F4772009F103C0772009F468C09C
:1038B000452D469546954695D601A40FB11D452D3B
:1038C00047708B0102C0000F111F4A95E2F7A80153
:1038D0005C91452B4C93651459F0561410F4539495
:1038E000E7CF5A94E5CF31E004C07724739401C048
:1038F000712C0196BFCF772019F08E8180628E8364
:10390000311103C08824839417C0F6019E012F5DF6
:103910003F4F8081809581932E173F07D1F7F2CFDB
:10392000E114F10429F0D7018C93F70131967F015E
:103930009A94812C9920E9F0C50186DD97FD17C086
:10394000FC01FF2723E0F595E7952A95E1F7EC0DBB
:10395000FD1D208130E0AC014770552702C0359530
:1039600027954A95E2F720FDDBCFB5015ED18110A6
:1039700089CFE114F10411F0D7011C92C80115C0E0
:10398000422F469546954695D601A40FB11D422F6C
:1039900047708B0102C0000F111F4A95E2F7A80182
:1039A0005C91452B4C93622EA4CFA0960FB6F89451
:1039B000DEBF0FBECDBFDF91CF911F910F91FF9062
:1039C000EF90DF90CF90BF90AF909F908F907F90BF
:1039D0006F905F9008955F926F927F928F929F9207
:1039E000AF92BF92CF92DF92EF92FF920F931F930D
:1039F000CF93DF936C01EB015A01FC011782168211
:103A0000512CF601E380FE01E3FC8591E3FE8191F8
:103A1000182FEF01882309F4E0C090E0F3D0892B40
:103A200019F0C60159DEEDCF153241F4FE01E3FC79
:103A30001591E3FE1191EF01153271F4C60104DD19
:103A400097FDC9C0412F50E09C013327241735074B
:103A5000C1F2B601EAD0C1C01A3239F4E3FC1591C3
:103A6000E3FE1191EF0101E001C000E0F12C20ED37
:103A7000210F2A3078F402606F2D70E080E090E032
:103A800040E203DEF62EFE01E3FC1591E3FE119108
:103A9000EF01EDCF01FF03C0F11003C09EC0FF2472
:103AA000FA94183619F01C3651F010C0FE01E3FCF0
:103AB0001591E3FE1191EF01183641F4086004609E
:103AC000FE01E3FC1591E3FE1191EF01112309F4CE
:103AD00084C0612F70E08AE092E09CD0892B09F4C9
:103AE0007CC000FD07C0F50180809180C501029671
:103AF0005C0102C0812C912C1E3649F4F6014681EE
:103B0000578160E070E0202FC401B3DD7ACF133617
:103B1000A1F401FD02C0FF24F394C60195DC97FDDA
:103B20005AC08114910429F0F4018083C4010196E4
:103B30004C01FA94F110F1CF4AC01B3551F49E01AB
:103B4000A4016F2DC60168DEEC01892B09F03FC08E
:103B500039C0C601C1DD97FD3EC01F3649F128F4CA
:103B6000143621F1193639F125C0133771F01537A4
:103B7000E9F020C08114910429F0F4016082C401AD
:103B800001964C01FA94FF2059F0C6015DDC3C011E
:103B900097FD06C037D0892B69F3B601C30145D024
:103BA00081149104A1F0F401108211C0006203C0DD
:103BB000006101C00064202FA4016F2DC601A2DDA9
:103BC000811105C0F6018381807329F406C000FDD0
:103BD00018CF539416CF552019F0852D90E002C0D0
:103BE0008FEF9FEFDF91CF911F910F91FF90EF909B
:103BF000DF90CF90BF90AF909F908F907F906F900D
:103C00005F90089591112AC0803219F08950855033
:103C1000D0F70895FC010590061621F00020D9F791
:103C2000C00108953197CF010895FB01238120FF42
:103C300012C026FD10C08F3F3FEF930761F08283D3
:103C40002F7D2064238326813781215031093783DA
:103C50002683992708958FEF9FEF08959927882746
:103C600008955058BB27AA270ED070C161D130F0FB
:103C700066D120F031F49F3F11F41EF456C10EF4CA
:103C8000E095E7FB4CC1E92F72D180F3BA176207C8
:103C900073078407950718F071F49EF58AC10EF436
:103CA000E0950B2EBA2FA02D0B01B90190010C014C
:103CB000CA01A0011124FF27591B99F0593F50F464
:103CC000503E68F11A16F040A22F232F342F4427BC
:103CD000585FF3CF469537952795A795F0405395B4
:103CE000C9F77EF41F16BA0B620B730B840BBAF084
:103CF0009150A1F0FF0FBB1F661F771F881FC2F7EF
:103D00000EC0BA0F621F731F841F48F48795779502
:103D10006795B795F7959E3F08F0B3CF9395880FB9
:103D200008F09927EE0F979587950895D4D008F459
:103D300081E008950CD00AC102D140F0F9D030F0F2
:103D400021F45F3F19F0EBC0511134C1EEC00FD127
:103D500098F39923C9F35523B1F3951B550BBB2752
:103D6000AA2762177307840738F09F5F5F4F220FFF
:103D7000331F441FAA1FA9F333D00E2E3AF0E0E8F8
:103D800030D091505040E695001CCAF729D0FE2F44
:103D900027D0660F771F881FBB1F261737074807D6
:103DA000AB07B0E809F0BB0B802DBF01FF2793588C
:103DB0005F4F2AF09E3F510568F0B1C0FBC05F3FE6
:103DC000ECF3983EDCF3869577956795B795F79574
:103DD0009F5FC9F7880F911D9695879597F908956C
:103DE000E1E0660F771F881FBB1F62177307840708
:103DF000BA0720F0621B730B840BBA0BEE1F88F717
:103E0000E0950895BCD088F09F5790F0B92F99277E
:103E1000B751A0F0D1F0660F771F881F991F1AF0D5
:103E2000BA95C9F712C0B13081F0C3D0B1E008959E
:103E3000C0C0672F782F8827B85F39F0B93FCCF31F
:103E4000869577956795B395D9F73EF490958095CB
:103E5000709561957F4F8F4F9F4F0895E89409C0EB
:103E600097FB3EF490958095709561957F4F8F4FAD
:103E70009F4F9923A9F0F92F96E9BB279395F695C3
:103E8000879577956795B795F111F8CFFAF4BB0F41
:103E900011F460FF1BC06F5F7F4F8F4F9F4F16C0A5
:103EA000882311F096E911C0772321F09EE8872F2F
:103EB000762F05C0662371F096E8862F70E060E0EB
:103EC0002AF09A95660F771F881FDAF7880F969564
:103ED000879597F90895990F0008550FAA0BE0E808
:103EE000FEEF16161706E807F907C0F012161306BC
:103EF000E407F50798F0621B730B840B950B39F4FC
:103F00000A2661F0232B242B252B21F408950A2661
:103F100009F4A140A6958FEF811D811D089597F9A1
:103F20009F6780E870E060E008959FEF80EC08955F
:103F300000240A9416161706180609060895002488
:103F40000A9412161306140605060895092E039402
:103F5000000C11F4882352F0BB0F40F4BF2B11F476
:103F600060FF04C06F5F7F4F8F4F9F4F089557FDD5
:103F70009058440F551F59F05F3F71F04795880FD7
:103F800097FB991F61F09F3F79F08795089512166E
:103F900013061406551FF2CF4695F1DF08C016161A
:103FA00017061806991FF1CF8695710561050894CB
:103FB0000895E894BB2766277727CB0197F90895E2
:103FC0000BD0C4CFB5DF28F0BADF18F0952309F085
:103FD000A6CFABCF1124EECFCADFA0F3959FD1F3CC
:103FE000950F50E0551F629FF001729FBB27F00DA7
:103FF000B11D639FAA27F00DB11DAA1F649F6627FC
:10400000B00DA11D661F829F2227B00DA11D621F4A
:10401000739FB00DA11D621F839FA00D611D221F04
:10402000749F3327A00D611D231F849F600D211DE8
:10403000822F762F6A2F11249F5750408AF0E1F08B
:1040400088234AF0EE0FFF1FBB1F661F771F881FD4
:1040500091505040A9F79E3F510570F060CFAACF14
:104060005F3FECF3983EDCF3869577956795B795BF
:10407000F795E7959F5FC1F7FE2B880F911D9695E9
:10408000879597F9089597FB072E16F4009406D0AC
:1040900077FD08D013D007FC05D03EF490958195AC
:1040A0009F4F0895709561957F4F0895EE0FFF1F04
:1040B000881F8BBF0790F691E02D1994AA1BBB1B9C
:1040C00051E107C0AA1FBB1FA617B70710F0A61B18
:1040D000B70B881F991F5A95A9F780959095BC0139
:1040E000CD01089581E090E0F8941AC0FB01519150
:1040F0005523A9F0BF01DC014D9145174111E1F7AE
:1041000059F4CD010190002049F04D914015411125
:10411000C9F3FB014111EFCF81E090E001970895D1
:04412000F894FFCF41
:10412400FFFFFFFF011E2323010A160107100123CD
:1041340023000000000410650F930F5010C40FA259
:104144000FB60F2121005430005431005432005472
:1041540033005434004C30004C31004C32004C33AA
:10416400004C3400433000553000453000453100E8
:0C41740045320045330045340052300055
:00000001FF
